:100000004FC300000C94DE2E84C3000082C30000A6
:1000100080C300007EC300007CC300007AC30000E0
:1000200078C3000076C300000C941C2D0C94042EA1
:100030000C94D12C6EC300006CC300006AC3000096
:1000400068C3000066C3000064C3000062C3000010
:1000500060C300000C94F82C5CC300005AC300007D
:1000600058C3000056C3000054C3000052C3000030
:1000700050C300004EC300004CC300004AC3000040
:1000800048C3000046C3000044C3000042C3000050
:1000900040C300003EC300003CC300003AC3000060
:1000A00038C3000036C3000034C3000007420921F2
:1000B00000000F280D2100000E000D210000050199
:1000C0000980A101850319012AB700150126B7008F
:1000D000950175108100C0050C0901A10185041965
:1000E000012AA002150126A002950175108100C009
:1000F00005010906A101050719E029E715002501F9
:10010000950875018102950175088101050719009F
:1001100029FF150026FF00950675088100050819BE
:1001200001290515002501950575019102950175B7
:10013000039101C009023B00020100A0FA0904007A
:1001400000010301010009211101000122440007FF
:1001500005810308000109040100010300000009F2
:100160002111010001223200070582032000011243
:100170000100020000000810CB56531005010200D8
:10018000011A0349007200690073002000520065E3
:100190000076002E0020003500610000000E034BA9
:1001A0000065006500620069006F0000000403093B
:1001B000040000000000000000000000000000003B
:1001C000000000000000000000000000000000002F
:1001D00000000000007E0F00D4FFFFFFC7000000FA
:1001E0007800000000000000002A2B28000000001A
:1001F00000000000000000000000000029000000D6
:10020000002C1E3420212224342627252E362D377B
:1002100038271E1F202122232425263333362E374C
:10022000381F0405060708090A0B0C0D0E0F1011E4
:1002300012131415161718191A1B1C1D2F313023F1
:100240002D350405060708090A0B0C0D0E0F1011B9
:1002500012131415161718191A1B1C1D2F313035BF
:100260004C2223252628292A2C2D2F3032333536AF
:10027000383A3B3D3E4042434547494A4C4E505137
:10028000535557595A5C5E6062646668696B6D6F5E
:1002900071737577797B7D7F81838587898A8C8E61
:1002A00090929496989A9C9E9FA1A3A5A7A8AAAC69
:1002B000AEAFB1B3B4B6B8B9BBBCBEBFC1C2C3C5A3
:1002C000C6C7C9CACBCCCDCED0D1D2D2D3D4D5D645
:1002D000D7D7D8D9D9DADADBDBDBDCDCDCDCDCDD78
:1002E000DDDDDDDCDCDCDCDCDBDBDBDADAD9D9D85C
:1002F000D7D7D6D5D4D3D2D2D1D0CECDCCCBCAC9F4
:10030000C7C6C5C3C2C1BFBEBCBBB9B8B6B4B3B122
:10031000AFAEACAAA8A7A5A3A19F9E9C9A989694BD
:1003200092908E8C8A89878583817F7D7B79777592
:1003300073716F6D6B6968666462605E5C5A595771
:10034000555351504E4C4A4947454342403E3D3B30
:100350003A3836353332302F2D2C2A2928262523BA
:1003600022FFAA7F554000010101010101010101A5
:100370000202020202020202020303030303030356
:100380000304040404040404050505050506060623
:100390000606070707070708080808090909090AE0
:1003A0000A0A0B0B0B0C0C0C0D0D0D0E0E0E0F0F85
:1003B0000F10101111111212131314141515161613
:1003C0001717181819191A1A1B1B1C1D1D1E1E1F82
:1003D0002020212222232424252626272829292AD1
:1003E0002B2C2D2D2E2F30313232333435363738F9
:1003F000393A3B3C3D3E3F404142434445464748F5
:10040000494A4C4D4E4F50515354555658595A5BCA
:100410005D5E5F616264656668696B6C6D6F70726A
:10042000737577787A7B7D7E8082838587888A8CD6
:100430008E8F91939596989A9C9EA0A2A3A5A7A90A
:10044000ABADAFB1B3B5B7BABCBEC0C2C4C6C9CB01
:10045000CDCFD1D4D6D8DBDDDFE2E4E7E9EBEEF0B7
:10046000F3F5F8FAFDFF1E0F0500047F3F1F64320D
:1004700014643214783C1E1E140A0529001E001F45
:1004800000200021002200350014001A0008001589
:10049000001700E00004241628074209210A22E17F
:1004A000001D001B0006001900050000000000E30D
:1004B000002352280028002A0027002600250024B7
:1004C0000023002D00130012000C0018001C003443
:1004D0000033240F280E000D210B222E0038003788
:1004E00000360010001100000000002B0021522CEB
:1004F00000010001000100010001000100010035C0
:10050000021E021F0220022102220201002F0030DF
:10051000002F023002010001000100010026022725
:100520000201000000000001002A0001000100019A
:100530000001000100010001000100310227022634
:1005400002250224022302310038024F00520051DA
:100550000050000100010001000100010001000045
:100560000000000100010001000100010001000184
:100570000001000100010001000100010001000173
:100580000001000100010001000100010001000163
:100590000001000100010001000100000000000155
:1005A0000001000100010001000100010001000143
:1005B00000010001000100477E467E457E010044A7
:1005C0007E437E427E417E407E01000100010001AB
:1005D0000001000100487E00000000010001000150
:1005E000000100007C010001000100010001000188
:1005F00000497E4A7E010001000100207821782315
:10060000782978277801000100227824782A782830
:10061000780100000000000100010001000100015C
:100620000001000100010001000100A800010026F6
:1006300000250024000100A9000100230022002160
:10064000000100AA00010020001F001E00010000A0
:10065000000000010027002B0001004C4C4C4C4CCA
:100660004C4C4C4C4C4C4C4C4C4C4C4C4C4C4C4CCA
:100670004C4C4C00004C4C4C4C5252525252525228
:10068000525252525252525252525252525252524A
:10069000520000525252520102E0200103E00000D9
:1006A00011241FBECFEFDAE0DEBFCDBF04B603FEDC
:1006B00019C08091CA049091CB04A091CC04B09150
:1006C000CD048730904BA740B04B61F41092CA0420
:1006D0001092CB041092CC041092CD04E0E0F8E329
:1006E000099500C024E0AEE6B2E001C01D92AA3C2C
:1006F000B207E1F712E0A0E0B1E0EEEBF3E602C0F2
:1007000005900D92AE36B107D9F70E9448280C9497
:10071000943176CCDC01ED91FD918191FE93EE93C5
:100720000895DC01ED91FD9184913196FE93EE9355
:1007300008959C0191509F31B0F4832F817034FF54
:100740000AC08295807F31FD806232FD806433FF74
:100750000BC08068089531FD826032FD846033FFF4
:1007600003C08860089580E008958093C604909344
:10077000C70408958093C8049093C904089521E0A4
:1007800030E002C0220F331F8A95E2F78091C8043F
:100790009091C904822B932BEDCF21E030E002C071
:1007A000220F331F8A95E2F7209530958091C80477
:1007B0009091C90482239323DDCF9A3090F586303F
:1007C00080F5E82FF0E086E0989FE00DF11D112400
:1007D00051E0E1FD54E0E0FD550FE2FD529583E06C
:1007E000F695E7958A95E1F7EE0FFF1FEE0FFF1FD5
:1007F000E250FC4F20E030E070E04191DF01CB019E
:10080000022E02C0969587950A94E2F78695880B8A
:100810008427852384278E932F5F3F4F2430310513
:1008200061F70895292F9A3070F5863060F590E0D1
:1008300036E0239F800D911D1124682F677023E0FF
:10084000969587952A95E1F7FC01EE0FFF1FEE0FB5
:10085000FF1FE250FC4F40E050E080E0219130E08B
:10086000062E02C0369527950A94E2F72170042ED1
:1008700001C0220F0A94EAF7822B4F5F5F4F44308A
:10088000510561F7089580E00895E0912C0490915E
:100890002B04E91302C080E008959F0159E0E59F11
:1008A000F0011124EA54FC4F5181561306C05081C7
:1008B000581303C05581541305C02F5F3F4FF901F2
:1008C000E770E7CF81E008958091B50390E020E0E4
:1008D000022E001C0008281709060CF008952F5F4F
:1008E000F7CFDC0180912604813049F514968C9174
:1008F0001497813021F59091230486E0E091220441
:10090000F0E0899FE00DF11D1124E55AF94F949113
:100910009A32A9F011962C91EE91F0E0829FE00DB1
:10092000F11D1124E55AF94FE49181E0EA3209F012
:1009300080E021E09E1301C020E0822B089581E039
:100940000895209148042D79A1F4903578F49032DF
:10095000C0F441E08333910539F0C0F441E08E31B9
:10096000910588F4049728F0842F0895392F36557F
:1009700011F040E0F9CF9C01205F3645273031056A
:10098000C0F390E0E6CF8C97A1F7EECFC69741E099
:10099000039750F3EECF80912C0420912B04281361
:1009A00001C0089501968770FACF90914B0480950D
:1009B000892380934B04282F277061F4891751F005
:1009C00090914D0492FF06C0869586958695E5DE4A
:1009D00010924B0408958095982F809148048923A4
:1009E000809348040895972F7A30C8F46630B8F49D
:1009F0008430C0F470E026E0929F600D711D1124D8
:100A00009CE3899F600D711D1124FB01EE0FFF1FF8
:100A1000E558FB4F85919591282F822F089520E06E
:100A200090E0FBCF21E0FCCF803E9105D1F1C8F4EE
:100A30008133910509F481C048F48932910509F4A4
:100A400071C08A32910509F47FC0089589339105F8
:100A5000E1F082389105C9F08533910509F45DC054
:100A60000895843E9105D1F148F4823E910531F11B
:100A7000833E910541F181EE90E00895863E910517
:100A8000C1F1873E9105F1F1089520914C04237046
:100A900009F064C020914D0423FF14C089E290E066
:100AA000089520914C0420FD45C030914D0430FF45
:100AB00009C024FD24C083EE90E0089520914C04E9
:100AC00022FDF7CF089520914C0422FD44C03091BF
:100AD0004D0430FD43C024FFF5CF11C020914D04DB
:100AE00021FFF0CF80914C0484FD09C087EE90E097
:100AF000089520914C0423FFE5CF24FFF7CF80E039
:100B000090E0089520914C0423FD2BC030914D04BA
:100B100031FFE1CF84EE90E0089520914C0425FF51
:100B2000D1CFBCCF20914C0425FD1EC020914D0497
:100B300023FFC8CF89E390E0089520914C0426FF5D
:100B4000C1CF8AE290E0089520914C0426FFBACFED
:100B500081E390E0089582EE90E0089580EE90E0C9
:100B6000089586EE90E0089585E390E008959091D1
:100B70004C0492FF10C041E0282F2471243009F06A
:100B800040E031E0282F2871283009F030E0431789
:100B900011F02CE0822793FF10C041E0282F247130
:100BA000243109F040E031E0282F2871283109F084
:100BB00030E0431711F02CE0822730914D0430FFD4
:100BC00010C051E0282F2171213009F050E041E0A0
:100BD000282F2871283009F040E0541711F029E03F
:100BE000822731FF10C041E0282F2171213109F007
:100BF00040E031E0282F2871283109F030E0431718
:100C000011F029E0822794FF02C083FD877E0895BA
:100C10000F931F93CF93DF9307DFEC01D23508F0DA
:100C20004DC0D03508F0C3C0C03ED10530F5CD3C35
:100C3000D10508F09AC0C83AD10578F4C53AD10573
:100C400008F090C0C130D10599F1CE010497813AE6
:100C5000910570F1C0E0D0E02BC0CE01885A910917
:100C60004B97C0F7C85AD0E0CC0FDD1FCF5FDD4FE8
:100C70000990D881C02DD4641BC0D03490F4D032F8
:100C800008F0A8C0C83ED10598F0CE0191509F3120
:100C900008F78D2F6CDF082F8C2F90E0C5DE902B8E
:100CA00054C08C2F90E0C0DEDF70C82FD92BD06AE3
:100CB000CE01DF91CF911F910F910895C03882E549
:100CC000D807B8F5C03682E5D80708F056C0C0345A
:100CD00082E5D807C8F4C03282E5D80708F047C0DB
:100CE0008C2F8695869520E2829FC0011124C370C7
:100CF00021E030E002C0220F331FCA95E2F7E9017C
:100D0000C82BD92BDD68D4CF8C2F8695869587701C
:100D100020E2829FC0011124C37021E030E002C0B4
:100D2000220F331FCA95E2F7E901C82BD92BDC68E3
:100D3000BFCFC03C82E5D80750F48C2F8F71C03AEA
:100D4000D24580F5982F84EF906AEC01B1CFCE01A7
:100D5000805C9245809708F07DCFDC2FDF71C0EF7B
:100D6000D06AA6CFA497D064A3CFD065A1CF8C2F93
:100D70008F71D82FC1EFD06A9BCF8C2F8695869527
:100D8000877020E2829FC0011124C37021E030E00F
:100D900002C0220F331FCA95E2F7E901C82BD92BF5
:100DA000DA6886CFE4DEC0E0D82FD06281CF8C2F06
:100DB0008F71DDDE93E0CC0FDD1F9A95E1F7DF70D8
:100DC000282F84FF04C090E1899F90011124C22F35
:100DD000D0696ECF8D2F8F71CADE082F8C2F90E0D7
:100DE00023DE902BEC01E1CFCF92DF92FF920F93A5
:100DF0001F93CF93DF936C010091C8041091C90435
:100E00008091C6049091C704082B192BCFE0D0E045
:100E100081E090E00C2E02C0880F991F0A94E2F73F
:100E200080239123892B61F4219790F7F12C8F2D4A
:100E3000DF91CF911F910F91FF90DF90CF90089598
:100E4000FC2EB6018C2FCFDDE3DE019769F3EFCFE7
:100E50001F93CF93DF93FC01278130852115310546
:100E600089F48581C081D181811589F0611579F07E
:100E7000CE01BADF182F682FCE019FDCBE01812F73
:100E8000B2DD9C01C901DF91CF911F910895CE0180
:100E9000C9DC182FF3CFCF93DF93EC01A5DFBE01A0
:100EA000A2DDB6DEDF91CF910895FC01848181152A
:100EB000A9F087819085009799F0AADE92959F709E
:100EC0009630C9F088F4925F9F70923038F491E0C8
:100ED000803F79F058F491E0883E58F090E009C0E6
:100EE00080819181D8DFEACF9A5FEECF91E0843F95
:100EF000A9F7892F089591E0813F09F090E021E062
:100F0000883E08F020E0922BF4CF80E00895F8941A
:100F1000E82FE295EF70F0E041A18F7021E001C071
:100F2000220F8A95EAF7922F9095942391A392A18C
:100F3000822F892B82A37894089581E080932F03D8
:100F400008950895CF92DF92EF92FF921F93CF936F
:100F5000DF93462F172FE82FF0E0EA59FC4F71116D
:100F60000CC0E4918E2F7E2F6E2FDF91CF911F91B9
:100F7000FF90EF90DF90CF900895F491EF2F86E0EF
:100F8000689FE00111242FEF30E0CE01B9010E94EB
:100F90004E30DB01CA01880F991F65E56A9FA001E9
:100FA0006B9F500D1124841B482F440F480FC9011B
:100FB000811B9109F89F7001F99FF00C11248F2D6E
:100FC000149FB0011124672F70E06901C61AD70A77
:100FD000B601F69F6001F79FD00C1124A330B10534
:100FE00049F1B901641B7109AB01149FB001159F50
:100FF000700D1124672F70E0261B370BF29FA001A4
:10100000F39F500D1124752FCC3FD34050F4A130E5
:10101000B105A1F0129709F0A7CFEF2D852F7F2FF3
:10102000A3CFA430B10569F0169709F49DCF7F2DA9
:101030008D2D9ACF7D2DEF2D8F2F96CF7F2FED2DDC
:1010400093CFE52F7F2DF8CFCF93762FC22F682F28
:10105000842F78DF472F909116012C2F291B922F78
:10106000282F892F90E05FD3CF910895CF9380915F
:10107000400480FF03C06CD6CF910895C091180141
:1010800080911901C817B8F7809116019C2F981B01
:1010900020E040E060E0892F90E045D3CF5FF0CFC3
:1010A0000F931F93CF93DF93D82F162F042F809188
:1010B0004004C091180180FD10C0DF91CF911F91B5
:1010C0000F910895809116019C2F981B202F412F7E
:1010D0006D2F892F90E027D3CF5F80911901C8171A
:1010E00088F3C4DFEACF762F9091400490FF08C0C8
:1010F000682F842F27DF962F672F482F892FD0CF77
:101100000895CF93DF93EC01E0E4F4E04381628142
:101110008C81E9DF8C818F5F8C83DF91CF91089583
:1011200010923E0480913F04846080933F040895B0
:10113000CF93DF93EC01EC81F0E0EF59FD4F449148
:10114000E0E4F4E062818181CEDF8C818F5F8C836B
:10115000DF91CF9108950F931F93CF938C01C0E03F
:1011600060911A01C61768F081DFF80184819281CD
:1011700090FF1DC08F5FF8018483CF911F910F9165
:101180000895209118012C0F3327331F70E08FEF43
:1011900090E00E946230F801848140914304C69F30
:1011A000800D1124609142044FDFCF5FD9CF815071
:1011B000E2CFA0E0B0E0EFEDF8E00C94F22FEC010C
:1011C0008A8101E080FD0FEF8C81811109C001301F
:1011D00019F480911A0181508093F70281E08C8389
:1011E00010E080911A011817B0F040DF9091F702DB
:1011F000013009F051C080911A018150911519F008
:10120000892F815091E08093F7029C83CDB7DEB7A0
:10121000E9E00C940E308091180190911601891B21
:10122000810F20E040E060E090E07DD294E0E92E84
:10123000F12CB12CC12ED12C8091F7028B0D8D3069
:101240002CF16CE00E944130892F082E001C000810
:101250008C150D04A1F4809118019601280F311D01
:10126000409143045E2D5403A001112455954795E8
:10127000559547956091420480914104E5DEB00E9A
:1012800081E0E81AF108C1F61F5FABCF87FFDDCF21
:1012900090911A01890FD9CF892F90E00196609122
:1012A0001A0170E00E946230982FADCF1F93CF9348
:1012B000DF93EC018C81811109C081E08C83109255
:1012C000F60292E0909306018093050110911801B7
:1012D00080911901181740F110E060911A0116175A
:1012E00078F1C4DE809105019091F602980F9093F9
:1012F000F60220910601280F20930601121654F4DD
:1013000020911A012150330B092E001C000892175E
:10131000030634F0819580930501813009F41C8225
:10132000DF91CF911F91089580911601912F981B05
:1013300020E040E060E0892F90E0F5D11F5FC8CF4A
:10134000E12FF0E070E0CF010E946230209118019F
:10135000820F9091F602092E001C0008E917F00593
:101360009CF090910601092E001C00089E170F06A4
:101370005CF0282F30E0409143046091420480915A
:10138000410462DE1F5FA9CF90911601891B20E006
:1013900040E060E090E0C7D1F5CFA0E0B0E0E3ED41
:1013A000F9E00C94F12FEC01FC812F2F30E0D901F2
:1013B0000E9463319B01AC010E9453317B018C017F
:1013C00080E290E08F1B9109FC01A5E59701A8013F
:1013D0000E9453315B016C019F01DF010E942030AC
:1013E0009B010E947B309B01AC012E0D3F1D401FD5
:1013F000511FB501C6010E947231022F30E00A323E
:1014000020F5A901440F551F420F531F55954795CD
:10141000142F1095F12C85E5801BE82E80911A0180
:10142000F81600F123DE9C8181E0911519F09032CD
:1014300019F48FEF8093040180910401890F8C834C
:10144000CDB7DEB7EAE00C940D3085E590E0821B65
:10145000930BAC01440F551F480F591FBAF64F5F4D
:101460005F4FD4CF8E2DF1FC802F209118012F0DCE
:101470003327331F412F60914204E6DDF394CECF32
:10148000CF93DF93EC01209143049C81892F8170DD
:1014900090FD822F692F627091FD622F492F447059
:1014A00092FD422FFDDD8C81019687708C83DF9148
:1014B000CF9108950F931F93CF93DF938C01C0E0DA
:1014C000D0E090911A01C917D1055CF0CFDDF80189
:1014D0008481019681708483DF91CF911F910F9158
:1014E0000895F8014481809118019E01280F311D53
:1014F00060914204809141049695C917D1053CF44E
:10150000411539F0409143049FDD2196DACF411512
:10151000C9F340E0F9CF0F931F93CF93DF93863049
:1015200080F581112FC0909180009F77909380006B
:101530002091860030918700A82FB0E00E9463318F
:1015400025E030E040E050E00E947231E901FA010C
:1015500080918600909187006CE070E00E944E3090
:101560006217730798F0C90169E070E00E944E307D
:101570007093890060938800DF91CF911F910F9144
:10158000089585E0909180009068D0CF809186008A
:1015900090918700209186003091870089012091E9
:1015A00086003091870066E070E00E944E30C60FE2
:1015B000D71FE11DF11D85E0CC0FDD1FEE1FFF1FC2
:1015C0008A95D1F7C80166E070E00E944E3040E095
:1015D00050E0260F371F411D511DBE01CF010E9453
:1015E0007231E901FA0180918600909187008C01A7
:1015F000B901CA010E9426309B01AC01D8010E94AA
:1016000053319B01AC01BE01CF010E942630770F00
:10161000BB27AA27881F991FAA1F209186003091F7
:101620008700281739071A061B0620F480918600C8
:1016300090918700BC019CCF863008F085E0209116
:101640002D042770982F990F990F990F922B909333
:101650002D0421E0983008F420E090912D0420FB27
:1016600090F990932D0457CF90916903292F30E082
:1016700070916A03A9014395437050E074171506F1
:1016800089F029593C4F60FB87F9F90184839F5FFA
:10169000937090936903809167038F5F80936703D2
:1016A00081E0089580E0089590E06115D1F0855EB5
:1016B0009E4FFC0180818F3F99F0E82FE295EF70FB
:1016C000F0E041A18F7021E001C0220F8A95EAF776
:1016D000922F9095942391A392A1822F892B82A37C
:1016E0000895845E9E4FE5CF90E06115A9F0855E78
:1016F0009E4FFC0120812F3F91F0E22FE295EF7089
:10170000E05EF0E0808190E02F7002C095958795B3
:101710002A95E2F781700895845E9E4FEACF80E0BB
:101720000895569A0895FC01EE0FFF1FE80FF91F68
:10173000EA56FD4F61834083228308951092570437
:101740001092580480917A01811104C0109279019D
:1017500010927B0180918101811104C0109280015F
:101760001092820180918801811104C0109287013A
:10177000109289010895AC0180915A046091590436
:10178000982F691301C00895292F30E0F901EE0F59
:10179000FF1FE15BFB4F0190F081E02DE417F5079F
:1017A000B9F4E0E0F0E04330510540F467E0649FB5
:1017B000F001659FF00D1124EB58FE4F41E044838A
:1017C0009813E1CF2F5F3F4F237020935A04089561
:1017D0002395922F9370D5CFFC01680F791F8FEF5F
:1017E00041E39191892728E030E0982F990F87FFF6
:1017F00009C0892F842721503040B9F7E617F70731
:1018000081F70895892FF7CFFC018581862351F454
:1018100092819115B9F06923818583FF05C081E02C
:1018200061110FC080E00895292F22952F709F70BD
:10183000292B962F92959F706F70962B81E029131C
:10184000F1CF089581E0089580919703811571F09B
:10185000E0919B03F0919C03309739F00190F08167
:10186000E02D309711F00995089580E00895A3E0E8
:10187000B0E0EDE3FCE00C94F92F2091910230915F
:10188000920228173907B1F0809391029093920247
:10189000E0919B03F0919C03309761F00084F18507
:1018A000E02D309739F023E029838A839B83CE0192
:1018B000019609952396E2E00C941530A3E0B0E080
:1018C000E4E6FCE00C94F92F20918F023091900215
:1018D00028173907B1F080938F0290939002E0911E
:1018E0009B03F0919C03309761F00084F185E02D1B
:1018F000309739F024E029838A839B83CE010196B7
:1019000009952396E2E00C9415309C01FC01329677
:1019100080E09FEF4081461759F031969F3F19F4C0
:10192000411101C0982F8F5F8630A1F79F3F09F4C6
:101930000895290F311D97FD3A95F90162830895A5
:10194000E2E7F2E09191891302C0DF011E9292E07A
:10195000E837F907B9F708958091130108952FB773
:10196000F89480918B0290918C02A0918D02B0919D
:101970008E022FBF08952FB7F89460918B0270915B
:101980008C0280918D0290918E022FBF08958091DC
:101990009703811539F0EFDF462F572FBC01CB019C
:1019A000BA010895E8DFDC01CB0140919303509127
:1019B00094036091950370919603480F591F6A1F15
:1019C0007B1FEDCF80919703811509F0C8CFDFDF32
:1019D000CB010895CF92DF92EF92FF92CF93DF93E6
:1019E000EC01C0903504D0903604E0903704F090BC
:1019F0003804C1DFDC01CB018C199D09AE09BF0998
:101A0000843F9140A105B10508F1B5DF6B017C0170
:101A100082E390E0C0921503D0921603E092170380
:101A2000F092180380931103909312031092130302
:101A300010921403CE01C093330490933404DF91C9
:101A4000CF91FF90EF90DF90CF90089584EF91E0D9
:101A5000E1CF08950895FC01209181023091820226
:101A60002617370748F06115710529F49091E800B1
:101A70009E779093E8009B0190E02115310541F499
:101A8000911106C08091E80082FF32C080E0089585
:101A90008091FB028115C1F18530C1F18091E80090
:101AA00083FD30C08091E80082FDECCF8091E8009A
:101AB00080FFE3CF8091F3004091F200582F211571
:101AC000310519F04830510558F091E04830510582
:101AD00009F090E04091E8004E774093E800CDCFC8
:101AE00081918093F100215031094F5F5F4FE7CF23
:101AF0008091FB02811541F0853041F08091E80032
:101B000083FFC0CF81E0089582E0089583E00895C7
:101B1000982F9093E900891771F07091EC00209153
:101B2000ED005091F00021FD09C09F5F973089F7CB
:101B30008093E9000895762F242F50E03091EB0038
:101B40003E7F3093EB003091ED003D7F3093ED0010
:101B50003091EB0031603093EB007093EC002093F8
:101B6000ED005093F0002091EE0027FDDECF0895A8
:101B700080917B0287FF13C08091E80082FF06C03E
:101B80008091E8008B778093E80008958091FB02B4
:101B90008111F2CF08958091FB028115D9F38091D4
:101BA000E80080FFF8CF8091E8008E77ECCF20919D
:101BB000E4003091E50095E6A9012091EC00822F28
:101BC000817020FF06C08091E80080FF06C080E0A1
:101BD00008952091E80022FD1AC08091FB02811532
:101BE00089F0853089F08091EB0085FD0FC0209150
:101BF000E4003091E50042175307F9F29150E1F605
:101C000084E0089582E0089583E0089581E00895D6
:101C1000CF93DF93C8EDD0E088818F7E8883E7ED96
:101C2000F0E080818160808384E082BF81E08093E6
:101C30007A0288818E7F8883E2EE10821092DA0029
:101C4000A1EEB0E01C9288818F77888388818068BC
:101C5000888388818F7D888319BC1092FB02109243
:101C600079021092FA0210927802A0EE8C918B7F8A
:101C70008C9388818160888342E060E080E048DF67
:101C8000A1EEB0E08C918E7F8C93E2EEF0E080814B
:101C900081608083808188608083E0EE80818E7F98
:101CA0008083888180618883DF91CF910895E8EDFA
:101CB000F0E080818E7F80831092E2001092DA0043
:101CC0001092E100A0EEB0E08C9181608C93808155
:101CD0008F77808319BCA7ED8C918E7F8C93808148
:101CE0008F7E808310927A020895A0E0B0E0EBE747
:101CF000FEE00C94F12F7C016B015A0180916F037F
:101D00000AE010E08A3010F001E010E0C1E0D0E01D
:101D1000B601C701F5010995811115C021960C176F
:101D20001D078CF0CC9F9001CD9F300D300D1124FC
:101D300080E090E045E34A95F1F7000001968217B4
:101D40009307C1F7E5CFCDB7DEB7EAE00C940D30CD
:101D50003BB13F7B2BB120644FB7F89486E992E00A
:101D6000FC010196508168E02BB9000000C057FFCC
:101D70003BB9550F000000C000C000C03BB900C017
:101D80006A9591F752E08A3B950751F74FBF8FE56F
:101D900094E00197F1F700C0000008950F931F939E
:101DA000CF93DF93EB018A019091FB02943059F5B8
:101DB0008093E9008FEF9091E80095FD06C095EDC6
:101DC0009A95F1F700008150B1F78091E80085FF06
:101DD0001AC0EDDE811112C08091E80085FD06C0B9
:101DE0008091E8008E778093E800F3CF888180931C
:101DF000F1000150104011F02196EECF8091E800E3
:101E00008E778093E800DF91CF911F910F91089515
:101E1000CF93DF93EC0148E050E0BC0181E0BEDFEE
:101E200088E0FE01A3E8B2E001900D928A95E1F707
:101E3000DF91CF91089543E050E0BC0182E0AECF46
:101E400090914D0492FB222720F9281779F080FB0E
:101E500092F990934D0460914C0470914D0484E08C
:101E600090E00E94233182E00C94D5040895FC0197
:101E7000608186E090E00C94093190914804809153
:101E80004E04982B80914904811589F0982B80E0AD
:101E900022E732E0F90140812F5F3F4F41118F5F10
:101EA00042E028373407B1F781111092490480913C
:101EB0002F048095892390912E04892B80937002A2
:101EC00048E050E06DE973E080E792E00E94E13085
:101ED000892BB9F088E0E0E7F2E0ADE9B3E00190EA
:101EE0000D928A95E1F7E0919B03F0919C03309766
:101EF00041F00280F381E02D309719F080E792E005
:101F00000995089510924804E2E7F2E086E0119204
:101F10008A95E9F780E090E0AADC80E090E0CEDCF2
:101F200010924E04AACFEEDF8FEF94E32CE08150A5
:101F300090402040E1F700C0000088E19CE00FB62F
:101F4000F894A895809360000FBE90936000FFCF37
:101F5000CF93DF93EC018091B503883010F0D2DF8E
:101F600080E0E82FF0E0EE0FFF1FEB55FC4F9E01E5
:101F7000C08331838F5F8093B503DF91CF91089544
:101F8000AAE2B0E0E6ECFFE00C94F82F8BE792E0D9
:101F9000FC0101962091F100208322E08338920712
:101FA000B9F780917C02893009F457C0C8F48230B7
:101FB00009F4B2C0833009F482C0813081F180918C
:101FC000E80083FFE6C080917B0290917C029A300A
:101FD00008F0DFC0E92FF0E0EA56FE4C0C947530B3
:101FE0008A3009F489C08B3051F780917B028132AD
:101FF00031F780917F0290918002892B01F78091C7
:10200000E800877F8093E800B3DD81E090917D0256
:10201000911101C080E08093140174DFD0CF8091D2
:102020007B02813A61F68091E800877F8093E80027
:1020300080917F0290918002892B59F060E080E0CE
:1020400090E070E008DD8091E8008B778093E800F5
:10205000B6CF68E083E892E0F4CF80917B028132D2
:1020600009F0ADCF80917F0290918002029708F035
:10207000A6CF8091E800877F8093E8008091E800F8
:1020800082FF18C02091F3008091F200922F0297F6
:1020900031F48091F100813011F0863021F480918B
:1020A000F100809313018091E8008B778093E80022
:1020B0005FDD85CF8091FB028111E0CF80CF8091E1
:1020C0007B02813A09F07BCF80917F029091800260
:1020D000892B09F074CF8091E800877F8093E80016
:1020E0008091E80080FFFCCF809114018093F10083
:1020F0008091E8008E77DACF80917B02813209F0FF
:102100005ECF8091E800877F8093E80031DD809189
:102110007E028093120153CF80917B02813A09F0B5
:102120004ECF8091E800877F8093E8008091E8009F
:1021300080FFFCCF80911201D9CF803889F082389E
:1021400041F580917F028F70873018F58093E90008
:102150008091EB0085FB882780F91092E90006C08A
:102160008091FA02880F90917802892B9091E80073
:10217000977F9093E8008093F1001092F100809196
:10218000E8008E7723C0811116C080917D028130D6
:1021900009F18091E80083FF0AC08091E800877F01
:1021A0008093E8008091EB0080628093EB00AA9618
:1021B000E3E00C941430823061F780917D02811548
:1021C00079F01092E9008091E800877F8093E80021
:1021D000CFDCDFCF933009F080E08093FA02F1CFBB
:1021E00080917F028F70282F2150263090F68093A7
:1021F000E9002091EB0020FFE4CF933031F480918F
:10220000EB0080628093EB00DCCF9091EB0090615B
:102210009093EB0021E001C0220F8A95EAF720930A
:10222000EA001092EA008091EB008860EBCF811108
:10223000B0CF80917D028F77182F8091E300807856
:10224000812B8093E3008091E800877F8093E800F2
:102250008FDC8091E80080FFFCCF8091E3008068F4
:102260008093E30083E0111101C082E08093FB02C0
:1022700090CF8058823008F08CCF20917D02309131
:102280007E022C3D83E0380789F583E08A838AE269
:1022900089834FB7F894DE01139620E03EE051E2C7
:1022A000E32FF0E050935700849120FF03C0829504
:1022B0008F703F5F8F708A30B8F0895C8D931D926C
:1022C0002F5F243169F74FBF8091E800877F8093AB
:1022D000E8006AE270E0CE010196BDDB8091E80083
:1022E0008B778093E80055CF805DE8CF832F90E017
:1022F0008330910519F160F48130910509F46CC0C7
:102300008230910509F045CF8BE3E4E3F1E029C089
:1023100020917F02309180028132910509F453C0EF
:102320008232910509F035CF2130310508F45CC0C7
:1023300009F02FCF82E3EEEBF0E013C0822F90E0A4
:10234000213099F182309105B9F1009709F021CF40
:10235000EDEAF1E0E4918E2FEDEAF1E0009709F467
:1023600018CF2091E800277F2093E8002091810278
:10237000309182028217930708F49C0140E02115F6
:102380003105B1F5411134C08091E80082FDA6CF3E
:102390008091FB02811509F4A1CF853009F49ECF0D
:1023A0008091E80083FFF0CF99CFEDE9F1E0E4916F
:1023B0008E2FEDE9F1E0D2CFE1E8F1E0E4918E2F4C
:1023C000E1E8F1E0CBCF2130310550F009F0E1CE6A
:1023D00089E0EFE5F1E0C5CF82E1EFE6F1E0C1CFC2
:1023E00089E0E6E4F1E0BDCF84E4E0EFF0E0B9CFCE
:1023F0008091FB02811509F471CF853009F46ECF0D
:102400008091E80083FD6ACF8091E80082FDBCCF17
:102410008091E80080FFB3CF4091F3008091F200FB
:10242000942F2115310519F08830910550F041E0C5
:10243000089709F040E08091E8008E778093E800EB
:102440009ECF44914093F10031962150310901967D
:10245000E8CF803809F09DCE8091E800877F809397
:10246000E800809179028093F10089CE811191CEAC
:1024700080917D02182F823008F08BCE8091E80089
:10248000877F8093E8001093790272DB111599F031
:1024900084E08093FB0242E061EC81E039DB42E2C0
:1024A00061EC82E035DB8091FB02843051F482E004
:1024B000809315016ECE8091E30087FDE9CF81E026
:1024C000E8CF81E0F5CFCF93C82F811599F08450E4
:1024D000813A90F4E2E7F2E088E792E02081C217C7
:1024E00089F131968E179F07C9F76C2F80E792E02C
:1024F0000CDAC3DCCF9108958C2F805E883060F4B5
:10250000C77021E001C0220FCA95EAF78091480404
:10251000822B80934804EDCF8C2F855A833028F48A
:102520008C2F8452990BA3D9E5CFC85ACB3110F721
:10253000EC2FF0E0EE0FFF1FE95CFD4F80819181F1
:10254000BDD9D8CF8C2FFCD998DCCFCF811511F114
:10255000982F9450913A10F4F3D98FCC982F905E25
:10256000983058F4982F81E091FD84E090FD880F19
:1025700092FD82950E94EB04F0CF982F955A9330EC
:1025800018F480E090E073C9885A8B3118F480E029
:1025900090E094C908951F93CF93DF93182FC0E55F
:1025A000D0E0893311F0C0E0D0E0812F8CDF20979C
:1025B00031F4812FCBDFDF91CF911F9108958FE907
:1025C0009FE00197F1F700C000002197F0CF80E075
:1025D00090916A0320916903291711F1E92FF0E026
:1025E000E559FC4F8081282F2F779F5F9370909340
:1025F0006A03909168039F5F90936803211531F0FF
:10260000213041F487FF0AC08EE403C087FF04C075
:1026100089EAC1DF81E0DCCF8AEAFBCF8BE4F9CF26
:102620000895811531F090914804982B90934804B7
:1026300024CC0895811519F00E94EB041ECC089556
:10264000FF920F931F93CF93DF93C62FD42FF22EB9
:102650008115A1F060933B0482D9809393029093FB
:10266000940281E0C1FD84E0C0FD880FC2FD829527
:10267000D8DFCDB7DEB7E5E00C94123080913B0493
:1026800068132DC0009193021091940268D9801BA9
:10269000910B883C910518F51D2F105ECD1791F018
:1026A000C77001E0802F01C0880FCA95EAF7C2DF2A
:1026B000183040F48D2F877001C0000F8A95EAF71B
:1026C000802FAFDF8F2D67DF81E0D1FD84E0D0FD6B
:1026D000880FD2FD8295183060F6ACDFCACF81E05A
:1026E000C1FD84E0C0FD880FC2FD8295F6CF811543
:1026F00031F090914E04982B90934E04BECB0895E8
:102700001F93CF93DF93182FA0913104B09132041F
:10271000109709F445C010923304109234041092BB
:102720002F0410922E041796CD91DD9119979E01DA
:1027300031503F3100F4D1E0C11101C0D0E01A9610
:10274000ED91FD911C97309731F01C966D917D9124
:1027500080E00995D823D11531F08C2F8450813A2F
:1027600018F58C2FEDD81115A1F0E0913104F091FE
:102770003204818584FD0DC080913004811549F0BB
:10278000808191819C01215031092F333E4708F40B
:1027900021D973DB1092310410923204109230046C
:1027A000DF91CF911F91089568DB8C2FCFDEDBCFB7
:1027B0008F929F92AF92BF92CF92DF92EF92FF9251
:1027C0000F9388E090E00E94FF304B015C01609322
:1027D00040049092410480934204B09243041092CA
:1027E000440410924504109246041092470483E278
:1027F00090E00E94F7309401A5018092400430934C
:102800004104A092420450934304809344041092E4
:10281000450410924604109247040F91FF90EF90E8
:10282000DF90CF90BF90AF909F908F90089586E0FB
:1028300090E00E94F73080932D0482FD06C08DE168
:1028400080932D048DE294E012DB80912D0480337F
:1028500020F08770886280932D0490912D04892F39
:10286000817090FF04C0892F8695869586950C947B
:102870008B0A0F93CF93DF93C0E4D4E04881598152
:102880006A817B8188E090E00E941B316C81262F59
:1028900060E070E0CB01622F83E20E940931DF919A
:1028A000CF910F9108958DE28093400410924104DE
:1028B0008FEF8093420480E8809343041092440495
:1028C00080913F04836080933F0480E494E0D1CF03
:1028D00080914404833018F48F5F8093440480E433
:1028E00094E0C7CF80914404811519F08150809302
:1028F000440480E494E0BDCFA0E0B0E0E2E8F4E17D
:102900000C94F42FC82FE62E142FD22E20914004C1
:1029100020FF35C0809141048C1308C0909142047F
:10292000961304C090914304941729F090913F04AA
:10293000926090933F04322F36953695E32FF0E066
:10294000EC53FE4F908190933D042C7F2430E1F4B2
:102950006C2F7E2D812F0E94A207962F672F482F64
:10296000892F0E9450088C2F80934104E0924204EA
:1029700010934304D11419F080E494E07ADFCDB7CA
:10298000DEB7E7E00C941030923019F41091430454
:10299000EACF963049F3993039F3993121F787EE30
:1029A000F82EF30EEF2DE695F0E0EF59FC4FD491A1
:1029B00000E060911A01061718F00E943608D3CF84
:1029C0000D9FC001112470E00E944E30862F8C0FA5
:1029D000F0FE02C08C2F861B20911801200F332798
:1029E000331F412F6E2D0E9424080F5FE2CFE0E4D9
:1029F000F4E0818121E043816281885F7DCFE0E462
:102A0000F4E0818121E043816281885075CFE0E468
:102A1000F4E0628128E0620F08F46FEF21E0438167
:102A200081816ACFE0E4F4E0628128E0621B08F46F
:102A300060E021E0438181815FCFE0E4F4E0438105
:102A400028E0420F08F44FEF21E06281818154CFEA
:102A5000E0E4F4E0438128E0421B08F440E021E098
:102A60006281818149CFCF92DF92FF920F931F93B2
:102A7000CF93DF936901E801082F880F110B4115EF
:102A80005105B1F0F80133E0EE0FFF1F3A95E1F781
:102A9000E85DFE4F81819281825C9C4FE0812E2F08
:102AA00030E04E17510508F49A01A9010E94EE305A
:102AB000C8010E947B2FF82E8115E1F02097D1F0FC
:102AC000C80123E0880F991F2A95E1F7FC01E85D12
:102AD000FE4F2381422F50E0C217D10508F4AE010A
:102AE000885D9E4FFC0164817581625C7C4FC601EC
:102AF0000E94EE308F2DDF91CF911F910F91FF90AB
:102B0000DF90CF900895A4E0B0E0E9E8F5E10C94FF
:102B1000F52FE0902B03F0902C0300912D031091E2
:102B20002E030E94BB0CDC01CB018E199F09A00B68
:102B3000B10B11E084369105A105B10510F10E9499
:102B4000C70CDC01CB010296A11DB11D89839A83BC
:102B5000AB83BC8300E010E0980144E050E0BE018C
:102B60006F5F7F4F85E07FDF182F811551F00E9446
:102B7000BB0C60932B0370932C0380932D039093D5
:102B80002E03812F2496E6E00C941130A1E0B0E0F2
:102B9000ECECF5E10C94E92F662E2A01190168018D
:102BA0008D019E012F5F3F4F40E050E0BA015BDF97
:102BB000182F8115B1F1F20180809180A280B3803D
:102BC0000E94BB0C7980681979098A099B096436CF
:102BD00071058105910530F4B701C6010E94EC0B27
:102BE0008715F9F08701910140E050E0BA01862D88
:102BF0003ADF082FB701C6010E94EC0B10E08711E5
:102C00000BC0102F117000FF07C00E94BB0CF20117
:102C10006083718382839383812F2196E2E10C94F8
:102C20000530A701B601C1010E94EE30F5CFA5E045
:102C3000B0E0EDE1F6E10C94F32F6B017D010FE3C1
:102C400013E0CE0101969C014AE353E061E080E08D
:102C50009DDF811559F095E09E012F5F3F4FF901EF
:102C6000A5E3B3E001900D929A95E1F795E0E5E3D5
:102C7000F3E0D60101900D929A95E1F72596E8E0F0
:102C80000C940F30A8E0B0E0E8E4F6E10C94F52FE6
:102C90007D0105E413E09E012F5F3F4F41E353E0C8
:102CA00063E082E073DF182F811599F1909144035E
:102CB00080913003981769F1909148038091470300
:102CC000891709F1E92FF0E0EE5BFC4F878187FB64
:102CD000662760F99F5F9370909348039091460335
:102CE0009F5F909346038F770E94340BF82E8111DB
:102CF000E3CF00E010E09801A801B80184E0B3DE62
:102D0000F8221F2D02C0F110F4CF8091440380936C
:102D10003003812F2896E6E00C941130A0E0B0E05B
:102D2000E4E9F6E10C94EF2FD82EEB01C42E590103
:102D30004801E880F9800A811B810E94BB0CDC01FC
:102D4000CB018E199F09A00BB10B84369105A1050B
:102D5000B10510F4C11479F000E010E09801A4016D
:102D6000B5018D2D80DE811539F00E94BB0C688382
:102D700079838A839B8381E0CDB7DEB7ECE00C9446
:102D80000B30A1E0B0E0E7ECF6E10C94F72F809176
:102D90002D0480FF16C0869586958695898341E02F
:102DA00090915103981301C040E08D019E012F5F67
:102DB0003F4F67E273E086E0B1DF2196E4E00C94D8
:102DC000133080E0EBCFABE0B0E0E9EEF6E10C943D
:102DD000F72F28E0E0E4F4E0CE010196DC01019059
:102DE0000D922A95E1F730913D0420913E045091D7
:102DF0003F0439872A875B8741E09C01511101C05C
:102E000040E00BE010E063E273E087E087DF8111D0
:102E100010923F042B96E4E00C941330A0E0B0E055
:102E2000E4E1F7E10C94ED2FFC018281882E94807F
:102E300081E08483E1E6F2E0A490E0EEF2E0E49148
:102E4000C0914304C695C158D0E0CC0FDD1FED2ED4
:102E5000F12CB12C05E01FEFEA198E2F90E03C0118
:102E600080911A01B81638F00E943608CDB7DEB747
:102E7000EEE00C940930CB2CD12C882D833058F403
:102E80000B9DF0011124E654FD4F80914104808395
:102E900080914204818391101CC00C9DF0010D9D16
:102EA000F00D1124E654FD4F138212828091180117
:102EB0009601280F311D0C9DF0010D9DF00D112480
:102EC000E654FD4F4281618180810E942408B394C1
:102ED000C7CF0C9DE0010D9DD00D1124C654DD4FD0
:102EE0008B818115E1F081508B83189FC0011124E3
:102EF0006C8170E00E944E3070E0FB01EF59FD4F95
:102F000084918A19189FC0011124B3010E944E3088
:102F100080914304689FB00111247A83C7CF0E9437
:102F2000C8306FEF70E00E9462308E159F050CF084
:102F3000BDCF882D833090F00E94C8306FEF70E0D5
:102F40000E94623088830E94C830209142042695F6
:102F5000622F70E00E946230280F29830C9DF001DF
:102F60000D9DF00D1124E654FD4F12828091430413
:102F7000893C58F088EC0C9DF0010D9DF00D11245A
:102F8000E654FD4F8483838391CF8431A0F784E19D
:102F9000F2CF609140046695669570E04BE050E09A
:102FA00087E091E00E94D430892B19F481E080936E
:102FB0003E040E94E20C80935D0390935E03809137
:102FC0003F04846080933F0408959091400490FFF3
:102FD00031C0811581F18B3280F58F73880F880F96
:102FE000909140049370892B8093400480913F041A
:102FF000816080933F04611519F080E494E039DC2E
:10300000609140046695669570E04BE050E087E083
:1030100091E00E94D430892B91F00E94900881E0C9
:103020008093600320E040914304609142048091CA
:10303000410462CC089581E0D1CF8AE2CFCFA9DFED
:10304000EECFA5E1B0E0E7E2F8E10C94F02FFE014D
:103050003C96DF018AE01D928A95E9F738E6C32E97
:1030600031E0D32E7F019E2EAF2C03E711E0F60155
:1030700081916F018F3F09F43DC0F894E82FE295EC
:10308000EF70F0E021A18F7041E001C0440F8A95FC
:10309000EAF7922F942B91A392A1842F80958923F4
:1030A00082A3789400C0EDE6F1E031E0B12C2191EB
:1030B0002F3F79F0A22FA295AF70A05EB0E08C9167
:1030C00090E02F7002C0959587952A95E2F780FFD2
:1030D000F1C080E0B82A330F0E171F0741F7F60141
:1030E00082918F3F11F00E94870780EA8A95F1F75D
:1030F000F701B0828FEFE81AF80A8DE6C81681E072
:10310000D80609F0B4CF4AE050E0692D7A2D89E85D
:1031100093E00E94E1307C01892B49F08AE0E92D9F
:10312000FA2DA9E8B3E001900D928A95E1F700919C
:10313000880310E010927D03D0907C03D11409F431
:103140008DC10E94AF0C40917A0350917B039C018A
:10315000241B350B80937A0390937B038417950788
:10316000C9F031112FEFE4E7F3E049E753E030E035
:1031700090E08191811539F0DF011197281708F44B
:103180009BC01C923D2D4E175F0799F73093790332
:1031900090937C03EF2861F4809179038115A1F16C
:1031A000D11006C00E94AF0C80937A0390937B03EA
:1031B0001092790330917C03C80182589C4F29E812
:1031C000E22E23E0F22EE4E7F3E020E055E0DC011C
:1031D0006D91CD01D7014D917D01641759F060814A
:1031E000611108C050839C0121503109D9014C93D1
:1031F00021E031E031964EE8E41643E0F40639F779
:1032000030937C0320937D0302581C4F80919703D9
:103210007E019FEFE91AF90A811509F486C0F701CA
:1032200085E011928A95E9F780916F038A3008F062
:1032300047C047E156E1B701C8010E94750E8115EC
:1032400009F461C042E456E1B701C8010E94750E5D
:10325000811509F458C043E855E1B701C8010E943F
:10326000750E811509F44FC041EC56E1B701C80154
:103270000E94750E811509F446C043EE56E1B70170
:10328000C8010E94750E8115F1F110926F038091B3
:10329000730390E045E050E0B70182589C4F0E94D4
:1032A000E13021E020937203892B09F56596EBE06C
:1032B0000C940C30832F0ECF821B8C939D2D63CFEB
:1032C000C0907003D09071030E94AF0C8C199D09BF
:1032D000843F914008F0ADCF80917203811531F3A6
:1032E000F70185E011928A95E9F710927203A09197
:1032F0007303B0E0A258BC4F85E0F70101900D9236
:103300008A95E1F7D3CF80916F038F3F39F40E9404
:10331000AF0C8093700390937103DECF8F5F809327
:103320006F038A3008F4B3CFF2CF85E0F801AFE342
:10333000B3E001900D928A95E1F765E070E08FE3CC
:1033400093E00E94EC0B80933E0388E0E7E6F3E015
:10335000A5E4B3E001900D928A95E1F768E070E092
:1033600085E493E00E94EC0B80934403A0904D030E
:10337000B0904E03C0904F03D090500380916303F0
:1033800090916403A0916503B0916603A816B906F5
:10339000CA06DB06C1F0A0926303B0926403C09238
:1033A0006503D09266030E94BB0CA61AB70AC80A2E
:1033B000D90AC501D6018093930390939403A093F7
:1033C0009503B0939603809151030E941C0B8BE0F0
:1033D000E2E5F3E0D70101900D928A95E1F7F090D4
:1033E0005303E0905403D090550300915B03109178
:1033F0005C0310925C03111509F458CF10FF0CC048
:1034000089819091400480FF19C09160909340049D
:1034100060E086958695D9DD11FF05C020E04D2D31
:103420006E2D8F2D69DA12FF03C00115A1F0B1DDF9
:1034300013FF3CCF81E08093600338CF9E7F909351
:1034400040040E94900880913F04816080933F0473
:103450000E943608E1CF0E949008EACFEF2809F4D5
:103460009BCEA0CE80914004869586958F5F8B324F
:1034700008F081E061E0A9CD8091400486958695B1
:10348000815009F48AE261E0A0CDA0E0B0E0EBE475
:10349000FAE10C94F02F6C015B01C501F60109956E
:1034A000813068F109F044C0C501F6010995813009
:1034B00029F4C501F60109956ED8EFCF823031F4B9
:1034C000C501F60109950E946312E7CF833029F404
:1034D000C501F60109953AD8E0CF843071F4C501F1
:1034E000F6010995C0E0D0E01AE0282F2053330BF5
:1034F0002A30310548F0209799F48111CECFCDB70D
:10350000DEB7EBE00C940C301C9FC0011D9F900DAA
:103510001124280F391FE901C501F6010995E5CFEE
:10352000EFE9FFE03197F1F700C000002197E3CF0A
:10353000E82FF0E0EF51FE4F9491992E282F269519
:103540002695269530E0F901EF52FE4F04918770E1
:1035500010E0082E02C0159507950A94E2F7F901CC
:10356000EF53FE4FE490F12C082E02C0F594E7943F
:103570000A94E2F72F543E4FF901C491D0E002C003
:10358000D595C7958A95E2F700FF03C081EE0E94AA
:103590006312E0FE03C086EE0E946312892D0E9432
:1035A0006312892D0E94A612E0FE03C086EE0E94DF
:1035B000A61200FF03C081EE0E94A612C0FF6DCFCD
:1035C0008CE27ACFA2E0B0E0E8EEFAE10C94F72FBB
:1035D0008C0187E996E089839A83CE010196BC012C
:1035E00081E993E052DFC80109839A83CE010196F5
:1035F000BC018AE893E049DF2296E4E00C941330A2
:10360000A0E0B0E0E6E0FBE10C94F32F7C01FC01CC
:103610008481811509F472C060E0C7010E94280707
:10362000F7012681203170F440912C0430912B0455
:10363000431317C030912704311521F0309128042D
:10364000303178F0F7013581311124C0903580F5A3
:10365000903208F03FC0883E9105C0F4803E91054D
:10366000C8F061E0C7010E942807EC01F701C5809E
:10367000C11409F47DC0FC01E054FE47EB30F105B4
:1036800008F060C0E056FE4C0C9475309C0131503F
:103690003F31E8F08093200490932104F701828168
:1036A000938180931E0490931F0410927301D9CFCD
:1036B000803422E5920720F4803222E59207D0CFB1
:1036C0009C01205832452036310520F7CACF8111A0
:1036D000E1CFC7CF2031F9CF8BE891E073DF809144
:1036E0004B04877059F0F7018581811539F080917D
:1036F0004D0482FF03C082E00E94D504CDB7DEB73F
:10370000E8E00C940F308DE891E0E8CF82EB91E097
:10371000E5CF8FE891E0E2CF81E991E0DFCF83E967
:1037200091E0DCCF85E991E0D9CF8DE991E0D6CF6A
:1037300085EA91E0D3CF61E081E047DCD0CF61E062
:1037400082E0FBCFC33088E7D80709F48DC008F0CA
:103750005EC0C13088E7D80709F484C0C23088E76A
:10376000D80709F4B2C0C11588E7D80709F472C0B8
:1037700080917401811509F47EC18E01005E1109EA
:10378000D0904A0480914804D82A80914904D82ACC
:103790000830110508F0C8C09E01277081E001C003
:1037A000880F2A95EAF7C11409F4B9C0D82AF7019D
:1037B000808191810E94120421E030E002C0220F3A
:1037C000331F8A95E2F7232B09F4C7C0083011058F
:1037D00008F034C18091310490913204845B9140AF
:1037E00009F4BBC06D2D84EB91E00E94040C81159F
:1037F00009F4B3C0CA32D10509F4F5C08091390487
:1038000090913A048A9709F0A8C0C12CEFC0C43047
:1038100088E7D80709F445C0C53088E7D80709F418
:1038200068C0CE358CE7D80709F475C0CF358CE772
:10383000D80751F0CD358CE7D80709F099CF8091A2
:103840007401811509F467C01092740180E00E9430
:10385000801345CF85E00E941C0B8DE294E00E940E
:10386000370F3DCF80E0F7CF80912D04883088F06E
:10387000885080932D0491E0883008F490E0809186
:103880002D0490FB80F980932D048DE294E00E943A
:10389000370F80912D048695869586950E948B0A18
:1038A0001ECF90912D04892F869586958695983206
:1038B00040F48F5F880F880F880F9770892B809353
:1038C0002D0480912D048160DECF80912D0480FF36
:1038D00009C08E7F80932D048DE294E00E94370F03
:1038E00080E0DCCF816080932D04813071F689E027
:1038F000CACF80912D048695869586958F5F8F71AE
:10390000863008F080E0880F880F880F90912D0492
:103910009770892BAECF81E080937401E0CE8095C3
:10392000D822D114D1F043CFC1104AC080913904BC
:1039300090913A04C817D90781F410923904109273
:103940003A04109235041092360410923704109203
:103950003804109233041092340480913104909111
:103960003204009709F487C00830110508F06FC0D1
:103970006D2D0E94040C811103C081E00E94801310
:10398000F7018581811509F492C410923B049E01D0
:1039900030572332310508F098C484E090E00E944B
:1039A000043180934C0490934D04FE01E150F047A4
:1039B000E232F10508F089C0E555FE4C0C947530F3
:1039C000C0933904D0933A040E94BB0C6093350431
:1039D0007093360480933704909338041092330424
:1039E000109234049ECFC11409F408CF80E00E94E5
:1039F000801384EB91E0809331049093320481E052
:103A00008093300482E280932F04C11003C08AE2C5
:103A10000E94A00C8CE490E00E94990380932E04F5
:103A20000830110570F48CE490E00E94EA0C0E94CA
:103A30003D0FC11401F10E943D0F51CEC110CACEFD
:103A40008CCF6CE480E792E00E94850CF2CFFC0101
:103A500020813181C217D30741F4C11008C01092F0
:103A6000300480E00E94801306C0C11421F0FC01E4
:103A7000818585FFF6CFF7018581FE01E851FC477E
:103A8000E730F10508F07ECFE353FE4C0C9475301F
:103A900026E241EE61EE0E94201321CE27E245EEA0
:103AA00065EEF9CF26E241EE60EEF5CF27E245EE76
:103AB00064EEF1CF26E241EE62EEEDCF27E245EE75
:103AC00066EEE9CF28E241E0EBCF80914C048160C3
:103AD00080934C0460914C0470914D0484E090E01C
:103AE0000E9423310E94820FFACD80914D0488609C
:103AF00080934D04EFCF80914C048260E9CF809198
:103B00004C048460E5CF80914C048860E1CF8091C3
:103B10004D048160EDCF80914D048260E9CF8091AA
:103B20004C048061D5CF80914C048062D1CF8091CC
:103B30004C048064CDCF0E94820F80914C04806839
:103B4000C7CF80914C048C60C3CF80914D048360BB
:103B5000CFCF80914C048E7FBBCF80914D04877F67
:103B6000C7CF80914C048D7FB3CF80914C048B7F65
:103B7000AFCF80914C04877FABCF80914D048E7F77
:103B8000B7CF80914D048D7FB3CF80914C048F7E51
:103B90009FCF80914C048F7D9BCF80914C048F7B75
:103BA00097CF0E94820F80914C048F7791CF8091A4
:103BB0004C04837F8DCF80914D048C7F99CF909161
:103BC0004C04892F8B7F92FF8460877F92FF8860EF
:103BD0007FCF80914D04982F909590FB80F990FBBA
:103BE00081F986CF90914C04892F8F7B96FF80645A
:103BF0006FCF0E94820F90914C04892F97FB87F919
:103C0000805866CF61E08EE090E00E94093162CF7B
:103C100060E0F9CF90914C04892F8F7E94FF8061F2
:103C200057CF90914C04892F8E7F90FF816050CFA9
:103C300090914D04892F877F93FF886059CF89E247
:103C400041C39272FE01E052F847EB30F10508F0F3
:103C500050C0EC52FE4C0C9475308091400480FFB3
:103C600011C08E7F8093400480E494E00E94391458
:103C70000E94900880913F04816080933F040E94DD
:103C800036082DCD81608093400461E0869586954D
:103C900054CD911521F0F0DB22CD9115E1F3E2DB5B
:103CA0001ECD911529F00E94FF1419CD9115D9F35D
:103CB0000E94F71414CD911529F00E9412150FCD12
:103CC0009115D9F30E9407150ACD911529F00E948C
:103CD000281505CD9115D9F30E941D1500CD91151C
:103CE00029F00E947214FBCC9115D9F30E9468143C
:103CF000F6CC9E01205E324520323105A0F48111C0
:103D000029C0CF7181E090E002C0880F991FCA9549
:103D1000E2F7EC01682F83E090E00E940931CE01C8
:103D20000E94B503DCCC811509F461C0CB359CE75A
:103D3000D90709F452C0CC359CE7D90709F442C031
:103D4000CA359CE7D90709F446C0C1309CE7D907BA
:103D500009F44BC0C3309CE7D90709F440C0C11532
:103D6000DC4709F044C00E94820F8FEF94E32CE0FF
:103D7000815090402040E1F700C0000081E0809336
:103D8000E00080E28093D8001092C9008FE19EE4A9
:103D90000197F1F700C00000A7E0B0EBCD018093E0
:103DA000CA049093CB04A093CC04B093CD0488E1D3
:103DB0009CE00FB6F894A895809360000FBE909396
:103DC0006000FFCF80914D04002482FF0394802D7A
:103DD0000E94200F84CC81E0FBCF80E0F9CF6FEF11
:103DE0007FEF80E090E00E9423310E94930FF70163
:103DF000278130852115310509F44FC0C9010E9482
:103E00000806D82FC92FF701C580068102950F70CB
:103E100080914B04877001F1DC2CC114F1F0892FE3
:103E2000807F803461F08D2F805E8830A8F0892FEC
:103E3000807E803221F4D23078F0011569F08091D3
:103E40004D0482FF09C082E00E94D50480914B049A
:103E50008770DD24D3948111D12C8C2F82958F70A3
:103E6000883009F414C108F048C0843060F51C2F74
:103E70001F70823008F452C0C07FC03211F012951A
:103E8000107FD13008F480C009F4C7C0C11409F410
:103E9000D1C0011509F496C056C000811181811569
:103EA00069F0C8010E94F406C82F682FC8010E945B
:103EB000DD03B8018C2F0E94F304A1CFC8010E943A
:103EC0001204C82FF6CF09F4C6C0D11409F416C1E4
:103ED00080914B0480FD12C1F7011582869586956D
:103EE00086950E94BF03C7018BDB80914B048695AA
:103EF000869586950E94CD0301C1893009F456C18B
:103F00008A5F8F70823008F7D23F09F060C18C2F32
:103F10008F71C11059C10E94BF03EEC0C03110F0B3
:103F20001295107FC114B9F0111569F08D2F805EC4
:103F3000883010F0D11109C080914804812B809302
:103F400048040E943D0F8D2F2FC080914E04812B7D
:103F500080934E04F6CF8D2F0E94A612111509F4FE
:103F6000B4CF8D2F805E883010F0D11104C0812F26
:103F70000E94EB0406C0109580914E04812380932B
:103F80004E040E943D0FA1CF80914D0482FD16C0CA
:103F9000C11469F0111539F080914804812B809388
:103FA00048040E943D0F80E00E9463128ECF80E0A3
:103FB0000E94A612111509F488CFD9CFC11499F027
:103FC000013020F4812F0E9411137FCF09F07DCFA3
:103FD00080914904912F9823191709F476CF812BEA
:103FE0008093490472CF011170CF812F0E941A1360
:103FF00090914904812F892329F0812F809589236D
:104000008093490480914A04912F982309F45DCF4D
:104010001095182310934A0458CFC11421F006308C
:1040200008F053CFCFCF053008F04FCF812F0E943B
:104030001A134BCF0115D1F3D93349F48FEF97EE13
:1040400023E0815090402040E1F700C000008D2F18
:104050000E94A6123ACF8C2F869586958370813068
:1040600060F009F032CF8D2F9C2F9370C11002C0E9
:1040700080E090E00E945E0C28CF8D2F9C2F9370E3
:10408000C11002C080E090E00E94370C1ECF8C2F40
:10409000837009F046C0C1102FC04D2F4295469540
:1040A0004770440F440F2D2F2F7030E0042E02C0B4
:1040B000220F331F0A94E2F780E090E0D4FF09C09A
:1040C0008FE090E002C0880F991F4A95E2F7809533
:1040D0009095C695C695C370C230D1F0C330A9F093
:1040E0004091C6045091C704C13069F0822B932BD4
:1040F000842395230E94B5030E94240C60E0C7012D
:104100000E942807FBCA242B352B822B932BF2CF3E
:10411000822B932B2091C6043091C70482279327CA
:10412000E9CFC11491F1C0FFE7CF4D2F42954695DD
:104130004770440F440F2D2F2F7030E0042E02C023
:10414000220F331F0A94E2F780E090E0D4FF09C009
:104150008FE090E002C0880F991F4A95E2F78095A2
:104160009095C695C695C370C230B9F0C33091F032
:104170004091C8045091C904C13051F0822B932B57
:10418000842395230E94BA03B7CF823070F6B4CF50
:10419000242B352B822B932BF5CF822B932B209125
:1041A000C8043091C90482279327ECCFCF70C11483
:1041B00039F08C2F0E94BF038D2F0E9411139CCFCA
:1041C0008D2F0E941A138C2F0E94CD0395CF70F46F
:1041D000D03FC9F0D13F91F0C11409F454C001158A
:1041E00009F44EC08D2F0E94631286CFD33F11F188
:1041F000D43F91F790914D0492FD2AC08C2F8F717E
:10420000C11411F388CEC11499F0053008F074CFB1
:10421000CF7181E090E002C0880F991FCA95E2F744
:10422000EC018091C8049091C9048C279D27AACFE6
:104230000630ECCF80E090E0C11409F4A3CFCF7139
:1042400081E090E002C0880F991FCA95E2F79ACFEB
:10425000C11461F08C2F8F7192FF5DCE982F990F52
:10426000990F990F936090934B0455CE81E00E9473
:10427000D504023008F440CF82E00E94D5043CCF40
:104280008C2F8F7148CE011579F0D93349F48FEF17
:1042900097EE23E0815090402040E1F700C00000FD
:1042A0008D2F0E94A61228CF8C2F8F718DCFC631F3
:1042B0009CE7D90709F01DCD80913C04811509F4D4
:1042C000BECC85E30E94A00CB6CB90914804C631C9
:1042D0002CE7D20709F0B5CC9A7A81E0911101C0A0
:1042E00080E080933C0465E3911101C069E280E7BE
:1042F00092E00E94850C9FCB80912804803170F45D
:1043000080912704811551F0E0912C0420912B0419
:1043100030912304409122042E1301C00895BF015F
:1043200089E0E89FF0011124DF01AA54BC4F1496E4
:104330008C911497811551F111968C9111978313DB
:1043400025C08C91841322C015968C9115978111EC
:104350001DC012968D919D91A0912404B0912504C9
:104360008A1B9B0B883C910588F4809128048F70F0
:10437000806180932804E454FC4F80818F708061B9
:10438000808382E294E03CD90C94CB046F5F7F4F32
:10439000FB01E770C1CFFF920F931F93CF93DF9381
:1043A000EC0180917301811539F0F12C8F2DCDB77F
:1043B000DEB7E5E00C9412300A811B81061B170B57
:1043C000043F81E0180788F760E0CE010E942807CB
:1043D0009C013052303348F70E94A104811529F323
:1043E00080912004909121040E94A104F82E81154F
:1043F000E1F206391105C8F68E818F7080618E83D7
:10440000888199810E94A80F0E946404CE01F8D887
:10441000CDCFAFE0B0E0EFE0F2E20C94EE2F8C01F4
:1044200086E0F801DE011A9601900D928A95E1F777
:10443000F801B080C180E280F380A480D580309103
:10444000B503E0E0D11409F43EC082E2882E84E096
:10445000982E80912604811160C0A11419F1D11405
:1044600009F473C2C8010E945507811509F46DC291
:1044700060911E0470911F04C8018DDF811112C06C
:1044800089E0F801D40101900D928A95E1F78091BD
:104490002604813031F480912204909123040E94FB
:1044A0004B072ADFFF24F3948FC0880F991F8B5589
:1044B0009C4FDC0111962C911197C21203C08C9174
:1044C0008B1549F0EF5F8E2F9E2F990F990B831755
:1044D00091055CF3BACFEF3F09F4B7CFD801169638
:1044E0008C918F7080618C93E317A0F431503093DE
:1044F000B503E31778F4F0E0EE0FFF1FEB55FC4F28
:10450000A32FB0E0AA0FBB1FAB55BC4F8D919D915F
:10451000808391830E94640498CF60E082E294E0FB
:104520000E9428079C017090270480912404909198
:104530002504A701481B590B711409F4BFC1483C5D
:10454000510508F08DC1A11409F4ACCF40912304AA
:10455000F801818190912804903108F035C1481309
:1045600053C040912204808148134EC060912904B9
:1045700070912A04478150856417750709F044C07B
:10458000D11042C09F7090619093280482E294E021
:1045900037D880912804F8018683C0902404F090D5
:1045A000250400912C0480912B04081751F089E018
:1045B000089F800111240A541C4FF8018581811144
:1045C00008C00E94CB04F12C8F2D2F96EDE00C94A7
:1045D0000A30D280E380C8010E94550781110DC0C6
:1045E000C8010ED880912C0490912D0401968770FB
:1045F00080932C04CD2CFE2CD4CF6C2D7F2DC801A4
:10460000CADE8111EFCFDDCF3052303308F089C0E0
:10461000D110A9C040E06C2D8B2D0E944504811162
:1046200024C040E06C2D8B2D0E94450440E06C2D91
:104630008B2D0E944504F82E8111C5CF8A859B855C
:104640000E944B07292F22952F70903408F072C0DA
:104650009F70223008F477C0911509F479C0F801F1
:104660009681903108F074C0AFCF60E0C8010E941D
:104670002807C8010E9471048111D3CF80912804BA
:104680008F7080618093280480912204909123048C
:104690000E94A80F82E294E00E94001BE2E2F4E094
:1046A00089E011928A95E9F700912C0480912B04FE
:1046B0000817A1F189E0089F80011124C8018A54DC
:1046C0009C4F7C01FC018581811589F0C7010E9406
:1046D0005507811561F0F801E454FC4F80818F701B
:1046E00080618083F701808191810E94A80FC701BA
:1046F0000E94001B80912C0490912D0401968770DC
:1047000080932C04F801EA54FC4F8181C812CCCF6D
:1047100080818B11C9CF8581811531F20E9464049B
:1047200050CFD11409F47DCF80912804816080930B
:10473000280449CF2A5F2F70223078F0C8010E94E8
:10474000001BF72C41CF911519F0811509F43CCFCE
:10475000805E883008F438CFF1CF803F08F434CF42
:10476000815F8330F7CF8091280481608093280493
:1047700060E0C8010E942807C8010E9471048111ED
:1047800022CF809128048E7F80932804C8010E9444
:104790005507811118CF809128048F708061809314
:1047A000280480912204909123040E94A80F0E9463
:1047B000640482E294E00E94001BE2E2F4E089E0FB
:1047C00011928A95E9F7FFCE48131DC0209122046B
:1047D0008081281318C04091290450912A04278110
:1047E00030854217530779F4D1100DC09683C80164
:1047F0000E94001B89E0F801A2E2B4E001900D9252
:104800008A95E1F74FCEC8010E945507811509F43A
:104810009CC0D11409F499C0809128048032B8F06A
:10482000209122043091230429833A83EB82FC8275
:10483000909126049D831E828F83809129049091FC
:104840002A0488879987CE0101960E94001B89E07F
:10485000F801A2E2B4E001900D928A95E1F721CE31
:1048600080912804803130F482E294E00E94001BA1
:10487000F401A5CFA11409F415CE20912304F80169
:1048800091812913C0CF2091220490812913BBCF9D
:104890004091290450912A042781308542175307FB
:1048A00009F0B1CFD110AFCF8683C8010E94001BA1
:1048B000F40189E011928A95E9F7F4CD483C51055D
:1048C000B8F6A11409F4EECDD11409F43EC09091CC
:1048D0002304F8018181981322C0909122048081E1
:1048E00098131DC02091290430912A048781908556
:1048F00028173907A1F49091280490FD7BCF9031BF
:1049000008F478CF892F9683907F903F09F46FCF7A
:10491000982F907F905F8F70892B868368CFC80116
:104920000E945507811561F060911E0470911F046B
:10493000C80131DD811509F48ACFE2E2F4E0B9CF94
:1049400080912804816080932804C8010E94001B84
:10495000A9CDA2E1B0E0EFEAF4E20C94F72F0A87C8
:104960001B872C873D874E875F87688B798B8A8B67
:10497000CE010A964EDD81112EC020912B0430917C
:104980002C0489E0AE01465F5F4FFA01495051099E
:10499000DA0101900D928A95E1F78E858115D9F0A3
:1049A000822F90E08395877090E0AC013417150654
:1049B000D1F199E0929FD0011124AA54BC4F9E01DD
:1049C0002F5F3F4FF90101900D929A95E1F74093C7
:1049D0002B040E94CB0480912C0490912B04891706
:1049E00049F029E0829FC00111248A549C4F11DDB7
:1049F000811126C08E85811112C0809173018111B1
:104A00000EC08C859D8520911E0430911F04821B51
:104A1000930B8F3F9F4318F081E080937301629660
:104A2000E4E00C9413300E94820F10922B04109239
:104A30002C04E2E2F4E089E011928A95E9F7CBCF09
:104A400080912C0490912D040196877080932C0402
:104A5000C2CFA9E0B0E0EFE2F5E20C94F52F7C01C3
:104A6000FC0182819381892B91F0FE01319687E0D0
:104A700011928A95E9F70E94AF0C9C01F7017281AF
:104A8000838109811A8144E05E816F8162DFF701D1
:104A900015822996E6E00C941130EF92FF920F9365
:104AA0001F93CF93DF938091C304E0919502CDE0F3
:104AB000811130C0CDB7DEB7E6E00C941130DE2FA7
:104AC000DF5FD0939502EE2EF12CCE9FF0011124E2
:104AD000E55AFB4F84818115E1F087819085892B10
:104AE00021F481859285019651F400811181228102
:104AF0003381448155816681778180852ADFCE9D0F
:104B0000F001CF9DF00D1124E55AFB4F1482109255
:104B10004E04ED2F8091C304E81788F21092C3046D
:104B200010929502C7CF4F925F927F928F929F9281
:104B3000AF92BF92CF92DF92EF92FF920F931F93AB
:104B4000CF93DF93C0915A0491E0E92EF12C80912C
:104B500059048C1313C0A1DF0E949E0BDF91CF91EB
:104B60001F910F91FF90EF90DF90CF90BF90AF908B
:104B70009F908F907F905F904F900895D0E0FE01BE
:104B8000EE0FFF1FE15BFB4F00811181A0E0B0E061
:104B90000330110540F487E0809FD001819FB00D64
:104BA0001124AB58BE4F14968C911497811159C0A3
:104BB0007090C3044BE554E020E030E0A12C2715B1
:104BC00008F04CC0FA0143845484CD90DD901297D4
:104BD00099249A94892CB12C8B2D90E0F601EB0D41
:104BE000F11DEB0DF11D659175914616570609F003
:104BF000C401672B19F0B3944C01EECF8F3F980797
:104C0000A9F1B70101C0660F8A95EAF7A62AC70184
:104C10000B2C02C0880F991F0A94E2F70197A8167F
:104C2000190611F512968D919D914DE0429FF0016C
:104C3000439FF00D1124E55AFB4F8783908784E052
:104C40008483108211820187128781E011968C93F0
:104C500015978B2D813011F4CD01FBDEC8010E9428
:104C6000BB0BC395C37073CFFA0114822F5F3F4F04
:104C7000435F5F4FA4CF1092C4041092C5041092FA
:104C80008A018091590480935A040E949E0B05CF9B
:104C9000AEE1B0E0EEE4F6E20C94E92F4B8B5C8BD6
:104CA0006D8B7E8B8F8B792E988F911110924E0485
:104CB000188A198A1A8A86E0FE017396DE011A960E
:104CC00001900D928A95E1F76F886114E1F06E868C
:104CD0007F8661E0CE010A960E94280761E0CE013E
:104CE0000A960E94280761E0CE010A960E942807D2
:104CF0006C0180E5C8168CE7D80689F4711421F19F
:104D000081E080938A016E867F860A851B852C85CB
:104D10003D85A301688979898A891BDEC3C081E545
:104D2000C8168CE7D80621F4711471F0A4DFEBCF1C
:104D300082E5C8168CE7D80639F4711429F0809101
:104D40008A018111F3CFDCCF05E711E0412CA12CC2
:104D5000B12C45018394F801208131816FEF80E00F
:104D60009FEFE82EF12CF901E80FF11DE80FF11D7E
:104D700045915591C416D50611F0E62EF92E452B16
:104D800021F08F5F6E2D9F2DECCF9FEFE916FE0473
:104D900009F448C1F801448150908A014111512C15
:104DA000F80135809681711409F403C1511409F496
:104DB00000C1311014C021E00E2C01C0220F0A9452
:104DC000EAF7922B968320915704309158042233AE
:104DD000310528F422E320935704109258049401DB
:104DE00002C0220F331F8A95E2F7C9010197F8012B
:104DF00026812817190609F0C3C0E090C404F0907A
:104E0000C504E114F10409F451C00E94AF0C8E19DD
:104E10009F09C39708F44AC081E0F8018483482AB7
:104E20008FEFA81AB80A095F1F4F83E0A816B104D4
:104E300009F091CF711409F4F7C0411409F4F4C0DA
:104E40000E94AF0C8093C4049093C5048091C30466
:104E5000883040F5982F9F5F9093C30499E0FE013E
:104E60003A969E012F5F3F4FD90101900D929A957E
:104E7000E1F76D827E822DE0829FC0011124855A68
:104E80009B4F29E0AE014F5F5F4FFA01DC010190BB
:104E90000D922A95E1F72FEF3FEFFC012187328732
:104EA000C386D4866E96E2E10C94053090915A0444
:104EB00080915904292FA0E0B0E037E061E0981715
:104EC00009F44DC0492F50E0998F1A8EFA01EE0F68
:104ED000FF1FE15BFB4F40815181A0E0B0E0433018
:104EE000510538F4349FD001359FB00D1124AB58D3
:104EF000BE4F4D915D9112974D8F5E8FE12C70E00A
:104F0000F12CED8DFE8DEF0DF11DEF0DF11D2590B6
:104F1000359021143104D9F0F801408151814B8F33
:104F20005C8F70E007C0E1E02416350609F0E0E090
:104F3000EE2A7F5FEB8DFC8DE70FF11DE70FF11D72
:104F4000459155914115510571F7F394DACFE1146C
:104F500069F17F15B8F4F80191E09483D8012093AA
:104F60005A04A017B10761F090E0FC01EE0FFF1F9B
:104F7000E15BFB4FA082B18201968370809359045C
:104F8000852D4DCF109761F014966C931497A01750
:104F9000B10721F3291304C0A9014395242F2370DD
:104FA000498D5A8D4395942F937089CFA0E0B0E03E
:104FB000F7CF292F30E031101FC0B40102C0660FB7
:104FC000771F8A95E2F7CB0101972817390771F00F
:104FD000512CC40102C0880F991FEA94E2F77C01AA
:104FE000E094F80186818E218683CACF411589F32A
:104FF000C5010E94BB0BECCFA9010E2C02C0559538
:1050000047950A94E2F7C901019782239323892BDC
:1050100031F440FF04C0C8011CDD532CDACF4170CD
:10502000542ED7CF80E0FBCE90915A048091590442
:10503000981731F078DD842D813009F433CF63CEB9
:105040002CDD1092C4041092C5040E949E0BF3CF75
:10505000A6E0B0E0EDE2F8E2CAC70E94AF0C8C0116
:105060008091990390919A038017910771F01982AA
:105070001A820E94AF0CBC0149815A8180E090E005
:1050800007DE0093990310939A032696E4E0CBC7BA
:10509000CDB7DEB72B970FB6F894DEBF0FBECDBFEE
:1050A00085B7806885BF85B7806885BF84B7877FEF
:1050B00084BF0FB6F894A8958091600088618093B2
:1050C0006000109260000FBE80E890E00FB6F89488
:1050D00080936100909361000FBE81E08093150181
:1050E00085E897E080936E0290936F020E94570EBE
:1050F0000E94080E8091E20084608093E200789420
:105100008091FB02811599F08091E9001091EC00EB
:105110008F7010FB112717F9182B1092E90080915E
:10512000E80083FD0E94C00F1F701093E90082E029
:1051300084BD93E095BD9AEF97BD80936E00109269
:10514000930310929403109295031092960380910A
:10515000D80080618093D8008AE18A95F1F700C079
:105160008091D900182F117080FD04C00E94570E45
:105170001092FB021093970355985D988FE891E089
:105180000197F1F700C0000089B185FB992790F9DC
:105190009093980390931D0185FDC2C186E0809392
:1051A000160186E080931701809197038111C2D583
:1051B000E7E6F3E088E011928A95E9F780911D0116
:1051C00091E0892780931E0380911D019093210314
:1051D00080911D0180911D01811106C087EF809390
:1051E0001C0186EF80931B0160E080E00E94540B5D
:1051F00061E080E00E94540B8FE891E00197F1F7A5
:1052000000C0000010E080912103181708F48AC143
:1052100080911D01811125C085E0E7EAF1E0DE0102
:10522000179601900D928A95E1F785E0FE01379679
:10523000A8E6B1E001900D928A95E1F786E0EDEAEB
:10524000F1E09E012F5F3F4FD90101900D928A95A9
:10525000E1F786E0F901ADE6B1E001900D928A95A3
:10526000E1F780911D0190E0811101C095E09093DC
:10527000880385E0891B8093730338E6E32E31E0D1
:10528000F32E0DE611E0F70181917F018F3F11F0C0
:105290000E9487070E151F05B1F72DE6E22E21E0CB
:1052A000F22E03E711E0F70181917F018F3F11F0AA
:1052B0000E9487070E151F05B1F7EEE7F3E08AE0BD
:1052C00011928A95E9F7E9E8F3E08AE011928A956C
:1052D000E9F780E090E098D7833E9E4F51F163EE6E
:1052E0007EEF80E090E0AFD760E082E090E091D781
:1052F00081E090E08093C6041092C70461E083E0EF
:1053000088D760E074E184E090E09DD71982CE01F7
:1053100001960E94370F0E94531460E070E0AB01C9
:105320008FE090E088D760E070E0AB0183E190E02F
:1053300082D782E090E05BD78093060384E090E020
:1053400063D780934C0490934D0483E090E04FD753
:1053500090E00E94B503259A2D9882E88093800002
:1053600089E1809381008FEF9FEF90938700809376
:1053700086000E9417140E9417148091F802811170
:105380002DC080E494E00E94D81380913F04836094
:1053900080933F0480914004843008F0D5C00E947F
:1053A000531480E494E00E94D81380914004843028
:1053B00008F0CAC083708460809340040E94900803
:1053C0000E94910B8091400480FF05C060E08695AB
:1053D00086950E94E51781E08093F80280919703FB
:1053E000811101C0AAD4809140048160809340045F
:1053F00060E0869586950E94E51760E081E00E9456
:10540000E5178EE191E080939B0390939C0391E0DC
:10541000A92EB12C8091FB02853079F400E110E4D3
:1054200082E1F82E8091FB02853009F495C00E943C
:10543000820F0E9417140E94240C0E942118B7E0CA
:10544000CB2EB3E0DB2E8EE793E01C01FC01D601EE
:105450009D91808121E133E02A173B0709F4D6C0F2
:1054600031969817A9F340909703ACEFEA2EA2E08B
:10547000FA2E912CF10181901F01F60181916F01AB
:10548000881509F442C08825582E00E010E07724E2
:105490007394872D852189F1672C68204114F9F0D8
:1054A000F701808190E09501002E01C0220F0A943F
:1054B000EAF78223892B99F409839A820E94AF0C20
:1054C0008B839C8381E08D8391E0611001C090E02B
:1054D0009E8349815A816B817C818D81D9DB6110EA
:1054E0000CC08A2D002E01C0880F0A94EAF7982F6D
:1054F0009095F701808189238083770C0F5F1F4F80
:105500000630110531F6F601829293948FEFE81A76
:10551000F80A892D8A3009F0ADCF0E94C70C79C0F6
:1055200080E03DCE60E0812F0E94740B082F61E087
:10553000812F0E94740BE12FF0E0E15EFC4F880F99
:10554000802B80831F5F5FCE809140048C3A08F4EB
:1055500035CF8370886A30CF8091FB02843031F17F
:1055600080E00E941C0B1092F90288E190E00FB6D7
:10557000F894A895809360000FBE1093600083B7E5
:10558000817F846083BF83B7816083BF789488956F
:1055900083B78E7F83BF0FB6F894A8958091600083
:1055A000886180936000109260000FBE0E942118F5
:1055B000EEE7F3E0ACEFB2E080E021912D9391E0D3
:1055C000211101C090E0892B93E0E838F907A9F791
:1055D000811509F427CF8091FA02811509F422CFB1
:1055E00009BDF9BC09B400FEFDCF8091D8008F7DC4
:1055F0008093D8008091E00082608093E0008091E9
:10560000E00081FDFCCF0E94820F0CCF98132BCFBE
:105610001FDD80919703811509F46EC0009133045A
:10562000109134040115110509F440C0C090150310
:10563000D0901603E0901703F09018030E94BB0C63
:10564000DC01CB018C199D09AE09BF094091110302
:1056500050911203609113037091140384179507FE
:10566000A607B70718F1C8010E9499039801205EA8
:1056700031092830310508F0C9C00E941113802F6C
:105680000E94631210923304109234041092150396
:105690001092160310921703109218031092110320
:1056A00010921203109213031092140380918A0136
:1056B000811511F10091C4041091C5040115110563
:1056C000D9F00E94AF0C801B910B209157043091B0
:1056D00058042817390780F490915A04809159048E
:1056E000981709F496C01FDA1092570410925804C4
:1056F0001092C4041092C50480913E04811509F4EF
:105700006EC080913D04E0914004E695E695E81B6B
:10571000E0935F03853109F4E0C008F091C089305F
:1057200009F4CFC008F07DC0823009F4B4C08630DF
:1057300009F4BCC000ED17E0F1EAEF2EF7E0FF2E10
:1057400080916003811561F0109260030E94E20C69
:1057500080935D0390935E03109261031092620345
:105760000E94E20C20915D0330915E03AC01421B6C
:10577000530B4F3F5F4798F540911B034115B1F024
:1057800010921B034091190350911A03841B950B2F
:105790008F3F9F4758F4405D5A48409319035093F8
:1057A0001A0380913F04886080933F04C090610396
:1057B000D0906203200F311F20935D0330935E036E
:1057C0008DE593E0F7010995809161039091620363
:1057D000892B29F4CD2819F081E080931B03F090E8
:1057E0009703F11419F00E94E712F82E80912F030D
:1057F000811551F010922F038091690380936A0301
:105800008091670380936803E12CB1C00E947713F5
:1058100036CF43D91092C4041092C5040E949E0B47
:105820006BCF8F3009F086CFE695F0E0E259FB4F61
:10583000E4910E2F10E059EDE52E58E0F52E80CFC3
:1058400004EF11E09AE5E92E9AE0F92E843209F48A
:1058500077CF78F4883109F44BC0833209F06ACFEE
:10586000E9E6F4E00591159130E4E32E3AE0F32EF9
:1058700067CF853209F05ECF8E2F63E0F6D3E92F34
:10588000F0E0EA59FB4FE4910E2F10E02EE0E22EFB
:1058900027E1F22E55CFF0E0E958FB4FE4910E2FAF
:1058A00010E0E8E9EE2EE8E0FE2E4ACFF0E0EC58FA
:1058B000FB4FE4910E2F10E071E8E72E78E0F72E11
:1058C0003FCFE695F0E0EF58FB4FE4910E2F10E04C
:1058D0006BEAE62E68E0F62E33CFF0E0E559FB4F99
:1058E000E4910E2F10E046E5E42E49E0F42E28CF97
:1058F00008E210E08DECE82E89E0F82E21CF61E07F
:105900008E2D0E94740B182F60E08E2D0E94740B58
:10591000110F812B0E2D10E0D801A15EBC4FEC9130
:105920009E2F9370891711F1EE0FEE0FE82BEC9379
:1059300080911E038E0DEF70F0E0E151FE4F045E8A
:105940001C4FD080F8019081D90E9D2D60E09430DD
:105950001CF49D3F1CF461E00E94340B8D2DDD0C86
:10596000990B64E070E0AED3F8018083E3948091FA
:105970002103E81620F280919703811519F00E9407
:10598000E712F82AF1100E94C70C0E94240C909193
:105990002203891709F43ECD809322030E94BB0C99
:1059A00039CD1F921FB61F9211248F939F93AF93EF
:1059B000BF938091F902811113C080918B02909165
:1059C0008C02A0918D02B0918E024196A11DB11D55
:1059D00080938B0290938C02A0938D02B0938E02E1
:1059E000BF91AF919F918F911F901FBE1F901895EF
:1059F00078941F921FB61F9211248F939F93AF9399
:105A0000BF9380918B0290918C02A0918D02B091F6
:105A10008E020196A11DB11D80938B0290938C0282
:105A2000A0938D02B0938E02BF91AF919F918F9101
:105A30001F901FBE1F9018951F920F920FB60F92C6
:105A400011242F933F934F935F936F937F938F9383
:105A50009F93AF93BF93EF93FF938091E10082FFF9
:105A600009C08091E20082FF05C08091E1008B7F38
:105A70008093E1008091DA0080FF24C08091D800FB
:105A800080FF20C08091DA008E7F8093DA008091C1
:105A9000D90080FFA9C080E189BD82E189BD09B438
:105AA00000FEFDCF81E08093FB0280917A0281119C
:105AB00009C00E94570E0E94080E8091E200846087
:105AC0008093E2008091E10080FF1AC08091E200A3
:105AD00080FF16C08091E2008E7F8093E20080916B
