:100000004FC300000C94A52F84C3000082C30000DE
:1000100080C300007EC300007CC300007AC30000E0
:1000200078C3000076C300000C94E32D0C94CB2E13
:100030000C94982D6EC300006CC300006AC30000CE
:1000400068C3000066C3000064C3000062C3000010
:1000500060C300000C94BF2D5CC300005AC30000B5
:1000600058C3000056C3000054C3000052C3000030
:1000700050C300004EC300004CC300004AC3000040
:1000800048C3000046C3000044C3000042C3000050
:1000900040C300003EC300003CC300003AC3000060
:1000A00038C3000036C3000034C3000007420921F2
:1000B00000000E000F2800000D210E0000000501B9
:1000C0000980A101850319012AB700150126B7008F
:1000D000950175108100C0050C0901A10185041965
:1000E000012AA002150126A002950175108100C009
:1000F00005010906A101050719E029E715002501F9
:10010000950875018102950175088101050719009F
:1001100029FF150026FF00950675088100050819BE
:1001200001290515002501950575019102950175B7
:10013000039101C009023B00020100A0FA0904007A
:1001400000010301010009211101000122440007FF
:1001500005810308000109040100010300000009F2
:100160002111010001223200070582032000011243
:100170000100020000000810CB56531005010200D8
:10018000011A0349007200690073002000520065E3
:100190000076002E0020003500610000000E034BA9
:1001A0000065006500620069006F0000000403093B
:1001B000040000000000000000000000000000003B
:1001C000000000000000000000000000000000002F
:1001D00000000000007E0F00D4FFFFFFC7000000FA
:1001E0007800000000000000002A2B28000000001A
:1001F00000000000000000000000000029000000D6
:10020000002C1E3420212224342627252E362D377B
:1002100038271E1F202122232425263333362E374C
:10022000381F0405060708090A0B0C0D0E0F1011E4
:1002300012131415161718191A1B1C1D2F313023F1
:100240002D350405060708090A0B0C0D0E0F1011B9
:1002500012131415161718191A1B1C1D2F313035BF
:100260004C2223252628292A2C2D2F3032333536AF
:10027000383A3B3D3E4042434547494A4C4E505137
:10028000535557595A5C5E6062646668696B6D6F5E
:1002900071737577797B7D7F81838587898A8C8E61
:1002A00090929496989A9C9E9FA1A3A5A7A8AAAC69
:1002B000AEAFB1B3B4B6B8B9BBBCBEBFC1C2C3C5A3
:1002C000C6C7C9CACBCCCDCED0D1D2D2D3D4D5D645
:1002D000D7D7D8D9D9DADADBDBDBDCDCDCDCDCDD78
:1002E000DDDDDDDCDCDCDCDCDBDBDBDADAD9D9D85C
:1002F000D7D7D6D5D4D3D2D2D1D0CECDCCCBCAC9F4
:10030000C7C6C5C3C2C1BFBEBCBBB9B8B6B4B3B122
:10031000AFAEACAAA8A7A5A3A19F9E9C9A989694BD
:1003200092908E8C8A89878583817F7D7B79777592
:1003300073716F6D6B6968666462605E5C5A595771
:10034000555351504E4C4A4947454342403E3D3B30
:100350003A3836353332302F2D2C2A2928262523BA
:1003600022FFAA7F554000010101010101010101A5
:100370000202020202020202020303030303030356
:100380000304040404040404050505050506060623
:100390000606070707070708080808090909090AE0
:1003A0000A0A0B0B0B0C0C0C0D0D0D0E0E0E0F0F85
:1003B0000F10101111111212131314141515161613
:1003C0001717181819191A1A1B1B1C1D1D1E1E1F82
:1003D0002020212222232424252626272829292AD1
:1003E0002B2C2D2D2E2F30313232333435363738F9
:1003F000393A3B3C3D3E3F404142434445464748F5
:10040000494A4C4D4E4F50515354555658595A5BCA
:100410005D5E5F616264656668696B6C6D6F70726A
:10042000737577787A7B7D7E8082838587888A8CD6
:100430008E8F91939596989A9C9EA0A2A3A5A7A90A
:10044000ABADAFB1B3B5B7BABCBEC0C2C4C6C9CB01
:10045000CDCFD1D4D6D8DBDDDFE2E4E7E9EBEEF0B7
:10046000F3F5F8FAFDFF1E0F0500047F3F1F64320D
:1004700014643214783C1E1E140A0529001E001F45
:1004800000200021002200350014001A0008001589
:10049000001700E00004241628074209210A22E17F
:1004A000001D001B0006001900050000000000E30D
:1004B000002352280028002A0027002600250024B7
:1004C0000023002D00130012000C0018001C003443
:1004D0000033240F280E000D210B222E0038003788
:1004E00000360010001100000000002B0021522CEB
:1004F00000010001000100010001000100010035C0
:10050000021E021F0220022102220201002F0030DF
:10051000002F023002010001000100010026022725
:100520000201000000000001002A0001000100019A
:100530000001000100010001000100310227022634
:1005400002250224022302310038024F00520051DA
:100550000050000100010001000100010001000045
:100560000000000100010001000100010001000184
:100570000001000100010001000100010001000173
:100580000001000100010001000100010001000163
:100590000001000100010001000100000000000155
:1005A0000001000100010001000100010001000143
:1005B00000010001000100477E467E457E010044A7
:1005C0007E437E427E417E407E01000100010001AB
:1005D0000001000100487E00000000010001000150
:1005E000000100007C010001000100010001000188
:1005F00000497E4A7E010001000100207821782315
:10060000782978277801000100227824782A782830
:10061000780100000000000100010001000100015C
:100620000001000100010001000100A800010026F6
:1006300000250024000100A9000100230022002160
:10064000000100AA00010020001F001E00010000A0
:10065000000000010027002B0001004C4C4C4C4CCA
:100660004C4C4C4C4C4C4C4C4C4C4C4C4C4C4C4CCA
:100670004C4C4C00004C4C4C4C5252525252525228
:10068000525252525252525252525252525252524A
:10069000520000525252520102E0200103E00000D9
:1006A00011241FBECFEFDAE0DEBFCDBF04B603FEDC
:1006B00019C08091CD049091CE04A091CF04B09147
:1006C000D0048730904BA740B04B61F41092CD041A
:1006D0001092CE041092CF041092D004E0E0F8E320
:1006E000099500C024E0AEE6B2E001C01D92AD3C29
:1006F000B207E1F712E0A0E0B1E0ECE4F5E602C0F9
:1007000005900D92AE36B107D9F70E94FE280C94E1
:100710005B3276CCDC01ED91FD918191FE93EE93FD
:100720000895DC01ED91FD9184913196FE93EE9355
:1007300008959C0191509F31B0F4832F817034FF54
:100740000AC08295807F31FD806232FD806433FF74
:100750000BC08068089531FD826032FD846033FFF4
:1007600003C08860089580E008958093C904909341
:10077000CA0408958093CB049093CC04089521E09B
:1007800030E002C0220F331F8A95E2F78091CB043C
:100790009091CC04822B932BEDCF21E030E002C06E
:1007A000220F331F8A95E2F7209530958091CB0474
:1007B0009091CC0482239323DDCF9A3090F586303C
:1007C00080F5E82FF0E086E0989FE00DF11D112400
:1007D00051E0E1FD54E0E0FD550FE2FD529583E06C
:1007E000F695E7958A95E1F7EE0FFF1FEE0FFF1FD5
:1007F000E250FC4F20E030E070E04191DF01CB019E
:10080000022E02C0969587950A94E2F78695880B8A
:100810008427852384278E932F5F3F4F2430310513
:1008200061F70895292F9A3070F5863060F590E0D1
:1008300036E0239F800D911D1124682F677023E0FF
:10084000969587952A95E1F7FC01EE0FFF1FEE0FB5
:10085000FF1FE250FC4F40E050E080E0219130E08B
:10086000062E02C0369527950A94E2F72170042ED1
:1008700001C0220F0A94EAF7822B4F5F5F4F44308A
:10088000510561F7089580E00895E0912C0490915E
:100890002B04E91302C080E008959F0159E0E59F11
:1008A000F0011124EA54FC4F5181561306C05081C7
:1008B000581303C05581541305C02F5F3F4FF901F2
:1008C000E770E7CF81E008958091B50390E020E0E4
:1008D000022E001C0008281709060CF008952F5F4F
:1008E000F7CFDC0180912604813049F514968C9174
:1008F0001497813021F59091230486E0E091220441
:10090000F0E0899FE00DF11D1124E55AF94F949113
:100910009A32A9F011962C91EE91F0E0829FE00DB1
:10092000F11D1124E55AF94FE49181E0EA3209F012
:1009300080E021E09E1301C020E0822B089581E039
:10094000089520914B042D79A1F4903578F49032DC
:10095000C0F441E08333910539F0C0F441E08E31B9
:10096000910588F4049728F0842F0895392F36557F
:1009700011F040E0F9CF9C01205F3645273031056A
:10098000C0F390E0E6CF8C97A1F7EECFC69741E099
:10099000039750F3EECF80912C0420912B04281361
:1009A00001C0089501968770FACF90914E0480950A
:1009B000892380934E04282F277061F4891751F002
:1009C0009091500492FF06C0869586958695E5DE47
:1009D00010924E0408958095982F80914B0489239E
:1009E00080934B040895972F7A30C8F46630B8F49A
:1009F0008430C0F470E026E0929F600D711D1124D8
:100A00009CE3899F600D711D1124FB01EE0FFF1FF8
:100A1000E558FB4F85919591282F822F089520E06E
:100A200090E0FBCF21E0FCCF803E9105D1F1C8F4EE
:100A30008133910509F481C048F48932910509F4A4
:100A400071C08A32910509F47FC0089589339105F8
:100A5000E1F082389105C9F08533910509F45DC054
:100A60000895843E9105D1F148F4823E910531F11B
:100A7000833E910541F181EE90E00895863E910517
:100A8000C1F1873E9105F1F1089520914F04237043
:100A900009F064C02091500423FF14C089E290E063
:100AA000089520914F0420FD45C03091500430FF3F
:100AB00009C024FD24C083EE90E0089520914F04E6
:100AC00022FDF7CF089520914F0422FD44C03091BC
:100AD000500430FD43C024FFF5CF11C020915004D5
:100AE00021FFF0CF80914F0484FD09C087EE90E094
:100AF000089520914F0423FFE5CF24FFF7CF80E036
:100B000090E0089520914F0423FD2BC030915004B4
:100B100031FFE1CF84EE90E0089520914F0425FF4E
:100B2000D1CFBCCF20914F0425FD1EC02091500491
:100B300023FFC8CF89E390E0089520914F0426FF5A
:100B4000C1CF8AE290E0089520914F0426FFBACFEA
:100B500081E390E0089582EE90E0089580EE90E0C9
:100B6000089586EE90E0089585E390E008959091D1
:100B70004F0492FF10C041E0282F2471243009F067
:100B800040E031E0282F2871283009F030E0431789
:100B900011F02CE0822793FF10C041E0282F247130
:100BA000243109F040E031E0282F2871283109F084
:100BB00030E0431711F02CE082273091500430FFD1
:100BC00010C051E0282F2171213009F050E041E0A0
:100BD000282F2871283009F040E0541711F029E03F
:100BE000822731FF10C041E0282F2171213109F007
:100BF00040E031E0282F2871283109F030E0431718
:100C000011F029E0822794FF02C083FD877E0895BA
:100C10000F931F93CF93DF9307DFEC01D23508F0DA
:100C20004DC0D03508F0C3C0C03ED10530F5CD3C35
:100C3000D10508F09AC0C83AD10578F4C53AD10573
:100C400008F090C0C130D10599F1CE010497813AE6
:100C5000910570F1C0E0D0E02BC0CE01885A910917
:100C60004B97C0F7C85AD0E0CC0FDD1FCF5FDD4FE8
:100C70000990D881C02DD4641BC0D03490F4D032F8
:100C800008F0A8C0C83ED10598F0CE0191509F3120
:100C900008F78D2F6CDF082F8C2F90E0C5DE902B8E
:100CA00054C08C2F90E0C0DEDF70C82FD92BD06AE3
:100CB000CE01DF91CF911F910F910895C03882E549
:100CC000D807B8F5C03682E5D80708F056C0C0345A
:100CD00082E5D807C8F4C03282E5D80708F047C0DB
:100CE0008C2F8695869520E2829FC0011124C370C7
:100CF00021E030E002C0220F331FCA95E2F7E9017C
:100D0000C82BD92BDD68D4CF8C2F8695869587701C
:100D100020E2829FC0011124C37021E030E002C0B4
:100D2000220F331FCA95E2F7E901C82BD92BDC68E3
:100D3000BFCFC03C82E5D80750F48C2F8F71C03AEA
:100D4000D24580F5982F84EF906AEC01B1CFCE01A7
:100D5000805C9245809708F07DCFDC2FDF71C0EF7B
:100D6000D06AA6CFA497D064A3CFD065A1CF8C2F93
:100D70008F71D82FC1EFD06A9BCF8C2F8695869527
:100D8000877020E2829FC0011124C37021E030E00F
:100D900002C0220F331FCA95E2F7E901C82BD92BF5
:100DA000DA6886CFE4DEC0E0D82FD06281CF8C2F06
:100DB0008F71DDDE93E0CC0FDD1F9A95E1F7DF70D8
:100DC000282F84FF04C090E1899F90011124C22F35
:100DD000D0696ECF8D2F8F71CADE082F8C2F90E0D7
:100DE00023DE902BEC01E1CFCF92DF92FF920F93A5
:100DF0001F93CF93DF936C010091CB041091CC042F
:100E00008091C9049091CA04082B192BCFE0D0E03F
:100E100081E090E00C2E02C0880F991F0A94E2F73F
:100E200080239123892B61F4219790F7F12C8F2D4A
:100E3000DF91CF911F910F91FF90DF90CF90089598
:100E4000FC2EB6018C2FCFDDE3DE019769F3EFCFE7
:100E50001F93CF93DF93FC01278130852115310546
:100E600089F48581C081D181811589F0611579F07E
:100E7000CE01BADF182F682FCE019FDCBE01812F73
:100E8000B2DD9C01C901DF91CF911F910895CE0180
:100E9000C9DC182FF3CFCF93DF93EC01A5DFBE01A0
:100EA000A2DDB6DEDF91CF910895FC01848181152A
:100EB000A9F087819085009799F0AADE92959F709E
:100EC0009630C9F088F4925F9F70923038F491E0C8
:100ED000803F79F058F491E0883E58F090E009C0E6
:100EE00080819181D8DFEACF9A5FEECF91E0843F95
:100EF000A9F7892F089591E0813F09F090E021E062
:100F0000883E08F020E0922BF4CF80E00895F8941A
:100F1000E82FE295EF70F0E041A18F7021E001C071
:100F2000220F8A95EAF7922F9095942391A392A18C
:100F3000822F892B82A37894089581E080932F03D8
:100F400008950895CF92DF92EF92FF921F93CF936F
:100F5000DF93462F172FE82FF0E0EA59FC4F71116D
:100F60000CC0E4918E2F7E2F6E2FDF91CF911F91B9
:100F7000FF90EF90DF90CF900895F491EF2F86E0EF
:100F8000689FE00111242FEF30E0CE01B9010E94EB
:100F90001531DB01CA01880F991F65E56A9FA00121
:100FA0006B9F500D1124841B482F440F480FC9011B
:100FB000811B9109F89F7001F99FF00C11248F2D6E
:100FC000149FB0011124672F70E06901C61AD70A77
:100FD000B601F69F6001F79FD00C1124A330B10534
:100FE00049F1B901641B7109AB01149FB001159F50
:100FF000700D1124672F70E0261B370BF29FA001A4
:10100000F39F500D1124752FCC3FD34050F4A130E5
:10101000B105A1F0129709F0A7CFEF2D852F7F2FF3
:10102000A3CFA430B10569F0169709F49DCF7F2DA9
:101030008D2D9ACF7D2DEF2D8F2F96CF7F2FED2DDC
:1010400093CFE52F7F2DF8CFCF93762FC22F682F28
:10105000842F78DF472F909116012C2F291B922F78
:10106000282F892F90E05FD3CF910895CF9380915F
:10107000430480FF03C06CD6CF910895C09118013E
:1010800080911901C817B8F7809116019C2F981B01
:1010900020E040E060E0892F90E045D3CF5FF0CFC3
:1010A0000F931F93CF93DF93D82F162F042F809188
:1010B0004304C091180180FD10C0DF91CF911F91B2
:1010C0000F910895809116019C2F981B202F412F7E
:1010D0006D2F892F90E027D3CF5F80911901C8171A
:1010E00088F3C4DFEACF762F9091430490FF08C0C5
:1010F000682F842F27DF962F672F482F892FD0CF77
:101100000895CF93DF93EC01E3E4F4E0438162813F
:101110008C81E9DF8C818F5F8C83DF91CF91089583
:1011200010924104809142048460809342040895A7
:10113000CF93DF93EC01EC81F0E0EF59FD4F449148
:10114000E3E4F4E062818181CEDF8C818F5F8C8368
:10115000DF91CF9108950F931F93CF938C01C0E03F
:1011600060911A01C61768F081DFF80184819281CD
:1011700090FF1DC08F5FF8018483CF911F910F9165
:101180000895209118012C0F3327331F70E08FEF43
:1011900090E00E942931F801848140914604C69F65
:1011A000800D1124609145044FDFCF5FD9CF81506E
:1011B000E2CFA0E0B0E0EFEDF8E00C94B930EC0144
:1011C0008A8101E080FD0FEF8C81811109C001301F
:1011D00019F480911A0181508093F70281E08C8389
:1011E00010E080911A011817B0F040DF9091F702DB
:1011F000013009F051C080911A018150911519F008
:10120000892F815091E08093F7029C83CDB7DEB7A0
:10121000E9E00C94D5308091180190911601891B5A
:10122000810F20E040E060E090E07DD294E0E92E84
:10123000F12CB12CC12ED12C8091F7028B0D8D3069
:101240002CF16CE00E940831892F082E001C000848
:101250008C150D04A1F4809118019601280F311D01
:10126000409146045E2D5403A001112455954795E5
:10127000559547956091450480914404E5DEB00E94
:1012800081E0E81AF108C1F61F5FABCF87FFDDCF21
:1012900090911A01890FD9CF892F90E00196609122
:1012A0001A0170E00E942931982FADCF1F93CF9380
:1012B000DF93EC018C81811109C081E08C83109255
:1012C000F60292E0909306018093050110911801B7
:1012D00080911901181740F110E060911A0116175A
:1012E00078F1C4DE809105019091F602980F9093F9
:1012F000F60220910601280F20930601121654F4DD
:1013000020911A012150330B092E001C000892175E
:10131000030634F0819580930501813009F41C8225
:10132000DF91CF911F91089580911601912F981B05
:1013300020E040E060E0892F90E0F5D11F5FC8CF4A
:10134000E12FF0E070E0CF010E94293120911801D7
:10135000820F9091F602092E001C0008E917F00593
:101360009CF090910601092E001C00089E170F06A4
:101370005CF0282F30E04091460460914504809154
:10138000440462DE1F5FA9CF90911601891B20E003
:1013900040E060E090E0C7D1F5CFA0E0B0E0E3ED41
:1013A000F9E00C94B830EC01FC812F2F30E0D9012A
:1013B0000E942A329B01AC010E941A327B018C01EF
:1013C00080E290E08F1B9109FC01A5E59701A8013F
:1013D0000E941A325B016C019F01DF010E94E7301D
:1013E0009B010E9442319B01AC012E0D3F1D401F0D
:1013F000511FB501C6010E943932022F30E00A3276
:1014000020F5A901440F551F420F531F55954795CD
:10141000142F1095F12C85E5801BE82E80911A0180
:10142000F81600F123DE9C8181E0911519F09032CD
:1014300019F48FEF8093040180910401890F8C834C
:10144000CDB7DEB7EAE00C94D43085E590E0821B9E
:10145000930BAC01440F551F480F591FBAF64F5F4D
:101460005F4FD4CF8E2DF1FC802F209118012F0DCE
:101470003327331F412F60914504E6DDF394CECF2F
:10148000CF93DF93EC01209146049C81892F8170DA
:1014900090FD822F692F627091FD622F492F447059
:1014A00092FD422FFDDD8C81019687708C83DF9148
:1014B000CF9108950F931F93CF93DF938C01C0E0DA
:1014C000D0E090911A01C917D1055CF0CFDDF80189
:1014D0008481019681708483DF91CF911F910F9158
:1014E0000895F8014481809118019E01280F311D53
:1014F00060914504809144049695C917D1053CF448
:10150000411539F0409146049FDD2196DACF41150F
:10151000C9F340E0F9CF0F931F93CF93DF93863049
:1015200080F581112FC0909180009F77909380006B
:101530002091860030918700A82FB0E00E942A32C7
:1015400025E030E040E050E00E943932E901FA0144
:1015500080918600909187006CE070E00E941531C8
:101560006217730798F0C90169E070E00E941531B5
:101570007093890060938800DF91CF911F910F9144
:10158000089585E0909180009068D0CF809186008A
:1015900090918700209186003091870089012091E9
:1015A00086003091870066E070E00E941531C60F1A
:1015B000D71FE11DF11D85E0CC0FDD1FEE1FFF1FC2
:1015C0008A95D1F7C80166E070E00E94153140E0CD
:1015D00050E0260F371F411D511DBE01CF010E9453
:1015E0003932E901FA0180918600909187008C01DF
:1015F000B901CA010E94ED309B01AC01D8010E94E3
:101600001A329B01AC01BE01CF010E94ED30770F71
:10161000BB27AA27881F991FAA1F209186003091F7
:101620008700281739071A061B0620F480918600C8
:1016300090918700BC019CCF863008F085E0209116
:101640002D042770982F990F990F990F922B909333
:101650002D0421E0983008F420E090912D0420FB27
:1016600090F990932D0457CF90916903292F30E082
:1016700070916A03A9014395437050E074171506F1
:1016800089F029593C4F60FB87F9F90184839F5FFA
:10169000937090936903809167038F5F80936703D2
:1016A00081E0089580E0089590E06115D1F0855EB5
:1016B0009E4FFC0180818F3F99F0E82FE295EF70FB
:1016C000F0E041A18F7021E001C0220F8A95EAF776
:1016D000922F9095942391A392A1822F892B82A37C
:1016E0000895845E9E4FE5CF90E06115A9F0855E78
:1016F0009E4FFC0120812F3F91F0E22FE295EF7089
:10170000E05EF0E0808190E02F7002C095958795B3
:101710002A95E2F781700895845E9E4FEACF80E0BB
:101720000895569A0895FC01EE0FFF1FE80FF91F68
:10173000EA56FD4F618340832283089510925A0434
:1017400010925B0480917A01811104C0109279019A
:1017500010927B0180918101811104C0109280015F
:101760001092820180918801811104C0109287013A
:10177000109289010895AC0180915D0460915C0430
:10178000982F691301C00895292F30E0F901EE0F59
:10179000FF1FEE5AFB4F0190F081E02DE417F50793
:1017A000B9F4E0E0F0E04330510540F467E0649FB5
:1017B000F001659FF00D1124EB58FE4F41E044838A
:1017C0009813E1CF2F5F3F4F237020935D0408955E
:1017D0002395922F9370D5CFFC01680F791F8FEF5F
:1017E00041E39191892728E030E0982F990F87FFF6
:1017F00009C0892F842721503040B9F7E617F70731
:1018000081F70895892FF7CFFC018581862351F454
:1018100092819115B9F06923818583FF05C081E02C
:1018200061110FC080E00895292F22952F709F70BD
:10183000292B962F92959F706F70962B81E029131C
:10184000F1CF089581E0089580919703811571F09B
:10185000E0919B03F0919C03309739F00190F08167
:10186000E02D309711F00995089580E00895A3E0E8
:10187000B0E0EDE3FCE00C94C03020919102309197
:10188000920228173907B1F0809391029093920247
:10189000E0919B03F0919C03309761F00084F18507
:1018A000E02D309739F023E029838A839B83CE0192
:1018B000019609952396E2E00C94DC30A3E0B0E0B9
:1018C000E4E6FCE00C94C03020918F02309190024D
:1018D00028173907B1F080938F0290939002E0911E
:1018E0009B03F0919C03309761F00084F185E02D1B
:1018F000309739F024E029838A839B83CE010196B7
:1019000009952396E2E00C94DC309C01FC013296B0
:1019100080E09FEF4081461759F031969F3F19F4C0
:10192000411101C0982F8F5F8630A1F79F3F09F4C6
:101930000895290F311D97FD3A95F90162830895A5
:10194000E2E7F2E09191891302C0DF011E9292E07A
:10195000E837F907B9F708958091130108952FB773
:10196000F89480918B0290918C02A0918D02B0919D
:101970008E022FBF08952FB7F89460918B0270915B
:101980008C0280918D0290918E022FBF08958091DC
:101990009703811539F0EFDF462F572FBC01CB019C
:1019A000BA010895E8DFDC01CB0140919303509127
:1019B00094036091950370919603480F591F6A1F15
:1019C0007B1FEDCF80919703811509F0C8CFDFDF32
:1019D000CB010895CF92DF92EF92FF92CF93DF93E6
:1019E000EC01C0903804D0903904E0903A04F090B3
:1019F0003B04C1DFDC01CB018C199D09AE09BF0995
:101A0000843F9140A105B10508F1B5DF6B017C0170
:101A100082E390E0C0921503D0921603E092170380
:101A2000F092180380931103909312031092130302
:101A300010921403CE01C093360490933704DF91C3
:101A4000CF91FF90EF90DF90CF90089584EF91E0D9
:101A5000E1CF08950895FC01209181023091820226
:101A60002617370748F06115710529F49091E800B1
:101A70009E779093E8009B0190E02115310541F499
:101A8000911106C08091E80082FF32C080E0089585
:101A90008091FB028115C1F18530C1F18091E80090
:101AA00083FD30C08091E80082FDECCF8091E8009A
:101AB00080FFE3CF8091F3004091F200582F211571
:101AC000310519F04830510558F091E04830510582
:101AD00009F090E04091E8004E774093E800CDCFC8
:101AE00081918093F100215031094F5F5F4FE7CF23
:101AF0008091FB02811541F0853041F08091E80032
:101B000083FFC0CF81E0089582E0089583E00895C7
:101B1000982F9093E900891771F07091EC00209153
:101B2000ED005091F00021FD09C09F5F973089F7CB
:101B30008093E9000895762F242F50E03091EB0038
:101B40003E7F3093EB003091ED003D7F3093ED0010
:101B50003091EB0031603093EB007093EC002093F8
:101B6000ED005093F0002091EE0027FDDECF0895A8
:101B700080917B0287FF13C08091E80082FF06C03E
:101B80008091E8008B778093E80008958091FB02B4
:101B90008111F2CF08958091FB028115D9F38091D4
:101BA000E80080FFF8CF8091E8008E77ECCF20919D
:101BB000E4003091E50095E6A9012091EC00822F28
:101BC000817020FF06C08091E80080FF06C080E0A1
:101BD00008952091E80022FD1AC08091FB02811532
:101BE00089F0853089F08091EB0085FD0FC0209150
:101BF000E4003091E50042175307F9F29150E1F605
:101C000084E0089582E0089583E0089581E00895D6
:101C1000CF93DF93C8EDD0E088818F7E8883E7ED96
:101C2000F0E080818160808384E082BF81E08093E6
:101C30007A0288818E7F8883E2EE10821092DA0029
:101C4000A1EEB0E01C9288818F77888388818068BC
:101C5000888388818F7D888319BC1092FB02109243
:101C600079021092FA0210927802A0EE8C918B7F8A
:101C70008C9388818160888342E060E080E048DF67
:101C8000A1EEB0E08C918E7F8C93E2EEF0E080814B
:101C900081608083808188608083E0EE80818E7F98
:101CA0008083888180618883DF91CF910895E8EDFA
:101CB000F0E080818E7F80831092E2001092DA0043
:101CC0001092E100A0EEB0E08C9181608C93808155
:101CD0008F77808319BCA7ED8C918E7F8C93808148
:101CE0008F7E808310927A020895A0E0B0E0EBE747
:101CF000FEE00C94B8307C016B015A0180916F03B7
:101D00000AE010E08A3010F001E010E0C1E0D0E01D
:101D1000B601C701F5010995811115C021960C176F
:101D20001D078CF0CC9F9001CD9F300D300D1124FC
:101D300080E090E045E34A95F1F7000001968217B4
:101D40009307C1F7E5CFCDB7DEB7EAE00C94D43006
:101D50003BB13F7B2BB120644FB7F89486E992E00A
:101D6000FC010196508168E02BB9000000C057FFCC
:101D70003BB9550F000000C000C000C03BB900C017
:101D80006A9591F752E08A3B950751F74FBF8FE56F
:101D900094E00197F1F700C0000008950F931F939E
:101DA000CF93DF93EB018A019091FB02943059F5B8
:101DB0008093E9008FEF9091E80095FD06C095EDC6
:101DC0009A95F1F700008150B1F78091E80085FF06
:101DD0001AC0EDDE811112C08091E80085FD06C0B9
:101DE0008091E8008E778093E800F3CF888180931C
:101DF000F1000150104011F02196EECF8091E800E3
:101E00008E778093E800DF91CF911F910F91089515
:101E1000CF93DF93EC0148E050E0BC0181E0BEDFEE
:101E200088E0FE01A3E8B2E001900D928A95E1F707
:101E3000DF91CF91089543E050E0BC0182E0AECF46
:101E40009091500492FB222720F9281779F080FB0B
:101E500092F99093500460914F047091500484E083
:101E600090E00E94EA3182E00C94D5040895FC01D0
:101E7000608186E090E00C94D03190914B04809189
:101E80005104982B80914C04811589F0982B80E0A7
:101E900022E732E0F90140812F5F3F4F41118F5F10
:101EA00042E028373407B1F7811110924C04809139
:101EB00032048095892390913104892B809370029C
:101EC00048E050E06DE973E080E792E00E94A831BD
:101ED000892BB9F088E0E0E7F2E0ADE9B3E00190EA
:101EE0000D928A95E1F7E0919B03F0919C03309766
:101EF00041F00280F381E02D309719F080E792E005
:101F00000995089510924B04E2E7F2E086E0119201
:101F10008A95E9F780E090E0AADC80E090E0CEDCF2
:101F200010925104AACFEEDF8FEF94E32CE08150A2
:101F300090402040E1F700C0000088E19CE00FB62F
:101F4000F894A895809360000FBE90936000FFCF37
:101F5000CF93DF93EC018091B503883010F0D2DF8E
:101F600080E0E82FF0E0EE0FFF1FEB55FC4F9E01E5
:101F7000C08331838F5F8093B503DF91CF91089544
:101F8000AAE2B0E0E6ECFFE00C94BF308BE792E011
:101F9000FC0101962091F100208322E08338920712
:101FA000B9F780917C02893009F457C0C8F48230B7
:101FB00009F4B2C0833009F482C0813081F180918C
:101FC000E80083FFE6C080917B0290917C029A300A
:101FD00008F0DFC0E92FF0E0E35AFD4C0C943C31EF
:101FE0008A3009F489C08B3051F780917B028132AD
:101FF00031F780917F0290918002892B01F78091C7
:10200000E800877F8093E800B3DD81E090917D0256
:10201000911101C080E08093140174DFD0CF8091D2
:102020007B02813A61F68091E800877F8093E80027
:1020300080917F0290918002892B59F060E080E0CE
:1020400090E070E008DD8091E8008B778093E800F5
:10205000B6CF68E083E892E0F4CF80917B028132D2
:1020600009F0ADCF80917F0290918002029708F035
:10207000A6CF8091E800877F8093E8008091E800F8
:1020800082FF18C02091F3008091F200922F0297F6
:1020900031F48091F100813011F0863021F480918B
:1020A000F100809313018091E8008B778093E80022
:1020B0005FDD85CF8091FB028111E0CF80CF8091E1
:1020C0007B02813A09F07BCF80917F029091800260
:1020D000892B09F074CF8091E800877F8093E80016
:1020E0008091E80080FFFCCF809114018093F10083
:1020F0008091E8008E77DACF80917B02813209F0FF
:102100005ECF8091E800877F8093E80031DD809189
:102110007E028093120153CF80917B02813A09F0B5
:102120004ECF8091E800877F8093E8008091E8009F
:1021300080FFFCCF80911201D9CF803889F082389E
:1021400041F580917F028F70873018F58093E90008
:102150008091EB0085FB882780F91092E90006C08A
:102160008091FA02880F90917802892B9091E80073
:10217000977F9093E8008093F1001092F100809196
:10218000E8008E7723C0811116C080917D028130D6
:1021900009F18091E80083FF0AC08091E800877F01
:1021A0008093E8008091EB0080628093EB00AA9618
:1021B000E3E00C94DB30823061F780917D02811581
:1021C00079F01092E9008091E800877F8093E80021
:1021D000CFDCDFCF933009F080E08093FA02F1CFBB
:1021E00080917F028F70282F2150263090F68093A7
:1021F000E9002091EB0020FFE4CF933031F480918F
:10220000EB0080628093EB00DCCF9091EB0090615B
:102210009093EB0021E001C0220F8A95EAF720930A
:10222000EA001092EA008091EB008860EBCF811108
:10223000B0CF80917D028F77182F8091E300807856
:10224000812B8093E3008091E800877F8093E800F2
:102250008FDC8091E80080FFFCCF8091E3008068F4
:102260008093E30083E0111101C082E08093FB02C0
:1022700090CF8058823008F08CCF20917D02309131
:102280007E022C3D83E0380789F583E08A838AE269
:1022900089834FB7F894DE01139620E03EE051E2C7
:1022A000E32FF0E050935700849120FF03C0829504
:1022B0008F703F5F8F708A30B8F0895C8D931D926C
:1022C0002F5F243169F74FBF8091E800877F8093AB
:1022D000E8006AE270E0CE010196BDDB8091E80083
:1022E0008B778093E80055CF805DE8CF832F90E017
:1022F0008330910519F160F48130910509F46CC0C7
:102300008230910509F045CF8BE3E4E3F1E029C089
:1023100020917F02309180028132910509F453C0EF
:102320008232910509F035CF2130310508F45CC0C7
:1023300009F02FCF82E3EEEBF0E013C0822F90E0A4
:10234000213099F182309105B9F1009709F021CF40
:10235000EDEAF1E0E4918E2FEDEAF1E0009709F467
:1023600018CF2091E800277F2093E8002091810278
:10237000309182028217930708F49C0140E02115F6
:102380003105B1F5411134C08091E80082FDA6CF3E
:102390008091FB02811509F4A1CF853009F49ECF0D
:1023A0008091E80083FFF0CF99CFEDE9F1E0E4916F
:1023B0008E2FEDE9F1E0D2CFE1E8F1E0E4918E2F4C
:1023C000E1E8F1E0CBCF2130310550F009F0E1CE6A
:1023D00089E0EFE5F1E0C5CF82E1EFE6F1E0C1CFC2
:1023E00089E0E6E4F1E0BDCF84E4E0EFF0E0B9CFCE
:1023F0008091FB02811509F471CF853009F46ECF0D
:102400008091E80083FD6ACF8091E80082FDBCCF17
:102410008091E80080FFB3CF4091F3008091F200FB
:10242000942F2115310519F08830910550F041E0C5
:10243000089709F040E08091E8008E778093E800EB
:102440009ECF44914093F10031962150310901967D
:10245000E8CF803809F09DCE8091E800877F809397
:10246000E800809179028093F10089CE811191CEAC
:1024700080917D02182F823008F08BCE8091E80089
:10248000877F8093E8001093790272DB111599F031
:1024900084E08093FB0242E061EC81E039DB42E2C0
:1024A00061EC82E035DB8091FB02843051F482E004
:1024B000809315016ECE8091E30087FDE9CF81E026
:1024C000E8CF81E0F5CFCF93C82F811599F08450E4
:1024D000813A90F4E2E7F2E088E792E02081C217C7
:1024E00089F131968E179F07C9F76C2F80E792E02C
:1024F0000CDAC3DCCF9108958C2F805E883060F4B5
:10250000C77021E001C0220FCA95EAF780914B0401
:10251000822B80934B04EDCF8C2F855A833028F487
:102520008C2F8452990BA3D9E5CFC85ACB3110F721
:10253000EC2FF0E0EE0FFF1FE95CFD4F80819181F1
:10254000BDD9D8CF8C2FFCD998DCCFCF811511F114
:10255000982F9450913A10F4F3D98FCC982F905E25
:10256000983058F4982F81E091FD84E090FD880F19
:1025700092FD82950E94EB04F0CF982F955A9330EC
:1025800018F480E090E073C9885A8B3118F480E029
:1025900090E094C908951F93CF93DF93182FC0E55F
:1025A000D0E0893311F0C0E0D0E0812F8CDF20979C
:1025B00031F4812FCBDFDF91CF911F9108958FE907
:1025C0009FE00197F1F700C000002197F0CF80E075
:1025D00090916A0320916903291711F1E92FF0E026
:1025E000E559FC4F8081282F2F779F5F9370909340
:1025F0006A03909168039F5F90936803211531F0FF
:10260000213041F487FF0AC08EE403C087FF04C075
:1026100089EAC1DF81E0DCCF8AEAFBCF8BE4F9CF26
:102620000895811531F090914B04982B90934B04B1
:1026300024CC0895811519F00E94EB041ECC089556
:10264000FF920F931F93CF93DF93C62FD42FF22EB9
:102650008115A1F060933E0482D9809393029093F8
:10266000940281E0C1FD84E0C0FD880FC2FD829527
:10267000D8DFCDB7DEB7E5E00C94D93080913E04C9
:1026800068132DC0009193021091940268D9801BA9
:10269000910B883C910518F51D2F105ECD1791F018
:1026A000C77001E0802F01C0880FCA95EAF7C2DF2A
:1026B000183040F48D2F877001C0000F8A95EAF71B
:1026C000802FAFDF8F2D67DF81E0D1FD84E0D0FD6B
:1026D000880FD2FD8295183060F6ACDFCACF81E05A
:1026E000C1FD84E0C0FD880FC2FD8295F6CF811543
:1026F00031F090915104982B90935104BECB0895E2
:1027000080912E04811541F0809151048D7D80933C
:102710005104B3DB10922E0408951F93CF93DF93DF
:10272000182FA0913404B0913504109709F445C0D6
:102730001092360410923704109232041092310431
:102740001796CD91DD9119979E0131503F3100F4DC
:10275000D1E0C11101C0D0E01A96ED91FD911C9716
:10276000309731F01C966D917D9180E00995D823CA
:10277000D11531F08C2F8450813A18F58C2FE0D888
:102780001115A1F0E0913404F0913504818584FDA8
:102790000DC080913304811549F0808191819C01A5
:1027A000215031092F333E4708F414D966DB1092CB
:1027B00034041092350410923304DF91CF911F91AD
:1027C00008955BDB8C2FC2DEDBCF8F929F92AF929E
:1027D000BF92CF92DF92EF92FF920F9388E090E04A
:1027E0000E94C6314B015C01609343049092440403
:1027F00080934504B0924604109247041092480416
:102800001092490410924A0483E290E00E94BE3183
:102810009401A5018092430430934404A09245049E
:102820005093460480934704109248041092490440
:1028300010924A040F91FF90EF90DF90CF90BF90DD
:10284000AF909F908F90089586E090E00E94BE31F7
:1028500080932D0482FD06C08DE180932D048DE2CE
:1028600094E005DB80912D04803320F0877088622E
:1028700080932D0490912D04892F817090FF04C0C6
:10288000892F8695869586950C948B0A0F93CF9306
:10289000DF93C3E4D4E0488159816A817B8188E079
:1028A00090E00E94E2316C81262F60E070E0CB0165
:1028B000622F83E20E94D031DF91CF910F91089572
:1028C0008DE280934304109244048FEF809345047B
:1028D00080E880934604109247048091420483600C
:1028E0008093420483E494E0D1CF80914704833005
:1028F00018F48F5F8093470483E494E0C7CF8091FE
:102900004704811519F081508093470483E494E0D3
:10291000BDCFA0E0B0E0EFE8F4E10C94BB30C82FED
:10292000E62E142FD22E2091430420FF35C0809133
:1029300044048C1308C090914504961304C09091F0
:102940004604941729F090914204926090934204B7
:10295000322F36953695E32FF0E0EC53FE4F908101
:10296000909340042C7F2430E1F46C2F7E2D812F36
:102970000E94A207962F672F482F892F0E94500888
:102980008C2F80934404E092450410934604D114A4
:1029900019F083E494E07ADFCDB7DEB7E7E00C947A
:1029A000D730923019F410914604EACF963049F3AB
:1029B000993039F3993121F787EEF82EF30EEF2D88
:1029C000E695F0E0EF59FC4FD49100E060911A01D8
:1029D000061718F00E943608D3CF0D9FC0011124AE
:1029E00070E00E941531862F8C0FF0FE02C08C2FF4
:1029F000861B20911801200F3327331F412F6E2D86
:102A00000E9424080F5FE2CFE3E4F4E0818121E03B
:102A100043816281885F7DCFE3E4F4E0818121E03E
:102A200043816281885075CFE3E4F4E0628128E05D
:102A3000620F08F46FEF21E0438181816ACFE3E404
:102A4000F4E0628128E0621B08F460E021E0438149
:102A500081815FCFE3E4F4E0438128E0420F08F492
:102A60004FEF21E06281818154CFE3E4F4E04381C0
:102A700028E0421B08F440E021E06281818149CFD7
:102A8000CF92DF92FF920F931F93CF93DF93690151
:102A9000E801082F880F110B41155105B1F0F8011D
:102AA00033E0EE0FFF1F3A95E1F7E85DFE4F8181BD
:102AB0009281825C9C4FE0812E2F30E04E175105B1
:102AC00008F49A01A9010E94B531C8010E94423060
:102AD000F82E8115E1F02097D1F0C80123E0880F8E
:102AE000991F2A95E1F7FC01E85DFE4F2381422FF3
:102AF00050E0C217D10508F4AE01885D9E4FFC017D
:102B000064817581625C7C4FC6010E94B5318F2D56
:102B1000DF91CF911F910F91FF90DF90CF9008959B
:102B2000A4E0B0E0E6E9F5E10C94BC30E0902B03C2
:102B3000F0902C0300912D0310912E030E94BB0CEA
:102B4000DC01CB018E199F09A00BB10B11E084367B
:102B50009105A105B10510F10E94C70CDC01CB0164
:102B60000296A11DB11D89839A83AB83BC8300E0CB
:102B700010E0980144E050E0BE016F5F7F4F85E0B8
:102B80007FDF182F811551F00E94BB0C60932B033F
:102B900070932C0380932D0390932E03812F249602
:102BA000E6E00C94D830A1E0B0E0E9EDF5E10C945A
:102BB000B030662E2A01190168018D019E012F5F38
:102BC0003F4F40E050E0BA015BDF182F8115B1F1B3
:102BD000F20180809180A280B3800E94BB0C79803A
:102BE000681979098A099B0964367105810591057F
:102BF00030F4B701C6010E94EC0B8715F9F087018C
:102C0000910140E050E0BA01862D3ADF082FB7016C
:102C1000C6010E94EC0B10E087110BC0102F117041
:102C200000FF07C00E94BB0CF201608371838283A6
:102C30009383812F2196E2E10C94CC30A701B60159
:102C4000C1010E94B531F5CFA5E0B0E0EAE2F6E1BE
:102C50000C94BA306B017D010FE313E0CE010196B5
:102C60009C014AE353E061E080E09DDF811559F06B
:102C700095E09E012F5F3F4FF901A5E3B3E001907E
:102C80000D929A95E1F795E0E5E3F3E0D601019026
:102C90000D929A95E1F72596E8E00C94D630A8E0DD
:102CA000B0E0E5E5F6E10C94BC307D0105E413E00D
:102CB0009E012F5F3F4F41E353E063E082E073DF0B
:102CC000182F811599F19091440380913003981742
:102CD00069F19091480380914703891709F1E92F21
:102CE000F0E0EE5BFC4F878187FB662760F99F5F12
:102CF000937090934803909146039F5F909346038F
:102D00008F770E94340BF82E8111E3CF00E010E0A2
:102D10009801A801B80184E0B3DEF8221F2D02C09B
:102D2000F110F4CF8091440380933003812F2896D3
:102D3000E6E00C94D830A0E0B0E0E1EAF6E10C94D3
:102D4000B630D82EEB01C42E59014801E880F98035
:102D50000A811B810E94BB0CDC01CB018E199F09EB
:102D6000A00BB10B84369105A105B10510F4C11477
:102D700079F000E010E09801A401B5018D2D80DE0E
:102D8000811539F00E94BB0C688379838A839B8309
:102D900081E0CDB7DEB7ECE00C94D230A1E0B0E03A
:102DA000E4EDF6E10C94BE3080912D0480FF16C056
:102DB000869586958695898341E090915103981375
:102DC00001C040E08D019E012F5F3F4F67E273E03D
:102DD00086E0B1DF2196E4E00C94DA3080E0EBCFBE
:102DE000ABE0B0E0E6EFF6E10C94BE3028E0E3E4BF
:102DF000F4E0CE010196DC0101900D922A95E1F7F5
:102E000030914004209141045091420439872A872F
:102E10005B8741E09C01511101C040E00BE010E0F4
:102E200063E273E087E087DF8111109242042B9602
:102E3000E4E00C94DA30A0E0B0E0E1E2F7E10C94D9
:102E4000B430FC018281882E948081E08483E1E6A5
:102E5000F2E0A490E0EEF2E0E491C0914604C69561
:102E6000C158D0E0CC0FDD1FED2EF12CB12C05E0C8
:102E70001FEFEA198E2F90E03C0180911A01B816DD
:102E800038F00E943608CDB7DEB7EEE00C94D030B3
:102E9000CB2CD12C882D833058F40B9DF0011124BC
:102EA000E654FD4F809144048083809145048183E2
:102EB00091101CC00C9DF0010D9DF00D1124E654E5
:102EC000FD4F13821282809118019601280F311D47
:102ED0000C9DF0010D9DF00D1124E654FD4F428133
:102EE000618180810E942408B394C7CF0C9DE001CA
:102EF0000D9DD00D1124C654DD4F8B818115E1F05D
:102F000081508B83189FC00111246C8170E00E9456
:102F1000153170E0FB01EF59FD4F84918A19189F1C
:102F2000C0011124B3010E94153180914604689FAD
:102F3000B00111247A83C7CF0E948F316FEF70E008
:102F40000E9429318E159F050CF0BDCF882D83304E
:102F500090F00E948F316FEF70E00E9429318883DA
:102F60000E948F31209145042695622F70E00E94C7
:102F70002931280F29830C9DF0010D9DF00D11249E
:102F8000E654FD4F128280914604893C58F088EC4B
:102F90000C9DF0010D9DF00D1124E654FD4F84832E
:102FA000838391CF8431A0F784E1F2CF6091430411
:102FB0006695669570E04BE050E087E091E00E94F6
:102FC0009B31892B19F481E0809341040E94E20C2B
:102FD00080935D0390935E038091420484608093AC
:102FE000420408959091430490FF31C0811581F10E
:102FF0008B3280F58F73880F880F90914304937004
:10300000892B809343048091420481608093420421
:10301000611519F083E494E039DC6091430466950E
:10302000669570E04BE050E087E091E00E949B31B4
:10303000892B91F00E94900881E08093600320E04A
:1030400040914604609145048091440462CC089507
:1030500081E0D1CF8AE2CFCFA9DFEECFA5E1B0E00A
:10306000E4E3F8E10C94B730FE013C96DF018AE01E
:103070001D928A95E9F738E6C32E31E0D32E7F0101
:103080009E2EAF2C03E711E0F60181916F018F3F77
:1030900009F43DC0F894E82FE295EF70F0E021A12B
:1030A0008F7041E001C0440F8A95EAF7922F942B6C
:1030B00091A392A1842F8095892382A3789400C044
:1030C000EDE6F1E031E0B12C21912F3F79F0A22F14
:1030D000A295AF70A05EB0E08C9190E02F7002C01E
:1030E000959587952A95E2F780FFF1C080E0B82A90
:1030F000330F0E171F0741F7F60182918F3F11F032
:103100000E94870780EA8A95F1F7F701B0828FEF76
:10311000E81AF80A8DE6C81681E0D80609F0B4CF9F
:103120004AE050E0692D7A2D89E893E00E94A831A9
:103130007C01892B49F08AE0E92DFA2DA9E8B3E05A
:1031400001900D928A95E1F70091880310E01092AA
:103150007D03D0907C03D11409F48DC10E94AF0C83
:1031600040917A0350917B039C01241B350B809383
:103170007A0390937B0384179507C9F031112FEFE1
:10318000E4E7F3E049E753E030E090E08191811516
:1031900039F0DF011197281708F49BC01C923D2DD0
:1031A0004E175F0799F73093790390937C03EF28CC
:1031B00061F4809179038115A1F1D11006C00E94BC
:1031C000AF0C80937A0390937B0310927903309134
:1031D0007C03C80182589C4F29E8E22E23E0F22E9E
:1031E000E4E7F3E020E055E0DC016D91CD01D7018B
:1031F0004D917D01641759F06081611108C05083C1
:103200009C0121503109D9014C9321E031E03196E4
:103210004EE8E41643E0F40639F730937C0320933C
:103220007D0302581C4F809197037E019FEFE91A9E
:10323000F90A811509F486C0F70185E011928A9593
:10324000E9F780916F038A3008F047C044E256E105
:10325000B701C8010E94750E811509F461C04FE4E1
:1032600056E1B701C8010E94750E811509F458C0D6
:1032700040E955E1B701C8010E94750E811509F4B6
:103280004FC04EEC56E1B701C8010E94750E811582
:1032900009F446C040EF56E1B701C8010E94750E1F
:1032A0008115F1F110926F038091730390E045E076
:1032B00050E0B70182589C4F0E94A83121E0209332
:1032C0007203892B09F56596EBE00C94D330832FBC
:1032D0000ECF821B8C939D2D63CFC0907003D09036
:1032E00071030E94AF0C8C199D09843F914008F036
:1032F000ADCF80917203811531F3F70185E0119212
:103300008A95E9F710927203A0917303B0E0A25876
:10331000BC4F85E0F70101900D928A95E1F7D3CF7C
:1033200080916F038F3F39F40E94AF0C809370033C
:1033300090937103DECF8F5F80936F038A3008F420
:10334000B3CFF2CF85E0F801AFE3B3E001900D9287
:103350008A95E1F765E070E08FE393E00E94EC0B63
:1033600080933E0388E0E7E6F3E0A5E4B3E0019054
:103370000D928A95E1F768E070E085E493E00E94A1
:10338000EC0B80934403A0904D03B0904E03C0908B
:103390004F03D09050038091630390916403A091F8
:1033A0006503B0916603A816B906CA06DB06C1F02C
:1033B000A0926303B0926403C0926503D092660347
:1033C0000E94BB0CA61AB70AC80AD90AC501D601C1
:1033D0008093930390939403A0939503B0939603E3
:1033E000809151030E941C0B8BE0E2E5F3E0D701D2
:1033F00001900D928A95E1F7F0905303E090540309
:10340000D090550300915B0310915C0310925C0314
:10341000111509F458CF10FF0CC089819091430415
:1034200080FF19C091609093430460E08695869573
:10343000D9DD11FF05C020E04D2D6E2D8F2D69DAED
:1034400012FF03C00115A1F0B1DD13FF3CCF81E0F5
:103450008093600338CF9E7F909343040E9490082E
:10346000809142048160809342040E943608E1CF3B
:103470000E949008EACFEF2809F49BCEA0CE80915D
:103480004304869586958F5F8B3208F081E061E07A
:10349000A9CD8091430486958695815009F48AE2EE
:1034A00061E0A0CDA0E0B0E0E8E5FAE10C94B7302F
:1034B0006C015B01C501F6010995813068F109F0E5
:1034C00044C0C501F6010995813029F4C501F60112
:1034D000099561D8EFCF823031F4C501F601099525
:1034E0000E946312E7CF833029F4C501F6010995E4
:1034F0002DD8E0CF843071F4C501F6010995C0E004
:10350000D0E01AE0282F2053330B2A30310548F041
:10351000209799F48111CECFCDB7DEB7EBE00C94B4
:10352000D3301C9FC0011D9F900D1124280F391FFF
:10353000E901C501F6010995E5CFEFE9FFE0319713
:10354000F1F700C000002197E3CFE82FF0E0EF5142
:10355000FE4F9491992E282F26952695269530E09A
:10356000F901EF52FE4F0491877010E0082E02C05F
:10357000159507950A94E2F7F901EF53FE4FE49091
:10358000F12C082E02C0F594E7940A94E2F72F5428
:103590003E4FF901C491D0E002C0D595C7958A95F8
:1035A000E2F700FF03C081EE0E946312E0FE03C059
:1035B00086EE0E946312892D0E946312892D0E945B
:1035C000A612E0FE03C086EE0E94A61200FF03C012
:1035D00081EE0E94A612C0FF6DCF8CE27ACFA2E0EE
:1035E000B0E0E5EFFAE10C94BE308C0187E996E09B
:1035F00089839A83CE010196BC0181E993E052DF71
:10360000C80109839A83CE010196BC018AE893E040
:1036100049DF2296E4E00C94DA30A0E0B0E0E3E188
:10362000FBE10C94BA307C01FC018481811509F422
:1036300072C060E0C7010E942807F701268120318F
:1036400070F440912C0430912B04431317C0309137
:103650002704311521F030912804303178F0F7013A
:103660003581311124C0903580F5903208F03FC08B
:10367000883E9105C0F4803E9105C8F061E0C70125
:103680000E942807EC01F7018581811509F4E2C643
:10369000FE01E054FE47EB30F10508F060C0E95947
:1036A000FD4C0C943C319C0131503F31E8F080934B
:1036B000200490932104F7018281938180931E045A
:1036C00090931F0410927301D9CF803422E59207A2
:1036D00020F4803222E59207D0CF9C012058324559
:1036E0002036310520F7CACF8111E1CFC7CF203175
:1036F000F9CF8BE891E073DF80914E04877059F029
:10370000F7018581811539F08091500482FF03C053
:1037100082E00E94D504CDB7DEB7E8E00C94D63045
:103720008DE891E0E8CF82EB91E0E5CF8FE891E082
:10373000E2CF81E991E0DFCF83E991E0DCCF85E959
:1037400091E0D9CF8DE991E0D6CF85EA91E0D3CF52
:1037500061E081E047DCD0CF61E082E0FBCFC330A5
:1037600088E7D80709F46AC008F048C0C13088E784
:10377000D80709F461C0C23088E7D80709F48FC0C0
:10378000C11588E7D80709F44FC080912E04811530
:1037900009F4E3C000914B0410914C040E94AF0C5B
:1037A00088579C4E80932F0490933004F7018581B5
:1037B000811509F4D2C0102B1D7909F0F9C0D0355C
:1037C00008F0A6C0D03408F0F8C0C63ED10509F410
:1037D000C4C0CE019052903208F0F4C0868180318E
:1037E00008F4DBC08C2F90E0109251048D329105CB
:1037F00009F09CC082E080935104E8C0C43088E79F
:10380000D807C9F1C53088E7D80709F45CC0C337C9
:103810008CE7D80709F0B9CF80912E04811509F4FF
:1038200064C00E94801368CF85E00E941C0B8DE26B
:1038300094E00E94370F60CF80E0F7CF80912D0495
:10384000883088F0885080932D0491E0883008F407
:1038500090E080912D0490FB80F980932D048DE2FF
:1038600094E00E94370F80912D0486958695869569
:103870000E948B0A41CF90912D04892F86958695C1
:103880008695983240F48F5F880F880F880F977065
:10389000892B80932D0480912D048160DECF80914F
:1038A0002D0480FF09C08E7F80932D048DE294E06B
:1038B0000E94370F80E0DCCF816080932D0481303F
:1038C00071F689E0CACF80912D04869586958695FC
:1038D0008F5F8F71863008F080E0880F880F880F27
:1038E00090912D049770892BAECF10924B0480914C
:1038F0004C04811110924C040E94AF0C88579C4ECE
:1039000080932F049093300481E080932E04F4CEB2
:10391000C43B82E5D80709F1D8F5C03482E5D80761
:10392000B0F4D235D0F410925104CE018E3291050C
:1039300008F04FC08832910508F046C08E319105DD
:1039400008F044C004974A9708F454CF31C0CE0120
:10395000805692458034910530F7F701C580C11437
:1039600009F441C0CE358CE7D807C9F1CF358CE7D3
:10397000D80741F0CD358CE7D807A9F580917401BF
:10398000811569F11092740180E00E948D13B4CE0C
:10399000CE01805C92458097DFCF8D2F8F7184316F
:1039A000E1F248F48D2F8F70823011F4109251049F
:1039B0000E948013D2CF8631F8CF8681803108F003
:1039C00011CFCBCFCE0110CF8A9791F70E943D0F38
:1039D000C4CF8C349105D1F38D329240F6CF81E083
:1039E0008093740189CE80917401811509F4F0C02F
:1039F0008E01005E1109D0904D0480914B04D82AAD
:103A000080914C04D82A08301105D8F59E01277002
:103A100081E001C0880F2A95EAF7C11469F1D82A1C
:103A2000F701808191810E94120421E030E002C000
:103A3000220F331F8A95E2F7232BE1F1083011059D
:103A400008F0A9C08091340490913504845B9140C2
:103A500089F16D2D84EB91E00E94040C811551F1E8
:103A6000CA32D10509F46CC080913C0490913D04A8
:103A70008A9701F5C12C67C08095D822D114D1F066
:103A8000CFCFC1104AC080913C0490913D04C8172B
:103A9000D90781F410923C0410923D04109238042E
:103AA0001092390410923A0410923B04109236049A
:103AB000109237048091340490913504009709F4F2
:103AC00087C00830110508F06FC06D2D0E94040CEE
:103AD000811103C081E00E948D13F701858181155A
:103AE00009F493C410923E049E01305723323105ED
:103AF00008F099C484E090E00E94CB3180934F0499
:103B000090935004FE01E150F047E232F10508F0D5
:103B100089C0EE58FD4C0C943C31C0933C04D093CA
:103B20003D040E94BB0C6093380470933904809369
:103B30003A0490933B0410923604109237049ECFBF
:103B4000C11409F491CF80E00E948D1384EB91E0C1
:103B5000809334049093350481E08093330482E2AF
:103B600080933204C11003C08AE20E94A00C8CE44E
:103B700090E00E949903809331040830110570F49D
:103B80008CE490E00E94EA0C0E943D0FC11401F108
:103B90000E943D0FB1CDC11055CF8CCF6CE480E7B2
:103BA00092E00E94850CF2CFFC0120813181C21786
:103BB000D30741F4C11008C01092330480E00E9482
:103BC0008D1306C0C11421F0FC01818585FFF6CF5D
:103BD000F7018581FE01E851FC47E730F10508F067
:103BE0007ECFEC56FD4C0C943C3126E241EE61EE6A
:103BF0000E94201381CD27E245EE65EEF9CF26E243
:103C000041EE60EEF5CF27E245EE64EEF1CF26E21D
:103C100041EE62EEEDCF27E245EE66EEE9CF28E217
:103C200041E0EBCF80914F04816080934F0460911D
:103C30004F047091500484E090E00E94EA310E94A9
:103C4000820F5ACD80915004886080935004EFCF4A
:103C500080914F048260E9CF80914F048460E5CF6A
:103C600080914F048860E1CF809150048160EDCF56
:103C7000809150048260E9CF80914F048061D5CF5C
:103C800080914F048062D1CF80914F048064CDCF6A
:103C90000E94820F80914F048068C7CF80914F04AB
:103CA0008C60C3CF809150048360CFCF80914F044C
:103CB0008E7FBBCF80915004877FC7CF80914F0408
:103CC0008D7FB3CF80914F048B7FAFCF80914F0416
:103CD000877FABCF809150048E7FB7CF8091500407
:103CE0008D7FB3CF80914F048F7E9FCF80914F0403
:103CF0008F7D9BCF80914F048F7B97CF0E94820F47
:103D000080914F048F7791CF80914F04837F8DCF27
:103D1000809150048C7F99CF90914F04892F8B7F95
:103D200092FF8460877F92FF88607FCF80915004EC
:103D3000982F909590FB80F990FB81F986CF909118
:103D40004F04892F8F7B96FF80646FCF0E94820F74
:103D500090914F04892F97FB87F9805866CF61E0D7
:103D60008EE090E00E94D03162CF60E0F9CF909178
:103D70004F04892F8F7E94FF806157CF90914F041D
:103D8000892F8E7F90FF816050CF90915004892FB2
:103D9000877F93FF886059CF89E242C39272FE0108
:103DA000E052F847EB30F10508F050C0E556FD4C05
:103DB0000C943C318091430480FF11C08E7F80932E
:103DC000430483E494E00E9446140E94900880918A
:103DD00042048160809342040E9436088DCC816049
:103DE0008093430461E086958695B4CC911521F0CB
:103DF00050DB82CC9115E1F342DB7ECC911529F0AA
:103E00000E940C1579CC9115D9F30E94041574CC3D
:103E1000911529F00E941F156FCC9115D9F30E94BE
:103E200014156ACC911529F00E94351565CC9115B1
:103E3000D9F30E942A1560CC911529F00E947F14B5
:103E40005BCC9115D9F30E94751456CC9E01205E6F
:103E5000324520323105A0F4811129C0CF7181E0B3
:103E600090E002C0880F991FCA95E2F7EC01682F15
:103E700083E090E00E94D031CE010E94B5033CCC9B
:103E8000811509F461C0CB359CE7D90709F452C00C
:103E9000CC359CE7D90709F442C0CA359CE7D9075D
:103EA00009F446C0C1309CE7D90709F44BC0C330C0
:103EB0009CE7D90709F440C0C115DC4709F044C0AC
:103EC0000E94820F8FEF94E32CE0815090402040BD
:103ED000E1F700C0000081E08093E00080E2809381
:103EE000D8001092C9008FE19EE40197F1F700C05D
:103EF0000000A7E0B0EBCD018093CD049093CE04F9
:103F0000A093CF04B093D00488E19CE00FB6F8945E
:103F1000A895809360000FBE90936000FFCF8091C2
:103F20005004002482FF0394802D0E94200FE4CBD4
:103F300081E0FBCF80E0F9CF6FEF7FEF80E090E092
:103F40000E94EA310E94930FF701278130852115E5
:103F5000310509F44FC0C9010E940806D82FC92FA6
:103F6000F701C580068102950F7080914E0487701D
:103F700001F1DC2CC114F1F0892F807F803461F0D5
:103F80008D2F805E8830A8F0892F807E803221F4CA
:103F9000D23078F0011569F08091500482FF09C099
:103FA00082E00E94D50480914E048770DD24D39472
:103FB0008111D12C8C2F82958F70883009F414C117
:103FC00008F048C0843060F51C2F1F70823008F460
:103FD00052C0C07FC03211F01295107FD13008F46A
:103FE00080C009F4C7C0C11409F4D1C0011509F497
:103FF00096C056C000811181811569F0C8010E94E8
:10400000F406C82F682FC8010E94DD03B8018C2F69
:104010000E94F304A1CFC8010E941204C82FF6CF5A
:1040200009F4C6C0D11409F416C180914E0480FD74
:1040300012C1F70115828695869586950E94BF0369
:10404000C701EBDA80914E048695869586950E948D
:10405000CD0301C1893009F457C18A5F8F70823066
:1040600008F7D23F09F061C18C2F8F71C1105AC17E
:104070000E94BF03EEC0C03110F01295107FC11432
:10408000B9F0111569F08D2F805E883010F0D111D4
:1040900009C080914B04812B80934B040E943D0FFB
:1040A0008D2F2FC080915104812B80935104F6CF26
:1040B0008D2F0E94A612111509F4B4CF8D2F805EAA
:1040C000883010F0D11104C0812F0E94EB0406C08B
:1040D0001095809151048123809351040E943D0FDB
:1040E000A1CF8091500482FD16C0C11469F0111552
:1040F00039F080914B04812B80934B040E943D0F3B
:1041000080E00E9463128ECF80E00E94A6121115FB
:1041100009F488CFD9CFC11499F0013020F4812F50
:104120000E9411137FCF09F07DCF80914C04912F15
:104130009823191709F476CF812B80934C0472CF02
:10414000011170CF812F0E941A1390914C04812F7E
:10415000892329F0812F8095892380934C048091B5
:104160004D04912F982309F45DCF109518231093D7
:104170004D0458CFC11421F0063008F053CFCFCFF3
:10418000053008F04FCF812F0E941A134BCF011535
:10419000D1F3D93349F48FEF97EE23E0815090406B
:1041A0002040E1F700C000008D2F0E94A6123ACFF8
:1041B0008C2F869586958370813060F009F032CF20
:1041C0008D2F9C2F9370C11002C080E090E00E9460
:1041D0005E0C28CF8D2F9C2F9370C11002C080E001
:1041E00090E00E94370C1ECF8C2F837009F046C0E0
:1041F000C1102FC04D2F429546954770440F440F74
:104200002D2F2F7030E0042E02C0220F331F0A948E
:10421000E2F780E090E0D4FF09C08FE090E002C0B8
:10422000880F991F4A95E2F780959095C695C69597
:10423000C370C230D1F0C330A9F04091C90450918D
:10424000CA04C13069F0822B932B842395230E94EA
:10425000B5030E94240C60E0C7010E9428075BCAD6
:10426000242B352B822B932BF2CF822B932B209157
:10427000C9043091CA0482279327E9CFC11491F170
:10428000C0FFE7CF4D2F429546954770440F440F2E
:104290002D2F2F7030E0042E02C0220F331F0A94FE
:1042A000E2F780E090E0D4FF09C08FE090E002C028
:1042B000880F991F4A95E2F780959095C695C69507
:1042C000C370C230C1F0C33099F04091CB0450911B
:1042D000CC04C13059F0822B932B842395230E9468
:1042E000BA03B7CF823008F4B4CFCCCF242B352B10
:1042F000822B932BF4CF822B932B2091CB043091E4
:10430000CC0482279327EBCFCF70C11439F08C2FC8
:104310000E94BF038D2F0E9411139BCF8D2F0E94EF
:104320001A138C2F0E94CD0394CF70F4D03FC9F0A4
:10433000D13F91F0C11409F454C0011509F44EC0E5
:104340008D2F0E94631285CFD33F11F1D43F91F797
:104350009091500492FD2AC08C2F8F71C11411F3DB
:1043600087CEC11499F0053008F073CFCF7181E08A
:1043700090E002C0880F991FCA95E2F7EC01809186
:10438000CB049091CC048C279D27A9CF0630ECCF8D
:1043900080E090E0C11409F4A2CFCF7181E090E0F9
:1043A00002C0880F991FCA95E2F799CFC11461F036
:1043B0008C2F8F7192FF5CCE982F990F990F990FC8
:1043C000936090934E0454CE81E00E94D504023055
:1043D00008F43FCF82E00E94D5043BCF8C2F8F7131
:1043E00047CE011579F0D93349F48FEF97EE23E0EA
:1043F000815090402040E1F700C000008D2F0E94C6
:10440000A61227CF8C2F8F718DCFC6319CE7D9078D
:1044100009F01CCD80913F04811509F4BDCC85E3E2
:104420000E94A00CB5CB90914B04C6312CE7D2076B
:1044300009F0B4CC9A7A81E0911101C080E08093B8
:104440003F0465E3911101C069E280E792E00E94B8
:10445000850C9ECBC3378CE7D80709F096C94CC9A9
:1044600080912804803170F480912704811551F0E7
:10447000E0912C0420912B043091230440912204DC
:104480002E1301C00895BF0189E0E89FF0011124B7
:10449000DF01AA54BC4F14968C911497811551F1E9
:1044A00011968C911197831325C08C91841322C08F
:1044B00015968C91159781111DC012968D919D9125
:1044C000A0912404B09125048A1B9B0B883C910584
:1044D00088F4809128048F70806180932804E454CC
:1044E000FC4F80818F708061808382E294E095D858
:1044F0000C94CB046F5F7F4FFB01E770C1CFFF923D
:104500000F931F93CF93DF93EC018091730181157B
:1045100039F0F12C8F2DCDB7DEB7E5E00C94D93012
:104520000A811B81061B170B043F81E0180788F7DF
:1045300060E0CE010E9428079C013052303348F7DA
:104540000E94A104811529F38091200490912104F7
:104550000E94A104F82E8115E1F206391105C8F672
:104560008E818F7080618E83888199810E94A80FCF
:104570000E946404CE0151D8CDCFAFE0B0E0E3ECAF
:10458000F2E20C94B5308C0186E0F801DE011A9657
:1045900001900D928A95E1F7F801B080C180E28028
:1045A000F380A480D5803091B503E0E0D11409F404
:1045B0003EC082E2882E84E0982E809126048111EC
:1045C00060C0A11419F1D11409F475C2C8010E9488
:1045D0005507811509F46FC260911E0470911F0484
:1045E000C8018DDF811112C089E0F801D40101906A
:1045F0000D928A95E1F780912604813031F4809103
:104600002204909123040E944B072ADFFF24F39495
:1046100090C0880F991F8B559C4FDC0111962C91EF
:104620001197C21203C08C918B1549F0EF5F8E2F4A
:104630009E2F990F990B831791055CF3BACFEF3F2B
:1046400009F4B7CFD80116968C918F7080618C9346
:10465000E317A0F431503093B503E31778F4F0E09A
:10466000EE0FFF1FEB55FC4FA32FB0E0AA0FBB1FAF
:10467000AB55BC4F8D919D91808391830E946404C2
:1046800098CF60E082E294E00E9428079C0170903D
:1046900027048091240490912504A701481B590BFD
:1046A000711409F4C1C1483C510508F08FC1A1142F
:1046B00009F4ACCF40912304F80181819091280442
:1046C000903108F037C1481355C0409122048081D1
:1046D000481350C06091290470912A044781508585
:1046E0006417750709F046C0D11044C09F709061EF
:1046F0009093280482E294E00E940D1B809128048C
:10470000F8018683C0902404F090250400912C04C5
:1047100080912B04081751F089E0089F8001112433
:104720000A541C4FF8018581811108C00E94CB04F6
:10473000F12C8F2D2F96EDE00C94D130D280E380B8
:10474000C8010E94550781110EC0C8010E940D1BAF
:1047500080912C0490912D040196877080932C04F5
:10476000CD2CFE2CD3CF6C2D7F2DC801C8DE81113E
:10477000EFCFDCCF3052303308F089C0D110A9C060
:1047800040E06C2D8B2D0E944504811124C040E037
:104790006C2D8B2D0E94450440E06C2D8B2D0E94CA
:1047A0004504F82E8111C4CF8A859B850E944B0752
:1047B000292F22952F70903408F072C09F702230FC
:1047C00008F477C0911509F479C0F8019681903109
:1047D00008F074C0AECF60E0C8010E942807C8018D
:1047E0000E9471048111D3CF809128048F70806161
:1047F0008093280480912204909123040E94A80FA2
:1048000082E294E00E940D1BE2E2F4E089E0119262
:104810008A95E9F700912C0480912B040817A1F1E7
:1048200089E0089F80011124C8018A549C4F7C01B3
:10483000FC018581811589F0C7010E94550781150A
:1048400061F0F801E454FC4F80818F7080618083B7
:10485000F701808191810E94A80FC7010E940D1B62
:1048600080912C0490912D040196877080932C04E4
:10487000F801EA54FC4F8181C812CCCF80818B11A2
:10488000C9CF8581811531F20E9464044FCFD114C4
:1048900009F47DCF8091280481608093280448CF5B
:1048A0002A5F2F70223078F0C8010E940D1BF72C70
:1048B00040CF911519F0811509F43BCF805E883007
:1048C00008F437CFF1CF803F08F433CF815F8330D6
:1048D000F7CF8091280481608093280460E0C801AC
:1048E0000E942807C8010E947104811121CF809184
:1048F00028048E7F80932804C8010E9455078111E7
:1049000017CF809128048F70806180932804809154
:104910002204909123040E94A80F0E94640482E262
:1049200094E00E940D1BE2E2F4E089E011928A9586
:10493000E9F7FECE48131DC0209122048081281380
:1049400018C04091290450912A04278130854217CC
:10495000530779F4D1100DC09683C8010E940D1B36
:1049600089E0F801A2E2B4E001900D928A95E1F7A6
:104970004DCEC8010E945507811509F49CC0D11481
:1049800009F499C0809128048032B8F02091220463
:104990003091230429833A83EB82FC829091260490
:1049A0009D831E828F838091290490912A04888799
:1049B0009987CE0101960E940D1B89E0F801A2E2C1
:1049C000B4E001900D928A95E1F71FCE8091280402
:1049D000803130F482E294E00E940D1BF401A5CFF7
:1049E000A11409F413CE20912304F8019181291315
:1049F000C0CF2091220490812913BBCF409129047C
:104A000050912A04278130854217530709F0B1CF0E
:104A1000D110AFCF8683C8010E940D1BF40189E03D
:104A200011928A95E9F7F2CD483C5105B8F6A114E8
:104A300009F4ECCDD11409F43EC090912304F8019F
:104A40008181981322C090912204808198131DC007
:104A50002091290430912A048781908528173907ED
:104A6000A1F49091280490FD7BCF903108F478CF89
:104A7000892F9683907F903F09F46FCF982F907F76
:104A8000905F8F70892B868368CFC8010E9455077D
:104A9000811561F060911E0470911F04C8012FDD23
:104AA000811509F48ACFE2E2F4E0B9CF80912804BD
:104AB000816080932804C8010E940D1BA7CDA2E14C
:104AC000B0E0E5E6F5E20C94BE300A871B872C8740
:104AD0003D874E875F87688B798B8A8BCE010A96DC
:104AE0004CDD81112EC020912B0430912C0489E0E3
:104AF000AE01465F5F4FFA0149505109DA0101905A
:104B00000D928A95E1F78E858115D9F0822F90E07C
:104B10008395877090E0AC0134171506D1F199E0C8
:104B2000929FD0011124AA54BC4F9E012F5F3F4F8A
:104B3000F90101900D929A95E1F740932B040E94A0
:104B4000CB0480912C0490912B04891749F029E023
:104B5000829FC00111248A549C4F0FDD811126C011
:104B60008E85811112C08091730181110EC08C85D8
:104B70009D8520911E0430911F04821B930B8F3F53
:104B80009F4318F081E0809373016296E4E00C94F7
:104B9000DA300E94820F10922B0410922C04E2E271
:104BA000F4E089E011928A95E9F7CBCF80912C044B
:104BB00090912D040196877080932C04C2CFA9E0B8
:104BC000B0E0E5EEF5E20C94BC307C01FC018281A2
:104BD0009381892B91F0FE01319687E011928A959D
:104BE000E9F70E94AF0C9C01F70172818381098172
:104BF0001A8144E05E816F8162DFF7011582299698
:104C0000E6E00C94D830EF92FF920F931F93CF936E
:104C1000DF938091C604E0919502CDE0811130C010
:104C2000CDB7DEB7E6E00C94D830DE2FDF5FD0934F
:104C30009502EE2EF12CCE9FF0011124E25AFB4F8B
:104C400084818115E1F087819085892B21F481850C
:104C50009285019651F40081118122813381448132
:104C600055816681778180852ADFCE9DF001CF9DB9
:104C7000F00D1124E25AFB4F148210925104ED2FD3
:104C80008091C604E81788F21092C604109295022B
:104C9000C7CF4F925F927F928F929F92AF92BF92B7
:104CA000CF92DF92EF92FF920F931F93CF93DF93F8
:104CB000C0915D0491E0E92EF12C80915C048C138D
:104CC00013C0A1DF0E949E0BDF91CF911F910F9126
:104CD000FF90EF90DF90CF90BF90AF909F908F901C
:104CE0007F905F904F900895D0E0FE01EE0FFF1F80
:104CF000EE5AFB4F00811181A0E0B0E003301105B6
:104D000040F487E0809FD001819FB00D1124AB5803
:104D1000BE4F14968C911497811159C07090C6049F
:104D20004EE554E020E030E0A12C271508F04CC0FF
:104D3000FA0143845484CD90DD90129799249A947B
:104D4000892CB12C8B2D90E0F601EB0DF11DEB0DB4
:104D5000F11D659175914616570609F0C401672B40
:104D600019F0B3944C01EECF8F3F9807A9F1B7012A
:104D700001C0660F8A95EAF7A62AC7010B2C02C06C
:104D8000880F991F0A94E2F70197A816190611F5E2
:104D900012968D919D914DE0429FF001439FF00D41
:104DA0001124E25AFB4F8783908784E0848310822A
:104DB00011820187128781E011968C9315978B2DB4
:104DC000813011F4CD01FBDEC8010E94BB0BC395FD
:104DD000C37073CFFA0114822F5F3F4F435F5F4F61
:104DE000A4CF1092C7041092C80410928A01809137
:104DF0005C0480935D040E949E0B05CFAEE1B0E0A1
:104E0000E4E0F7E20C94B0304B8B5C8B6D8B7E8BC7
:104E10008F8B792E988F911110925104188A198ACC
:104E20001A8A86E0FE017396DE011A9601900D92B1
:104E30008A95E1F76F886114E1F06E867F8661E004
:104E4000CE010A960E94280761E0CE010A960E94D0
:104E5000280761E0CE010A960E9428076C0180E5D0
:104E6000C8168CE7D80689F4711421F181E080938B
:104E70008A016E867F860A851B852C853D85A30168
:104E8000688979898A891BDEC3C081E5C8168CE7E9
:104E9000D80621F4711471F0A4DFEBCF82E5C816B7
:104EA0008CE7D80639F4711429F080918A018111B8
:104EB000F3CFDCCF05E711E0412CA12CB12C45014B
:104EC0008394F801208131816FEF80E09FEFE82E1D
:104ED000F12CF901E80FF11DE80FF11D45915591F5
:104EE000C416D50611F0E62EF92E452B21F08F5F62
:104EF0006E2D9F2DECCF9FEFE916FE0409F448C1FB
:104F0000F801448150908A014111512CF8013580FB
:104F10009681711409F403C1511409F400C13110D0
:104F200014C021E00E2C01C0220F0A94EAF7922B44
:104F3000968320915A0430915B042233310528F482
:104F400022E320935A0410925B04940102C0220FC2
:104F5000331F8A95E2F7C9010197F80126812817C6
:104F6000190609F0C3C0E090C704F090C804E1142A
:104F7000F10409F451C00E94AF0C8E199F09C39728
:104F800008F44AC081E0F8018483482A8FEFA81A08
:104F9000B80A095F1F4F83E0A816B10409F091CF4A
:104FA000711409F4F7C0411409F4F4C00E94AF0C65
:104FB0008093C7049093C8048091C604883040F55C
:104FC000982F9F5F9093C60499E0FE013A969E0148
:104FD0002F5F3F4FD90101900D929A95E1F76D82B5
:104FE0007E822DE0829FC0011124825A9B4F29E0CE
:104FF000AE014F5F5F4FFA01DC0101900D922A95DF
:10500000E1F72FEF3FEFFC0121873287C386D4867B
:105010006E96E2E10C94CC3090915D0480915C043A
:10502000292FA0E0B0E037E061E0981709F44DC007
:10503000492F50E0998F1A8EFA01EE0FFF1FEE5A9A
:10504000FB4F40815181A0E0B0E04330510538F47E
:10505000349FD001359FB00D1124AB58BE4F4D91F8
:105060005D9112974D8F5E8FE12C70E0F12CED8DEC
:10507000FE8DEF0DF11DEF0DF11D259035902114E2
:105080003104D9F0F801408151814B8F5C8F70E081
:1050900007C0E1E02416350609F0E0E0EE2A7F5F64
:1050A000EB8DFC8DE70FF11DE70FF11D459155913B
:1050B0004115510571F7F394DACFE11469F17F15C9
:1050C000B8F4F80191E09483D80120935D04A0170F
:1050D000B10761F090E0FC01EE0FFF1FEE5AFB4FAD
:1050E000A082B1820196837080935C04852D4DCFA0
:1050F000109761F014966C931497A017B10721F3E1
:10510000291304C0A9014395242F2370498D5A8D7A
:105110004395942F937089CFA0E0B0E0F7CF292F6B
:1051200030E031101FC0B40102C0660F771F8A95AE
:10513000E2F7CB0101972817390771F0512CC40110
:1051400002C0880F991FEA94E2F77C01E094F8010D
:1051500086818E218683CACF411589F3C5010E94BD
:10516000BB0BECCFA9010E2C02C0559547950A94B4
:10517000E2F7C901019782239323892B31F440FF81
:1051800004C0C8011CDD532CDACF4170542ED7CF98
:1051900080E0FBCE90915D0480915C04981731F023
:1051A00078DD842D813009F433CF63CE2CDD10926D
:1051B000C7041092C8040E949E0BF3CFA6E0B0E093
:1051C000E3EEF8E2DBC70E94AF0C8C0180919903FB
:1051D00090919A038017910771F019821A820E94A8
:1051E000AF0CBC0149815A8180E090E007DE00935A
:1051F000990310939A032696E4E0DCC7CDB7DEB797
:105200002B970FB6F894DEBF0FBECDBF85B7806871
:1052100085BF85B7806885BF84B7877F84BF0FB699
:10522000F894A89580916000886180936000109246
:1052300060000FBE80E890E00FB6F89480936100A4
:10524000909361000FBE81E08093150185E897E09F
:1052500080936E0290936F020E94570E0E94080E78
:105260008091E20084608093E20078948091FB0258
:10527000811599F08091E9001091EC008F7010FB7E
:10528000112717F9182B1092E9008091E80083FD8F
:105290000E94C00F1F701093E90082E084BD93E06C
:1052A00095BD9AEF97BD80936E0010929303109274
:1052B000940310929503109296038091D800806118
:1052C0008093D8008AE18A95F1F700C08091D900D7
:1052D000182F117080FD04C00E94570E1092FB021F
:1052E0001093970355985D988FE891E00197F1F737
:1052F00000C0000089B185FB992790F9909398032D
:1053000090931D0185FDC2C186E08093160186E061
:1053100080931701809197038111D3D5E7E6F3E0DD
:1053200088E011928A95E9F780911D0191E0892723
:1053300080931E0380911D019093210380911D0194
:1053400080911D01811106C087EF80931C0186EFBB
:1053500080931B0160E080E00E94540B61E080E0DC
:105360000E94540B8FE891E00197F1F700C0000014
:1053700010E080912103181708F48AC180911D0163
:10538000811125C085E0E7EAF1E0DE011796019082
:105390000D928A95E1F785E0FE013796A8E6B1E027
:1053A00001900D928A95E1F786E0EDEAF1E09E0129
:1053B0002F5F3F4FD90101900D928A95E1F786E06A
:1053C000F901ADE6B1E001900D928A95E1F7809187
:1053D0001D0190E0811101C095E09093880385E064
:1053E000891B8093730338E6E32E31E0F32E0DE63C
:1053F00011E0F70181917F018F3F11F00E94870733
:105400000E151F05B1F72DE6E22E21E0F22E03E77F
:1054100011E0F70181917F018F3F11F00E94870712
:105420000E151F05B1F7EEE7F3E08AE011928A95B9
:10543000E9F7E9E8F3E08AE011928A95E9F780E07C
:1054400090E0A9D7833E9E4F51F163EE7EEF80E05E
:1054500090E0C0D760E082E090E0A2D781E090E0E9
:105460008093C9041092CA0461E083E099D760E098
:1054700074E184E090E0AED71982CE0101960E94DB
:10548000370F0E94601460E070E0AB018FE090E0A5
:1054900099D760E070E0AB0183E190E093D782E0C0
:1054A00090E06CD78093060384E090E074D78093FB
:1054B0004F049093500483E090E060D790E00E9406
:1054C000B503259A2D9882E88093800089E1809326
:1054D00081008FEF9FEF90938700809386000E945A
:1054E00024140E9424148091F80281112DC083E4B9
:1054F00094E00E94E513809142048360809342040B
:1055000080914304843008F0D5C00E94601483E485
:1055100094E00E94E51380914304843008F0CAC0EF
:1055200083708460809343040E9490080E94910BD2
:105530008091430480FF05C060E0869586950E94B7
:10554000F21781E08093F80280919703811101C0E6
:10555000BBD48091430481608093430460E08695CE
:1055600086950E94F21760E081E00E94F2178EE1BA
:1055700091E080939B0390939C0391E0A92EB12C22
:105580008091FB02853079F400E110E482E1F82E8D
:105590008091FB02853009F495C00E94820F0E9421
:1055A00024140E94240C0E942E18B7E0CB2EB3E0E6
:1055B000DB2E8EE793E01C01FC01D6019D918081DA
:1055C00021E133E02A173B0709F4D6C0319698173A
:1055D000A9F340909703ACEFEA2EA2E0FA2E912CAB
:1055E000F10181901F01F60181916F01881509F485
:1055F00042C08825582E00E010E077247394872D50
:10560000852189F1672C68204114F9F0F701808128
:1056100090E09501002E01C0220F0A94EAF7822340
:10562000892B99F409839A820E94AF0C8B839C8307
:1056300081E08D8391E0611001C090E09E834981FB
:105640005A816B817C818D81D9DB61100CC08A2DE0
:10565000002E01C0880F0A94EAF7982F9095F70161
:10566000808189238083770C0F5F1F4F06301105DF
:1056700031F6F601829293948FEFE81AF80A892D99
:105680008A3009F0ADCF0E94C70C79C080E03DCED2
:1056900060E0812F0E94740B082F61E0812F0E942F
:1056A000740BE12FF0E0E15EFC4F880F802B8083CC
:1056B0001F5F5FCE809143048C3A08F435CF83702E
:1056C000886A30CF8091FB02843031F180E00E9403
:1056D0001C0B1092F90288E190E00FB6F894A8959F
:1056E000809360000FBE1093600083B7817F846059
:1056F00083BF83B7816083BF7894889583B78E7F9B
:1057000083BF0FB6F894A89580916000886180935C
:105710006000109260000FBE0E942E18EEE7F3E0CA
:10572000ACEFB2E080E021912D9391E0211101C016
:1057300090E0892B93E0E838F907A9F7811509F47F
:1057400027CF8091FA02811509F422CF09BDF9BC57
:1057500009B400FEFDCF8091D8008F7D8093D800E2
:105760008091E00082608093E0008091E00081FD04
:10577000FCCF0E94820F0CCF98132BCF1FDD80919E
:105780009703811509F47FC0009136041091370406
:105790000115110509F440C0C0901503D0901603FF
:1057A000E0901703F09018030E94BB0CDC01CB01C2
:1057B0008C199D09AE09BF09409111035091120344
:1057C000609113037091140384179507A607B70718
:1057D00018F1C8010E9499039801205E3109283010
:1057E000310508F0DAC00E941113802F0E94631265
:1057F000109236041092370410921503109216037B
:1058000010921703109218031092110310921203B2
:10581000109213031092140380918A01811511F1E3
:105820000091C7041091C80401151105D9F00E9418
:10583000AF0C801B910B20915A0430915B04281708
:10584000390780F490915D0480915C04981709F405
:10585000A7C01FDA10925A0410925B041092C7047A
:105860001092C80480912E04811569F00E94AF0C3B
:1058700020912F0430913004821B930B8F3F9F4760
:1058800010F40E94801380914104811509F46EC0C8
:1058900080914004E0914304E695E695E81BE0938F
:1058A0005F03853109F4E0C008F091C0893009F444
:1058B000CFC008F07DC0823009F4B4C0863009F44E
:1058C000BCC000ED17E0F1EAEF2EF7E0FF2E80916B
:1058D0006003811561F0109260030E94E20C8093D6
:1058E0005D0390935E0310926103109262030E9425
:1058F000E20C20915D0330915E03AC01421B530B1F
:105900004F3F5F4798F540911B034115B1F010924E
:105910001B034091190350911A03841B950B8F3F71
:105920009F4758F4405D5A484093190350931A0317
:1059300080914204886080934204C0906103D090BB
:105940006203200F311F20935D0330935E038DE5CA
:1059500093E0F70109958091610390916203892B8F
:1059600029F4CD2819F081E080931B03F090970370
:10597000F11419F00E94E712F82E80912F0381157F
:1059800051F010922F038091690380936A038091F4
:10599000670380936803E12CB1C00E94771325CF81
:1059A00032D91092C7041092C8040E949E0B5ACF9D
:1059B0008F3009F086CFE695F0E0E259FB4FE49195
:1059C0000E2F10E059EDE52E58E0F52E80CF04EFB4
:1059D00011E09AE5E92E9AE0F92E843209F477CFA6
:1059E00078F4883109F44BC0833209F06ACFE9E6D4
:1059F000F4E00591159130E4E32E3AE0F32E67CF01
:105A0000853209F05ECF8E2F63E0F6D3E92FF0E008
:105A1000EA59FB4FE4910E2F10E02BE1E22E27E133
:105A2000F22E55CFF0E0E958FB4FE4910E2F10E035
:105A3000E8E9EE2EE8E0FE2E4ACFF0E0EC58FB4F0E
:105A4000E4910E2F10E071E8E72E78E0F72E3FCFBB
:105A5000E695F0E0EF58FB4FE4910E2F10E06BEA73
:105A6000E62E68E0F62E33CFF0E0E559FB4FE491E7
:105A70000E2F10E046E5E42E49E0F42E28CF08E290
:105A800010E08DECE82E89E0F82E21CF61E08E2D1C
:105A90000E94740B182F60E08E2D0E94740B110F62
:105AA000812B0E2D10E0D801A15EBC4FEC919E2FF2
:105AB0009370891711F1EE0FEE0FE82BEC938091A4
:105AC0001E038E0DEF70F0E0E151FE4F045E1C4F9F
:105AD000D080F8019081D90E9D2D60E094301CF4A7
