:1000000028C300000C94D1265DC300005BC3000030
:1000100059C3000057C3000055C3000053C300007C
:1000200051C300004FC300000C94A12B0C946D2C05
:100030000C946D2547C3000045C3000043C3000076
:1000400041C300003FC300003DC300003BC30000AC
:1000500039C300000C94E42535C3000033C300000D
:1000600031C300002FC300002DC300002BC30000CC
:1000700029C3000027C3000025C3000023C30000DC
:1000800021C300001FC300001DC300001BC30000EC
:1000900019C3000017C3000015C3000013C30000FC
:1000A00011C300000FC300000DC300000102E020D7
:1000B0000103E00029001E001F0020002100220093
:1000C000350014001A00080015001700E000042491
:1000D0001628074209210A22E1001D001B00060024
:1000E0001900050000000000E3002352280028004A
:1000F0002A00270026002500240023002D001300DD
:1001000012000C0018001C00340033240F280E00CD
:100110000D210B222E003800370036001000110090
:10012000000000002B0021522C0001000100010002
:10013000010001000100010035021E021F02200221
:100140002102220201002F0030002F0230020100A4
:10015000010001000100260227020100000000004A
:1001600001002A000100010001000100010001005E
:100170000100010031022702260225022402230287
:10018000310038024F0052005100500001000100C0
:100190000100010001000100000000000100010059
:1001A0000100010001000100010001000100010047
:1001B0000100010001000100010001000100010037
:1001C0000100010001000100010001000100010027
:1001D0000100010000000000010001000100010019
:1001E0000100010001000100010001000100010007
:1001F000477E467E457E0100447E437E427E417EB0
:10020000407E010001000100010001000100487E64
:10021000000000000100010001000100007C01005D
:100220000100010001000100010020782178010097
:1002300001000100207821782378297827780100AF
:100240000100227824782A78287801000000000034
:100250000100010001000100010001000100010096
:1002600001000100A8000100260025002400010073
:10027000A90001002300220021000100AA000100C2
:1002800020001F001E0001000000000001002700E8
:100290002B0001001E0F0500047F3F1F6432146411
:1002A0003214783C1E1E140A052223252628292AEA
:1002B0002C2D2F3032333536383A3B3D3E404243C9
:1002C0004547494A4C4E5051535557595A5C5E6008
:1002D00062646668696B6D6F71737577797B7D7F1A
:1002E00081838587898A8C8E90929496989A9C9E19
:1002F0009FA1A3A5A7A8AAACAEAFB1B3B4B6B8B935
:10030000BBBCBEBFC1C2C3C5C6C7C9CACBCCCDCE9C
:10031000D0D1D2D2D3D4D5D6D7D7D8D9D9DADADB7F
:10032000DBDBDCDCDCDCDCDDDDDDDDDCDCDCDCDC0B
:10033000DBDBDBDADAD9D9D8D7D7D6D5D4D3D2D24A
:10034000D1D0CECDCCCBCAC9C7C6C5C3C2C1BFBE32
:10035000BCBBB9B8B6B4B3B1AFAEACAAA8A7A5A39D
:10036000A19F9E9C9A98969492908E8C8A8987855C
:1003700083817F7D7B79777573716F6D6B6968663B
:100380006462605E5C5A5957555351504E4C4A490D
:1003900047454342403E3D3B3A3836353332302FB5
:1003A0002D2C2A292826252322FFAA7F554000012B
:1003B0000101010101010101020202020202020225
:1003C00002030303030303030304040404040404F7
:1003D00005050505050606060606070707070708BB
:1003E000080808090909090A0A0A0B0B0B0C0C0C6E
:1003F0000D0D0D0E0E0E0F0F0F1010111111121208
:1004000013131414151516161717181819191A1A84
:100410001B1B1C1D1D1E1E1F2020212222232424E5
:10042000252626272829292A2B2C2D2D2E2F303121
:100430003232333435363738393A3B3C3D3E3F4033
:100440004142434445464748494A4C4D4E4F50511E
:100450005354555658595A5B5D5E5F6162646566D8
:1004600068696B6C6D6F7072737577787A7B7D7E5F
:100470008082838587888A8C8E8F91939596989AAF
:100480009C9EA0A2A3A5A7A9ABADAFB1B3B5B7BAC7
:10049000BCBEC0C2C4C6C9CBCDCFD1D4D6D8DBDD9B
:1004A000DFE2E4E7E9EBEEF0F3F5F8FAFDFF000038
:1004B0000000000000002A2B2800000000000000BF
:1004C00000000000000000000029000000002C1EB9
:1004D0003420212224342627252E362D3738271E76
:1004E0001F202122232425263333362E37381F049C
:1004F00005060708090A0B0C0D0E0F101112131434
:1005000015161718191A1B1C1D2F3130232D3504F1
:1005100005060708090A0B0C0D0E0F101112131413
:1005200015161718191A1B1C1D2F3130354C0000D9
:1005300000000000000000000000000000000000BB
:1005400000000000000000000000000000000000AB
:1005500000007E0F00D4FFFFFFC7000000781A03E1
:1005600049007200690073002000520065007600A7
:100570002E0020003500610000000E034B006500D6
:100580006500620069006F000000040309040902AD
:100590003B00020100A0FA09040000010301010070
:1005A000092111010001224400070581030800010F
:1005B00009040100010300000009211101000122CA
:1005C0003200070582032000011201000200000032
:1005D0000810CB565310050102000105010980A146
:1005E00001850319012AB700150126B70095017589
:1005F000108100C0050C0901A101850419012AA080
:1006000002150126A002950175108100C00501099F
:1006100006A101050719E029E715002501950875D0
:100620000181029501750881010507190029FF154F
:100630000026FF00950675088100050819012905A7
:10064000150025019505750191029501750391012C
:10065000C00011241FBECFEFDAE0DEBFCDBF04B66D
:1006600003FE19C08091030490910404A091050435
:10067000B09106048730904BA740B04B61F41092C4
:100680000304109204041092050410920604E0E0A2
:10069000F8E3099500C012E0A0E0B1E0ECE0F0E67C
:1006A00002C005900D92A035B107D9F724E0A0E56E
:1006B000B2E001C01D92A330B207E1F70E942116FB
:1006C0000C94BD2F9DCCCF93DF93D82FC62F0E94C3
:1006D000771F811539F0D13048F489EAC11101C082
:1006E0008AEA41D280E0DF91CF910895D9F78EE474
:1006F000C111F7CF8BE4F5CF0E94541C81E00C941C
:100700002A1CCF93DF93EC0160E08CEA90E00E941A
:100710000E23CE010E940C23DF91CF910895FC019E
:10072000DB0115968C91811531F1E054FE47E930DB
:10073000F10510F5E154F04D0C94982E85E791E009
:10074000E0DF80E0089587E791E0FACF8CE991E05F
:10075000F7CF89E791E0F4CF8BE791E0F1CF8DE718
:1007600091E0EECF8FE791E0EBCF87E891E0E8CF23
:100770008FE891E0E5CF81E008958430C8F46A30D5
:10078000B8F44630A8F450E096E0699F400D511D42
:1007900011249CE3899F400D511D1124FA01EE0F95
:1007A000FF1FEC54FF4F85919591282F822F0895BC
:1007B00021E090E0FBCFE1CF089581E0089581E052
:1007C0000895FBCF089581E00895A9CF0895089575
:1007D0000895FDCF089508950895A6E0B0E0E3EFF1
:1007E000F3E00C94BD2E49835A839E8330915702C7
:1007F00089819A81311117C03E81311589F0211507
:1008000079F011D5182F682F89819A81EBD46981ED
:100810007A81812F0E94180F2696E3E00C94D92E3E
:10082000F2D4182FF4CFFFD469817A81F3CFFC0181
:10083000262F408151816281738184819581CDCF42
:10084000CF93DF93EC0161E0F2DFBE01B8DF8115E9
:1008500029F061E0CE01EBDFBE01B3DFDF91CF9184
:1008600008950F931F93CF93DF93EC0160E0DFDFD8
:100870008C01BE01ADDFBE01C801ABDFDF91CF91BE
:100880001F910F9108950F931F93CF93DF93EC0166
:1008900061E0CDDF8C018D8181110E94661DBE015A
:1008A000C80191DF811106C080E0DF91CF911F91D7
:1008B0000F910895BE01C80188DF8115A9F3BE011B
:1008C000C8010E943E1E811579F3BE01C8010E9435
:1008D0008823811549F3BE01C8010E9413218115A7
:1008E00019F3BE01C8010E94EA208115E9F2BE0198
:1008F000C8010E943A168115B9F2BE01C8010E94D2
:100900006810811589F2BE01C8010E947A10811514
:1009100059F2BE01C8010E949410C7CF21E030E017
:1009200002C0220F331F8A95E2F7C90196C3CF9305
:10093000C82F81E090E00C2E02C0880F991F0A9406
:10094000E2F70E94130D8C2FE9DFCF91089581E02B
:10095000089581E00895FBCF0895CF93C82F2CD33D
:100960008C2FF7DF8C2FF7DF8FEF94E32CE0815093
:1009700090402040E1F700C00000CF91089581E051
:10098000ECDF0C94082680E0E8DF0C942C2623DFB3
:100990000E94012580E00E94211E19C00E947A1D3C
:1009A00018D01ADF0C94052581E008950895CF939F
:1009B000DF93D82FF9DFC82F811511F08D2FF6DFC7
:1009C0008C2FDF91CF9108950895F1CF089580E0A5
:1009D000FCCF0E94CF23F9CFCF930E94CF23C82F03
:1009E000809152028C1771F0C09352020E94D82558
:1009F0006093530270935402809355029093560271
:100A00008C2FE3DFCF910895ADE0B0E0EAE0F5E0B0
:100A10000C94BE2E488759876A877B878C879D8771
:100A2000911114D71F8286E0FE0138969E012F5F38
:100A30003F4FD90101900D928A95E1F78D81811187
:100A40000CC029813A814B815C816D817E818F81CF
:100A500048D62D96E2E00C94DA2ECE010196F0DE17
:100A60008111EFCFF6CFFC012481213019F4808170
:100A700091810CC40895CF93C82F811581F08450C3
:100A8000813A78F48C2F0E945424811521F08C2F08
:100A90000E94962444D78C2F0E94902440D7CF9157
:100AA00008958C2F805E883048F481E0C1FD84E099
:100AB000C0FD880FC2FD8295AAD6F0CF8C2F855A33
:100AC000833030F48C2F8452990B0E94F223E7CFAD
:100AD000C85ACB3120F7EC2FF0E0EE0FFF1FE256A3
:100AE000FE4F808191810E941924D9CF811521F177
:100AF000982F9450913A18F40E94962410C7982F7A
:100B0000905E983050F4982F81E091FD84E090FD44
:100B1000880F92FD829581D6F1CF982F955A933008
:100B200020F480E090E00C94F223885A8B3120F47A
:100B300080E090E00C94192408951F93CF93DF93E5
:100B4000182FEB0198DF209731F4812FCFDFDF9151
:100B5000CF911F9108958FE99FE00197F1F700C0B1
:100B600000002197F0CF60E570E0893311F060E07C
:100B700070E0E3CF811511F04AD6D1C608958115F2
:100B800011F04BD6CCC60895A0E0B0E0EAECF5E059
:100B90000C94B82E6C01D62FC72FFC011581F6805E
:100BA000F2948FE0F82228D6E82E8115E9F0E12EA4
:100BB0001115D1F08C2F807F803461F08D2F805EF5
:100BC0008830B8F18C2F807E803221F4D23088F1C9
:100BD000F11479F18091AA0382FF2BC082E0BBD689
:100BE0000BD691E08927E82E9C2F92959F70983024
:100BF00009F4D0C088F59430F0F4923008F43CC089
:100C00000C2F0F70C07FC03211F00295007FD130E1
:100C100008F45CC009F485C0111509F48FC0F11403
:100C200009F46CC0F601868180FF39C08F7086831D
:100C300065C0E12CD9CF09F491C0E11409F4DAC000
:100C4000D7D580FDD7C0F6011582CCD536D2C601E6
:100C500088D1C8D540D2CEC0993009F40DC19A5F71
:100C60009F70923050F7D23F09F013C18C2F8F71D3
:100C700011110DC122D2BBC00C2F0F70C03110F06A
:100C80000295007F111581F0011549F08D2F805ECE
:100C9000883010F0D11105C0802FB9D540D68D2FE6
:100CA00021C0802FC5D5FACF8D2F20DF011509F483
:100CB000C4CF8D2F805E883010F0D11103C0802FFB
:100CC000ACD502C0802FBAD52AD6B7CF8091AA035F
:100CD00082FD10C0111541F0011519F0802F97D534
:100CE0001ED680E0C8DEA9CF80E000DF011509F440
:100CF000A4CFE5CF111561F0F11003C0802F3ADFCA
:100D00009CCF8F2D813009F098CF802FB3D595CF10
:100D1000F11093CF802F33DF802FB7D5802F9CD554
:100D20008CCF8F2D111521F0863008F086CFE6CFBD
:100D3000853008F082CF802F22DF7FCFF114D9F3E6
:100D4000D93349F48FEF97EE23E081509040204053
:100D5000E1F700C000008D2FC9DE6FCF8C2F869584
:100D600086958370813060F009F067CF8D2F9C2FBE
:100D70009370111102C080E090E00E9419245DCFB1
:100D80008D2F9C2F9370111102C080E090E00E9483
:100D9000F22353CF8C2F8370C1F5111128C04D2F32
:100DA000429546954770440F440F2D2F2F7030E029
:100DB000042E02C0220F331F0A94E2F780E090E075
:100DC000D4FF09C08FE090E002C0880F991F4A95B8
:100DD000E2F780959095C695C695C370822B932BAC
:100DE000C23079F0C33079F0C13049F03FD10E9470
:100DF000CF23EBDDCDB7DEB7E8E00C94D42E2FD1B6
:100E0000F6CF3BD1F4CF29D1F2CF111559F1C0FF64
:100E1000EECF4D2F429546954770440F440F2D2F2E
:100E20002F7030E0042E02C0220F331F0A94E2F725
:100E300080E090E0D4FF09C08FE090E002C0880F0E
:100E4000991F4A95E2F780959095C695C695C3700F
:100E5000822B932BC23061F0C33061F0C13031F08E
:100E60005FD1C5CF823008F4C2CFD3CF52D1BFCF2C
:100E70005ED1BDCF0FD1BBCFCF70111529F08C2F14
:100E80001CD18D2F77DEB3CF8D2F79DE8C2F23D120
:100E9000AECF60F4D03FB9F0D13F81F0111509F425
:100EA00039C0F114A1F18D2FE6DDA1CFD33FB9F008
:100EB000D43FA1F78091AA0382FD19C08C2F8F71B6
:100EC000111529F3D7CE8F2D111539F0853008F083
:100ED0008ECF8C2F8F710FD18ACF8630F8CF11151E
:100EE00021F08C2F8F71E0D082CFDBD080CF111515
:100EF00029F063E08C2F8F7117D579CF81E02BD546
:100F00008F2D823008F473CF82E025D570CF8C2FDF
:100F10008F71B0CEF11471F0D93349F48FEF97EEA1
:100F200023E0815090402040E1F700C000008D2F69
:100F3000DDDD5DCF8C2F8F71AACF0F931F93CF93E1
:100F4000DF93EC01688179818D81A9D18C01F6D084
:100F500083D0B801CE0118DEDF91CF911F910F91A0
:100F60000895CF93DF93EC018C81811581F0CE0140
:100F70008ADC81110FC040D4811549F08D81811523
:100F800031F08091AA0382FF02C082E0E4D4DF91B5
:100F9000CF910895CE01D1DFCE0163DCF8CF80E0A0
:100FA00090E00E94F22380E090E00E9419244ED449
:100FB000B6C40E949C24F3CF38D4FBCF282F92953F
:100FC0009F70963099F060F4925F9F70923030F489
:100FD000203FB1F038F481E0283E38F080E00895F9
:100FE0009A5FF3CF81E0243FC9F7089591E0813FF4
:100FF00009F090E081E0283E08F080E0892B089518
:1010000081E00895FC012481211521F080819181E6
:101010003DD1D4CF80E00895A6E0B0E0E2E1F8E071
:101020000C94BE2E2696E2E00C94DA2EA7E0B0E0F7
:10103000ECE1F8E00C94BE2E2796E2E00C94DA2E58
:101040000895FECF0895FDCF0895FADFFCDF809369
:101050007A0290937B0208950895F7CF0895209126
:101060007A0230917B02822B932BEFCF20917A0270
:1010700030917B0282239323E8CF20917A02309132
:101080007B0282279327E1CFDBCF0895FDCF089520
:10109000D7CF0895FDDFFADF80937802909379022D
:1010A000089580E090E0F6CF21E030E002C0220F0A
:1010B000331F8A95E2F7C901EDCF21E030E002C08D
:1010C000220F331F8A95E2F780917802909179027E
:1010D000822B932BDFCF21E030E002C0220F331FA1
:1010E0008A95E2F720953095809178029091790267
:1010F00082239323CFCF21E030E002C0220F331FA1
:101100008A95E2F78091780290917902822793275D
:10111000C1CF2091780230917902822B932BBACFE4
:10112000209178023091790282239323B3CF2091CA
:1011300078023091790282279327ACCF0895CF931C
:10114000C1E061FDC4E060FDCC0F62FDC29593E09B
:10115000769567959A95E1F7660F771F660F771F6B
:10116000460F571FFA0140E050E090E06191DF0127
:101170009C01042E02C0369527950A94E2F7269525
:10118000220B26272C2326272E934F5F5F4F4430B8
:10119000510561F7CF910895A82FA77023E0969588
:1011A00087952A95E1F7880F991F880F991F680F77
:1011B000791FFB0140E050E080E0219130E00A2EF1
:1011C00002C0369527950A94E2F72170042E01C0DB
:1011D000220F0A94EAF7822B4F5F5F4F443051058C
:1011E00061F70895262F9A3068F4863058F4682FF6
:1011F00070E086E0989F600D711D112448E552E073
:10120000822F9DCF0895292F9A3058F4863048F4C4
:1012100090E068E572E036E0239F800D911D112477
:10122000BBCF80E00895CF92DF92FF920F931F9380
:10123000CF93DF936C010091780210917902809135
:101240007A0290917B02082B192BCFE0D0E081E04D
:1012500090E00C2E02C0880F991F0A94E2F78023B9
:101260009123892B61F4219790F7F12C8F2DDF9139
:10127000CF911F910F91FF90DF90CF900895FC2E9A
:10128000B6018C2FE0D5019771F3F0CFCF93DF93A8
:10129000EC01C9DFBE01D7D5DF91CF9108951F932F
:1012A000CF93DF93EB0190915702911531F0CB0171
:1012B000EDDFDF91CF911F910895811551F0CB01A2
:1012C000B2DF182F682FCE018DDFBE01812FBBD575
:1012D000F0CFCB0198DF182FF8CF0F931F93009119
:1012E0007C0280917D02801303C01F910F910895AD
:1012F00087E0089FF0011124E258FD4F20813181E1
:101300004281538164817581868190DE0F5F1F4F1A
:101310000770E7CF2091B6023091B7024091B80232
:101320005091B9026091BA027091BB028091BC02E7
:101330007DCE8091BC02803170F48091BB0281151A
:1013400051F0E0917C0220917D023091B7024091F2
:10135000B6022E1301C00895BF0187E0E89FF00197
:101360001124DF01A258BD4F14968C91149781155A
:1013700049F111968C911197831324C08C91841399
:1013800021C015968C91159781111CC012968D91D4
:101390009D91A091B802B091B9028A1B9B0B8F3A24
:1013A000910580F48091BC028F7080618093BC02B3
:1013B000EC57FD4F80818F708061808386EB92E0D7
:1013C000D0DD8BCF6F5F7F4FFB01E770C2CFE09125
:1013D0007C0290917D02E91302C080E008959F0194
:1013E00057E0E59FF0011124E258FD4F518156135B
:1013F00006C05081581303C05581541305C02F5F98
:101400003F4FF901E770E7CF81E008958F929F92F7
:10141000AF92BF92DF92EF92FF920F931F93CF9301
:10142000DF93CDB7DEB72D970FB6F894DEBF0FBEB2
:10143000CDBF8C0186E0F801DE01189601900D9277
:101440008A95E1F7F801F580848196EB892E92E088
:10145000992E9091BA02911117C0811509F4F4C028
:10146000F11409F433C1C801CDDD811509F42EC191
:1014700087E0F801D40101900D928A95E1F7C4014B
:10148000F2DA57DF47DFE0C0E080A280B380D0907F
:10149000BB022091B8023091B902A501421B530B47
:1014A000D11409F4D4C04F3A510508F0A8C08115F1
:1014B00009F4CAC09091B70291808091BC0280313A
:1014C00008F06FC0991226C09091B6029E1122C0FA
:1014D000F11057C08F7080618093BC021BDF86EBD8
:1014E00092E03FDD8091BC02F8018683F12C8F2DC4
:1014F0002D960FB6F894DEBF0FBECDBFDF91CF9112
:101500001F910F91FF90EF90DF90BF90AF909F9051
:101510008F900895F11035C040E0692D8E2D57DF72
:1015200040E0692D8E2D53DFF82E8111DFCF8885A5
:101530009985ACDE292F22952F70903450F49F703E
:10154000223078F0911591F0F8019681903170F485
:10155000CECF2A5F2F70223070F0C80102DDFD2C43
:10156000C6CF911519F0811509F4C1CF805E88307E
:1015700008F4BDCFF2CF803F08F4B9CF815F83304C
:10158000F7CF8091BC0281608093BC0286EB92E031
:10159000E8DCE6EBF2E087E011928A95E9F7BADE43
:1015A000A5CF991207C09091B6029E1103C0F11405
:1015B00009F46EC0C80126DD811509F487C0F11455
:1015C00009F484C08091BC02803280F02091B60280
:1015D0003091B70229833A83AB82BC829091BA02E0
:1015E0009D831E828F83CE010196BBDC87E0F801CC
:1015F000A6EBB2E001900D928A95E1F742CF90916F
:10160000BC02903160F4488559856A857B858C855C
:101610009D8502DD86EB92E0A4DCF401BCCF811550
:1016200099F02091B70281812813C4CF8091B6022E
:101630008E11C0CFF110BECF9683C80192DCF401A9
:1016400087E011928A95E9F7FF24F39450CF4F3A3F
:10165000510508F03EC08115B9F3F114B9F190912C
:10166000B7028181981329C08091B6028E1125C0DE
:101670008091BC0280FD18C08031B0F08683807FED
:10168000803F39F08681982F907F905F8F70892BF3
:101690008683C80166DC87E0F801A6EBB2E0019022
:1016A0000D928A95E1F7EECE87E0F801A6EBB2E065
:1016B00001900D928A95E1F7C7CFC801A3DC811193
:1016C00095CF8091BC0281608093BC02C80149DC47
:1016D000BBCF488559856A857B858C859D859CDC3B
:1016E0009CCFAEE0B0E0E7E7FBE00C94BD2E28878E
:1016F00039874A875B876C877D878E87CE010896FE
:1017000085DE6C85811599F0611539F0288539855C
:101710004A855B857D858E8589DC80917C029091F0
:101720007D0289133DC02E96E3E00C94D92E87E00C
:101730009E01285F3F4FF90127503109D9010190DF
:101740000D928A95E1F7611541F3A0917D028A2FF0
:1017500090E08395877090E0AC0120917C02241783
:10176000150691F097E09A9FD0011124A258BD4F21
:101770009E012F5F3F4FF90101900D929A95E1F77D
:1017800040937D02AADDC9CF17DC10927D02109232
:101790007C02E6EBF2E087E011928A95E9F7BDCF93
:1017A00017E0189FC001112482589D4F2FDE81152C
:1017B00009F4B9CFE0917C021E9FF0011124E25898
:1017C000FD4F208131814281538164817581868101
:1017D0002DDC80917C0290917D0201968770809330
:1017E0007C029BCF8091C50286958695869508954B
:1017F0008091C502877008959091C502977081E02D
:10180000911101C080E008958091D10208959091D6
:10181000D102982B9093D10208958095982F8091B2
:10182000D10289238093D10208951092D1020895A4
:101830009091D002982B9093D00208958095982F84
:101840008091D00289238093D00208951092D00213
:1018500008950895FECF08959091C602292F282358
:1018600029F0809589238093C602F4CF08950895C6
:10187000FECF08959091C702292F2823281721F021
:10188000982B9093C702F4CF08959091C702292F07
:10189000282329F0809589238093C702E9CF0895F2
:1018A0008091C702811521F01092C70280E0E0CF3D
:1018B00008950F931F93CF93DF938091040190912C
:1018C00005018C01C091D1028091D002C82B80917A
:1018D000C702811529F0C82B0E9440248111E0DF46
:1018E000F801C083C0910401D091050148E050E0A7
:1018F0006DEB72E0CE010E94452F892B59F088E0F4
:10190000FE01ADEBB2E001900D928A95E1F7CE01B8
:101910000E94E523DF91CF911F910F910895C9CFC8
:1019200008950895FECF08959091AA0392FF0EC0E6
:10193000982F990F990F990F962B9093C502BDDBA5
:101940008091C502869586958695ECCFB6CB109290
:10195000C50280E0E7CF9091C502809589238093EE
:10196000C502282F277059F4891749F09091AA03CE
:1019700092FF05C0869586958695ADDBE8CF0895E4
:101980009091AA0392FB222720F9281749F080FBA7
:1019900092F99093AA0389EA93E049D082E0DBCFE1
:1019A00008958091AA03002482FF0394802DE8CF3C
:1019B00081E0E6CF80E0E4CF80E090E0BC0179C434
:1019C00080E090E0BC016FD4F7CFA4E0B0E0EBEE94
:1019D000FCE00C94BE2EC2D3CDD31C82CE01049663
:1019E000E0D381E090E080937A0210927B02E5D30D
:1019F000198284E18A83CE010196F0D31B82CE0145
:101A00000396FED30E943A17DBDF2496E2E00C94A3
:101A1000DA2EDBCF0895B4C30895A1C30895B6C3E9
:101A20000895C5C30895C9C30895CCC30895D6C306
:101A30000895DBC30895E4C30895E8C308951AC464
:101A400008953DC40895A6E0B0E0E9E2FDE00C94FD
:101A5000BC2E0E94CC258C018091D2029091D302A1
:101A60008017910779F019821A820E94CC25BC0157
:101A700049815A8180E090E00E9404050093D202DF
:101A80001093D3022696E4E00C94D82EFBD26093F8
:101A9000DC027093DD028093DE029093DF0260939C
:101AA000D8027093D9028093DA029093DB020895F2
:101AB000E9D26093DC027093DD028093DE029093A2
:101AC000DF026093D4027093D5028093D602909384
:101AD000D702089508950895FDCF08950895FEDF73
:101AE000FBCF0C947C0308950895FEDFFACF81E0CC
:101AF000089586E690E10E943516EDDFF0CFBDC572
:101B00000895089508950895FCDFFCDFFCCF85DF7C
:101B1000811101C07EDF80EE92E081DF89EA93E0EF
:101B200084DF7FDF9ADA8091780290917902AECAE1
:101B30000E94C3257ED2A4D50E940F1FBBD4E7DF2D
:101B40000E94CD230E94E4040E94FD1E0E94D0202A
:101B50000E947A1D0E942C1CA8D5C7CF8ED581115A
:101B60000C94CE230895A6E0B0E0E9EBFDE00C94E0
:101B7000B52EBDDF811110C066DFF0DF0E94671D4A
:101B80000E94FC1E0E94921F811192DF0E94EC04B1
:101B90002696EBE00C94D12EDBD48FE9A82E83E0BF
:101BA000B82E750110E0F7010081812F93D31F5FDC
:101BB0001A3009F445C09FEFE91AF90A081799F39A
:101BC0008091E00281FD8CD39ADF982E10E0812F66
:101BD00081D3F82EF50181915F01F81661F18F250F
:101BE000D82E00E0EE24E3948D2D8E21F1F0CC244C
:101BF000C3948F2D8E2109F4C12C911489F0602F8C
:101C0000812F0E94272581110BC009831A830E940E
:101C1000CC25BC0149815A8181E09C2D0E9404059C
:101C20004C2D602F812F0E943B250F5FEE0C06305C
:101C3000D9F6F501F2921F5F1A3049F627DF9DCFE2
:101C40000813BECF99CF0F931F93CF93DF93FDD08F
:101C5000EC01D23508F050C0D03508F0C8C0C03E05
:101C6000D10530F5CD3CD10508F09DC0C83AD1056D
:101C700078F4C53AD10508F093C0C130D105B1F16F
:101C8000CE010497813A910588F1C0E0D0E02EC0E2
:101C9000CE01885A91094B97C0F7C85AD0E0CC0FB3
:101CA000DD1FCC52DE4F0990D881C02DD4641EC0F8
:101CB000D034A8F4D03208F0ADC0C83ED105B0F0A1
:101CC000CE0191509F3108F78D2F62D1082F8C2FB4
:101CD00090E0BBD0D02FDF71C82FD92B07C08C2F3D
:101CE00090E0B3D0DF70C82FD92BD06ACE01DF913E
:101CF000CF911F910F910895C03882E5D807B8F5AC
:101D0000C03682E5D80708F056C0C03482E5D8074F
:101D1000C8F4C03282E5D80708F047C08C2F8695FA
:101D2000869520E2829FC0011124C37021E030E03B
:101D300002C0220F331FCA95E2F7E901C82BD92B45
:101D4000DD68D4CF8C2F86958695877020E2829FA0
:101D5000C0011124C37021E030E002C0220F331F04
:101D6000CA95E2F7E901C82BD92BDC68BFCFC03C8C
:101D700082E5D80750F48C2F8F71C03AD24580F598
:101D8000982F84EF906AEC01B1CFCE01805C924530
:101D9000809708F07ACFDC2FDF71C0EFD06AA6CF32
:101DA000A497D064A3CFD065A1CF8C2F8F71D82FEB
:101DB000C1EFD06A9BCF8C2F86958695877020E2E5
:101DC000829FC0011124C37021E030E002C0220FC5
:101DD000331FCA95E2F7E901C82BD92BDA6886CF01
:101DE000D7D0982F80E09F71EC01D0627FCF8C2FED
:101DF0008F71CED053E0CC0FDD1F5A95E1F7DF7025
:101E0000282F84FF04C090E1899F90011124C22FE4
:101E1000D0696CCF8D2F8F71BBD0082F8C2F90E0A5
:101E200014D0302F3F71282F392B3062E9015ECF5B
:101E3000462F7A3028F4663018F4672F0C94DB03B1
:101E400080E090E00895F4DFFECE803E9105D1F170
:101E5000C8F48133910509F481C048F489329105B1
:101E600009F471C08A32910509F47FC0089589335D
:101E70009105E1F082389105C9F08533910509F4A7
:101E80005DC00895843E9105D1F148F4823E9105EC
:101E900031F1833E910541F181EE90E00895863E57
:101EA0009105C1F1873E9105F1F108952091A903B3
:101EB000237009F064C02091AA0323FF14C089E2B3
:101EC00090E008952091A90320FD45C03091AA0318
:101ED00030FF09C024FD24C083EE90E008952091D6
:101EE000A90322FDF7CF08952091A90322FD44C044
:101EF0003091AA0330FD43C024FFF5CF11C02091DB
:101F0000AA0321FFF0CF8091A90384FD09C087EEC9
:101F100090E008952091A90323FFE5CF24FFF7CF98
:101F200080E090E008952091A90323FD2BC030911B
:101F3000AA0331FFE1CF84EE90E008952091A90338
:101F400025FFD1CFBCCF2091A90325FD1EC0209134
:101F5000AA0323FFC8CF89E390E008952091A90345
:101F600026FFC1CF8AE290E008952091A90326FFC1
:101F7000BACF81E390E0089582EE90E0089580EE7C
:101F800090E0089586EE90E0089585E390E008954E
:101F90009091A90392FF10C041E0282F24712430B2
:101FA00009F040E031E0282F2871283009F030E0B6
:101FB000431711F02CE0822793FF10C041E0282F37
:101FC0002471243109F040E031E0282F28712831B4
:101FD00009F030E0431711F02CE082273091AA037A
:101FE00030FF10C051E0282F2171213009F050E05E
:101FF00041E0282F2871283009F040E0541711F0F3
:1020000029E0822731FF10C041E0282F21712131C2
:1020100009F040E031E0282F2871283109F030E044
:10202000431711F029E0822794FF02C083FD877EC9
:1020300008951092AB031092AC031092AD0310926E
:10204000AE030895EF92FF920F931F937B018C01D3
:1020500014D3811112C00E94D8259701A801261B14
:10206000370B480B590BC901DA018093AB039093EE
:10207000AC03A093AD03B093AE031F910F91FF90FB
:10208000EF900895FAD2811541F00E94D825462F8D
:10209000572FBC01CB01BA0108950E94D825DC015D
:1020A000CB014091AB035091AC036091AD037091B3
:1020B000AE03480F591F6A1F7B1FECCFDED281157C
:1020C00011F00C94CC25DEDFCB01089580E008955B
:1020D000CF939C01205E3245C1E02032310538F4B7
:1020E000FB01C581C11103C08F710E9497048C2F21
:1020F000CF9108959C01FB018581811599F02B35C5
:102100009CE7390769F02C359CE7390721F02A351F
:102110003C4721F0089545DC80E0089549DCFCCF80
:1021200049DCFACF81E008959C01FB01858181158E
:1021300099F021309CE7390761F023309CE739079B
:1021400039F021153C4749F40E94BF0480E008950E
:1021500062DC0E94C304FACF81E00895089580E014
:1021600090E00E94682F9C0181E0233E3E4F09F0E1
:1021700080E0089563EE7EEF80E090E00C94872F7E
:102180006FEF7FEF80E090E00C94872FCF93DF9389
:10219000EC0182E090E00E945B2F8883DF91CF9179
:1021A0000895FC01608182E090E00C946D2F83E043
:1021B00090E00E945B2F90E00895682F83E090E00C
:1021C0000C946D2FCF93DF93EC0184E090E00E949C
:1021D000682F88839983DF91CF910895FC016081F6
:1021E000718184E090E00C94872FCF93DF93EC0112
:1021F00086E090E00E945B2F8883DF91CF91089565
:10220000FC01608186E090E00C946D2F8F929F928C
:10221000AF92BF92CF92DF92EF92FF920F93CF9344
:10222000DF93EC0188E090E00E94632F4B015C019A
:10223000688399828A83BB821C821D821E821F82D0
:1022400083E290E00E945B2F9401A501888239838C
:10225000AA825B838C831D821E821F82DF91CF91B5
:102260000F91FF90EF90DF90CF90BF90AF909F9035
:102270008F9008950F93CF93DF93EC01488159819C
:102280006A817B8188E090E00E947F2F6C81262FFD
:1022900060E070E0CB01622F83E20E946D2FDF913E
:1022A000CF910F910895AB01BC018FE090E00C94A9
:1022B0007F2FAB01BC0183E190E00C947F2F682F4E
:1022C0008EE090E00C946D2F0895FECF0895089550
:1022D000FECF0895E82FF0E0E654FC4F808108958A
:1022E000089580EA8A95F1F7089500C00895F9CF1E
:1022F00008950895FECF0895A5E0B0E0E2E8F1E189
:102300000C94B92EBAD1F82E8091C40390E0865473
:102310009C4FF114E1F18E010F5F1F4FF80125E092
:1023200011922A95E9F7B801CCD1E02ED12E811572
:10233000B1F08091AF0390E045E050E0B8018654E1
:102340009C4F0E94452F21E02093E102892B91F4BC
:10235000F12CBEDF8F2D2596E7E00C94D52E8091D1
:10236000E1028115A9F3F80185E011928A95E9F758
:102370001092E102A091AF03B0E0A654BC4F85E0FB
:10238000EE2DFD2D01900D928A95E1F7E2CF20917F
:10239000AF0330E0BC01C90186549C4F1DD2AADFB7
:1023A000D9CFF894E82FE295EF70F0E041A18F705B
:1023B00021E001C0220F8A95EAF7922F909594238D
:1023C00091A392A1822F892B82A378940895CF9311
:1023D000DF93CCE0D1E089918F3F09F0E2DF81E02B
:1023E000C131D807C1F7C6E0D1E089918F3F09F02C
:1023F000D8DF81E0CC30D807C1F7DF91CF910895C5
:10240000A0E0B0E0E6E0F2E10C94B82E6C01E62E1C
:10241000C62FD0E08E01045F1E4FF80180818F3FF0
:1024200009F441C0F894E82FE295EF70F0E091A133
:102430008F7021E001C0220F8A95EAF7892F822B45
:1024400081A382A12095282322A378944EDFA6E0C1
:10245000B1E031E0F12C2D912F3F79F0E22FE295A0
:10246000EF70E05EF0E0808190E02F7002C0959503
:1024700087952A95E2F780FF1BC080E0F82A330F8A
:1024800081E0AC30B80739F7F80180818F3F09F05F
:1024900088DF61E0F11001C060E08E2D28DFF601D9
:1024A000EC0FFD1FF082CDB7DEB7E8E00C94D42E20
:1024B000832FE4CFABE0B0E0E0E6F2E10C94BE2E77
:1024C00080911101811125C085E0E1E9F1E0DE0193
:1024D000179601900D928A95E1F785E0FE013796F7
:1024E000ACE0B1E001900D928A95E1F786E0E7E972
:1024F000F1E09E012F5F3F4FD90101900D928A9527
:10250000E1F786E0F901A6E0B1E001900D928A952D
:10251000E1F78091110190E0811101C095E0909365
:10252000C40385E0891B8093AF0351DFEAEBF3E03E
:102530008AE011928A95E9F7E0EBF3E08AE01192E4
:102540008A95E9F745D0C1DE2B96E2E00C94DA2EAD
:10255000AAE0B0E0EEEAF2E10C94BB2EFE01319667
:10256000DF018AE01D928A95E9F710E00E2FFF2E19
:10257000612F802F9F2D44DF812F8F5F182F853093
:10258000B9F74AE050E0602F7F2D80EB93E00E9486
:10259000452F41E0892B91F440E06091C40370E045
:1025A00066547C4F80EB93E014D0182FA5DE912F5A
:1025B000982B892F2A96E5E00C94D72E8AE0E02FFD
:1025C000FF2DA0EBB3E001900D928A95E1F7E5CFE6
:1025D0000895EF92FF920F931F93CF93DF938C0197
:1025E0007B01C42F411579F081E08093E4020E94C1
:1025F000CC258093E2029093E30280E0CDB7DEB772
:10260000E6E00C94D62ED091E402D115B1F380917E
:10261000E2029091E3020E944B25059770F345E09A
:1026200050E0B801C7010E94452F892B41F085E099
:10263000F801D70101900D928A95E1F7CD2F109204
:10264000E4028C2FDBCF55985D988FE891E00197DD
:10265000F1F700C0000088274D9983950895CF9326
:102660000E94052EC82F811102C00E94012E8C2FBE
:10267000CF9108958091E80208958091E70208952E
:10268000EEDF8093E702DFDF8093E802F3DF8093E1
:102690001101F0DF66E0811531F080E0B7D3EDDFA6
:1026A000811142C0089586E0F9CFE7DF811101C0B2
:1026B0003EC0089581E09091E9029A3008F080E0F0
:1026C00008950F931F93CF93DF93EC018B018091BB
:1026D000E9028A3080F4B801CE017CD0811121C09A
:1026E0008091E9028F3FB1F40E94CC258093E502EE
:1026F0009093E60209C08091E5029091E6020E9463
:102700004B25843F914038F780E0DF91CF911F91B6
:102710000F9108958F5F8093E9028A3028F781E056
:10272000F4CF1092E902FBCF0C948C2608950C9400
:102730008F260895CF92DF92FF920F931F93CF932E
:10274000DF936901E801082F880F110B411551052E
:10275000B1F0F80133E0EE0FFF1F3A95E1F7EE5EBE
:10276000FE4F8181928186519D4FE0812E2F30E076
:102770004E17510508F49A01A9010E94522FC80171
:102780000E946E27F82E8115E1F02097D1F0C80144
:1027900023E0880F991F2A95E1F7FC01EE5EFE4FBA
:1027A0002381422F50E0C217D10508F4AE018E5E9E
:1027B0009E4FFC016481758166517D4FC6010E9468
:1027C000522F8F2DDF91CF911F910F91FF90DF90AE
:1027D000CF900895A9C10895D3C108950C94731F93
:1027E0000895A0E0B0E0E7EFF3E10C94B62EF82EE8
:1027F000EB01E42E69015801688179818A819B810E
:102800000E945425643671058105910510F4E11488
:1028100079F000E010E09801A501B6018F2D8ADF64
:10282000811539F00E94D825688379838A839B8338
:1028300081E0CDB7DEB7EAE00C94D22EABE0B0E099
:10284000E4E2F4E10C94BC2E8E010F5F1F4FC8012F
:102850004AD741E08B859801811101C040E00BE02F
:1028600010E063E273E087E0BCDF182F811138D7F6
:10287000812F2B96E4E00C94D82EA1E0B0E0E3E4A5
:10288000F4E10C94BC2E0E94691D81110E94741DFC
:102890008983E0910A02F0910B0241E09389981339
:1028A00001C040E001E010E09E012F5F3F4F6FE16B
:1028B00073E086E096DF2196E4E00C94D82EA4E045
:1028C000B0E0E5E6F4E10C94BC2E60911B0370913E
:1028D0001C0380911D0390911E030E94542511E05A
:1028E000643671058105910508F1CCDBDC01CB0173
:1028F0000296A11DB11D89839A83AB83BC8300E03E
:1029000010E0980144E050E0BE016F5F7F4F85E02A
:1029100011DF182F811551F00E94D82560931B03F9
:1029200070931C0380931D0390931E03812F2496A4
:10293000E4E00C94D82EA1E0B0E0E1EAF4E10C94DC
:10294000B32E762E5A01490168018D019E012F5F39
:102950003F4F40E050E0BA01EDDE182F811599F1AC
:10296000F50160817181828193810E9454256436D2
:1029700071058105910500F18701940140E050E067
:10298000BA01872DD7DE082FB701C6010E94D120DA
:10299000998110E098130BC0102F117000FF07C031
:1029A0000E94D825F5016083718382839383812FF0
:1029B0002196EDE00C94CF2EB701C6010E94D120E4
:1029C00099818913D9CFA701B601C4010E94522F62
:1029D000EECFAAE0B0E0EFEEF4E10C94B62EC0909A
:1029E0000A02D0900B02560187E0A80EB11C88E0C5
:1029F000E82EF12C85019E012F5F3F4F47E153E008
:102A000063E082E098DF182F811531F0F60196819E
:102A100080911603981316C0812F2A96EAE00C9431
:102A2000D22E69858A850E94601FF82E81110AC006
:102A300000E010E09801A801B80184E07BDE1F2DC2
:102A400018230CC0CE010996AC010196BC01C5014A
:102A50000E94431F8111E5CFF110EACFF601868174
:102A600080931603D9CFA5E0B0E0E9E3F5E10C943B
:102A7000B82E6B0100910A0210910B020F5F1F4FDD
:102A80007D01CE0101969C0142E153E061E080E0CE
:102A900052DF811559F095E09E012F5F3F4FF901FC
:102AA000ADE0B3E001900D929A95E1F795E0EDE08D
:102AB000F3E0D60101900D929A95E1F72596E8E0B2
:102AC0000C94D42EA0E0B0E0E8E6F5E10C94B62E2C
:102AD0007C016B015A01EEDD0AE010E0811102C0B9
:102AE00001E010E0C1E0D0E0B601C701F5010995B1
:102AF000811115C021960C171D078CF0CC9F9001F9
:102B0000CD9F300D300D112480E090E045E34A95D3
:102B1000F1F70000019682179307C1F7E5CFCDB713
:102B2000DEB7EAE00C94D22E0F931F93CF93DF937E
:102B3000EC018B0143E355E1C5DF811106C080E064
:102B4000DF91CF911F910F91089549EE54E1B801A3
:102B5000CE01B8DF811599F34FE554E1B801CE01FC
:102B6000B1DF811561F34DE354E1B801CE01AADF75
:102B7000811529F34EE154E1B801CE01A3DFE0CF86
:102B8000ABE0B0E0E6ECF5E10C94BA2E00910A025D
:102B900010910B02C801019625E0FB01DC010190B8
:102BA0000D922A95E1F765E070E00E94D120F801CE
:102BB0008083780187E0E80EF11CC7010E946A1F3C
:102BC00068E070E0C7010E94D120F8018683878504
:102BD0009089A189B2894091090350910A036091BB
:102BE0000B0370910C0384179507A607B70759F0DC
:102BF0008093090390930A03A0930B03B0930C03F3
:102C0000BC01CD011FDAF80183890E94211E8BE0EF
:102C1000F80174969E012F5F3F4FD90101900D92EC
:102C20008A95E1F7F801168E8B85811519F060E021
:102C3000C90142D62B96E6E00C94D62E0C94B30D27
:102C400008950E9466250E94FA280E94790D0E942C
:102C500012290E94980D0E941B290E941E29EEDF56
:102C60000E9434290E94840DF8CF809350029093E3
:102C700051020895CF93DF93EC01FB01858181110F
:102C800004C081E0DF91CF9108950E94040C82720C
:102C9000FE01E052F847EB30F10598F7E853F04DAC
:102CA0000C94982ED1D580E0EDCF811521F0C0D5C0
:102CB000FACF8115E1F3B0D5F6CF811521F037D2E7
:102CC000F2CF8115E1F329D2EECF811521F049D25F
:102CD000EACF8115E1F338D2E6CF811521F05BD23E
:102CE000E2CF8115E1F34AD2DECF811521F0F6D093
:102CF000DACF8115E1F3E2D0D6CFA0E0B0E0E3E88F
:102D0000F6E10C94B72E062FB72EE82F71110EC0E6
:102D1000411521F0F0E0E255FC4FE4916E2F7E2F3B
:102D20008E2FCDB7DEB7E9E00C94D32E411521F0FC
:102D3000F0E0E255FC4FE49186E0089FE0011124A9
:102D40002FEF30E0CE01B9010E944F2EAB01C80138
:102D5000880F991FF5E5F49FB001F59F700D1124C0
:102D6000861B682F660F680FC9018B199109E89FB0
:102D7000D001E99FB00D11248B2FB69E6001112464
:102D8000CD2CD12C89010C191D096801E09F70011F
:102D9000E19FF00C11244330510551F18901061BCC
:102DA0001109B09E6001B19ED00C1124CD2CD12C04
:102DB0002C193D09E29F8001E39F100D1124712F12
:102DC000CC3FD34050F441305105B1F04230510571
:102DD00061F47E2FEB2F812F08C04430510579F02C
:102DE0004630510511F07B2F8F2D6E2FE82F98CF95
:102DF0007F2D8E2FEB2FF9CF7E2FEF2DF6CF8E2F3D
:102E0000E12F7B2FF2CF41E078CF089580935501D9
:102E1000609356010895F7CF089590915501291BAD
:102E2000922FE0913902F0913A02242F462F682F19
:102E3000892F90E009950895CF93DF93762FE901CC
:102E4000682F842FE8DF962F672F9E01482F892F48
:102E5000E4DFDF91CF9108958091C503843028F499
:102E6000837084608093C50308958C3AE8F383707F
:102E7000886AF8CF8DE28093C5031092C6038FEF66
:102E80008093C70380E88093C8031092C9038091A0
:102E9000710383608093710385EC93E00C941F0DA4
:102EA0009091C903933018F49F5F9093C9038115E3
:102EB00021F085EC93E00C941F0D089581E0F0CF94
:102EC0009091C903911519F091509093C903811500
:102ED00021F085EC93E00C941F0D089581E0F0CF74
:102EE0000F931F93CF938091C50380FF09C0E0919A
:102EF0003D02F0913E020995CF911F910F910895E7
:102F0000C09157018091390290913A028C018091D1
:102F10005801C81760F7809155019C2F981B20E03D
:102F200040E060E0892F90E0F8010995CF5FEFCF96
:102F3000EF92FF920F931F93CF93DF93D82F162F0B
:102F4000042F8091C50380FF0CC0C0915701809170
:102F5000390290913A027C0180915801C81730F0F3
:102F6000BFDFCDB7DEB7E6E00C94D62E80915501D9
:102F70009C2F981B202F412F6D2F892F90E0F70158
:102F80000995CF5FE9CF762F9091C50390FF08C0D8
:102F9000682F842F40DF962F672F482F892FC8CFA7
:102FA0000895CF93DF93EC01EC81F0E0E755FD4FFE
:102FB0004491E5ECF3E062818181E5DF8C818F5FF4
:102FC0008C83DF91CF910895CF93DF93EC01E5ECF3
:102FD000F3E0438162818C81D6DF8C818F5F8C83AB
:102FE000DF91CF910895CF93DF93EC012091C80337
:102FF0009C81892F817090FD822F692F627091FDD5
:10300000622F492F447092FD422F92DF8C810196EE
:1030100087708C83DF91CF910895A0E0B0E0E3E169
:10302000F8E10C94B92ED82FE62E142FD22E9091C1
:10303000C50390FF34C02091C603281308C08091B7
:10304000C703861304C08091C803841729F08091B8
:103050007103826080937103392F36953695E32F83
:10306000F0E0E45FFD4F808180936F039C7F94309C
:10307000D9F46D2F7E2D812FCEDE962F672F482F0E
:10308000892F56DF2D2F2093C603E092C70310939C
:10309000C803D11421F085EC93E00E941F0DCDB739
:1030A000DEB7E7E00C94D52E823019F41091C803F6
:1030B000E9CF863041F3893031F3893119F787EE52
:1030C000F82EF30EEF2DE695F0E0E755FC4FC49196
:1030D00000E060915901061710F002DFD3CF0C9F7A
:1030E000C001112470E00E944F2E862F8D0FF0FE3C
:1030F00002C08D2F861B20915701200F3327331FCD
:10310000412F6E2D99DE0F5FE4CFE5ECF3E0282F21
:10311000438162818181885F80CF81E0F6CFE5ECD9
:10312000F3E0282F438162818181885076CF81E04E
:10313000F6CFE5ECF3E0628128E0620F08F46FEF70
:10314000282F4381818169CF81E0F3CFE5ECF3E063
:10315000628128E0621B08F460E0282F43818181AE
:103160005CCF81E0F3CFE5ECF3E0438128E0420F50
:1031700008F44FEF282F628181814FCF81E0F3CF98
:10318000E5ECF3E0438128E0421B08F440E0282FFF
:103190006281818142CF81E0F3CF20E03ECF0F9367
:1031A0001F93CF938C01C0E060915901C61768F05E
:1031B00097DEF8018481928190FF1DC08F5FF80136
:1031C0008483CF911F910F910895209157012C0F67
:1031D0003327331F70E08FEF90E00E94632EF801D9
:1031E00084814091C803C69F800D11246091C7035C
:1031F00023DECF5FD9CF8150E2CF8F929F92BF92D3
:10320000CF92DF92EF92FF920F931F93CF93DF93B2
:10321000EC018A8101E080FD0FEF8C81811109C0F2
:10322000013019F48091590181508093280381E085
:103230008C8310E08091390290913A024C01809188
:1032400059011817E8F04CDE90912803013009F07D
:1032500059C0809159018150911519F0892F8150E1
:1032600091E0809328039C83DF91CF911F910F9170
:10327000FF90EF90DF90CF90BF909F908F90089538
:103280008091570190915501891B810F20E040E00A
:1032900060E090E0F401099594E0E92EF12CB12C66
:1032A000C12ED12C809128038B0D8D302CF16CE038
:1032B0000E94422E892F082E001C00088C150D0438
:1032C000A1F4809157019601280F311D4091C80348
:1032D0005E2D5403A00111245595479555954795AA
:1032E0006091C7038091C603A7DDB00E81E0E81AA4
:1032F000F108C1F61F5FA3CF87FFDDCF9091590181
:10330000890FD9CF892F90E001966091590170E023
:103310000E94632E982FA5CFEF92FF921F93CF9319
:10332000DF93EC018C81811109C081E08C831092C4
:10333000270392E090935401809353011091570119
:103340008091390290913A027C01809158011817BE
:1033500078F110E08091390290913A027C016091FD
:103360005901161790F1BCDD80915301909127030C
:10337000980F9093270320915401280F2093540114
:10338000121654F4209159012150330B092E001CC0
:1033900000089217030634F0819580935301813021
:1033A00009F41C82DF91CF911F91FF90EF90089557
:1033B00080915501912F981B20E040E060E0892F1B
:1033C00090E0F70109951F5FC0CFE12FF0E070E0BA
:1033D000CF010E94632E20915701820F9091270305
:1033E000092E001C0008E917F0059CF0909154018B
:1033F000092E001C00089E170F065CF0282F30E0F5
:103400004091C8036091C7038091C60315DD1F5F1B
:10341000A6CF90915501891B20E040E060E090E04C
:10342000F7010995F4CFA0E0B0E0E9E1FAE10C94EE
:10343000B62EEC01FC812F2F30E0D9010E94182E0E
:103440009B01AC010E94A42E7B018C0180E290E0E4
:103450008F1B9109FC01A5E59701A8010E94A42EEC
:103460005B016C019F01DF010E94122E9B010E94F3
:103470009E2E9B01AC012E0D3F1D401F511FB5011B
:10348000C6010E94762E022F30E00A3220F5A901F3
:10349000440F551F420F531F55954795142F1095F4
:1034A000F12C85E5801BE82E80915901F81600F17A
:1034B00017DD9C8181E0911519F0903219F48FEF9E
:1034C0008093520180915201890F8C83CDB7DEB772
:1034D000EAE00C94D22E85E590E0821B930BAC01C0
:1034E000440F551F480F591FBAF64F5F5F4FD4CF97
:1034F0008E2DF1FC802F209157012F0D3327331F84
:10350000412F6091C70398DCF394CECF0F931F93A4
:10351000CF93DF938C01C0E0D0E090915901C9179F
:10352000D1055CF0DDDCF801848101968170848333
:10353000DF91CF911F910F910895F80144818091FF
:1035400057019E01280F311D6091C7038091C6036A
:103550009695C917D1053CF4411539F04091C8033F
:103560006BDC2196DACF4115C9F340E0F9CFA0E03A
:10357000B0E0EDEBFAE10C94B22EFC018281882ED2
:10358000948081E08483E9EAF2E0A490E8E2F3E049
:10359000E491C091C803C695C158D0E0CC0FDD1F9F
:1035A000ED2EF12CB12C05E01FEFEA198E2F90E0E3
:1035B0003C0180915901B81630F092DCCDB7DEB7EE
:1035C000EEE00C94CE2ECB2CD12C882D833058F4E9
:1035D0000B9DF0011124E45DFC4F8091C6038083B4
:1035E0008091C703818391101BC00C9DF0010D9D3C
:1035F000F00D1124E45DFC4F13821282809157017B
:103600009601280F311D0C9DF0010D9DF00D112428
:10361000E45DFC4F4281618180810EDCB394C9CFAF
:103620000C9DE0010D9DD00D1124C45DDC4F8B81FC
:103630008115E1F081508B83189FC00111246C81AA
:1036400070E00E944F2E70E0FB01E755FD4F849122
:103650008A19189FC0011124B3010E944F2E809136
:10366000C803689FB00111247A83C8CF0E942C2F11
:103670006FEF70E00E94632E8E159F050CF0BECF99
:10368000882D833090F00E942C2F6FEF70E00E9405
:10369000632E88830E942C2F2091C7032695622FCA
:1036A00070E00E94632E280F29830C9DF0010D9D70
:1036B000F00D1124E45DFC4F12828091C803893C17
:1036C00058F088EC0C9DF0010D9DF00D1124E45D87
:1036D000FC4F8483838392CF8431A0F784E1F2CFBF
:1036E00010927103089528E0E5ECF3E0DC0101900D
:1036F0000D922A95E1F720916F033091700340916C
:103700007103FC012087318742870895109270036E
:103710008091710384608093710308958091C50343
:103720008E7F8093C503F2DF809171038160809367
:103730007103D6CB8091C5038E7F8093C50385EC42
:1037400093E00E941F0DE2DF8091710381608093FE
:103750007103C6CB6091C5036695669570E04BE03A
:1037600050E08AE591E00E94382F892B19F481E01E
:10377000809370030E945E108093680390936903A6
:103780008091710384608093710308959091C503C3
:1037900090FF30C0811579F18B3278F58F73880FE7
:1037A000880F9091C5039370892B8093C5038091F6
:1037B0007103816080937103611521F085EC93E0C2
:1037C0000E941F0D6091C5036695669570E04BE001
:1037D00050E08AE591E00E94382F892B81F096DF36
:1037E00081E080936B034091C8036091C70380918F
:1037F000C603D3CC089581E0D2CF8AE2D0CFAADF2E
:10380000EFCF682F9091C50396959695892F8F5F7E
:103810008B3208F081E0BACF81E0F3CF682F90912E
:10382000C50396959695892F815009F48AE2AECF0B
:1038300081E0F4CF61E0AACF8091C50381608093DD
:10384000C50386958695F6CF8091C50380FF01C09C
:1038500071CFF2CF60E09ACF80916E03811123C0C7
:1038600085EC93E00E941D0D80917103836080932D
:1038700071038091C503843028F4FCDA85EC93E071
:103880000E941D0DE9DA42DFE0913702F091380223
:1038900009958091C50380FF03C086958695DADF80
:1038A00081E080936E0308958091C50381608093C9
:1038B000C50386958695CECF1F93CF93DF93EC01FA
:1038C000162F8A8580FF0CC0888180FF22C08091DE
:1038D000C50381608093C50388818695869556DFF0
:1038E0008A8581FF05C0212F4B816A81898195DB03
:1038F0008A8582FF04C08985811569F02BDF8A855E
:1039000083FF03C081E080936B03DF91CF911F9110
:10391000089504DFE5CFFADEF2CFEF92FF920F9326
:103920001F93CF93DF9380917003811509F46DC0CD
:1039300080916F03E091C503E695E695E81BE0935F
:103940006A03853109F4B9C008F071C0893009F4FF
:10395000AAC008F05FC0823009F493C0863009F431
:1039600099C0C0EDD7E005E017E180916B038115A8
:1039700061F010926B030E945E1080936803909335
:10398000690310926C0310926D030E945E102091E7
:10399000680330916903AC01421B530B4F3F5F47F3
:1039A000A0F540912B034115B1F010922B034091EB
:1039B000290350912A03841B950B8F3F9F4758F48E
:1039C000405D5A484093290350932A038091710324
:1039D000886080937103E0906C03F0906D032C0F6E
:1039E0003D1F209368033093690388E693E0F80154
:1039F000099580916C0390916D03892B31F4E1144A
:103A0000F10419F081E080932B03CDB7DEB7E6E037
:103A10000C94D62E8F3009F0A4CFE695F0E0E45652
:103A2000FD4FE491CE2FD0E00DEF18E19ECFC4EF13
:103A3000D1E006E81AE1843209F497CF88F4C8E2AD
:103A4000D0E003E11AE1883109F48FCF833209F025
:103A500088CFE7E9F2E0C591D59103EF17E185CF73
:103A6000853209F07ECF8E2F63E00E94362EE92F3B
:103A7000F0E0EC56FD4FE491CE2FD0E007EB1AE1D9
:103A800074CFF0E0EB55FD4FE491CE2FD0E001ED87
:103A900017E16BCFF0E0EE55FD4FE491CE2FD0E073
:103AA00004EE17E162CFE695F0E0E156FD4FE491B8
:103AB000CE2FD0E00FEC18E158CFF0E0E756FD4FE5
:103AC000E491CE2FD0E00CE819E14FCF089525CF37
:103AD00008958091CD03817008958DE18093CD0389
:103AE0008DEC93E00C941B0D8091CD03869586950B
:103AF000869508958DEC93E00E94190D8091CD0379
:103B000082FFEBDF8091CD03803320F087708862E5
:103B10008093CD039091CD03892F817090FF04C0D5
:103B2000892F869586958695D6C09091CD03892F4D
:103B3000869586958695983240F48F5F880F880F1A
:103B4000880F9770892B8093CD038091CD0381607E
:103B50008093CD038DEC93E00E941B0D8091CD03EB
:103B6000869586958695B7C08091CD03883088F07C
:103B700088508093CD0391E0883008F490E08091E4
:103B8000CD0390FB80F98093CD038DEC93E00E94F0
:103B90001B0D8091CD038695869586959CC080915E
:103BA000CD0380FD12C081608093CD03813019F474
:103BB00089E08093CD038DEC93E00E941B0D8091F2
:103BC000CD0386958695869586C008958091CD0310
:103BD00080FF09C08E7F8093CD038DEC93E00E941F
:103BE0001B0D80E078C008958091CD0380FF01C057
:103BF000EDCFD5CF8091CD038695869586958F5F45
:103C00008F71863008F080E0880F880F880F9091C0
:103C1000CD039770892B8093CD0391E0883008F411
:103C200090E08091CD0390FB80F98093CD038DECE3
:103C300093E00E941B0D8091CD0386958695869515
:103C40004AC0863008F085E02091CD032770982F78
:103C5000990F990F990F922B9093CD0321E09830F3
:103C600008F420E09091CD0320FB90F99093CD03D0
:103C700032C0E7DF8DEC93E00C941B0DFB01258136
:103C8000211539F1833038E79307E9F068F4813082
:103C900038E79307B1F0823038E79307C1F0811518
:103CA000984759F0822F0895843038E7930769F0D8
:103CB00085309847B9F79EDF02C085E0DADF20E063
:103CC000F1CF80E0FBCF50DFFACF2FDFF8CF8CDFD2
:103CD000F6CF21E0E7CF0F931F93CF93DF9386308A
:103CE00080F581112FC0909180009F779093800084
:103CF0002091860030918700A82FB0E00E94182EF6
:103D000025E030E040E050E00E94762EE901FA0123
:103D100080918600909187006CE070E00E944F2EA9
:103D20006217730798F0C90169E070E00E944F2E96
:103D30007093890060938800DF91CF911F910F915C
:103D4000089585E0909180009068D0CF80918600A2
:103D50009091870020918600309187008901209101
:103D600086003091870066E070E00E944F2EC60FFB
:103D7000D71FE11DF11D85E0CC0FDD1FEE1FFF1FDA
:103D80008A95D1F7C80166E070E00E944F2E40E0AE
:103D900050E0260F371F411D511DBE01CF010E946B
:103DA000762EE901FA0180918600909187008C01BE
:103DB000B901CA010E94272E9B01AC01D8010E94C3
:103DC000A42E9B01AC01BE01CF010E94272E770FCC
:103DD000BB27AA27881F991FAA1F20918600309110
:103DE0008700281739071A061B0620F480918600E1
:103DF00090918700BC019CCF0895259A2D9882E868
:103E00008093800089E1809381008FEF9FEF9093F2
:103E10008700809386006ECE0C943D130895E3E7EF
:103E2000F3E088E011928A95E9F708C1FC0122814C
:103E300030E02395237030E0938181E092171306E0
:103E400009F080E008950F931F93CF93DF93EC0167
:103E5000162F042FEBDF811114C08A81FE01E80FB9
:103E6000F11D912F00FB97F994838F5F83708A83F4
:103E700088818F5F888381E0DF91CF911F910F91BF
:103E8000089580E0F9CFFC01A38182818A17B1F007
:103E9000AE0FBF2FB11D14968C9187FB992790F917
:103EA0008F77DB018C93DA019C9383818F5F837022
:103EB000838381818F5F818381E0089580E008950D
:103EC000462F682F83E793E0BECFAB01BC0183E7A9
:103ED00093E0D9CFDC0198E0E3E7F3E001900D92A5
:103EE0009A95E1F7089581E080937203089581E047
:103EF0000895A2E0B0E0EFE7FFE10C94BC2E10E0E3
:103F0000CE010196BC010196E0DF811105C0812F31
:103F10002296E4E00C94D82E6981182F8A810E94A1
:103F20006303EECFCF9378DFC82F811511F0E1DF67
:103F3000C82F80917203811551F010927203809105
:103F40007503809376038091730380937403C6D0C6
:103F500063DF811511F0CDDFC82B8C2FCF91089531
:103F60008FE891E00197F1F700C00000089590E01C
:103F70006115D1F08B599E4FFC0180818F3F99F0E4
:103F8000E82FE295EF70F0E041A18F7021E001C0D1
:103F9000220F8A95EAF7922F9095942391A392A1EC
:103FA000822F892B82A308958A599E4FE5CF90E0F6
:103FB0006115A9F08B599E4FFC0120812F3F91F094
:103FC000E22FE295EF70E05EF0E0808190E02F70EC
:103FD00002C0959587952A95E2F7817008958A59D0
:103FE0009E4FEACF80E008950895CF93DF93C0E01D
:103FF00080917C03C81750F0B3DFC0E080917C0350
:10400000C81760F0F1DFDF91CF91089560E08C2F49
:10401000AEDF61E08C2FABDFCF5FEACF60E08C2FAB
:10402000C6DFD82F61E08C2FC2DFEC2FF0E0E15823
:10403000FC4F880F8D2B8083CF5FE0CF80911101E3
:1040400091E0892780937B038091110190937C03F9
:104050008091110180911101811106C087EF809339
:10406000660186EF80936501C0CF1F93CF93DF93E6
:10407000440F642BC82FD0E0DE01A158BC4FEC9157
:104080009E2F9370691731F1EE0FEE0FE62BEC9334
:1040900090917B03890F182FEF70F0E0E15CFD4FEA
:1040A000C358DC4F80819881890F888384301CF04D
:1040B00060E0812F05DF88818D3F1CF461E0812F56
:1040C000FFDE8881982F990F990B64E070E00E94C1
:1040D000632E8883DF91CF911F910895CF93DF9353
:1040E000C0E080917C03C81718F0DF91CF9108954C
:1040F00061E08C2F5CDFD82F60E08C2F58DF4D2FD4
:10410000682F8C2FB2DFCF5FECCF569A0895FC0159
:10411000EE0FFF1FE80FF91FE253FC4F618340834E
:1041200022830895FF920F931F93CF93DF93182F4D
:10413000062FF42EC0E0D0E02F2D402F612FCE01AE
:10414000E6DF2196CC30D105B9F7CDB7DEB7E5E093
:104150000C94D72E3BB13F7B2BB120644FB7F89422
:104160008EEC93E0FC010196508168E02BB90000D1
:1041700000C057FF3BB9550F000000C000C000C091
:104180003BB900C06A9591F753E0823F950751F71C
:104190004FBF8FE594E00197F1F700C0000008954C
:1041A0000895FC01680F791F8FEF41E3E617F707C9
:1041B00009F408959191892728E030E0982F990F0C
:1041C00087FF06C0892F842721503040B9F7EECFF2
:1041D000892FFACFCF93DF93EB0186319C4709F506
:1041E0000E94040C9D81911599F08A7A91E08111C9
:1041F00001C090E090938103811541F085E390D355
:104200000E948F0C80E0DF91CF91089589E2F7CF73
:1042100080918103811519F085E388D3F1CF89E27C
:10422000FCCF81E0F0CFCF93DF93EC01FB018581E0
:10423000811509F4CBC09E0130572332310508F0B7
:10424000ABC089EA93E00E94150DFE01E150F047F2
:10425000E232F10520F4ED52F04D0C94982E80914D
:10426000A90381608093A90390C08091AA0388600C
:104270008093AA038AC08091A9038260F3CF8091C2
:10428000A9038460EFCF8091A9038860EBCF809170
:10429000AA038160EDCF8091AA038260E9CF80916B
:1042A000A9038061DFCF8091A9038062DBCF809179
:1042B000A9038064D7CF0E94DC078091A90380689E
:1042C000D1CF8091A9038C60CDCF8091AA03836068
:1042D000CFCF8091A9038E7FC5CF8091AA03877F1E
:1042E000C7CF8091A9038D7FBDCF8091A9038B7F1C
:1042F000B9CF8091A903877FB5CF8091AA038E7F24
:10430000B7CF8091AA038D7FB3CF8091A9038F7E11
:10431000A9CF8091A9038F7DA5CF8091A9038F7B21
:10432000A1CF0E94DC078091A9038F779BCF80915A
:10433000A903837F97CF8091AA038C7F99CF909117
:10434000A903892F8B7F92FF8460877F92FF88600B
:1043500089CF8091AA03982F909590FB80F990FBCC
:1043600081F986CF9091A903892F8F7B96FF806476
:1043700079CF0E94DC079091A903892F97FB87F9D9
:10438000805870CF81E00E94210D89EA93E00E945D
:10439000170D0E94DC0780E0DF91CF91089580E047
:1043A000F2CF9091A903892F8F7E94FF80615ACF1D
:1043B0009091A903892F8E7F90FF816053CF9091B8
:1043C000AA03892F877F93FF886052CF81E0E4CFD3
:1043D000DC01ED91FD918191FE93EE930895DC0156
:1043E000ED91FD9184913196FE93EE930895A0E0B6
:1043F000B0E0EDEFF1E20C94B72EE82FF0E0E255DB
:10440000FB4F9491B92E282F26952695269530E0BE
:10441000F901E25BFA4FE4908770F12C082E02C09C
:10442000F594E7940A94E2F7F901E25CFA4FC4903C
:10443000D12C082E02C0D594C7940A94E2F7225DCD
:104440003A4FF901049110E002C0159507958A953D
:10445000E2F7C62FD0E0E0FC25C0C0FE06C086EE25
:104460000E943B05CE01009759F5BE018B2D0E949D
:104470009D05CE01009761F5C0FC32C0E0FE06C08C
:1044800081EE0E947605CE010097C1F500FF05C0C0
:104490008CE20E94B3052097C9F5CDB7DEB7E9E0FD
:1044A0000C94D32E81EE0E943B05CE010097A9F219
:1044B000EFE9FFE03197F1F700C000000197F6CF78
:1044C000EFE9FFE03197F1F700C000000197CBCF93
:1044D000EFE9FFE03197F1F700C000000197CACF84
:1044E00086EE0E947605CE01009741F2EFE9FFE0EB
:1044F0003197F1F700C000000197F6CFEFE9FFE038
:104500003197F1F700C000000197BECF8FE99FE01F
:104510000197F1F700C000002197BDCFA0E0B0E007
:10452000E4E9F2E20C94B72E8C017B01B42EC701B2
:10453000F80109958130A0F009F058C0C701F801D1
:104540000995C82F813089F4C701F80109950E94A7
:10455000B3058B2D90E0009709F040C0C111E7CF63
:10456000CDB7DEB7E9E00C94D32E823031F4C70129
:10457000F80109950E943B05ECCF833031F4C70167
:10458000F80109950E947605E4CF843011F7C70140
:10459000F8010995C82FC12CD12CDAE08C2F80535B
:1045A000990B8A30910568F0C114D10491F2EFE9BA
:1045B000FFE03197F1F700C0000081E0C81AD10890
:1045C000F3CFDC9D9001DD9D300D1124820F931FF0
:1045D0006C01C701F8010995C82FE0CFEFE9FFE0B2
:1045E0003197F1F700C000000197B5CF6B2DFFDECA
:1045F0009ECFA2E0B0E0EFEFF2E20C94BE2E462F89
:1046000089839A83BE016F5F7F4F88EE91E286DFD8
:104610002296E2E00C94DA2E60E0EBCFA2E0B0E06C
:10462000E4E1F3E20C94BE2E462F89839A83BE0107
:104630006F5F7F4F8FEE91E271DF2296E2E00C9484
:10464000DA2E0F931F93CF93DF93C42FD22FFC0149
:1046500085818115C9F0409384039ED280938203A3
:10466000909383038C2F805E883048F481E0C1FDF5
:1046700084E0C0FD880FC2FD82950E94BA05DF91DB
:10468000CF911F910F91089510918403141333C09B
:104690008091820390918303FED18F3A910558F562
:1046A000CD2FC05E1D17C1F0812F805E883048F489
:1046B00081E011FD84E010FD880F12FD82950E94BB
:1046C000BF05C83048F481E0D1FD84E0D0FD880FFB
:1046D000D2FD82950E94BA05802F0E94B30581E029
:1046E000D1FD84E0D0FD880FD2FD8295C83038F628
:1046F0000E94BF05C4CF8C2F805E883008F0BFCFEA
:1047000081E0C1FD84E0C0FD880FC2FD8295F0CF3D
:104710000F93FC01CB01E851FC47E730F10588F528
:10472000EB50F04D0C94982E06E221EE41EE6AE13A
:104730007CE787DF80E00F91089507E225EE45EEE4
:104740006BE17CE7F6CF06E221EE40EE68E17CE724
:10475000F0CF07E225EE44EE69E17CE7EACF06E21E
:1047600021EE42EE6CE17CE7E4CF07E225EE46EE77
:104770006DE17CE7DECF08E221E045EE6EE17CE70B
:10478000D8CFFB01858181111092840381E0D3CFC2
:1047900080938A0390938B030895089508950E944F
:1047A0003D13811103C0809185030895E0918A0330
:1047B000F0918B03309739F00190F081E02D309724
:1047C00011F00995089580E00895E0918A03F09131
:1047D0008B03309731F00280F381E02D309709F0A0
:1047E00009950895A3E0B0E0E8EFF3E20C94BE2E43
:1047F000209188033091890328173907B1F08093FD
:10480000880390938903E0918A03F0918B0330979A
:1048100061F00084F185E02D309739F023E02983A1
:104820008A839B83CE01019609952396E2E00C943E
:10483000DA2EA3E0B0E0EFE1F4E20C94BE2E20917A
:1048400086033091870328173907B1F080938603D8
:1048500090938703E0918A03F0918B03309761F086
:104860000084F185E02D309739F024E029838A8394
:104870009B83CE01019609952396E2E00C94DA2EF3
:1048800040910401509105019A012E5F3F4F485F0E
:104890005F4F80E0F90190812F5F3F4F91118F5F53
:1048A00042175307B9F70895811591F0209104013B
:1048B00030910501F9013296285F3F4F908198179A
:1048C00031F03196E217F307C9F780E0089581E0EF
:1048D00008959C01FC01329680E09FEF40814617CD
:1048E00059F031969F3F19F4411101C0982F8F5F05
:1048F0008630A1F79F3F09F40895290F311D97FDD8
:104900003A95F90162830895FC0132960896219147
:10491000261302C0DF011E92E817F907C1F70895B8
:10492000682F8091040190910501D3CF682F809169
:10493000040190910501E8CFE0910401F091050197
:10494000329686E011928A95E9F708950895FECF90
:1049500008958F5F80936A0160916701709168018B
:104960008091690190916A01F2CF83E080936A019E
:1049700060916701709168018091690190916A016D
:10498000E6CFE7CF089581E080936A0160916701E7
:10499000709168018091690190916A01D8CFF3CF3D
:1049A000089591E0811101C090E0909369016091B8
:1049B0006701709168018091690190916A01C7CF88
:1049C00080916901089580936801609167017091F9
:1049D00068018091690190916A01B9CF8091680165
:1049E00008958093670160916701709168018091DB
:1049F000690190916A01ABCF809167010895089594
:104A00000895FECF089508950895F9CF08950F935E
:104A10001F93CF93DF93F7DF0E94A812F5DF0CE816
:104A200013E0C0E0D0E08C2F0E946A11F80181935E
:104A30008F0191E0811101C090E0D92BCF5FCA3086
:104A400091F78D2FDF91CF911F910F910895E82F4E
:104A5000F0E0E457FC4F808190E021E030E002C0BC
:104A6000220F331F6A95E2F72823392381E0232B95
:104A700009F480E0089541110DC0E82FF0E0E457FB
:104A8000FC4F21E001C0220F6A95EAF72095808152
:104A9000282320830895CF93DF93EC017DD08C1BD6
:104AA0009D0BDF91CF910895EF92FF920F931F938B
:104AB0007B018C017DD09701A801621B730B840BD5
:104AC000950B1F910F91FF90EF90089585B7806827
:104AD00085BF85B7806885BF08951F921FB61F9256
:104AE00011248F939F93AF93BF938091960381116D
:104AF00013C08091F2039091F303A091F403B0915D
:104B0000F5034196A11DB11D8093F2039093F30329
:104B1000A093F403B093F503BF91AF919F918F9150
:104B20001F901FBE1F9018958091FA03843031F1B9
:104B30000E94C7041092960388E190E020E40FB62B
:104B4000F894A895809360000FBE2093600083B70F
:104B5000817F846083BF83B7816083BF78948895A9
:104B600083B78E7F83BF0FB6F894A89580916000BD
:104B7000886180936000109260000FBE08950E94CB
:104B8000DC070C94CE0482E084BD93E095BD9AEFDF
:104B900097BD80936E0008952FB7F8948091F2032B
:104BA0009091F303A091F403B091F5032FBF089502
:104BB0002FB7F8946091F2037091F3038091F4039E
:104BC0009091F5032FBF089578941F921FB61F92FE
:104BD00011248F939F93AF93BF938091F203909191
:104BE000F303A091F403B091F5030196A11DB11D4B
:104BF0008093F2039093F303A093F403B093F5032F
:104C0000BF91AF919F918F911F901FBE1F901895DC
:104C100081E08093E00080E28093D8001092C90088
:104C20008FE19EE40197F1F700C00000A7E0B0EB30
:104C3000CD018093030490930404A0930504B093E2
:104C4000060488E19CE00FB6F894A8958093600074
:104C50000FBE90936000FFCF88E19CE00FB6F89400
:104C6000A895809360000FBE90936000FFCF8EE107
:104C7000489B02C08150E1F7489BFECF08955898A9
:104C800080E28A95F1F7589A0895FC018BE08A95A5
:104C9000F1F798E020E080E031E040E14A95F1F75B
:104CA000880F489B02C08160232742E04A95F1F7B4
:104CB000000040E14A95F1F7915079F790E19A951B
:104CC000F1F799B132E03A95F1F7000030E13A9509
:104CD000F1F7917092272081920F90830895A1E0BF
:104CE000B0E0E5E7F6E20C94BA2E19828C017C0163
:104CF000E60EF11CBCDFCE010196C7DFF8018193FF
:104D00008F01EE15FF05B1F781E09981911180E0E7
:104D10002196E6E00C94D62E509A589A0895509811
:104D2000589AE89AE9E6F0E080818C7F80830895C4
:104D30006150770B91E001C0990F6A95EAF7692FEE
:104D400090E021E0611108C0911591F0589A80E23D
:104D50008A95F1F758980895362F382339F0589AE4
:104D6000922730E23A95F1F76695ECCF5898F9CF53
:104D70005898EDCFFF920F931F93CF93DF93EC01E1
:104D80008C01060F111D8991F82E79DF68E08F2DB7
:104D9000CFDFC017D107B9F7CDB7DEB7E5E00C9488
:104DA000D72E1F920F920FB60F9211240F931F93BD
:104DB0002F933F934F935F936F937F938F939F9323
:104DC000AF93BF93EF93FF93CF93DF930F92CDB742
:104DD000DEB719824CDFCE01019657DF082F06950A
:104DE00006950695282F22952570902F9570920F85
:104DF000292F237096959695920F98279770898101
:104E0000892B09F055C0093008F052C080E18A951D
:104E1000F1F7589A509A82E08A95F1F700C05898B5
:104E200088E0089F80011124D801AE5EBE4F16961F
:104E3000ED91FD911897309791F060910A02709171
:104E40000B0214962D913D91260F371F15978D91CA
:104E50009D91680F791F4C9113978C910995F801DA
:104E6000EE5EFE4F6381611549F020910A02309198
:104E70000B0284819581820F931F7CDF00DF80E12C
:104E80008A95F1F758985098589A80E18A95F1F7E9
:104E9000F801EE5EFE4F6081611549F020910A0233
:104EA00030910B0281819281820F931F18DFDFDE28
:104EB0000F90DF91CF91FF91EF91BF91AF919F91B3
:104EC0008F917F916F915F914F913F912F911F91A2
:104ED0000F910F900FBE0F901F9018950F931F9377
:104EE000CF93DF93EC0109970CF05EC0F894509AD1
:104EF000589885E08A95F1F700009C2F969595705B
:104F00008C2F8570980F892F837096959695292FF1
:104F100093E0CC0FDD1F9A95E1F7280F822F8C2BA1
:104F2000082FADDE00C068E0802F02DF80E18A95A7
:104F3000F1F75098589A489B30C087E090E0489924
:104F40002EC0FE01EE5EFE4F6381611559F0209187
:104F50000A0230910B0284819581820F931FBFDE7C
:104F60008115F9F084DE80E28A95F1F75898509A1D
:104F700080E18A95F1F7CE5EDE4F6881611549F0D8
:104F800020910A0230910B0289819A81820F931F2E
:104F9000F1DE75DE789481E008C000C0CCCF0197C7
:104FA00049F4509A589A789480E0DF91CF911F91FC
:104FB0000F91089500C0C3CF089508959B01BA01D1
:104FC0009091FA039430D9F48F708093E9009FEFA9
:104FD0008091E80085FD06C085ED8A95F1F7000017
:104FE0009150B1F78091E80085FF09C040E050E0A2
:104FF000C901ACD18091E8008E778093E8000895D4
:1050000043E050E0BC0182E0D9CFCF93DF93EC01C5
:10501000D7DC48E050E0BE0181E0D0DF88E0FE014F
:10502000A7E9B3E001900D928A95E1F7DF91CF9166
:1050300008958091F903811107C016D366D380913A
:10504000E20084608093E20008951092F9030895CD
:105050009ADC81E0A6CC6091F60381E0611101C089
:1050600080E083CC9091FA0381E0943009F080E0F5
:105070006091F60386CC42E061EC81E071D242E2BD
:1050800061EC82E06DD29091FA0381E0943009F0F6
:1050900080E06091F6035DCC8091FC03893081F162
:1050A00048F4823009F496C0833009F457C0813047
:1050B00041F008958A3009F480C08B3009F468C04B
:1050C00008958091FB03813A09F047C08091E80080
:1050D000877F8093E8008091FF0390910004892BE3
:1050E00059F060E080E090E070E07DD18091E800D0
:1050F0008B778093E800089568E087E993E0F4CF28
:105100008091FB03813249F58091FF039091000467
:10511000029718F58091E800877F8093E8008091DE
:10512000E80082FF16C02091F3008091F200922FD8
:10513000029731F48091F100813011F0863019F43A
:105140008091F10040DC8091E8008B778093E8004B
:105150003BC28091FA038111E2CF08958091FB0355
:10516000813AD9F78091FF0390910004892BA9F728
:105170008091E800877F8093E8008091E80080FFBD
:10518000FCCF1EDC8093F1008091E8008E77DECFAB
:105190008091FB03813209F78091FF039091000415
:1051A000892BD9F68091E800877F8093E8000CD2A4
:1051B0008091FD03F6DB0C94DC078091FB038132C8
:1051C00061F68091E800877F8093E800FDD18091AF
:1051D000FE0307CC8091FB03813A09F0BECF80919A
:1051E000E800877F8093E8008091E80080FFFCCF93
:1051F00003DCC8CF84B7877F84BF0FB6F894A89527
:1052000080916000886180936000109260000FBE02
:1052100080E890E00FB6F89480936100909361006D
:105220000FBEBDCB21D271D2E2EEF0E0808184606E
:1052300080837894CDC48BE691E0AACA8091FA036A
:10524000853029F48091FA03853011F098CC0895C7
:105250006BDCDDDB8115B1F38091F803811591F3EF
:105260005FD00E94DC07EECF08959A0140910104BF
:105270005091020400C0492F50E043305105C9F05D
:1052800070F441305105E9F14230510571F48BE37E
:1052900090E04EE855E0F901408351830895413292
:1052A0005105E9F04232510519F180E090E040E00B
:1052B000F2CF482F50E0813061F04230510561F06B
:1052C000EAE8F5E04115510581F7849190E0AF01DE
:1052D000E2CFEAE7F5E0F9CFEEE5F5E0F6CF6130B1
:1052E0007105A0F011F789E090E049EB55E0D3CFCC
:1052F0006130710580F0C9F682E390E04BED55E036
:10530000CACF82E190E049EC55E0C5CF89E090E05A
:1053100040EA55E0C0CF84E490E04DE056E0BBCFDA
:1053200080E189BD82E189BD09B400FEFDCF809195
:10533000D8008F7D8093D8008091E00082608093B8
:10534000E0008091E00081FDFCCF0895AF92BF9214
:10535000CF92DF92FF920F931F93CF93DF936C0155
:10536000EB018A0150D1F82E811123C001151105DE
:1053700039F0F80180819181C81BD90BC80ED91E64
:10538000A12CB12C2097A9F08091E80085FD21C0C7
:105390008091E8008E778093E80001151105A1F057
:1053A000F801808191818A0D9B1D8083918385E026
:1053B000F82E8F2DDF91CF911F910F91FF90DF90ED
:1053C000CF90BF90AF9008951ED18115E9F2F82ECD
:1053D000F0CFF60181916F018093F10021978FEF5B
:1053E000A81AB80ACFCFFC01209101043091020421
:1053F0002617370720F06115710569F09B0190E0D1
:105400002115310571F491110CC08091E80082FFE3
:1054100038C080E008959091E8009E779093E8006E
:10542000EDCF8091FA038115C1F18530C1F18091F2
:10543000E80083FD30C08091E80082FDE6CF8091D6
:10544000E80080FFDDCF8091F3004091F200582FFB
:105450002115310519F04830510558F091E04830D8
:10546000510509F090E04091E8004E774093E80044
:10547000C7CF81918093F100215031094F5F5F4F79
:10548000E7CF8091FA03811541F0853041F080919A
:10549000E80083FFBACF81E0089582E0089583E0B9
:1054A0000895FC012091010430910204261737076A
:1054B00020F06115710569F09B0190E0211531051F
:1054C00071F491110CC08091E80082FF39C080E036
:1054D00008958091E8008E778093E800EDCF809169
:1054E000FA038115C9F18530C9F18091E80083FD87
:1054F00031C08091E80082FDE6CF8091E80080FF16
:10550000DDCF8091F3004091F200582F2115310535
:1055100019F04830510558F091E04830510509F034
:1055200090E08091E8008E778093E800C7CF849167
:105530008093F1003196215031094F5F5F4FE6CFE4
:105540008091FA03811541F0853041F08091E800A7
:1055500083FFB9CF81E0089582E0089583E0089544
:10556000982F973028F08F708093E90081E008959C
:105570009093E900242F762F50E0981731F0709126
:10558000EC002091ED005091F00021FD02C09F5FE2
:10559000E8CF3091EB003E7F3093EB003091ED008F
:1055A0003D7F3093ED003091EB0031603093EB00A4
:1055B0007093EC002093ED005093F0002091EE00EA
:1055C00027FDE5CF80E008958091FB0387FF13C09E
:1055D0008091E80082FF06C08091E8008B7780937D
:1055E000E80008958091FA038111F2CF0895809127
:1055F000FA038115D9F38091E80080FFF8CF8091FC
:10560000E8008E77ECCF2091E4003091E50095E63C
:10561000A9012091EC00822F817020FF06C08091AB
:10562000E80080FF06C080E008952091E80022FD98
:105630001AC08091FA03811589F0853089F0809134
:10564000EB0085FD0FC02091E4003091E50042178A
:105650005307F9F29150E1F684E0089582E008954D
:1056600083E0089581E008955FD066D0E0EEF0E039
:10567000808181608083E8ED80818F77808319BC91
:10568000A7EDB0E08C918E7F8C9380818F7E80839C
:105690001092F9030895CF93DF9346D04DD0C8ED13
:1056A000D0E088818F77888388818068888388812B
:1056B0008F7D888319BC1092FA031092F603109222
:1056C000F8031092F703E0EEF0E080818B7F808397
:1056D00088818160888342E060E080E041DFE1EE24
:1056E000F0E080818E7F8083E2EE80818160808324
:1056F000808188608083E0EE80818E7F80838881D6
:1057000080618883DF91CF910895E8EDF0E080819A
:105710008F7E8083E7ED80818160808384E082BF1B
:1057200081E08093F903B7CFE8EDF0E080818E7FD0
:1057300080831092E20008951092DA001092E10046
:1057400008951F920F920FB60F9211242F933F933B
:105750004F935F936F937F938F939F93AF93BF9379
:10576000EF93FF938091E10082FF0AC08091E200F5
:1057700082FF06C08091E1008B7F8093E10027D2F9
:105780008091DA0080FF18C08091D80080FF14C09B
:105790008091DA008E7F8093DA008091D90080FFBB
:1057A0008FC080E189BD82E189BD09B400FEFDCFD3
:1057B00081E08093FA033DDC8091E10080FF18C016
:1057C0008091E20080FF14C08091E2008E7F809380
:1057D000E2008091E20080618093E2008091D80035
:1057E00080628093D80019BC85E08093FA0333DC93
:1057F0008091E10084FF28C08091E20084FF24C0F2
:1058000080E189BD82E189BD09B400FEFDCF8091B0
:10581000D8008F7D8093D8008091E1008F7E8093A7
:10582000E1008091E2008F7E8093E2008091E200AF
:1058300081608093E2008091F603811509F445C0F0
:1058400084E08093FA030EDC8091E10083FF27C09F
:105850008091E20083FF23C08091E100877F8093E5
:10586000E10082E08093FA031092F6038091E10058
:105870008E7F8093E1008091E2008E7F8093E20032
:105880008091E20080618093E20042E060E080E08D
:1058900067DE8091F00088608093F000D9DBFF9193
:1058A000EF91BF91AF919F918F917F916F915F9198
:1058B0004F913F912F910F900FBE0F901F90189511
:1058C00019BC1092FA03C1DB77CF8091E30087FF08
:1058D00002C083E0B6CF81E0B4CF1F920F920FB623
:1058E0000F9211241F932F933F934F935F936F93C6
:1058F0007F938F939F93AF93BF93CF93DF93EF9358
:10590000FF93E9EEF0E080811091EC008F7010FBC6
:10591000112717F9182B1082C0EFD0E08881877FFC
:10592000888378941CD0E9EEF0E01082888188604A
:1059300088831F701083FF91EF91DF91CF91BF910A
:10594000AF919F918F917F916F915F914F913F9117
:105950002F911F910F900FBE0F901F901895AAE2E4
:10596000B0E0E4EBFCE209C28BEF93E0FC010196AE
:105970002091F100208324E083309207B9F78CDB7B
:105980008091E80083FF37C08091FB039091FC0376
:105990009A3088F5E92FF0E0E450F04DC9C1803825
:1059A00089F0823841F58091FF038F70873018F5B8
:1059B0008093E9008091EB0085FB882780F91092A5
:1059C000E90006C08091F803880F9091F703892BB6
:1059D0009091E800977F9093E8008093F1001092F7
:1059E000F1008091E8008E7722C0811115C080916E
:1059F000FD03813001F18091E80083FF0AC08091AE
:105A0000E800877F8093E8008091EB0080628093BC
:105A1000EB00AA96E3E0CDC1823069F78091FD03E7
:105A2000811579F01092E9008091E800877F8093DA
:105A3000E800CADDE0CF933009F080E08093F803FE
:105A4000F1CF8091FF038F70282F2150263098F6D8
:105A50008093E9002091EB0020FFE4CF933031F4F4
:105A60008091EB0080628093EB00DCCF9091EB00A3
:105A700090619093EB0021E001C0220F8A95EAF734
:105A80002093EA001092EA008091EB008860EBCF4F
:105A90008111B1CF8091FD038F77182F8091E300A2
:105AA0008078812B8093E3008091E800877F80934A
:105AB000E8008ADD8091E80080FFFCCF8091E30060
:105AC00080688093E30083E0111101C082E080933D
:105AD000FA0391CF8058823008F08DCF8091FD037A
