:100000004FC300000C94262D84C3000082C300005F
:1000100080C300007EC300007CC300007AC30000E0
:1000200078C3000076C300000C94642B0C944C2C15
:100030000C94192B6EC300006CC300006AC300004F
:1000400068C3000066C3000064C3000062C3000010
:1000500060C300000C94402B5CC300005AC3000036
:1000600058C3000056C3000054C3000052C3000030
:1000700050C300004EC300004CC300004AC3000040
:1000800048C3000046C3000044C3000042C3000050
:1000900040C300003EC300003CC300003AC3000060
:1000A00038C3000036C3000034C3000007420921F2
:1000B00000000E000D2100000D210B2200000501A3
:1000C0000980A101850319012AB700150126B7008F
:1000D000950175108100C0050C0901A10185041965
:1000E000012AA002150126A002950175108100C009
:1000F00005010906A101050719E029E715002501F9
:10010000950875018102950175088101050719009F
:1001100029FF150026FF00950675088100050819BE
:1001200001290515002501950575019102950175B7
:10013000039101C009023B00020100A0FA0904007A
:1001400000010301010009211101000122440007FF
:1001500005810308000109040100010300000009F2
:100160002111010001223200070582032000011243
:100170000100020000000810CB56531005010200D8
:10018000011A0349007200690073002000520065E3
:100190000076002E0020003500610000000E034BA9
:1001A0000065006500620069006F0000000403093B
:1001B000040000000000000000000000000000003B
:1001C000000000000000000000000000000000002F
:1001D00000000000007E0F00D4FFFFFFC7000000FA
:1001E0007800000000000000002A2B28000000001A
:1001F00000000000000000000000000029000000D6
:10020000002C1E3420212224342627252E362D377B
:1002100038271E1F202122232425263333362E374C
:10022000381F0405060708090A0B0C0D0E0F1011E4
:1002300012131415161718191A1B1C1D2F313023F1
:100240002D350405060708090A0B0C0D0E0F1011B9
:1002500012131415161718191A1B1C1D2F313035BF
:100260004C2223252628292A2C2D2F3032333536AF
:10027000383A3B3D3E4042434547494A4C4E505137
:10028000535557595A5C5E6062646668696B6D6F5E
:1002900071737577797B7D7F81838587898A8C8E61
:1002A00090929496989A9C9E9FA1A3A5A7A8AAAC69
:1002B000AEAFB1B3B4B6B8B9BBBCBEBFC1C2C3C5A3
:1002C000C6C7C9CACBCCCDCED0D1D2D2D3D4D5D645
:1002D000D7D7D8D9D9DADADBDBDBDCDCDCDCDCDD78
:1002E000DDDDDDDCDCDCDCDCDBDBDBDADAD9D9D85C
:1002F000D7D7D6D5D4D3D2D2D1D0CECDCCCBCAC9F4
:10030000C7C6C5C3C2C1BFBEBCBBB9B8B6B4B3B122
:10031000AFAEACAAA8A7A5A3A19F9E9C9A989694BD
:1003200092908E8C8A89878583817F7D7B79777592
:1003300073716F6D6B6968666462605E5C5A595771
:10034000555351504E4C4A4947454342403E3D3B30
:100350003A3836353332302F2D2C2A2928262523BA
:1003600022FFAA7F554000010101010101010101A5
:100370000202020202020202020303030303030356
:100380000304040404040404050505050506060623
:100390000606070707070708080808090909090AE0
:1003A0000A0A0B0B0B0C0C0C0D0D0D0E0E0E0F0F85
:1003B0000F10101111111212131314141515161613
:1003C0001717181819191A1A1B1B1C1D1D1E1E1F82
:1003D0002020212222232424252626272829292AD1
:1003E0002B2C2D2D2E2F30313232333435363738F9
:1003F000393A3B3C3D3E3F404142434445464748F5
:10040000494A4C4D4E4F50515354555658595A5BCA
:100410005D5E5F616264656668696B6C6D6F70726A
:10042000737577787A7B7D7E8082838587888A8CD6
:100430008E8F91939596989A9C9EA0A2A3A5A7A90A
:10044000ABADAFB1B3B5B7BABCBEC0C2C4C6C9CB01
:10045000CDCFD1D4D6D8DBDDDFE2E4E7E9EBEEF0B7
:10046000F3F5F8FAFDFF1E0F0500047F3F1F64320D
:1004700014643214783C1E1E140A0529001E001F45
:1004800000200021002200350014001A0008001589
:10049000001700E00004241628074209210A22E17F
:1004A000001D001B0006001900050000000000E30D
:1004B000002352280028002A0027002600250024B7
:1004C0000023002D00130012000C0018001C003443
:1004D0000033240F280E000D210B222E0038003788
:1004E00000360010001100000000002B0021522CEB
:1004F00000010001000100010001000100010035C0
:10050000021E021F0220022102220201002F0030DF
:10051000002F023002010001000100010026022725
:100520000201000000000001002A0001000100019A
:100530000001000100010001000100310227022634
:1005400002250224022302310038024F00520051DA
:100550000050000100010001000100010001000045
:100560000000000100010001000100010001000184
:100570000001000100010001000100010001000173
:100580000001000100010001000100010001000163
:100590000001000100010001000100000000000155
:1005A0000001000100010001000100010001000143
:1005B00000010001000100477E467E457E010044A7
:1005C0007E437E427E417E407E01000100010001AB
:1005D0000001000100487E00000000010001000150
:1005E000000100007C010001000100010001000188
:1005F00000497E4A7E010001000100207821782315
:10060000782978277801000100227824782A782830
:10061000780100000000000100010001000100015C
:100620000001000100010001000100A800010026F6
:1006300000250024000100A9000100230022002160
:10064000000100AA00010020001F001E00010000A0
:10065000000000010027002B0001000102E0200142
:1006600003E0004C4C4C4C4C4C4C4C4C4C4C4C4CCB
:100670004C4C4C4C4C4C4C4C4C4C4C00004C4C4C52
:100680004C52525252525252525252525252525250
:100690005252525252525252520000525252520030
:1006A00011241FBECFEFDAE0DEBFCDBF04B603FEDC
:1006B00019C08091A3049091A404A091A504B091C5
:1006C000A6048730904BA740B04B61F41092A3046E
:1006D0001092A4041092A5041092A604E0E0F8E39E
:1006E000099500C024E0ACE5B2E001C01D92A33A38
:1006F000B207E1F712E0A0E0B1E0EEE4F0E602C0FC
:1007000005900D92AC35B107D9F70E94DC260C9408
:10071000DC2F76CCFB01D901893021E2920769F503
:100720004A31510581F18481813069F514968C91AB
:100730001497813041F5918186E0E081F0E0899F56
:10074000E00DF11D1124ED59F94F94919A32D9F031
:1007500011962C91EE91F0E0829FE00DF11D112495
:10076000ED59F94FE49181E0EA3209F080E021E0AF
:100770009E1301C020E0822B08958F30984299F695
:100780004C315105CFCF81E00895DC01ED91FD9111
:100790008191FE93EE930895DC01ED91FD9184919A
:1007A0003196FE93EE93089580939F049093A00456
:1007B00008958093A1049093A204089521E030E06D
:1007C00002C0220F331F8A95E2F78091A104909115
:1007D000A204822B932BEDCF21E030E002C0220F48
:1007E000331F8A95E2F7209530958091A10490916E
:1007F000A20482239323DDCF9A3090F5863080F5D2
:10080000E82FF0E086E0989FE00DF11D112451E003
:10081000E1FD54E0E0FD550FE2FD529583E0F695D1
:10082000E7958A95E1F7EE0FFF1FEE0FFF1FEC51E2
:10083000FC4F20E030E070E04191DF01CB01022E5F
:1008400002C0969587950A94E2F78695880B8427CF
:10085000852384278E932F5F3F4F2430310561F726
:100860000895292F9A3070F5863060F590E036E0D3
:10087000239F800D911D1124682F677023E09695AA
:1008800087952A95E1F7FC01EE0FFF1FEE0FFF1F82
:10089000EC51FC4F40E050E080E0219130E0062E2A
:1008A00002C0369527950A94E2F72170042E01C004
:1008B000220F0A94EAF7822B4F5F5F4F44305105B5
:1008C00061F7089580E00895E09112049091110479
:1008D000E91302C080E008959F0159E0E59FF0010F
:1008E0001124E456FC4F5181561306C05081581311
:1008F00003C05581541305C02F5F3F4FF901E770C6
:10090000E7CF81E0089580919B0390E020E0022EE4
:10091000001C0008281709060CF008952F5FF7CF78
:10092000209121042D79A1F4903578F49032C0F40F
:1009300041E08333910539F0C0F441E08E319105F7
:1009400088F4049728F0842F0895392F365511F034
:1009500040E0F9CF9C01205F364527303105C0F3D8
:1009600090E0E6CF8C97A1F7EECFC69741E00397D2
:1009700050F3EECF8091120420911104281301C08E
:10098000089501968770FACF909124048095892369
:1009900080932404282F277061F4891751F09091D7
:1009A000260492FF06C086958695869515DF1092DF
:1009B000240408958095982F8091210489238093A1
:1009C00021040895972F7A30C8F46630B8F4843043
:1009D000C0F470E026E0929F600D711D11249CE32D
:1009E000899F600D711D1124FB01EE0FFF1FE5585B
:1009F000FB4F85919591282F822F089520E090E05C
:100A0000FBCF21E0FCCF803E9105D1F1C8F48133CA
:100A1000910509F481C048F48932910509F471C047
:100A20008A32910509F47FC0089589339105E1F078
:100A300082389105C9F08533910509F45DC00895A8
:100A4000843E9105D1F148F4823E910531F1833E17
:100A5000910541F181EE90E00895863E9105C1F146
:100A6000873E9105F1F1089520912504237009F046
:100A700064C02091260423FF14C089E290E0089509
:100A80002091250420FD45C03091260430FF09C087
:100A900024FD24C083EE90E008952091250422FDDA
:100AA000F7CF08952091250422FD44C030912604FB
:100AB00030FD43C024FFF5CF11C02091260421FF53
:100AC000F0CF8091250484FD09C087EE90E0089561
:100AD0002091250423FFE5CF24FFF7CF80E090E0AD
:100AE00008952091250423FD2BC03091260431FF69
:100AF000E1CF84EE90E008952091250425FFD1CF29
:100B0000BCCF2091250425FD1EC02091260423FF83
:100B1000C8CF89E390E008952091250426FFC1CF36
:100B20008AE290E008952091250426FFBACF81E360
:100B300090E0089582EE90E0089580EE90E00895B0
:100B400086EE90E0089585E390E008959091250465
:100B500092FF10C041E0282F2471243009F040E0BA
:100B600031E0282F2871283009F030E0431711F0C8
:100B70002CE0822793FF10C041E0282F24712431FC
:100B800009F040E031E0282F2871283109F030E0E9
:100B9000431711F02CE082273091260430FF10C05B
:100BA00051E0282F2171213009F050E041E0282F39
:100BB0002871283009F040E0541711F029E082270D
:100BC00031FF10C041E0282F2171213109F040E0B0
:100BD00031E0282F2871283109F030E0431711F057
:100BE00029E0822794FF02C083FD877E08950F933A
:100BF0001F93CF93DF9307DFEC01D23508F04DC090
:100C0000D03508F0C3C0C03ED10530F5CD3CD1058C
:100C100008F09AC0C83AD10578F4C53AD10508F071
:100C200090C0C130D10599F1CE010497813A910568
:100C300070F1C0E0D0E02BC0CE01885A91094B97EB
:100C4000C0F7C85AD0E0CC0FDD1FC051DE4F09906D
:100C5000D881C02DD4641BC0D03490F4D03208F0B9
:100C6000A8C0C83ED10598F0CE0191509F3108F739
:100C70008D2F6CDF082F8C2F90E0C5DE902B54C099
:100C80008C2F90E0C0DEDF70C82FD92BD06ACE0148
:100C9000DF91CF911F910F910895C03882E5D80759
:100CA000B8F5C03682E5D80708F056C0C03482E5F2
:100CB000D807C8F4C03282E5D80708F047C08C2FA7
:100CC0008695869520E2829FC0011124C37021E0A1
:100CD00030E002C0220F331FCA95E2F7E901C82BAA
:100CE000D92BDD68D4CF8C2F86958695877020E22E
:100CF000829FC0011124C37021E030E002C0220FA6
:100D0000331FCA95E2F7E901C82BD92BDC68BFCFA6
:100D1000C03C82E5D80750F48C2F8F71C03AD24581
:100D200080F5982F84EF906AEC01B1CFCE01805C02
:100D30009245809708F07DCFDC2FDF71C0EFD06A3D
:100D4000A6CFA497D064A3CFD065A1CF8C2F8F71ED
:100D5000D82FC1EFD06A9BCF8C2F86958695877050
:100D600020E2829FC0011124C37021E030E002C064
:100D7000220F331FCA95E2F7E901C82BD92BDA6895
:100D800086CFE4DEC0E0D82FD06281CF8C2F8F7168
:100D9000DDDE93E0CC0FDD1F9A95E1F7DF70282FA1
:100DA00084FF04C090E1899F90011124C22FD06973
:100DB0006ECF8D2F8F71CADE082F8C2F90E023DE2F
:100DC000902BEC01E1CFCF92DF92FF920F931F9314
:100DD000CF93DF936C010091A1041091A204809144
:100DE0009F049091A004082B192BCFE0D0E081E064
:100DF00090E00C2E02C0880F991F0A94E2F780231E
:100E00009123892B61F4219790F7F12C8F2DDF919D
:100E1000CF911F910F91FF90DF90CF900895FC2EFE
:100E2000B6018C2FCFDDE3DE019769F3EFCF1F937F
:100E3000CF93DF93FC01278130852115310589F49B
:100E40008581C081D181811589F0611579F0CE014C
:100E5000BADF182F682FCE01CFDCBE01812FB2DDA3
:100E60009C01C901DF91CF911F910895CE01F9DC5A
:100E7000182FF3CFCF93DF93EC01A5DFBE01A2DDE6
:100E8000B6DEDF91CF910895FC0184818115A9F030
:100E900087819085009799F0AADE92959F70963091
:100EA000C9F088F4925F9F70923038F491E0803FEF
:100EB00079F058F491E0883E58F090E009C08081C4
:100EC0009181D8DFEACF9A5FEECF91E0843FA9F716
:100ED000892F089591E0813F09F090E021E0883E5C
:100EE00008F020E0922BF4CF80E00895F894E82FEA
:100EF000E295EF70F0E041A18F7021E001C0220F78
:100F00008A95EAF7922F9095942391A392A1822F2C
:100F1000892B82A37894089581E080931503089526
:100F20000895CF92DF92EF92FF921F93CF93DF93BA
:100F3000462F172FE82FF0E0EA59FC4F71110CC033
:100F4000E4918E2F7E2F6E2FDF91CF911F91FF9016
:100F5000EF90DF90CF900895F491EF2F86E0689F97
:100F6000E00111242FEF30E0CE01B9010E94962E4E
:100F7000DB01CA01880F991F65E56A9FA0016B9F7D
:100F8000500D1124841B482F440F480FC901811BA9
:100F90009109F89F7001F99FF00C11248F2D149F77
:100FA000B0011124672F70E06901C61AD70AB60193
:100FB000F69F6001F79FD00C1124A330B10549F1D1
:100FC000B901641B7109AB01149FB001159F700D2D
:100FD0001124672F70E0261B370BF29FA001F39FAF
:100FE000500D1124752FCC3FD34050F4A130B105E2
:100FF000A1F0129709F0A7CFEF2D852F7F2FA3CF58
:10100000A430B10569F0169709F49DCF7F2D8D2D81
:101010009ACF7D2DEF2D8F2F96CF7F2FED2D93CF54
:10102000E52F7F2DF8CFCF93762FC22F682F842FF7
:1010300078DF472F909116012C2F291B922F282FF4
:10104000892F90E05FD3CF910895CF9380911904B9
:1010500080FF03C00DD6CF910895C09118018091F3
:101060001901C817B8F7809116019C2F981B20E032
:1010700040E060E0892F90E045D3CF5FF0CF0F9341
:101080001F93CF93DF93D82F162F042F809119042D
:10109000C091180180FD10C0DF91CF911F910F9179
:1010A0000895809116019C2F981B202F412F6D2FA2
:1010B000892F90E027D3CF5F80911901C81788F35B
:1010C000C4DFEACF762F9091190490FF08C0682FF3
:1010D000842F27DF962F672F482F892FD0CF089591
:1010E000CF93DF93EC01E9E1F4E0438162818C81ED
:1010F000E9DF8C818F5F8C83DF91CF91089510920F
:101100001704809118048460809318040895CF9385
:10111000DF93EC01EC81F0E0EF59FD4F4491E9E100
:10112000F4E062818181CEDF8C818F5F8C83DF91DF
:10113000CF9108950F931F93CF938C01C0E06091DE
:101140001A01C61768F081DFF8018481928190FF4F
:101150001DC08F5FF8018483CF911F910F91089577
:10116000209118012C0F3327331F70E08FEF90E090
:101170000E94AA2EF801848140911C04C69F800D14
:10118000112460911B044FDFCF5FD9CF8150E2CF94
:10119000A0E0B0E0EEECF8E00C943A2EEC018A818D
:1011A00001E080FD0FEF8C81811109C0013019F43D
:1011B00080911A0181508093E50281E08C8310E0D8
:1011C00080911A011817B0F040DF9091E5020130CC
:1011D00009F051C080911A018150911519F0892FA1
:1011E000815091E08093E5029C83CDB7DEB7E9E0C2
:1011F0000C94562E8091180190911601891B810F35
:1012000020E040E060E090E07DD294E0E92EF12C17
:10121000B12CC12ED12C8091E5028B0D8D302CF19B
:101220006CE00E94892E892F082E001C00088C1566
:101230000D04A1F4809118019601280F311D4091F1
:101240001C045E2D5403A001112455954795559516
:10125000479560911B0480911A04E5DEB00E81E091
:10126000E81AF108C1F61F5FABCF87FFDDCF909181
:101270001A01890FD9CF892F90E0019660911A0148
:1012800070E00E94AA2E982FADCF1F93CF93DF93CB
:10129000EC018C81811109C081E08C831092E40201
:1012A00092E09093060180930501109118018091BE
:1012B0001901181740F110E060911A01161778F122
:1012C000C4DE809105019091E402980F9093E402AE
:1012D00020910601280F20930601121654F4209144
:1012E0001A012150330B092E001C00089217030627
:1012F00034F0819580930501813009F41C82DF91DF
:10130000CF911F91089580911601912F981B20E095
:1013100040E060E0892F90E0F5D11F5FC8CFE12F5A
:10132000F0E070E0CF010E94AA2E20911801820FF8
:101330009091E402092E001C0008E917F0059CF0CA
:1013400090910601092E001C00089E170F065CF004
:10135000282F30E040911C0460911B0480911A04F6
:1013600062DE1F5FA9CF90911601891B20E040E04B
:1013700060E090E0C7D1F5CFA0E0B0E0E2ECF9E0AA
:101380000C94392EEC01FC812F2F30E0D9010E9402
:10139000AB2F9B01AC010E949B2F7B018C0180E253
:1013A00090E08F1B9109FC01A5E59701A8010E941F
:1013B0009B2F5B016C019F01DF010E94682E9B0146
:1013C0000E94C32E9B01AC012E0D3F1D401F511FDB
:1013D000B501C6010E94BA2F022F30E00A3220F573
:1013E000A901440F551F420F531F55954795142FC0
:1013F0001095F12C85E5801BE82E80911A01F816D6
:1014000000F123DE9C8181E0911519F0903219F4EE
:101410008FEF8093040180910401890F8C83CDB7F5
:10142000DEB7EAE00C94552E85E590E0821B930B25
:10143000AC01440F551F480F591FBAF64F5F5F4F5D
:10144000D4CF8E2DF1FC802F209118012F0D332742
:10145000331F412F60911B04E6DDF394CECFCF9371
:10146000DF93EC0120911C049C81892F817090FDF9
:10147000822F692F627091FD622F492F447092FD77
:10148000422FFDDD8C81019687708C83DF91CF9197
:1014900008950F931F93CF93DF938C01C0E0D0E0AA
:1014A00090911A01C917D1055CF0CFDDF801848154
:1014B000019681708483DF91CF911F910F910895E0
:1014C000F8014481809118019E01280F311D60911F
:1014D0001B0480911A049695C917D1053CF4411557
:1014E00039F040911C049FDD2196DACF4115C9F3F4
:1014F00040E0F9CF0F931F93CF93DF93863080F5B1
:1015000081112FC0909180009F779093800020914F
:10151000860030918700A82FB0E00E94AB2F25E015
:1015200030E040E050E00E94BA2FE901FA018091DA
:101530008600909187006CE070E00E94962E621702
:10154000730798F0C90169E070E00E94962E7093CD
:10155000890060938800DF91CF911F910F910895CA
:1015600085E0909180009068D0CF80918600909126
:1015700087002091860030918700890120918600A4
:101580003091870066E070E00E94962EC60FD71F4C
:10159000E11DF11D85E0CC0FDD1FEE1FFF1F8A95B9
:1015A000D1F7C80166E070E00E94962E40E050E05E
:1015B000260F371F411D511DBE01CF010E94BA2FBA
:1015C000E901FA0180918600909187008C01B901B0
:1015D000CA010E946E2E9B01AC01D8010E949B2F74
:1015E0009B01AC01BE01CF010E946E2E770FBB277D
:1015F000AA27881F991FAA1F209186003091870073
:10160000281739071A061B0620F48091860090914E
:101610008700BC019CCF863008F085E02091130440
:101620002770982F990F990F990F922B909313046D
:1016300021E0983008F420E09091130420FB90F909
:101640009093130457CF90914F03292F30E070915E
:101650005003A9014395437050E07417150689F0B3
:10166000235B3C4F60FB87F9F90184839F5F937094
:1016700090934F0380914D038F5F80934D0381E0E2
:10168000089580E0089590E06115D1F0855E9E4F49
:10169000FC0180818F3F99F0E82FE295EF70F0E038
:1016A00041A18F7021E001C0220F8A95EAF7922FA5
:1016B0009095942391A392A1822F892B82A30895C0
:1016C000845E9E4FE5CF90E06115A9F0855E9E4F48
:1016D000FC0120812F3F91F0E22FE295EF70E05E58
:1016E000F0E0808190E02F7002C0959587952A9553
:1016F000E2F781700895845E9E4FEACF80E00895FE
:10170000569A0895FC01EE0FFF1FE80FF91FEC57E2
:10171000FD4F61834083228308951092300410921C
:10172000310480917901811104C0109278011092E6
:101730007A0180918001811104C010927F01109282
:10174000810180918701811104C01092860110925D
:1017500088010895AC018091330460913204982F80
:10176000691301C00895292F30E0F901EE0FFF1F22
:10177000E85DFB4F0190F081E02DE417F507B9F427
:10178000E0E0F0E04330510540F467E0649FF00191
:10179000659FF00D1124EC58FE4F41E044839813EF
:1017A000E1CF2F5F3F4F237020933304089523959B
:1017B000922F9370D5CFFC01680F791F8FEF41E313
:1017C0009191892728E030E0982F990F87FF09C071
:1017D000892F842721503040B9F7E617F70781F7A2
:1017E0000895892FF7CF80917D03811571F0E091E5
:1017F0008103F0918203309739F00190F081E02D60
:10180000309711F00995089580E00895A3E0B0E0C5
:10181000ECE0FCE00C94412E20917F02309180029C
:1018200028173907B1F080937F0290938002E091EE
:101830008103F0918203309761F00084F185E02DFF
:10184000309739F023E029838A839B83CE01019668
:1018500009952396E2E00C945D2EA3E0B0E0E3E36B
:10186000FCE00C94412E20917D0230917E022817DD
:101870003907B1F080937D0290937E02E09181035D
:10188000F0918203309761F00084F185E02D30976C
:1018900039F024E029838A839B83CE010196099540
:1018A0002396E2E00C945D2E9C01FC01329680E0D0
:1018B0009FEF4081461759F031969F3F19F441112F
:1018C00001C0982F8F5F8630A1F79F3F09F40895DC
:1018D000290F311D97FD3A95F90162830895FC01A6
:1018E000329608962191261302C0DF011E92E81756
:1018F000F907C1F708958091130108952FB7F8945F
:101900008091790290917A02A0917B02B0917C0241
:101910002FBF08952FB7F8946091790270917A02E1
:1019200080917B0290917C022FBF089580917D036E
:10193000811539F0EFDF462F572FBC01CB01BA01DB
:101940000895E8DFDC01CB014091790350917A03DF
:1019500060917B0370917C03480F591F6A1F7B1FA6
:10196000EDCF80917D03811509F0C8CFDFDFCB017A
:10197000089508950895FC0120916F02309170023E
:101980002617370748F06115710529F49091E80092
:101990009E779093E8009B0190E02115310541F47A
:1019A000911106C08091E80082FF32C080E0089566
:1019B0008091E9028115C1F18530C1F18091E80083
:1019C00083FD30C08091E80082FDECCF8091E8007B
:1019D00080FFE3CF8091F3004091F200582F211552
:1019E000310519F04830510558F091E04830510563
:1019F00009F090E04091E8004E774093E800CDCFA9
:101A000081918093F100215031094F5F5F4FE7CF03
:101A10008091E902811541F0853041F08091E80024
:101A200083FFC0CF81E0089582E0089583E00895A8
:101A3000982F9093E900891771F07091EC00209134
:101A4000ED005091F00021FD09C09F5F973089F7AC
:101A50008093E9000895762F242F50E03091EB0019
:101A60003E7F3093EB003091ED003D7F3093ED00F1
:101A70003091EB0031603093EB007093EC002093D9
:101A8000ED005093F0002091EE0027FDDECF089589
:101A90008091690287FF13C08091E80082FF06C031
:101AA0008091E8008B778093E80008958091E902A7
:101AB0008111F2CF08958091E9028115D9F38091C7
:101AC000E80080FFF8CF8091E8008E77ECCF20917E
:101AD000E4003091E50095E6A9012091EC00822F09
:101AE000817020FF06C08091E80080FF06C080E082
:101AF00008952091E80022FD1AC08091E902811525
:101B000089F0853089F08091EB0085FD0FC0209130
:101B1000E4003091E50042175307F9F29150E1F6E5
:101B200084E0089582E0089583E0089581E00895B7
:101B3000CF93DF93C8EDD0E088818F7E8883E7ED77
:101B4000F0E080818160808384E082BF81E08093C7
:101B5000680288818E7F8883E2EE10821092DA001C
:101B6000A1EEB0E01C9288818F778883888180689D
:101B7000888388818F7D888319BC1092E902109236
:101B800067021092E80210926602A0EE8C918B7FA1
:101B90008C9388818160888342E060E080E048DF48
:101BA000A1EEB0E08C918E7F8C93E2EEF0E080812C
:101BB00081608083808188608083E0EE80818E7F79
:101BC0008083888180618883DF91CF910895E8EDDB
:101BD000F0E080818E7F80831092E2001092DA0024
:101BE0001092E100A0EEB0E08C9181608C93808136
:101BF0008F77808319BCA7ED8C918E7F8C93808129
:101C00008F7E8083109268020895A0E0B0E0EBE040
:101C1000FEE00C94392E7C016B015A018091550332
:101C20000AE010E08A3010F001E010E0C1E0D0E0FE
:101C3000B601C701F5010995811115C021960C1750
:101C40001D078CF0CC9F9001CD9F300D300D1124DD
:101C500080E090E045E34A95F1F700000196821795
:101C60009307C1F7E5CFCDB7DEB7EAE00C94552E68
:101C70003BB13F7B2BB120644FB7F89484E892E0EE
:101C8000FC010196508168E02BB9000000C057FFAD
:101C90003BB9550F000000C000C000C03BB900C0F8
:101CA0006A9591F752E0883A950751F74FBF8FE553
:101CB00094E00197F1F700C0000008950F931F937F
:101CC000CF93DF93EB018A019091E902943059F5AB
:101CD0008093E9008FEF9091E80095FD06C095EDA7
:101CE0009A95F1F700008150B1F78091E80085FFE7
:101CF0001AC0EDDE811112C08091E80085FD06C09A
:101D00008091E8008E778093E800F3CF88818093FC
:101D1000F1000150104011F02196EECF8091E800C3
:101D20008E778093E800DF91CF911F910F910895F6
:101D3000CF93DF93EC0148E050E0BC0181E0BEDFCF
:101D400088E0FE01A1E7B2E001900D928A95E1F7EB
:101D5000DF91CF91089543E050E0BC0182E0AECF27
:101D60009091260492FB222720F9281779F080FB16
:101D700092F990932604609125047091260484E0E2
:101D800090E00E946B2F82E00C94C4040895FC0143
:101D9000608186E090E00C94512F80912104909115
:101DA0002704892B90912204911589F0892B90E0CA
:101DB00020E632E0F90140812F5F3F4F41119F5FE4
:101DC00042E026363407B1F7911110922204809335
:101DD0005E0248E050E063E873E08EE592E00E9426
:101DE000292F892BB9F088E0EEE5F2E0A3E8B3E013
:101DF00001900D928A95E1F7E0918103F0918203C1
:101E0000309741F00280F381E02D309719F08EE594
:101E100092E00995089510922104E0E6F2E086E050
:101E200011928A95E9F780E090E0F0DC80E090E0A4
:101E300014DD10922704B1CFEEDF8FEF94E32CE096
:101E4000815090402040E1F700C0000088E19CE014
:101E50000FB6F894A895809360000FBE9093600031
:101E6000FFCFCF93DF93EC0180919B03883010F07C
:101E7000D2DF80E0E82FF0E0EE0FFF1FE557FC4FC8
:101E80009E01C08331838F5F80939B03DF91CF914D
:101E90000895AAE2B0E0EFE4FFE00C94402E89E65A
:101EA00092E0FC0101962091F100208322E081372D
:101EB0009207B9F780916A02893009F457C0C8F4D3
:101EC000823009F4B2C0833009F482C0813081F1DC
:101ED0008091E80083FFE6C08091690290916A02D8
:101EE0009A3008F0DFC0E92FF0E0E252F04D0C9498
:101EF000BD2E8A3009F489C08B3051F78091690278
:101F0000813231F780916D0290916E02892B01F739
:101F10008091E800877F8093E800BADD81E09091AE
:101F20006B02911101C080E08093140174DFD0CF67
:101F300080916902813A61F68091E800877F809301
:101F4000E80080916D0290916E02892B59F060E05B
:101F500080E090E070E00FDD8091E8008B77809367
:101F6000E800B6CF68E081E792E0F4CF80916902A3
:101F7000813209F0ADCF80916D0290916E0202978F
:101F800008F0A6CF8091E800877F8093E8008091D9
:101F9000E80082FF18C02091F3008091F200922F98
:101FA000029731F48091F100813011F0863021F4F4
:101FB0008091F100809313018091E8008B778093EA
:101FC000E80066DD85CF8091E9028111E0CF80CF06
:101FD00080916902813A09F07BCF80916D029091E6
:101FE0006E02892B09F074CF8091E800877F80937F
:101FF000E8008091E80080FFFCCF8091140180937D
:10200000F1008091E8008E77DACF80916902813209
:1020100009F05ECF8091E800877F8093E80038DD8B
:1020200080916C028093120153CF80916902813AB2
:1020300009F04ECF8091E800877F8093E80080917F
:10204000E80080FFFCCF80911201D9CF803889F061
:10205000823841F580916D028F70873018F580933A
:10206000E9008091EB0085FB882780F91092E90058
:1020700006C08091E802880F90916602892B9091AA
:10208000E800977F9093E8008093F1001092F100B0
:102090008091E8008E7723C0811116C080916B0279
:1020A000813009F18091E80083FF0AC08091E80047
:1020B000877F8093E8008091EB0080628093EB0043
:1020C000AA96E3E00C945C2E823061F780916B025B
:1020D000811579F01092E9008091E800877F809364
:1020E000E800D6DCDFCF933009F080E08093E8028F
:1020F000F1CF80916D028F70282F2150263090F6FD
:102100008093E9002091EB0020FFE4CF933031F47D
:102110008091EB0080628093EB00DCCF9091EB002C
:1021200090619093EB0021E001C0220F8A95EAF7BD
:102130002093EA001092EA008091EB008860EBCFD8
:102140008111B0CF80916B028F77182F8091E300BF
:102150008078812B8093E3008091E800877F8093D3
:10216000E80096DC8091E80080FFFCCF8091E300DE
:1021700080688093E30083E0111101C082E08093C6
:10218000E90290CF8058823008F08CCF20916B020A
:1021900030916C022C3D83E0380789F583E08A8317
:1021A0008AE289834FB7F894DE01139620E03EE07F
:1021B00051E2E32FF0E050935700849120FF03C0D9
:1021C00082958F703F5F8F708A30B8F0895C8D93F5
:1021D0001D922F5F243169F74FBF8091E800877F00
:1021E0008093E8006AE270E0CE010196C4DB809142
:1021F000E8008B778093E80055CF805DE8CF832F90
:1022000090E08330910519F160F48130910509F473
:102210006CC08230910509F045CF8BE3E4E3F1E037
:1022200029C020916D0230916E028132910509F42E
:1022300053C08232910509F035CF2130310508F4C1
:102240005CC009F02FCF82E3EEEBF0E013C0822FE9
:1022500090E0213099F182309105B9F1009709F0B1
:1022600021CFEDEAF1E0E4918E2FEDEAF1E0009765
:1022700009F418CF2091E800277F2093E8002091EF
:102280006F02309170028217930708F49C0140E0BE
:1022900021153105B1F5411134C08091E80082FD6E
:1022A000A6CF8091E902811509F4A1CF853009F408
:1022B0009ECF8091E80083FFF0CF99CFEDE9F1E068
:1022C000E4918E2FEDE9F1E0D2CFE1E8F1E0E49185
:1022D0008E2FE1E8F1E0CBCF2130310550F009F04D
:1022E000E1CE89E0EFE5F1E0C5CF82E1EFE6F1E094
:1022F000C1CF89E0E6E4F1E0BDCF84E4E0EFF0E0B7
:10230000B9CF8091E902811509F471CF853009F4C4
:102310006ECF8091E80083FD6ACF8091E80082FD56
:10232000BCCF8091E80080FFB3CF4091F300809153
:10233000F200942F2115310519F08830910550F0E5
:1023400041E0089709F040E08091E8008E778093A3
:10235000E8009ECF44914093F1003196215031091D
:102360000196E8CF803809F09DCE8091E800877F04
:102370008093E800809167028093F10089CE8111FB
:1023800091CE80916B02182F823008F08BCE809115
:10239000E800877F8093E8001093670279DB1115CE
:1023A00099F084E08093E90242E061EC81E040DB57
:1023B00042E261EC82E03CDB8091E902843051F43E
:1023C00082E0809315016ECE8091E30087FDE9CF16
:1023D00081E0E8CF81E0F5CFCF93C82F811599F048
:1023E0008450813A90F4E0E6F2E086E692E02081C3
:1023F000C21789F131968E179F07C9F76C2F8EE5AA
:1024000092E052DACADCCF9108958C2F805E88303A
:1024100060F4C77021E001C0220FCA95EAF78091ED
:102420002104822B80932104EDCF8C2F855A833099
:1024300028F48C2F8452990BE9D9E5CFC85ACB31B7
:1024400010F7EC2FF0E0EE0FFF1FEA5DFD4F8081EB
:10245000918103DAD8CF6C2F8EE592E040DA9DDCD3
:10246000CDCF811529F1982F9450913A28F4682FF7
:102470008EE592E034DA91CC982F905E983058F443
:10248000982F81E091FD84E090FD880F92FD829568
:102490000E94DA04F0CF982F955A933018F480E018
:1024A00090E0B4C9885A8B3118F480E090E0D5C927
:1024B00008951F93CF93DF93182FC0E5D0E08933A1
:1024C00011F0C0E0D0E0812F87DF209731F4812F19
:1024D000C8DFDF91CF911F9108958FE99FE00197A9
:1024E000F1F700C000002197F0CF80E090915003F9
:1024F00020914F03291711F1E92FF0E0EF5AFC4F1B
:102500008081282F2F779F5F937090935003909135
:102510004E039F5F90934E03211531F0213041F41B
:1025200087FF0AC08EE403C087FF04C089EAC1DFC9
:1025300081E0DCCF8AEAFBCF8BE4F9CF08958115E7
:1025400031F090912104982B9093210426CC08958A
:10255000811519F00E94DA0420CC0895FF920F93A0
:102560001F93CF93DF93C62FD42FF22E8115A1F0A6
:1025700060931404C3D9809381029093820281E016
:10258000C1FD84E0C0FD880FC2FD8295D8DFCDB7C4
:10259000DEB7E5E00C945A2E8091140468132DC028
:1025A0000091810210918202A9D9801B910B8A3A75
:1025B000910518F51D2F105ECD1791F0C77001E041
:1025C000802F01C0880FCA95EAF7C2DF183040F4A7
:1025D0008D2F877001C0000F8A95EAF7802FAFDF3B
:1025E0008F2D67DF81E0D1FD84E0D0FD880FD2FD23
:1025F0008295183060F6ACDFCACF81E0C1FD84E07F
:10260000C0FD880FC2FD8295F6CF8F929F92AF9248
:10261000BF92CF92DF92EF92FF920F9388E090E00B
:102620000E94472F4B015C016093190490921A0499
:1026300080931B04B0921C0410921D0410921E047F
:1026400010921F041092200483E290E00E943F2F1A
:102650009401A5018092190430931A04A0921B04DE
:1026600050931C0480931D0410921E0410921F04AA
:10267000109220040F91FF90EF90DF90CF90BF90C9
:10268000AF909F908F90089586E090E00E943F2F3A
:102690008093130482FD06C08DE18093130483E1CF
:1026A00094E075DB80911304803320F0877088629A
:1026B0008093130490911304892F817090FF04C0BC
:1026C000892F8695869586950C947A0A0F93CF93D9
:1026D000DF93C9E1D4E0488159816A817B8188E038
:1026E00090E00E94632F6C81262F60E070E0CB01A8
:1026F000622F83E20E94512FDF91CF910F910895B5
:102700008DE28093190410921A048FEF80931B04BA
:1027100080E880931C0410921D048091180483604B
:102720008093180489E194E0D1CF80911D04833017
:1027300018F48F5F80931D0489E194E0C7CF8091E6
:102740001D04811519F0815080931D0489E194E0E6
:10275000BDCFA0E0B0E0EFEAF3E10C943C2EC82F2F
:10276000E62E142FD22E2091190420FF35C080911F
:102770001A048C1308C090911B04961304C0909106
:102780001C04941729F090911804926090931804F7
:10279000322F36953695E32FF0E0ED54FE4F9081C1
:1027A000909316042C7F2430E1F46C2F7E2D812F22
:1027B0000E949107962F672F482F892F0E943F086C
:1027C0008C2F80931A04E0921B0410931C04D114E4
:1027D00019F089E194E07ADFCDB7DEB7E7E00C9439
:1027E000582E923019F410911C04EACF963049F318
:1027F000993039F3993121F787EEF82EF30EEF2D4A
:10280000E695F0E0EF59FC4FD49100E060911A0199
:10281000061718F00E942508D3CF0D9FC001112480
:1028200070E00E94962E862F8C0FF0FE02C08C2F37
:10283000861B20911801200F3327331F412F6E2D47
:102840000E9413080F5FE2CFE9E1F4E0818121E00B
:1028500043816281885F7DCFE9E1F4E0818121E0FD
:1028600043816281885075CFE9E1F4E0628128E01C
:10287000620F08F46FEF21E0438181816ACFE9E1C3
:10288000F4E0628128E0621B08F460E021E043810B
:1028900081815FCFE9E1F4E0438128E0420F08F451
:1028A0004FEF21E06281818154CFE9E1F4E043817F
:1028B00028E0421B08F440E021E06281818149CF99
:1028C000CF92DF92FF920F931F93CF93DF93690113
:1028D000E801082F880F110B41155105B1F0F801DF
:1028E00033E0EE0FFF1F3A95E1F7E85DFE4F81817F
:1028F00092818C5D9C4FE0812E2F30E04E17510568
:1029000008F49A01A9010E94362FC8010E94C32D24
:10291000F82E8115E1F02097D1F0C80123E0880F4F
:10292000991F2A95E1F7FC01E85DFE4F2381422FB4
:1029300050E0C217D10508F4AE01885D9E4FFC013E
:10294000648175816C5D7C4FC6010E94362F8F2D8E
:10295000DF91CF911F910F91FF90DF90CF9008955D
:10296000A4E0B0E0E6EBF4E10C943D2EE09011031E
:10297000F090120300911303109114030E948A0C2B
:10298000DC01CB018E199F09A00BB10B11E084363D
:102990009105A105B10510F10E94960CDC01CB0157
:1029A0000296A11DB11D89839A83AB83BC8300E08D
:1029B00010E0980144E050E0BE016F5F7F4F85E07A
:1029C0007FDF182F811551F00E948A0C609311034C
:1029D000709312038093130390931403812F249612
:1029E000E6E00C94592EA1E0B0E0E9EFF4E10C949C
:1029F000312E662E2A01190168018D019E012F5F7B
:102A00003F4F40E050E0BA015BDF182F8115B1F174
:102A1000F20180809180A280B3800E948A0C79802C
:102A2000681979098A099B09643671058105910540
:102A300030F4B701C6010E94DB0B8715F9F087015E
:102A4000910140E050E0BA01862D3ADF082FB7012E
:102A5000C6010E94DB0B10E087110BC0102F117014
:102A600000FF07C00E948A0CF20160837183828399
:102A70009383812F2196E2E10C944D2EA701B6019C
:102A8000C1010E94362FF5CFA5E0B0E0EAE4F5E100
:102A90000C943B2E6B017D0105E213E0CE01019603
:102AA0009C0140E253E061E080E09DDF811559F038
:102AB00095E09E012F5F3F4FF901ABE1B3E001903C
:102AC0000D929A95E1F795E0EBE1F3E0D6010190E4
:102AD0000D929A95E1F72596E8E00C94572EA8E020
:102AE000B0E0E5E7F5E10C943D2E7D010BE213E04B
:102AF0009E012F5F3F4F47E153E063E082E073DFC9
:102B0000182F811599F190912A0380911603981737
:102B100069F190912E0380912D03891709F1E92F16
:102B2000F0E0E85DFC4F878187FB662760F99F5FD7
:102B3000937090932E0390912C039F5F90932C039E
:102B40008F770E94230BF82E8111E3CF00E010E075
:102B50009801A801B80184E0B3DEF8221F2D02C05D
:102B6000F110F4CF80912A0380931603812F2896C9
:102B7000E6E00C94592EA0E0B0E0E1ECF5E10C9415
:102B8000372ED82EEB01C42E59014801E880F98078
:102B90000A811B810E948A0CDC01CB018E199F09DE
:102BA000A00BB10B84369105A105B10510F4C11439
:102BB00079F000E010E09801A401B5018D2D80DED0
:102BC000811539F00E948A0C688379838A839B83FC
:102BD00081E0CDB7DEB7ECE00C94532EA1E0B0E07D
:102BE000E4EFF5E10C943F2E8091130480FF16C0B2
:102BF000869586958695898341E090913703981351
:102C000001C040E08D019E012F5F3F4F6DE073E0FA
:102C100086E0B1DF2196E4E00C945B2E80E0EBCF00
:102C2000ABE0B0E0E6E1F6E10C943F2E28E0E9E10C
:102C3000F4E0CE010196DC0101900D922A95E1F7B6
:102C400030911604209117045091180439872A876F
:102C50005B8741E09C01511101C040E00BE010E0B6
:102C600069E073E087E087DF8111109218042B96EA
:102C7000E4E00C945B2EA0E0B0E0E1E4F6E10C941B
:102C8000352EFC018281882E948081E08483E1E6E8
:102C9000F2E0A490E0EEF2E0E491C0911C04C6954D
:102CA000C158D0E0CC0FDD1FED2EF12CB12C05E08A
:102CB0001FEFEA198E2F90E03C0180911A01B8169F
:102CC00038F00E942508CDB7DEB7EEE00C94512E07
:102CD000CB2CD12C882D833058F40B9DF00111247E
:102CE000E855FD4F80911A04808380911B048183F5
:102CF00091101CC00C9DF0010D9DF00D1124E855A4
:102D0000FD4F13821282809118019601280F311D08
:102D10000C9DF0010D9DF00D1124E855FD4F4281F1
:102D2000618180810E941308B394C7CF0C9DE0019C
:102D30000D9DD00D1124C855DD4F8B818115E1F01B
:102D400081508B83189FC00111246C8170E00E9418
:102D5000962E70E0FB01EF59FD4F84918A19189F60
:102D6000C0011124B3010E94962E80911C04689F1B
:102D7000B00111247A83C7CF0E94102F6FEF70E04B
:102D80000E94AA2E8E159F050CF0BDCF882D833092
:102D900090F00E94102F6FEF70E00E94AA2E88839F
:102DA0000E94102F20911B042695622F70E00E9434
:102DB000AA2E280F29830C9DF0010D9DF00D1124E2
:102DC000E855FD4F128280911C04893C58F088EC34
:102DD0000C9DF0010D9DF00D1124E855FD4F8483ED
:102DE000838391CF8431A0F784E1F2CF60911904FD
:102DF0006695669570E04BE050E087E091E00E94B8
:102E00001C2F892B19F481E0809317040E94B10CC8
:102E100080934303909344038091180484608093CB
:102E2000180408959091190490FF31C0811581F123
:102E30008B3280F58F73880F880F909119049370EF
:102E4000892B809319048091180481608093180461
:102E5000611519F089E194E039DC609119046695F7
:102E6000669570E04BE050E087E091E00E941C2FF7
:102E7000892B91F00E947F0881E08093460320E037
:102E800040911C0460911B0480911A0462CC089547
:102E900081E0D1CF8AE2CFCFA9DFEECFA5E1B0E0CC
:102EA000E4E5F7E10C94382EFE013C96DF018AE060
:102EB0001D928A95E9F738E6C32E31E0D32E7F01C3
:102EC0009E2EAF2C03E711E0F60181916F018F3F39
:102ED00009F43DC0F894E82FE295EF70F0E021A1ED
:102EE0008F7041E001C0440F8A95EAF7922F942B2E
:102EF00091A392A1842F8095892382A3789400C006
:102F0000EDE6F1E031E0B12C21912F3F79F0A22FD5
:102F1000A295AF70A05EB0E08C9190E02F7002C0DF
:102F2000959587952A95E2F780FFF1C080E0B82A51
:102F3000330F0E171F0741F7F60182918F3F11F0F3
:102F40000E94760780EA8A95F1F7F701B0828FEF49
:102F5000E81AF80A8DE6C81681E0D80609F0B4CF61
:102F60004AE050E0692D7A2D8FE693E00E94292FE8
:102F70007C01892B49F08AE0E92DFA2DAFE6B3E018
:102F800001900D928A95E1F700916E0310E0109286
:102F90006303D0906203D11409F48DC10E947E0CAA
:102FA00040916003509161039C01241B350B809379
:102FB00060039093610384179507C9F031112FEFD7
:102FC000EAE5F3E04FE553E030E090E081918115D0
:102FD00039F0DF011197281708F49BC01C923D2D92
:102FE0004E175F0799F730935F0390936203EF28C2
:102FF00061F480915F038115A1F1D11006C00E9498
:103000007E0C809360039093610310925F03309174
:103010006203C8018C599C4F2FE6E22E23E0F22E6A
:10302000EAE5F3E020E055E0DC016D91CD01D70148
:103030004D917D01641759F06081611108C0508382
:103040009C0121503109D9014C9321E031E03196A6
:1030500044E7E41643E0F40639F730936203209323
:1030600063030C591C4F80917D037E019FEFE91A89
:10307000F90A811509F486C0F70185E011928A9555
:10308000E9F7809155038A3008F047C044E455E1E0
:10309000B701C8010E94050E811509F461C04FE611
:1030A00055E1B701C8010E94050E811509F458C009
:1030B00040EB54E1B701C8010E94050E811509F4E7
:1030C0004FC04EEE55E1B701C8010E94050E8115B3
:1030D00009F446C040E156E1B701C8010E94050E5F
:1030E0008115F1F1109255038091590390E045E06C
:1030F00050E0B7018C599C4F0E94292F21E020936A
:103100005803892B09F56596EBE00C94542E832F18
:103110000ECF821B8C939D2D63CFC0905603D09011
:1031200057030E947E0C8C199D09843F914008F042
:10313000ADCF80915803811531F3F70185E01192ED
:103140008A95E9F710925803A0915903B0E0AC5961
:10315000BC4F85E0F70101900D928A95E1F7D3CF3E
:10316000809155038F3F39F40E947E0C8093560363
:1031700090935703DECF8F5F809355038A3008F416
:10318000B3CFF2CF85E0F801A5E2B3E001900D9254
:103190008A95E1F765E070E085E293E00E94DB0B41
:1031A0008093240388E0EDE4F3E0ABE2B3E0019028
:1031B0000D928A95E1F768E070E08BE293E00E945F
:1031C000DB0B80932A03A0903303B0903403C090AC
:1031D0003503D09036038091490390914A03A09122
:1031E0004B03B0914C03A816B906CA06DB06C1F022
:1031F000A0924903B0924A03C0924B03D0924C0371
:103200000E948A0CA61AB70AC80AD90AC501D601B3
:103210008093790390937A03A0937B03B0937C030C
:10322000809137030E940B0B8BE0E8E3F3E0D701BA
:1032300001900D928A95E1F7F0903903E0903A03FE
:10324000D0903B030091410310914203109242033E
:10325000111509F458CF10FF0CC089819091190401
:1032600080FF19C091609093190460E0869586955F
:10327000D9DD11FF05C020E04D2D6E2D8F2D69DAAF
:1032800012FF03C00115A1F0B1DD13FF3CCF81E0B7
:103290008093460338CF9E7F909319040E947F0845
:1032A000809118048160809318040E942508E1CF62
:1032B0000E947F08EACFEF2809F49BCEA0CE809130
:1032C0001904869586958F5F8B3208F081E061E066
:1032D000A9CD8091190486958695815009F48AE2DA
:1032E00061E0A0CDA0E0B0E0E8E7F9E10C94382E71
:1032F0006C015B01C501F6010995813060F109F0AF
:1033000043C0C501F6010995813029F4C501F601D4
:103310000995CFD8EFCF823029F4C501F601099580
:103320005BD8E8CF833029F4C501F601099599D817
:10333000E1CF843071F4C501F6010995C0E0D0E019
:103340001AE0282F2053330B2A30310548F02097FC
:1033500099F48111CFCFCDB7DEB7EBE00C94542EAA
:103360001C9FC0011D9F900D1124280F391FE901DA
:10337000C501F6010995E5CFEFE9FFE03197F1F7D7
:1033800000C000002197E3CFE82FF0E0EF51FE4F9F
:103390009491992E282F26952695269530E0F901AF
:1033A000EF52FE4F0491877010E0082E02C0159571
:1033B00007950A94E2F7F901EF53FE4FE490F12CE0
:1033C000082E02C0F594E7940A94E2F72F543E4F7A
:1033D000F901C491D0E002C0D595C7958A95E2F76E
:1033E00000FF03C081EE0E94EC11E0FE03C086EEF8
:1033F0000E94EC11892D0E94EC11892D32D8E0FE3B
:1034000002C086EE2ED800FF02C081EE2AD8C0FF8F
:1034100071CF8CE27ECFA2E0B0E0E1E1FAE10C9462
:103420003F2E8C018BE596E089839A83CE0101962D
:10343000BC018CEC93E056DFC80109839A83CE016E
:103440000196BC0185EC93E04DDF2296E4E00C94FC
:103450005B2EA0E0B0E0EFE2FAE10C943B2E7C01A1
:10346000FC018481811509F472C060E0C7010E94EB
:103470001707F7012681203170F440911204309132
:103480001104431317C030910D04311521F0309110
:103490000E04303178F0F7013581311124C09035B8
:1034A00080F5903208F03FC0883E9105C0F4803E20
:1034B0009105C8F061E0C7010E941707EC01F70110
:1034C0008581FE01811509F405C1E054FE47EB300A
:1034D000F10508F060C0E851F04D0C94BD2E9C0140
:1034E00031503F31E8F08093060490930704F701D0
:1034F0008281938180930404909305041092730158
:10350000D9CF803422E5920720F4803222E5920759
:10351000D0CF9C01205832452036310520F7CACF44
:103520008111E1CFC7CF2031F9CF8AE891E073DF75
:1035300080912404877059F0F7018581811539F055
:103540008091260482FF03C082E00E94C404CDB7AC
:10355000DEB7E8E00C94572E8CE891E0E8CF81EBE1
:1035600091E0E5CF8EE891E0E2CF80E991E0DFCF16
:1035700082E991E0DCCF84E991E0D9CF8CE991E058
:10358000D6CF84EA91E0D3CF61E081E04BDCD0CFAD
:1035900061E082E0FBCFC33098E7D90709F443C06C
:1035A00040F5C13098E7D907E1F1C23098E7D90773
:1035B00009F46AC0C11598E7D90759F110921404AB
:1035C0009E0130572332310508F0ACC484E090E00E
:1035D0000E944C2F8093250490932604FE01E15015
:1035E000F047E232F10508F09CC0ED50F04D0C942C
:1035F000BD2EC43098E7D90799F1C53098E7D907AF
:1036000009F456C0FE01E851FC47E730F105B0F679
:1036100067C085E00E940B0B83E194E00E94C70E17
:1036200087CF80E0F7CF80911304883088F08850EE
:103630008093130491E0883008F490E080911304A3
:1036400090FB80F98093130483E194E00E94C70EFD
:10365000809113048695869586950E947A0A68CF94
:1036600090911304892F869586958695983240F41B
:103670008F5F880F880F880F9770892B80931304B2
:10368000809113048160DECF8091130480FF09C014
:103690008E7F8093130483E194E00E94C70E80E044
:1036A000DCCF816080931304813071F689E0CACF4A
:1036B000809113048695869586958F5F8F718630ED
:1036C00008F080E0880F880F880F9091130497709E
:1036D000892BAECFE851FC47E730F10508F012C462
:1036E000EB5EFF4C0C94BD2E26E241EE61EE0E9493
:1036F000AE121ECF27E245EE65EEF9CF26E241EE8F
:1037000060EEF5CF27E245EE64EEF1CF26E241EE22
:1037100062EEEDCF27E245EE66EEE9CF28E241E02A
:10372000EBCF80912504816080932504609125046E
:103730007091260484E090E00E946B2F0E940B0F92
:10374000F7CE80912604886080932604EFCF809185
:1037500025048260E9CF809125048460E5CF8091C3
:1037600025048860E1CF809126048160EDCF8091AF
:1037700026048260E9CF809125048061D5CF8091B5
:1037800025048062D1CF809125048064CDCF0E9432
:103790000B0F809125048068C7CF809125048C6031
:1037A000C3CF809126048360CFCF809125048E7F84
:1037B000BBCF80912604877FC7CF809125048D7F62
:1037C000B3CF809125048B7FAFCF80912504877F75
:1037D000ABCF809126048E7FB7CF809126048D7F5A
:1037E000B3CF809125048F7E9FCF809125048F7D5C
:1037F0009BCF809125048F7B97CF0E940B0F8091E8
:1038000025048F7791CF80912504837F8DCF809180
:1038100026048C7F99CF90912504892F8B7F92FF6E
:103820008460877F92FF88607FCF80912604982FE5
:10383000909590FB80F990FB81F986CF90912504BB
:10384000892F8F7B96FF80646FCF0E940B0F909122
:103850002504892F97FB87F9805866CF61E08EE0B9
:1038600090E00E94512F62CF60E0F9CF9091250443
:10387000892F8F7E94FF806157CF90912504892FE7
:103880008E7F90FF816050CF90912604892F877F93
:1038900093FF886059CF9272FE01E052F847EB30F7
:1038A000F10508F050C0E45EFF4C0C94BD2E8091F1
:1038B000190480FF11C08E7F8093190489E194E080
:1038C0000E9466130E947F08809118048160809393
:1038D00018040E9425082CCE81608093190461E0B1
:1038E0008695869553CE911521F0F3DC21CE911566
:1038F000E1F3E5DC1DCE911529F00E942C1418CEC1
:103900009115D9F30E94241413CE911529F00E9429
:103910003F140ECE9115D9F30E94341409CE91159F
:1039200029F00E94551404CE9115D9F30E944A142F
:10393000FFCD911529F00E949F13FACD9115D9F36F
:103940000E949513F5CD9E01205E3245203231054F
:10395000A0F4811129C08C2F8F71C1E0D0E002C08A
:10396000CC0FDD1F8A95E2F76C2F83E090E00E9478
:10397000512FCE010E94D403DBCD811509F461C023
:10398000CB359CE7D90709F452C0CC359CE7D90761
:1039900009F442C0CA359CE7D90709F446C0C130D2
:1039A0009CE7D90709F44BC0C3309CE7D90709F459
:1039B00040C0C115DC4709F044C00E940B0F8FEFD7
:1039C00094E32CE0815090402040E1F700C00000DB
:1039D00081E08093E00080E28093D8001092C900DB
:1039E0008FE19EE40197F1F700C00000A7E0B0EB83
:1039F000CD018093A3049093A404A093A504B09355
:103A0000A60488E19CE00FB6F894A8958093600026
:103A10000FBE90936000FFCF80912604002482FFA8
:103A20000394802D0E94B00E83CD81E0FBCF80E017
:103A3000F9CF6FEF7FEF80E090E00E946B2F0E9444
:103A40001C0FF701278130852115310509F44FC07E
:103A5000C9010E94F705D82FC92FF701C58006813B
:103A600002950F7080912404877001F1DC2CC11441
:103A7000F1F0892F807F803461F08D2F805E883057
:103A8000A8F0892F807E803221F4D23078F00115A1
:103A900069F08091260482FF09C082E00E94C4047C
:103AA000809124048770DD24D3948111D12C8C2F34
:103AB00082958F70883009F414C108F048C08430B2
:103AC00060F51C2F1F70823008F452C0C07FC032D6
:103AD00011F01295107FD13008F480C009F4C7C0EE
:103AE000C11409F4D1C0011509F496C056C0008173
:103AF0001181811569F0C8010E94E306C82F682F63
:103B0000C8010E94FC03B8018C2F0E94E204A1CFDF
:103B1000C8010E943104C82FF6CF09F4C6C0D114E1
:103B200009F416C18091240480FD12C1F7011582A9
:103B30008695869586950E94DE03C7018ADC809172
:103B400024048695869586950E94EC0301C18930F0
:103B500009F457C18A5F8F70823008F7D23F09F0AD
:103B600061C18C2F8F71C1105AC10E94DE03EEC05B
:103B7000C03110F01295107FC114B9F0111569F021
:103B80008D2F805E883010F0D11109C08091210402
:103B9000812B809321040E94CD0E8D2F2FC0809108
:103BA0002704812B80932704F6CF8D2F0E9431129A
:103BB000111509F4B4CF8D2F805E883010F0D1112B
:103BC00004C0812F0E94DA0406C01095809127045A
:103BD0008123809327040E94CD0EA1CF80912604DB
:103BE00082FD16C0C11469F0111539F080912104CD
:103BF000812B809321040E94CD0E80E00E94EC1165
:103C00008ECF80E00E943112111509F488CFD9CFF0
:103C1000C11499F0013020F4812F0E949F127FCFB0
:103C200009F07DCF80912204912F9823191709F470
:103C300076CF812B8093220472CF011170CF812F18
:103C40000E94A81290912204812F892329F0812FAC
:103C5000809589238093220480912304912F9823B7
:103C600009F45DCF109518231093230458CFC11485
:103C700021F0063008F053CFCFCF053008F04FCFFA
:103C8000812F0E94A8124BCF0115D1F3D93349F4EB
:103C90008FEF97EE23E0815090402040E1F700C085
:103CA00000008D2F0E9431123ACF8C2F8695869579
:103CB0008370813060F009F032CF8D2F9C2F93708C
:103CC000C11002C080E090E00E942D0C28CF8D2F03
:103CD0009C2F9370C11002C080E090E00E94060CFF
:103CE0001ECF8C2F837009F046C0C1102FC04D2FFE
:103CF000429546954770440F440F2D2F2F7030E0AA
:103D0000042E02C0220F331F0A94E2F780E090E0F5
:103D1000D4FF09C08FE090E002C0880F991F4A9538
:103D2000E2F780959095C695C695C370C230D1F0E4
:103D3000C330A9F040919F045091A004C13069F0B4
:103D4000822B932B842395230E94D4030E94F30B90
:103D500060E0C7010E941707FACB242B352B822B7A
:103D6000932BF2CF822B932B20919F043091A004B0
:103D700082279327E9CFC11491F1C0FFE7CF4D2FE0
:103D8000429546954770440F440F2D2F2F7030E019
:103D9000042E02C0220F331F0A94E2F780E090E065
:103DA000D4FF09C08FE090E002C0880F991F4A95A8
:103DB000E2F780959095C695C695C370C230C1F064
:103DC000C33099F04091A1045091A204C13059F040
:103DD000822B932B842395230E94D903B7CF823063
:103DE00008F4B4CFCCCF242B352B822B932BF4CFDC
:103DF000822B932B2091A1043091A2048227932738
:103E0000EBCFCF70C11439F08C2F0E94DE038D2FC1
:103E10000E949F129BCF8D2F0E94A8128C2F0E9470
:103E2000EC0394CF70F4D03FC9F0D13F91F0C114AE
:103E300009F454C0011509F44EC08D2F0E94EC11F5
:103E400085CFD33F11F1D43F91F79091260492FD95
:103E50002AC08C2F8F71C11411F387CEC11499F031
:103E6000053008F073CFCF7181E090E002C0880F79
:103E7000991FCA95E2F7EC018091A1049091A204E8
:103E80008C279D27A9CF0630ECCF80E090E0C114AD
:103E900009F4A2CFCF7181E090E002C0880F991F92
:103EA000CA95E2F799CFC11461F08C2F8F7192FF00
:103EB0005CCE982F990F990F990F936090932404DB
:103EC00054CE81E00E94C404023008F43FCF82E067
:103ED0000E94C4043BCF8C2F8F7147CE011579F01F
:103EE000D93349F48FEF97EE23E081509040204082
:103EF000E1F700C000008D2F0E94311227CF8C2FD8
:103F00008F718DCFC6319CE7D90709F01CCD809108
:103F1000150465E3811101C069E28EE592E00E941B
:103F20006F0C16C090912104C6312CE7D20709F01E
:103F3000B2CC9A7A81E0911101C080E0809315049F
:103F400065E3911101C069E28EE592E00E94540C94
:103F50000E94CD0EEDCA80910E04803170F48091E4
:103F60000D04811551F0E09112042091110430915B
:103F70000904409108042E1301C00895BF0189E08F
:103F8000E89FF0011124DF01A456BC4F14968C91D8
:103F90001497811551F111968C911197831325C0B7
:103FA0008C91841322C015968C91159781111DC098
:103FB00012968D919D91A0910A04B0910B048A1BD9
:103FC0009B0B8A3A910588F480910E048F70806172
:103FD00080930E04EE55FC4F80818F70806180834A
:103FE00088E094E036DA0C94BA046F5F7F4FFB01EF
:103FF000E770C1CFEF92FF920F931F93CF93DF93A0
:10400000F82EE92EC091120480911104C81789F18D
:1040100089E0C89FE00111248E0104561C4FF8016D
:104020008581811589F0C8010E944407811561F0DE
:10403000FE01EE55FC4F80818F7080618083F80116
:10404000808191810E94310FC80103DA80911204AE
:10405000909113040196877080931204C456DC4F2C
:1040600089818E11CFCF88818F11CCCF8D81811521
:1040700049F2CDB7DEB7E6E00C94592EFF920F93CC
:104080001F93CF93DF93EC0180917301811539F079
:10409000F12C8F2DCDB7DEB7E5E00C945A2E0A81B6
:1040A0001B81061B170B043F81E0180788F760E0AF
:1040B000CE010E9417079C013052303348F70E940E
:1040C0009004811529F380910604909107040E94C1
:1040D0009004F82E8115E1F204361105C8F68E81A0
:1040E0008F7080618E83888199810E94310F0E9438
:1040F0008304CE01AED9CDCFAFE0B0E0E2E8F0E28C
:104100000C94342E8C0186E0F801DE011A960190A1
:104110000D928A95E1F7F80160807180C280D380AA
:10412000E480F58030919B03E0E0F11409F43EC097
:1041300098E0A92E94E0B92E80910C04811160C002
:10414000E11419F1F11409F494C2C8010E94440762
:10415000811509F48EC26091040470910504C801B0
:104160008DDF811112C089E0F801D50101900D9217
:104170008A95E1F780910C04813031F48091080434
:10418000909109040E943A07E6DEFF24F3948FC061
:10419000880F991F85579C4FDC0111962C91119720
:1041A000721203C08C91681649F0EF5F8E2F9E2F1C
:1041B000990F990B831791055CF3BACFEF3F09F480
:1041C000B7CFD80116968C918F7080618C93E317CE
:1041D000A0F4315030939B03E31778F4F0E0EE0F36
:1041E000FF1FE557FC4FA32FB0E0AA0FBB1FA55739
:1041F000BC4F8D919D91808391830E94830498CFC1
:1042000060E088E094E00E9417074C0150900D0494
:1042100080910A0490910B049601281B390B5114CC
:1042200009F4E2C12A3A310508F0B0C1E11409F4F9
:10423000ACCF90910904F801218180910E04803166
:1042400008F058C1291353C0209108049081291304
:104250004EC040910F0450911004278130854217C1
:10426000530709F044C0F11042C08F708061809301
:104270000E0488E094E0EDD880910E04F801868366
:10428000C0900A04F0900B04009112048091110474
:10429000081751F089E0089F8001112404561C4F33
:1042A000F8018581811108C00E94BA04F12C8F2D7C
:1042B0002F96EFE00C94502ED280E380C8010E942C
:1042C000440781110DC0C801C4D880911204909197
:1042D00013040196877080931204CD2CFE2CD4CF4A
:1042E0006C2D7F2DC801CADE8111EFCFDDCFC40157
:1042F0009052903308F070C0F110CDC040E0672DAF
:10430000862D0E94640481113FC040E0672D862DF8
:104310000E946404F82E811509F491C088E094E0AD
:1043200098D860E088E094E00E9417076C015090F4
:104330001204052D18E088E0882E84E0982E8091E4
:104340001104081781F0580129E0029FC0011124CF
:1043500084569C4F7C0160E00E9417073C01F701E6
:104360008581811142C0183008F466C08A859B851A
:1043700041DE0E9483040E94BA04E8E0F4E089E090
:1043800011928A95E9F792CF60E0C8010E94170761
:104390009801AC0168E074E0C4010E948A038111B5
:1043A000B4CF80910E048F70806180930E04809151
:1043B0000804909109040E94310F88E094E049D8E4
:1043C000E8E0F4E089E011928A95E9F78A859B8517
:1043D00011DE0E94830468CFF11409F496CF809116
:1043E0000E04816080930E0461CFC6019052903319
:1043F00008F0B9CF9701A301B401C6010E948A0356
:10440000811101C0012F95012395102F022F0770F4
:104410006301470194CF29E0529EC00111248456C4
:104420009C4F17D820911204309113042F5F3F4FF7
:104430002770522E209312045112EDCF97CF8A8508
:104440009B850E943A07292F22952F70903450F4B3
:104450009F70223080F0911599F0F801968190318B
:1044600078F425CF2A5F2F70223078F0C8010E949F
:10447000291AF52C1CCF911519F0811509F417CFC5
:10448000805E883008F413CFF1CF803F08F40FCF5F
:10449000815F8330F7CF80910E04816080930E049A
:1044A00060E0C8010E9417079801AC0168E074E061
:1044B000C4010E948A038111F9CE80910E048E7F7F
:1044C00080930E04C8010E9444078111EFCE8091B1
:1044D0000E048F70806180930E0480910804909187
:1044E00009040E94310F0E94830488E094E00E9436
:1044F000291A43CF29131DC0209108049081291344
:1045000018C040910F045091100427813085421744
:10451000530779F4F1100DC08683C8010E94291A4F
:1045200089E0F801A8E0B4E001900D928A95E1F7E6
:104530002CCEC8010E944407811509F49AC0F114D9
:1045400009F497C080910E048032B8F020910804DD
:104550003091090429833A83CB82DC8290910C0448
:104560009D831E828F8380910F0490911004888711
:104570009987CE0101960E94291A89E0F801A8E0E6
:10458000B4E001900D928A95E1F7FECD80910E0482
:10459000803130F488E094E00E94291AF501EFCED2
:1045A000E11409F4F2CD20910904F8019181291355
:1045B000C0CF2091080490812913BBCF40910F04F4
:1045C00050911004278130854217530709F0B1CF6D
:1045D000F110AFCF8683C8010E94291AF50189E046
:1045E00011928A95E9F7D1CD2A3A3105B8F6E1144E
:1045F00009F4CBCDF114E9F190910904F80181811E
:10460000981321C090910804808198131CC02091B8
:104610000F0430911004878190852817390799F489
:1046200090910E0490FD7CCF903108F479CF892FC2
:104630009683907F903F09F470CF982F907F905F82
:104640008F70892B69CFC8010E944407811561F0E2
:104650006091040470910504C80110DD811509F40E
:104660008CCFE8E0F4E0BBCF80910E0481608093B2
:104670000E04C8010E94291A88CDA2E1B0E0E3E44B
:10468000F3E20C943F2E0A871B872C873D874E87C9
:104690005F87688B798B8A8BCE010A962DDD81111D
:1046A0002EC0209111043091120489E0AE01465FC2
:1046B0005F4FFA0149505109DA0101900D928A9534
:1046C000E1F78E858115D9F0822F90E08395877070
:1046D00090E0AC0134171506D1F199E0929FD0011A
:1046E0001124A456BC4F9E012F5F3F4FF90101904A
:1046F0000D929A95E1F7409311040E94BA048091BB
:10470000120490911104891749F029E0829FC00199
:10471000112484569C4FF0DC811126C08E858111B6
:1047200012C08091730181110EC08C859D852091EE
:10473000040430910504821B930B8F3F9F4318F0B4
:1047400081E0809373016296E4E00C945B2E0E94FA
:104750000B0F1092110410921204E8E0F4E089E0CB
:1047600011928A95E9F7CBCF8091120490911304AE
:104770000196877080931204C2CFA9E0B0E0E3EC09
:10478000F3E20C943D2E7C01FC0182819381892B04
:1047900091F0FE01319687E011928A95E9F70E9427
:1047A0007E0C9C01F7017281838109811A8144E0AA
:1047B0005E816F8162DFF70115822996E6E00C9435
:1047C000592EEF92FF920F931F93CF93DF93809117
:1047D0009C04E0918302CDE0811130C0CDB7DEB7FB
:1047E000E6E00C94592EDE2FDF5FD0938302EE2E8D
:1047F000F12CCE9FF0011124EC5CFB4F84818115DC
:10480000E1F087819085892B21F48185928501963D
:1048100051F4008111812281338144815581668167
:10482000778180852ADFCE9DF001CF9DF00D112488
:10483000EC5CFB4F148210922704ED2F80919C04B6
:10484000E81788F210929C0410928302C7CF4F920F
:104850005F927F928F929F92AF92BF92CF92DF92A0
:10486000EF92FF920F931F93CF93DF93C091330486
:1048700091E0E92EF12C809132048C1313C0A1DF5A
:104880000E948D0BDF91CF911F910F91FF90EF90C0
:10489000DF90CF90BF90AF909F908F907F905F9070
:1048A0004F900895D0E0FE01EE0FFF1FE85DFB4F33
:1048B00000811181A0E0B0E00330110540F487E0F1
:1048C000809FD001819FB00D1124AC58BE4F14962B
:1048D0008C911497811159C070909C0444E354E06A
:1048E00020E030E0A12C271508F04CC0FA014384E9
:1048F0005484CD90DD90129799249A94892CB12CF0
:104900008B2D90E0F601EB0DF11DEB0DF11D659186
:1049100075914616570609F0C401672B19F0B39438
:104920004C01EECF8F3F9807A9F1B70101C0660F88
:104930008A95EAF7A62AC7010B2C02C0880F991F97
:104940000A94E2F70197A816190611F512968D91AF
:104950009D914DE0429FF001439FF00D1124EC5CCE
:10496000FB4F8783908784E08483108211820187C4
:10497000128781E011968C9315978B2D813011F45D
:10498000CD01FBDEC8010E94AA0BC395C37073CF93
:10499000FA0114822F5F3F4F435F5F4FA4CF109205
:1049A0009D0410929E04109289018091320480939C
:1049B00033040E948D0B05CFAEE1B0E0E2EEF4E2ED
:1049C0000C94312E4B8B5C8B6D8B7E8B8F8B792E69
:1049D000988F911110922704188A198A1A8A86E0F2
:1049E000FE017396DE011A9601900D928A95E1F709
:1049F0006F886114E1F06E867F8661E0CE010A96D1
:104A00000E94170761E0CE010A960E94170761E035
:104A1000CE010A960E9417076C0180E5C8168CE744
:104A2000D80689F4711421F181E0809389016E86A2
:104A30007F860A851B852C853D85A3016889798938
:104A40008A891BDEC3C081E5C8168CE7D80621F42D
:104A5000711471F0A4DFEBCF82E5C8168CE7D8069D
:104A600039F4711429F0809189018111F3CFDCCFE1
:104A700004E711E0412CA12CB12C45018394F801ED
:104A8000208131816FEF80E09FEFE82EF12CF9015A
:104A9000E80FF11DE80FF11D45915591C416D5069B
:104AA00011F0E62EF92E452B21F08F5F6E2D9F2DF4
:104AB000ECCF9FEFE916FE0409F448C1F8014481E8
:104AC000509089014111512CF80135809681711463
:104AD00009F403C1511409F400C1311014C021E0DC
:104AE0000E2C01C0220F0A94EAF7922B9683209194
:104AF0003004309131042233310528F422E320932D
:104B0000300410923104940102C0220F331F8A95A1
:104B1000E2F7C9010197F80126812817190609F063
:104B2000C3C0E0909D04F0909E04E114F10409F4E8
:104B300051C00E947E0C8E199F09C39708F44AC089
:104B400081E0F8018483482A8FEFA81AB80A095F28
:104B50001F4F83E0A816B10409F091CF711409F436
:104B6000F7C0411409F4F4C00E947E0C80939D04A8
:104B700090939E0480919C04883040F5982F9F5F0D
:104B800090939C0499E0FE013A969E012F5F3F4F5F
:104B9000D90101900D929A95E1F76D827E822DE008
:104BA000829FC00111248C5C9B4F29E0AE014F5FB6
:104BB0005F4FFA01DC0101900D922A95E1F72FEF8A
:104BC0003FEFFC0121873287C386D4866E96E2E1EF
:104BD0000C944D2E9091330480913204292FA0E043
:104BE000B0E037E061E0981709F44DC0492F50E07C
:104BF000998F1A8EFA01EE0FFF1FE85DFB4F40817F
:104C00005181A0E0B0E04330510538F4349FD00129
:104C1000359FB00D1124AC58BE4F4D915D91129748
:104C20004D8F5E8FE12C70E0F12CED8DFE8DEF0D40
:104C3000F11DEF0DF11D2590359021143104D9F0AF
:104C4000F801408151814B8F5C8F70E007C0E1E03B
:104C50002416350609F0E0E0EE2A7F5FEB8DFC8D2F
:104C6000E70FF11DE70FF11D4591559141155105D4
:104C700071F7F394DACFE11469F17F15B8F4F80114
:104C800091E09483D80120933304A017B10761F019
:104C900090E0FC01EE0FFF1FE85DFB4FA082B182A8
:104CA0000196837080933204852D4DCF109761F06B
:104CB00014966C931497A017B10721F3291304C01D
:104CC000A9014395242F2370498D5A8D4395942F24
:104CD000937089CFA0E0B0E0F7CF292F30E03110FA
:104CE0001FC0B40102C0660F771F8A95E2F7CB019F
:104CF00001972817390771F0512CC40102C0880FA1
:104D0000991FEA94E2F77C01E094F80186818E21F4
:104D10008683CACF411589F3C5010E94AA0BECCF47
:104D2000A9010E2C02C0559547950A94E2F7C901D6
:104D3000019782239323892B31F440FF04C0C801DB
:104D40001CDD532CDACF4170542ED7CF80E0FBCE40
:104D50009091330480913204981731F078DD842DDE
:104D6000813009F433CF63CE2CDD10929D04109274
:104D70009E040E948D0BF3CFA6E0B0E0E1ECF6E2DA
:104D80007EC70E947E0C8C0180917F0390918003EE
:104D90008017910771F019821A820E947E0CBC0163
:104DA00049815A8180E090E007DE00937F031093F1
:104DB00080032696E4E07FC7CDB7DEB72B970FB60A
:104DC000F894DEBF0FBECDBF85B7806885BF85B7BD
:104DD000806885BF84B7877F84BF0FB6F894A89595
:104DE00080916000886180936000109260000FBE27
:104DF00080E890E00FB6F894809361009093610092
:104E00000FBE81E08093150184E797E080935C02F8
:104E100090935D020E94E70D0E94980D8091E20040
:104E200084608093E20078948091E902811599F082
:104E30008091E9001091EC008F7010FB112717F999
:104E4000182B1092E9008091E80083FD0E94490F21
:104E50001F701093E90082E084BD93E095BD9AEF46
:104E600097BD80936E001092790310927A0310928E
:104E70007B0310927C038091D80080618093D800DE
:104E80008AE18A95F1F700C08091D900182F11703E
:104E900080FD04C00E94E70D1092E90210937D038B
:104EA00055985D988FE891E00197F1F700C00000F8
:104EB00089B185FB992790F990937E0390931D010A
:104EC00085FDC2C186E08093160186E080931701BC
:104ED00080917D03811176D5EDE4F3E088E01192B5
:104EE0008A95E9F780911D0191E089278093040359
:104EF00080911D019093070380911D0180911D01F8
:104F0000811106C087EF80931C0186EF80931B01FF
:104F100060E080E00E94430B61E080E00E94430B70
:104F20008FE891E00197F1F700C0000010E0809158
:104F30000703181708F48AC180911D01811125C04B
:104F400085E0E6EAF1E0DE01179601900D928A9580
:104F5000E1F785E0FE013796A8E6B1E001900D92F9
:104F60008A95E1F786E0ECEAF1E09E012F5F3F4F82
:104F7000D90101900D928A95E1F786E0F901ADE63D
:104F8000B1E001900D928A95E1F780911D0190E0CA
:104F9000811101C095E090936E0385E0891B809399
:104FA000590338E6E32E31E0F32E0DE611E0F70168
:104FB00081917F018F3F11F00E9476070E151F052A
:104FC000B1F72DE6E22E21E0F22E03E711E0F70122
:104FD00081917F018F3F11F00E9476070E151F050A
:104FE000B1F7E4E6F3E08AE011928A95E9F7EFE69B
:104FF000F3E08AE011928A95E9F780E090E04CD7DF
:10500000833E9E4F51F163EE7EEF80E090E063D7E8
:1050100060E082E090E045D781E090E080939F04DB
:105020001092A00461E083E03CD760E074E184E08A
:1050300090E051D71982CE0101960E94C70E0E94BE
:10504000801360E070E0AB018FE090E03CD760E05F
:1050500070E0AB0183E190E036D782E090E00FD7BB
:105060008093F40284E090E017D780932504909316
:10507000260483E090E003D790E00E94D403259AB1
:105080002D9882E88093800089E1809381008FEFE2
:105090009FEF90938700809386000E9444130E94A4
:1050A00044138091E60281112DC089E194E00E94B1
:1050B000051380911804836080931804809119046B
:1050C000843008F0D5C00E94801389E194E00E94EA
:1050D000051380911904843008F0CAC0837084607D
:1050E000809319040E947F080E94800B809119040C
:1050F00080FF05C060E0869586950E94121781E0CA
:105100008093E60280917D03811101C05ED480917D
:10511000190481608093190460E0869586950E9449
:10512000121760E081E00E9412178EE191E08093F7
:1051300081039093820391E0A92EB12C8091E90222
:10514000853079F400E110E482E1F82E8091E902E3
:10515000853009F495C00E940B0F0E9444130E94F1
:10516000F30B0E944E17B5EFCB2EB2E0DB2E84E698
:1051700093E01C01FC01D6019D9180812FEF32E06C
:105180002A173B0709F4D6C031969817A9F3409027
:105190007D03AAEEEA2EA2E0FA2E912CF101819075
:1051A0001F01F60181916F01881509F442C088251D
:1051B000582E00E010E077247394872D852189F123
:1051C000672C68204114F9F0F701808190E0950187
:1051D000002E01C0220F0A94EAF78223892B99F44A
:1051E00009839A820E947E0C8B839C8381E08D834D
:1051F00091E0611001C090E09E8349815A816B81EA
:105200007C818D81D9DB61100CC08A2D002E01C0FC
:10521000880F0A94EAF7982F9095F70180818923E7
:105220008083770C0F5F1F4F0630110531F6F601B2
:10523000829293948FEFE81AF80A892D8A3009F048
:10524000ADCF0E94960C79C080E03DCE60E0812F0A
:105250000E94630B082F61E0812F0E94630BE12FF6
:10526000F0E0EB5FFC4F880F802B80831F5F5FCEE9
:10527000809119048C3A08F435CF8370886A30CF56
:105280008091E902843031F180E00E940B0B109292
:10529000E70288E190E00FB6F894A895809360004B
:1052A0000FBE1093600083B7817F846083BF83B794
:1052B000816083BF7894889583B78E7F83BF0FB654
:1052C000F894A895809160008861809360001092A6
:1052D00060000FBE0E944E17E4E6F3E0AAEEB2E0D3
:1052E00080E021912D9391E0211101C090E0892B64
:1052F00093E0EE36F907A9F7811509F427CF8091DD
:10530000E802811509F422CF09BDF9BC09B400FEF9
:10531000FDCF8091D8008F7D8093D8008091E000F0
:1053200082608093E0008091E00081FDFCCF0E94CC
:105330000B0F0CCF98132BCF1FDD80917D038115B0
:1053400031F180918901811511F100919D04109135
:105350009E0401151105D9F00E947E0C801B910B53
:1053600020913004309131042817390780F490914E
:10537000330480913204981709F493C068DA1092CC
:1053800030041092310410929D0410929E0480917A
:105390001704811509F46EC080911604E091190478
:1053A000E695E695E81BE0934503853109F4DDC0F9
:1053B00008F08EC0893009F4CCC008F07AC0823081
:1053C00009F4B1C0863009F4B9C000ED17E0F0E986
:1053D000EF2EF7E0FF2E80914603811561F01092C9
:1053E00046030E94B10C80934303909344031092B0
:1053F0004703109248030E94B10C2091430330915F
:105400004403AC01421B530B4F3F5F4798F540915B
:1054100001034115B1F0109201034091FF02509138
:105420000003841B950B8F3F9F4758F4405D5A48FB
:105430004093FF025093000380911804886080938A
:105440001804C0904703D0904803200F311F2093C9
:1054500043033093440383E493E0F701099580917B
:10546000470390914803892B29F4CD2819F081E056
:1054700080930103F0907D03F11419F00E947512DE
:10548000F82E80911503811551F01092150380912B
:105490004F038093500380914D0380934E03E12C82
:1054A000AEC08FD910929D0410929E040E948D0B65
:1054B0006ECF8F3009F089CFE695F0E0E259FB4FCF
:1054C000E4910E2F10E058ECE52E58E0F52E83CF36
:1054D00004EF11E099E4E92E9AE0F92E843209F400
:1054E0007ACF78F4883109F44BC0833209F06DCF5C
:1054F000E9E6F4E0059115913FE2E32E3AE0F32E60
:105500006ACF853209F061CF8E2F63E0F6D3E92FA1
:10551000F0E0EA59FB4FE4910E2F10E02BE3E22E6E
:1055200026E1F22E58CFF0E0E958FB4FE4910E2F20
:1055300010E0E7E8EE2EE8E0FE2E4DCFF0E0EC586C
:10554000FB4FE4910E2F10E070E7E72E78E0F72E86
:1055500042CFE695F0E0EF58FB4FE4910E2F10E0BC
:105560006AE9E62E68E0F62E36CFF0E0E559FB4F0B
:10557000E4910E2F10E045E4E42E49E0F42E2BCF09
:1055800008E210E08CEBE82E89E0F82E24CF61E0F1
:105590008E2D0E94630B182F60E08E2D0E94630BEE
:1055A000110F812B0E2D10E0D801AB5FBC4FEC9199
:1055B0009E2F9370891711F1EE0FEE0FE82BEC93ED
:1055C000809104038E0DEF70F0E0E252FE4F0E5F0B
:1055D0001C4FD080F8019081D90E9D2D60E0943051
:1055E0001CF49D3F1CF461E00E94230B8D2DDD0C0B
:1055F000990B64E070E0AED3F8018083E39480916E
:105600000703E81620F280917D03811519F00E94AE
:105610007512F82AF1100E94960C0E94F30B9091DB
:105620000803891709F48ACD809308030E948A0C25
:1056300085CD1F921FB61F9211248F939F93AF9316
:10564000BF938091E702811113C0809179029091FC
:105650007A02A0917B02B0917C024196A11DB11DFE
:105660008093790290937A02A0937B02B0937C029C
:10567000BF91AF919F918F911F901FBE1F90189562
:1056800078941F921FB61F9211248F939F93AF930C
:10569000BF938091790290917A02A0917B02B091A0
:1056A0007C020196A11DB11D8093790290937A022C
:1056B000A0937B02B0937C02BF91AF919F918F9199
:1056C0001F901FBE1F9018951F920F920FB60F923A
:1056D00011242F933F934F935F936F937F938F93F7
:1056E0009F93AF93BF93EF93FF938091E10082FF6D
:1056F00009C08091E20082FF05C08091E1008B7FAC
:105700008093E1008091DA0080FF24C08091D8006E
:1057100080FF20C08091DA008E7F8093DA00809134
:10572000D90080FFA9C080E189BD82E189BD09B4AB
:1057300000FEFDCF81E08093E90280916802811133
:1057400009C00E94E70D0E94980D8091E2008460DC
:105750008093E2008091E10080FF1AC08091E20016
:1057600080FF16C08091E2008E7F8093E2008091DE
:10577000E20080618093E2008091D8008062809393
:10578000D80019BC85E08093E90283E0809315017D
:105790008091E10084FF2FC08091E20084FF2BC044
:1057A00080E189BD82E189BD09B400FEFDCF809111
:1057B000D8008F7D8093D8008091E1008F7E809308
:1057C000E1008091E2008F7E8093E2008091E20010
:1057D00081608093E20080916702811509F452C0D4
:1057E00084E08093E9028091E902843009F052C09C
:1057F00082E0809315018091E10083FF2CC08091AD
:10580000E20083FF28C08091E100877F8093E10060
:1058100082E08093E902109267028091E1008E7F1E
:105820008093E1008091E2008E7F8093E20080917E
:10583000E20080618093E20042E060E080E00E944C
:10584000180D8091F00088608093F00081E08093D3
:10585000150180931401FF91EF91BF91AF919F913A
:105860008F917F916F915F914F913F912F910F9009
:105870000FBE0F901F90189519BC1092E90210925C
:10588000680268CF8091E30087FF02C083E0A9CF60
:1058900081E0A7CF81E0ADCF1F920F920FB60F929C
:1058A00011241F932F933F934F935F936F937F9395
:1058B0008F939F93AF93BF93CF93DF93EF93FF9318
:1058C000E9EEF0E080811091EC008F7010FB112761
:1058D00017F9182B1082C0EFD0E08881877F88836A
:1058E00078940E94490FE9EEF0E010828881886088
:1058F00088831F701083FF91EF91DF91CF91BF914B
:10590000AF919F918F917F916F915F914F913F9157
:105910002F911F910F900FBE0F901F9018958EE141
:10592000489B02C08150E1F7489BFECF08955898EC
:1059300080E28A95F1F7589A0895FC018BE08A95E8
:10594000F1F798E020E080E031E040E14A95F1F79E
:10595000880F489B02C08160232742E04A95F1F7F7
:10596000000040E14A95F1F7915079F790E19A955E
:10597000F1F799B132E03A95F1F7000030E13A954C
:10598000F1F7917092272081920F90830895A1E002
:10599000B0E0ECECFCE271C119828C017C01E60EF6
:1059A000F11CBDDFCE010196C8DFF80181938F01A4
:1059B000EE15FF05B1F781E09981911180E0219604
:1059C000E6E077C1509A589A08955098589AE89A04
:1059D000E9E6F0E080818C7F808308956150770B49
:1059E00091E001C0990F6A95EAF7692F90E021E0F4
:1059F000611108C0911591F0589A80E28A95F1F7EB
:105A000058980895362F382339F0589A922730E263
:105A10003A95F1F76695ECCF5898F9CF5898EDCFB5
:105A2000FF920F931F93CF93DF93EC018C01060F2E
:105A3000111D8991F82E7BDF68E08F2DCFDFC01715
:105A4000D107B9F7CDB7DEB7E5E034C11F920F92A9
:105A50000FB60F9211240F931F932F933F934F93E1
:105A60005F936F937F938F939F93AF93BF93EF93C6
:105A7000FF93CF93DF930F92CDB7DEB719824FDF3D
:105A8000CE0101965ADF082F069506950695282F18
:105A900022952570902F9570920F292F237096953F
:105AA0009695920F982797708981892B09F055C098
:105AB000093008F052C080E18A95F1F7589A509A5F
:105AC00082E08A95F1F700C0589888E0089F80012D
:105AD0001124D801A85DBE4F1696ED91FD9118973F
