:1000000028C300000C940F275DC300005BC30000F1
:1000100059C3000057C3000055C3000053C300007C
:1000200051C300004FC300000C94DF2B0C94AB2C89
:100030000C94AB2547C3000045C3000043C3000038
:1000400041C300003FC300003DC300003BC30000AC
:1000500039C300000C94222635C3000033C30000CE
:1000600031C300002FC300002DC300002BC30000CC
:1000700029C3000027C3000025C3000023C30000DC
:1000800021C300001FC300001DC300001BC30000EC
:1000900019C3000017C3000015C3000013C30000FC
:1000A00011C300000FC300000DC300000102E020D7
:1000B0000103E00029001E001F0020002100220093
:1000C000350014001A00080015001700E000042491
:1000D0001628074209210A22E1001D001B00060024
:1000E0001900050000000000E3002352280028004A
:1000F0002A00270026002500240023002D001300DD
:1001000012000C0018001C00340033240F280E00CD
:100110000D210B222E003800370036001000110090
:10012000000000002B0021522C0001000100010002
:10013000010001000100010035021E021F02200221
:100140002102220201002F0030002F0230020100A4
:10015000010001000100260227020100000000004A
:1001600001002A000100010001000100010001005E
:100170000100010031022702260225022402230287
:10018000310038024F0052005100500001000100C0
:100190000100010001000100000000000100010059
:1001A0000100010001000100010001000100010047
:1001B0000100010001000100010001000100010037
:1001C0000100010001000100010001000100010027
:1001D0000100010000000000010001000100010019
:1001E0000100010001000100010001000100010007
:1001F000477E467E457E0100447E437E427E417EB0
:10020000407E010001000100010001000100487E64
:10021000000000000100010001000100007C01005D
:1002200001000100010001000100497E4A7E010039
:1002300001000100207821782378297827780100AF
:100240000100227824782A78287801000000000034
:100250000100010001000100010001000100010096
:1002600001000100A8000100260025002400010073
:10027000A90001002300220021000100AA000100C2
:1002800020001F001E0001000000000001002700E8
:100290002B0001001E0F0500047F3F1F6432146411
:1002A0003214783C1E1E140A052223252628292AEA
:1002B0002C2D2F3032333536383A3B3D3E404243C9
:1002C0004547494A4C4E5051535557595A5C5E6008
:1002D00062646668696B6D6F71737577797B7D7F1A
:1002E00081838587898A8C8E90929496989A9C9E19
:1002F0009FA1A3A5A7A8AAACAEAFB1B3B4B6B8B935
:10030000BBBCBEBFC1C2C3C5C6C7C9CACBCCCDCE9C
:10031000D0D1D2D2D3D4D5D6D7D7D8D9D9DADADB7F
:10032000DBDBDCDCDCDCDCDDDDDDDDDCDCDCDCDC0B
:10033000DBDBDBDADAD9D9D8D7D7D6D5D4D3D2D24A
:10034000D1D0CECDCCCBCAC9C7C6C5C3C2C1BFBE32
:10035000BCBBB9B8B6B4B3B1AFAEACAAA8A7A5A39D
:10036000A19F9E9C9A98969492908E8C8A8987855C
:1003700083817F7D7B79777573716F6D6B6968663B
:100380006462605E5C5A5957555351504E4C4A490D
:1003900047454342403E3D3B3A3836353332302FB5
:1003A0002D2C2A292826252322FFAA7F554000012B
:1003B0000101010101010101020202020202020225
:1003C00002030303030303030304040404040404F7
:1003D00005050505050606060606070707070708BB
:1003E000080808090909090A0A0A0B0B0B0C0C0C6E
:1003F0000D0D0D0E0E0E0F0F0F1010111111121208
:1004000013131414151516161717181819191A1A84
:100410001B1B1C1D1D1E1E1F2020212222232424E5
:10042000252626272829292A2B2C2D2D2E2F303121
:100430003232333435363738393A3B3C3D3E3F4033
:100440004142434445464748494A4C4D4E4F50511E
:100450005354555658595A5B5D5E5F6162646566D8
:1004600068696B6C6D6F7072737577787A7B7D7E5F
:100470008082838587888A8C8E8F91939596989AAF
:100480009C9EA0A2A3A5A7A9ABADAFB1B3B5B7BAC7
:10049000BCBEC0C2C4C6C9CBCDCFD1D4D6D8DBDD9B
:1004A000DFE2E4E7E9EBEEF0F3F5F8FAFDFF000038
:1004B0000000000000002A2B2800000000000000BF
:1004C00000000000000000000029000000002C1EB9
:1004D0003420212224342627252E362D3738271E76
:1004E0001F202122232425263333362E37381F049C
:1004F00005060708090A0B0C0D0E0F101112131434
:1005000015161718191A1B1C1D2F3130232D3504F1
:1005100005060708090A0B0C0D0E0F101112131413
:1005200015161718191A1B1C1D2F3130354C0000D9
:1005300000000000000000000000000000000000BB
:1005400000000000000000000000000000000000AB
:1005500000007E0F00D4FFFFFFC7000000781A03E1
:1005600049007200690073002000520065007600A7
:100570002E0020003500610000000E034B006500D6
:100580006500620069006F000000040309040902AD
:100590003B00020100A0FA09040000010301010070
:1005A000092111010001224400070581030800010F
:1005B00009040100010300000009211101000122CA
:1005C0003200070582032000011201000200000032
:1005D0000810CB565310050102000105010980A146
:1005E00001850319012AB700150126B70095017589
:1005F000108100C0050C0901A101850419012AA080
:1006000002150126A002950175108100C00501099F
:1006100006A101050719E029E715002501950875D0
:100620000181029501750881010507190029FF154F
:100630000026FF00950675088100050819012905A7
:10064000150025019505750191029501750391012C
:10065000C00011241FBECFEFDAE0DEBFCDBF04B66D
:1006600003FE19C080910A0490910B04A0910C0420
:10067000B0910D048730904BA740B04B61F41092BD
:100680000A0410920B0410920C0410920D04E0E086
:10069000F8E3099500C012E0A0E0B1E0ECE8F0E674
:1006A00002C005900D92A035B107D9F724E0A0E56E
:1006B000B2E001C01D92AA30B207E1F70E945F16B6
:1006C0000C94FB2F9DCCCF93DF93D82FC62F0E9485
:1006D000B51F811539F0D13048F489EAC11101C044
:1006E0008AEA47D280E0DF91CF910895D9F78EE46E
:1006F000C111F7CF8BE4F5CF0E94921C81E00C94DE
:10070000681CCF93DF93EC0160E08CEA90E00E94DC
:100710004C23CE010E944A23DF91CF910895FC0122
:10072000DB0115968C91811561F1E054FE47EB30A9
:10073000F10540F5E350F04D0C94D62E85E791E09D
:10074000E0DF80E0089587E791E0FACF8CE991E05F
:10075000F7CF89E791E0F4CF8BE791E0F1CF8DE718
:1007600091E0EECF8FE791E0EBCF87E891E0E8CF23
:100770008FE891E0E5CF81E00E94581CE2CF82E053
:10078000FBCF81E008958430C8F46A30B8F4463075
:10079000A8F450E096E0699F400D511D11249CE3A0
:1007A000899F400D511D1124FA01EE0FFF1FEC54DB
:1007B000FF4F85919591282F822F089521E090E099
:1007C000FBCFE1CF089581E0089581E00895FBCF4C
:1007D000089581E00895A3CF089508950895FDCF69
:1007E000089508950895A6E0B0E0E9EFF3E00C94D1
:1007F000FB2E49835A839E833091570289819A81C7
:10080000311117C03E81311589F0211579F007D5D6
:10081000182F682F89819A81E1D469817A81812F8B
:100820000E940F0F2696E3E00C94172FE8D4182FA0
:10083000F4CFF5D469817A81F3CFFC01262F408172
:1008400051816281738184819581CDCFCF93DF9374
:10085000EC0161E0F2DFBE01B8DF811529F061E053
:10086000CE01EBDFBE01B3DFDF91CF9108950F938F
:100870001F93CF93DF93EC0160E0DFDF8C01BE01BB
:10088000ADDFBE01C801ABDFDF91CF911F910F91AA
:1008900008950F931F93CF93DF93EC0161E0CDDFB9
:1008A0008C018D8181110E94A41DBE01C80191DFC0
:1008B000811106C080E0DF91CF911F910F910895C3
:1008C000BE01C80188DF8115A9F3BE01C8010E94DD
:1008D0007C1E811579F3BE01C8010E94C6238115D3
:1008E00049F3BE01C8010E945121811519F3BE01CF
:1008F000C8010E9428218115E9F2BE01C8010E94A9
:1009000078168115B9F2BE01C8010E945F108115E9
:1009100089F2BE01C8010E947110811559F2BE0111
:10092000C8010E948B10C7CF21E030E002C0220F27
:10093000331F8A95E2F7C9018CC3CF93C82F81E09A
:1009400090E00C2E02C0880F991F0A94E2F70E94D3
:100950000A0D8C2FE9DFCF91089581E0089581E0A1
:100960000895FBCF0895CF93C82F22D38C2FF7DFA4
:100970008C2FF7DF8FEF94E32CE0815090402040E4
:10098000E1F700C00000CF91089581E0ECDF0C9406
:10099000462680E0E8DF0C946A2623DF0E943F258C
:1009A00080E00E945F1E19C00E94B81D18D01ADF97
:1009B0000C94432581E008950895CF93DF93D82FB9
:1009C000F9DFC82F811511F08D2FF6DF8C2FDF9105
:1009D000CF9108950895F1CF089580E0FCCF0E9453
:1009E0000D24F9CFCF930E940D24C82F809152027D
:1009F0008C1771F0C09352020E9416266093530226
:100A00007093540280935502909356028C2FE3DF2B
:100A1000CF910895ADE0B0E0E0E1F5E00C94FC2E5C
:100A2000488759876A877B878C879D87911105D76F
:100A30001F8286E0FE0138969E012F5F3F4FD9014D
:100A400001900D928A95E1F78D8181110CC0298169
:100A50003A814B815C816D817E818F8139D62D9663
:100A6000E2E00C94182FCE010196F0DE8111EFCF59
:100A7000F6CFFC012481213019F48081918102C4D8
:100A80000895CF93C82F811581F08450813A78F46E
:100A90008C2F0E949224811521F08C2F0E94D42447
:100AA00035D78C2F0E94CE2431D7CF9108958C2F2B
:100AB000805E883048F481E0C1FD84E0C0FD880F8D
:100AC000C2FD82959BD6F0CF8C2F855A833030F4AF
:100AD0008C2F8452990B0E943024E7CFC85ACB3117
:100AE00020F7EC2FF0E0EE0FFF1FE256FE4F808163
:100AF00091810E945724D9CF811521F1982F9450CC
:100B0000913A18F40E94D42401C7982F905E98302F
:100B100050F4982F81E091FD84E090FD880F92FDC4
:100B2000829572D6F1CF982F955A933020F480E0B9
:100B300090E00C943024885A8B3120F480E090E0CF
:100B40000C94572408951F93CF93DF93182FEB0134
:100B500098DF209731F4812FCFDFDF91CF911F9164
:100B600008958FE99FE00197F1F700C000002197F9
:100B7000F0CF60E570E0893311F060E070E0E3CF22
:100B8000811511F03BD6C2C60895811511F03CD6EF
:100B9000BDC60895A0E0B0E0E0EDF5E00C94F62EBF
:100BA0006C01D62FC72FFC011581068102950F70AD
:100BB0001AD6E82E8115E9F0E12E1115D1F08C2F0F
:100BC000807F803461F08D2F805E883098F18C2F8B
:100BD000807E803221F4D23068F1011559F1809184
:100BE000B10382FF27C082E0ADD6FDD591E0892711
:100BF000E82E9C2F92959F70983009F4CAC068F532
:100C00009430D0F4923008F438C08C2F8F70F82EC6
:100C1000C07FC03219F0F29480EFF822D13008F48E
:100C200056C009F47EC0111509F487C0011509F4F6
:100C300067C036C0E12CDDCF09F48FC0E11409F4A0
:100C4000D8C0CDD580FDD5C0F6011582C2D531D230
:100C5000C60183D1BED53BD2CCC0993009F40BC1BB
:100C60009A5F9F70923050F7D23F09F011C18C2FDC
:100C70008F7111110BC11DD2B9C00C2F0F70C03173
:100C800010F00295007F111581F0011549F08D2FAC
:100C9000805E883010F0D11105C0802FAFD536D6D8
:100CA0008D2F21C0802FBBD5FACF8D2F25DF0115C9
:100CB00009F4C4CF8D2F805E883010F0D11103C0AD
:100CC000802FA2D502C0802FB0D520D6B7CF80917B
:100CD000B10382FD11C0111541F0F11419F08F2DEF
:100CE0008DD514D680E0CDDEA9CF80E005DFF114EC
:100CF00009F4A4CF8F2DE5CF111551F0013018F470
:100D00008F2D3EDF9BCF09F099CF8F2DAAD596CF9F
:100D1000011194CF8F2D39DF8F2DAED58F2D93D527
:100D20008DCF111521F0063008F088CFE9CF0530BE
:100D300008F084CF8F2D29DF81CF0115D9F3D93366
:100D400049F48FEF97EE23E0815090402040E1F787
:100D500000C000008D2FD0DE71CF8C2F8695869538
:100D60008370813060F009F069CF8D2F9C2F9370D4
:100D7000111102C080E090E00E9457245FCF8D2FB8
:100D80009C2F9370111102C080E090E00E943024EB
:100D900055CF8C2F8370C1F5111128C04D2F42956E
:100DA00046954770440F440F2D2F2F7030E0042ECE
:100DB00002C0220F331F0A94E2F780E090E0D4FFD4
:100DC00009C08FE090E002C0880F991F4A95E2F7B2
:100DD00080959095C695C695C370822B932BC23093
:100DE00079F0C33079F0C13049F03CD10E940D2434
:100DF000F2DDCDB7DEB7E8E00C94122F2CD1F6CFA0
:100E000038D1F4CF26D1F2CF111559F1C0FFEECF72
:100E10004D2F429546954770440F440F2D2F2F704C
:100E200030E0042E02C0220F331F0A94E2F780E064
:100E300090E0D4FF09C08FE090E002C0880F991FB6
:100E40004A95E2F780959095C695C695C370822B1A
:100E5000932BC23061F0C33061F0C13031F05CD10E
:100E6000C5CF823008F4C2CFD3CF4FD1BFCF5BD133
:100E7000BDCF0CD1BBCFCF70111529F08C2F19D15C
:100E80008D2F7EDEB3CF8D2F80DE8C2F20D1AECF85
:100E900058F4D03FB1F0D13F79F01115B9F10115F7
:100EA00091F18D2FEEDDA2CFD33FB1F0D43FA9F762
:100EB0008091B10382FD18C08C2F8F71111531F311
:100EC000DACE111539F0053008F090CF8C2F8F71E4
:100ED0000ED18CCF0630F8CF111521F08C2F8F71E9
:100EE000DFD084CFDAD082CF111529F063E08C2FC8
:100EF0008F7111D57BCF81E025D5023008F476CFF4
:100F000082E020D573CF8C2F8F71B5CE011571F093
:100F1000D93349F48FEF97EE23E081509040204081
:100F2000E1F700C000008D2FE7DD60CF8C2F8F71BF
:100F3000ADCF0F931F93CF93DF93EC01688179813D
:100F40008D81A9D18C01F6D083D0B801CE0122DEEB
:100F5000DF91CF911F910F910895CF93DF93EC0113
:100F60008C81811581F0CE0194DC81110FC03BD4BE
:100F7000811549F08D81811531F08091B10382FF97
:100F800002C082E0DFD4DF91CF910895CE01D1DF9E
:100F9000CE016DDCF8CF80E090E00E94302480E04C
:100FA00090E00E94572449D4B1C40E94DA24F3CFC0
:100FB00033D4FBCF282F92959F70963099F060F430
:100FC000925F9F70923030F4203FB1F038F481E0AE
:100FD000283E38F080E008959A5FF3CF81E0243F07
:100FE000C9F7089591E0813F09F090E081E0283E43
:100FF00008F080E0892B089581E00895FC012481A8
:10100000211521F0808191813DD1D4CF80E00895D8
:10101000A6E0B0E0EEE0F8E00C94FC2E2696E2E0CC
:101020000C94182FA7E0B0E0E8E1F8E00C94FC2E57
:101030002796E2E00C94182F0895FECF0895FDCF77
:101040000895FADFFCDF80937A0290937B02089583
:101050000895F7CF089520917A0230917B02822B78
:10106000932BEFCF20917A0230917B02822393233E
:10107000E8CF20917A0230917B0282279327E1CF3B
:10108000DBCF0895FDCF0895D7CF0895FDDFFADFB8
:101090008093780290937902089580E090E0F6CFF3
:1010A00021E030E002C0220F331F8A95E2F7C90128
:1010B000EDCF21E030E002C0220F331F8A95E2F726
:1010C0008091780290917902822B932BDFCF21E0DF
:1010D00030E002C0220F331F8A95E2F72095309549
:1010E000809178029091790282239323CFCF21E0DF
:1010F00030E002C0220F331F8A95E2F78091780218
:101100009091790282279327C1CF20917802309164
:101110007902822B932BBACF2091780230917902F9
:1011200082239323B3CF20917802309179028227D2
:101130009327ACCF0895CF93C1E061FDC4E060FD7B
:10114000CC0F62FDC29593E0769567959A95E1F78D
:10115000660F771F660F771F460F571FFA0140E093
:1011600050E090E06191DF019C01042E02C03695B1
:1011700027950A94E2F72695220B26272C2326276B
:101180002E934F5F5F4F4430510561F7CF91089523
:10119000A82FA77023E0969587952A95E1F7880FE9
:1011A000991F880F991F680F791FFB0140E050E0DD
:1011B00080E0219130E00A2E02C0369527950A94EE
:1011C000E2F72170042E01C0220F0A94EAF7822B65
:1011D0004F5F5F4F4430510561F70895262F9A30D5
:1011E00068F4863058F4682F70E086E0989F600DB0
:1011F000711D112448E552E0822F9DCF0895292FBB
:101200009A3058F4863048F490E068E572E036E0B1
:10121000239F800D911D1124BBCF80E00895CF92B4
:10122000DF92FF920F931F93CF93DF936C01009196
:1012300078021091790280917A0290917B02082BBA
:10124000192BCFE0D0E081E090E00C2E02C0880F97
:10125000991F0A94E2F780239123892B61F4219747
:1012600090F7F12C8F2DDF91CF911F910F91FF906F
:10127000DF90CF900895FC2EB6018C2FDBD501971F
:1012800071F3F0CFCF93DF93EC01C9DFBE01D2D56C
:10129000DF91CF9108951F93CF93DF93EB0190914E
:1012A0005702911531F0CB01EDDFDF91CF911F9106
:1012B0000895811551F0CB01B2DF182F682FCE01B0
:1012C0008DDFBE01812FB6D5F0CFCB0198DF182F6F
:1012D000F8CF0F931F9300917C0280917D028013C1
:1012E00003C01F910F91089587E0089FF00111241A
:1012F000E258FD4F208131814281538164817581A3
:10130000868190DE0F5F1F4F0770E7CF2091B602F6
:101310003091B7024091B8025091B9026091BA027F
:101320007091BB028091BC027DCE8091BC02803165
:1013300070F48091BB02811551F0E0917C02209104
:101340007D023091B7024091B6022E1301C008957C
:10135000BF0187E0E89FF0011124DF01A258BD4FD3
:1013600014968C911497811549F111968C911197CF
:10137000831324C08C91841321C015968C911597EA
:1013800081111CC012968D919D91A091B802B091CF
:10139000B9028A1B9B0B883C910580F48091BC02AA
:1013A0008F7080618093BC02EC57FD4F80818F70FD
:1013B0008061808386EB92E0D0DD8BCF6F5F7F4FC3
:1013C000FB01E770C2CFE0917C0290917D02E913AE
:1013D00002C080E008959F0157E0E59FF0011124CD
:1013E000E258FD4F5181561306C05081581303C077
:1013F0005581541305C02F5F3F4FF901E770E7CFC8
:1014000081E008958F929F92AF92BF92DF92EF9208
:10141000FF920F931F93CF93DF93CDB7DEB72D9736
:101420000FB6F894DEBF0FBECDBF8C0186E0F80189
:10143000DE01189601900D928A95E1F7F801F5808A
:10144000848196EB892E92E0992E9091BA029111A7
:1014500017C0811509F4EFC0F11409F42EC1C801B9
:10146000CDDD811509F429C187E0F801D40101908F
:101470000D928A95E1F7C401FCDA57DF47DFDBC044
:10148000E080A280B380D090BB022091B80230915E
:10149000B902A501421B530BD11409F4CFC0483C3B
:1014A000510508F09EC0811509F4C5C09091B7029E
:1014B00091808091BC02803108F065C0991226C0ED
:1014C0009091B6029E1122C0F11057C08F708061BA
:1014D0008093BC021BDF86EB92E03FDD8091BC0273
:1014E000F8018683F12C8F2D2D960FB6F894DEBF70
:1014F0000FBECDBFDF91CF911F910F91FF90EF9065
:10150000DF90BF90AF909F908F900895F11035C0FD
:1015100040E0692D8E2D57DF40E0692D8E2D53DF81
:10152000F82E8111DFCF88859985ACDE292F229591
:101530002F70903450F49F70223078F0911591F014
:10154000F8019681903170F4CECF2A5F2F7022304F
:1015500070F0C80102DDFD2CC6CF911519F0811580
:1015600009F4C1CF805E883008F4BDCFF2CF803F50
:1015700008F4B9CF815F8330F7CF8091BC028160DE
:101580008093BC02AFCF991207C09091B6029E1112
:1015900003C0F11409F473C0C80130DD811509F4EA
:1015A0008CC0F11409F489C08091BC02803280F0B3
:1015B0002091B6023091B70229833A83AB82BC8274
:1015C0009091BA029D831E828F83CE010196C5DC65
:1015D00087E0F801A6EBB2E001900D928A95E1F761
:1015E0004CCF9091BC02903188F4488559856A852A
:1015F0007B858C859D850CDD86EB92E0AEDCF4016D
:1016000087E011928A95E9F781DE6CCF811599F018
:101610002091B70281812813BFCF8091B6028E112D
:10162000BBCFF110B9CF9683C80197DCF40187E0F6
:1016300011928A95E9F7FF24F39455CF483C510560
:1016400008F03EC08115B9F3F114B9F19091B702D9
:101650008181981329C08091B6028E1125C0809196
:10166000BC0280FD18C08031B0F08683807F803F4F
:1016700039F08681982F907F905F8F70892B8683B9
:10168000C8016BDC87E0F801A6EBB2E001900D9297
:101690008A95E1F7F3CE87E0F801A6EBB2E001907E
:1016A0000D928A95E1F7C7CFC801A8DC811190CFD0
:1016B0008091BC0281608093BC02C8014EDCBBCF2C
:1016C000488559856A857B858C859D85A1DC97CF6A
:1016D000AEE0B0E0EEE6FBE00C94FB2E2887398705
:1016E0004A875B876C877D878E87CE0108968ADE66
:1016F0006C85811599F0611539F0288539854A8501
:101700005B857D858E858EDC80917C0290917D024B
:1017100089133DC02E96E3E00C94172F87E09E01BD
:10172000285F3F4FF90127503109D90101900D92EF
:101730008A95E1F7611541F3A0917D028A2F90E02F
:101740008395877090E0AC0120917C0224171506E8
:1017500091F097E09A9FD0011124A258BD4F9E01AD
:101760002F5F3F4FF90101900D929A95E1F7409359
:101770007D02AFDDC9CF1CDC10927D0210927C028D
:10178000E6EBF2E087E011928A95E9F7BDCF17E02A
:10179000189FC001112482589D4F34DE811509F431
:1017A000B9CFE0917C021E9FF0011124E258FD4F59
:1017B000208131814281538164817581868132DC4F
:1017C00080917C0290917D020196877080937C02CB
:1017D0009BCF8091C50286958695869508958091C8
:1017E000C502877008959091C502977081E09111AC
:1017F00001C080E008958091D10208959091D102B6
:10180000982B9093D10208958095982F8091D102C2
:1018100089238093D10208951092D1020895909166
:10182000D002982B9093D00208958095982F8091A4
:10183000D00289238093D00208951092D002089597
:101840000895FECF08959091C602292F282329F0EC
:10185000809589238093C602F4CF08950895FECF22
:1018600008959091C702292F2823281721F0982B3B
:101870009093C702F4CF08959091C702292F28238F
:1018800029F0809589238093C702E9CF089580913C
:10189000C702811521F01092C70280E0E0CF0895C1
:1018A0000F931F93CF93DF938091040190910501D3
:1018B0008C01C091D1028091D002C82B8091C702C7
:1018C000811529F0C82B0E947E248111E0DFF801E8
:1018D000C083C0910401D091050148E050E06DEB58
:1018E00072E0CE010E94832F892B59F088E0FE011F
:1018F000ADEBB2E001900D928A95E1F7CE010E9426
:101900002324DF91CF911F910F910895C9CF08959E
:101910000895FECF08959091B10392FF0EC0982FC5
:10192000990F990F990F962B9093C502C2DB809166
:10193000C502869586958695ECCFBBCB1092C502E5
:1019400080E0E7CF9091C502809589238093C502FE
:10195000282F277059F4891749F09091B10392FF0D
:1019600005C0869586958695B2DBE8CF089590915F
:10197000B10392FB222720F9281749F080FB92F946
:101980009093B10380EB93E049D082E0DBCF0895E0
:101990008091B103002482FF0394802DE8CF81E081
:1019A000E6CF80E0E4CF80E090E0BC0179C480E045
:1019B00090E0BC016FD4F7CFA4E0B0E0E2EEFCE031
:1019C0000C94FC2EC2D3CDD31C82CE010496E0D35E
:1019D00081E090E080937A0210927B02E5D3198235
:1019E00084E18A83CE010196F0D31B82CE01039657
:1019F000FED30E947817DBDF2496E2E00C94182FC8
:101A0000DBCF0895B4C30895A1C30895B6C3089564
:101A1000C5C30895C9C30895CCC30895D6C3089516
:101A2000DBC30895E4C30895E8C308951AC4089574
:101A30003DC40895A6E0B0E0E0E2FDE00C94FA2E8B
:101A40000E940A268C018091D2029091D3028017C5
:101A5000910779F019821A820E940A26BC014981F5
:101A60005A8180E090E00E940A050093D202109310
:101A7000D3022696E4E00C94162FFBD26093DC028E
:101A80007093DD028093DE029093DF026093D802B0
:101A90007093D9028093DA029093DB020895E9D221
:101AA0006093DC027093DD028093DE029093DF028C
:101AB0006093D4027093D5028093D6029093D7029C
:101AC000089508950895FDCF08950895FEDFFBCF92
:101AD0000C947C0308950895FEDFFACF81E0089509
:101AE0008DE590E10E947316EDDFF0CF04C60895F6
:101AF000089508950895FCDFFCDFFCCF85DF811198
:101B000001C07EDF80EE92E081DF80EB93E084DF36
:101B10007FDF9FDA8091780290917902B3CA0E94A8
:101B200001267ED2EBD50E944D1FBBD4E7DF0E9479
:101B30000B240E94EA040E943B1F0E940E210E9477
:101B4000B81D0E946A1CEFD5C7CFD5D581110C9462
:101B50000C240895A6E0B0E0E0EBFDE00C94F32E39
:101B6000BDDF811110C066DFF0DF0E94A51D0E945D
:101B70003A1F0E94D01F811192DF0E94F204269624
:101B8000EBE00C940F2FDBD486EAA82E83E0B82E6E
:101B9000750110E0F7010081812F93D31F5F1A3088
:101BA00009F445C09FEFE91AF90A081799F38091E3
:101BB000E00281FD8CD39ADF982E10E0812F81D333
:101BC000F82EF50181915F01F81661F18F25D82E6D
:101BD00000E0EE24E3948D2D8E21F1F0CC24C3940B
:101BE0008F2D8E2109F4C12C911489F0602F812F43
:101BF0000E94652581110BC009831A830E940A2661
:101C0000BC0149815A8181E09C2D0E940A054C2D1E
:101C1000602F812F0E9479250F5FEE0C0630D9F6D8
:101C2000F501F2921F5F1A3049F627DF9DCF0813A6
:101C3000BECF99CF0F931F93CF93DF93FDD0EC01CD
:101C4000D23508F050C0D03508F0C8C0C03ED1052C
:101C500030F5CD3CD10508F09DC0C83AD10578F4E7
:101C6000C53AD10508F093C0C130D105B1F1CE011C
:101C70000497813A910588F1C0E0D0E02EC0CE01F2
:101C8000885A91094B97C0F7C85AD0E0CC0FDD1F96
:101C9000CC52DE4F0990D881C02DD4641EC0D03400
:101CA000A8F4D03208F0ADC0C83ED105B0F0CE01E6
:101CB00091509F3108F78D2F62D1082F8C2F90E023
:101CC000BBD0D02FDF71C82FD92B07C08C2F90E04D
:101CD000B3D0DF70C82FD92BD06ACE01DF91CF915E
:101CE0001F910F910895C03882E5D807B8F5C03626
:101CF00082E5D80708F056C0C03482E5D807C8F49A
:101D0000C03282E5D80708F047C08C2F86958695AB
:101D100020E2829FC0011124C37021E030E002C0A4
:101D2000220F331FCA95E2F7E901C82BD92BDD68D2
:101D3000D4CF8C2F86958695877020E2829FC00134
:101D40001124C37021E030E002C0220F331FCA9576
:101D5000E2F7E901C82BD92BDC68BFCFC03C82E594
:101D6000D80750F48C2F8F71C03AD24580F5982F48
:101D700084EF906AEC01B1CFCE01805C92458097F0
:101D800008F07ACFDC2FDF71C0EFD06AA6CFA4971E
:101D9000D064A3CFD065A1CF8C2F8F71D82FC1EF86
:101DA000D06A9BCF8C2F86958695877020E2829F84
:101DB000C0011124C37021E030E002C0220F331FA4
:101DC000CA95E2F7E901C82BD92BDA6886CFD7D0BC
:101DD000982F80E09F71EC01D0627FCF8C2F8F71A4
:101DE000CED053E0CC0FDD1F5A95E1F7DF70282FDE
:101DF00084FF04C090E1899F90011124C22FD06913
:101E00006CCF8D2F8F71BBD0082F8C2F90E014D00A
:101E1000302F3F71282F392B3062E9015ECF462FDA
:101E20007A3028F4663018F4672F0C94E10380E0D0
:101E300090E00895F4DFFECE803E9105D1F1C8F424
:101E40008133910509F481C048F48932910509F480
:101E500071C08A32910509F47FC0089589339105D4
:101E6000E1F082389105C9F08533910509F45DC030
:101E70000895843E9105D1F148F4823E910531F1F7
:101E8000833E910541F181EE90E00895863E9105F3
:101E9000C1F1873E9105F1F108952091B0032370BF
:101EA00009F064C02091B10323FF14C089E290E0DF
:101EB00008952091B00320FD45C03091B10330FF5B
:101EC00009C024FD24C083EE90E008952091B00362
:101ED00022FDF7CF08952091B00322FD44C0309138
:101EE000B10330FD43C024FFF5CF11C02091B103F1
:101EF00021FFF0CF8091B00384FD09C087EE90E010
:101F000008952091B00323FFE5CF24FFF7CF80E0B1
:101F100090E008952091B00323FD2BC03091B103D0
:101F200031FFE1CF84EE90E008952091B00325FFCA
:101F3000D1CFBCCF2091B00325FD1EC02091B103AD
:101F400023FFC8CF89E390E008952091B00326FFD6
:101F5000C1CF8AE290E008952091B00326FFBACF66
:101F600081E390E0089582EE90E0089580EE90E0A5
:101F7000089586EE90E0089585E390E008959091AD
:101F8000B00392FF10C041E0282F2471243009F0E3
:101F900040E031E0282F2871283009F030E0431765
:101FA00011F02CE0822793FF10C041E0282F24710C
:101FB000243109F040E031E0282F2871283109F060
:101FC00030E0431711F02CE082273091B10330FF4D
:101FD00010C051E0282F2171213009F050E041E07C
:101FE000282F2871283009F040E0541711F029E01B
:101FF000822731FF10C041E0282F2171213109F0E3
:1020000040E031E0282F2871283109F030E04317F3
:1020100011F029E0822794FF02C083FD877E089596
:102020001092B2031092B3031092B4031092B5034E
:102030000895EF92FF920F931F937B018C015BD366
:10204000811112C00E9416269701A801261B370B8A
:10205000480B590BC901DA018093B2039093B30383
:10206000A093B403B093B5031F910F91FF90EF902D
:10207000089541D3811541F00E941626462F572F0F
:10208000BC01CB01BA0108950E941626DC01CB01E8
:102090004091B2035091B3036091B4037091B503C2
:1020A000480F591F6A1F7B1FECCF25D3811511F0F4
:1020B0000C940A26DEDFCB01089580E00895CF93CB
:1020C0009C01205E3245C1E02032310538F4FB012D
:1020D000C581C11103C08F710E949D048C2FCF91C7
:1020E00008959C01FB018581811599F02B359CE7B2
:1020F000390769F02C359CE7390721F02A353C4730
:1021000021F0089545DC80E0089549DCFCCF49DCEE
:10211000FACF81E008959C01FB018581811599F03A
:1021200021309CE7390761F023309CE7390739F00B
:1021300021153C4749F40E94C50480E0089562DC03
:102140000E94C904FACF81E00895089580E090E0EC
:102150000E94A62F9C0181E0233E3E4F09F080E0C3
:10216000089563EE7EEF80E090E00C94C52F6FEF52
:102170007FEF80E090E00C94C52FCF93DF93EC01CC
:1021800082E090E00E94992F8883DF91CF9108959B
:10219000FC01608182E090E00C94AB2F83E090E042
:1021A0000E94992F90E00895682F83E090E00C94AE
:1021B000AB2FCF93DF93EC0184E090E00E94A62F39
:1021C00088839983DF91CF910895FC0160817181AB
:1021D00084E090E00C94C52FCF93DF93EC0186E070
:1021E00090E00E94992F8883DF91CF910895FC01A0
:1021F000608186E090E00C94AB2F8F929F92AF921B
:10220000BF92CF92DF92EF92FF920F93CF93DF9323
:10221000EC0188E090E00E94A12F4B015C016883F3
:1022200099828A83BB821C821D821E821F8283E266
:1022300090E00E94992F9401A50188823983AA8297
:102240005B838C831D821E821F82DF91CF910F9151
:10225000FF90EF90DF90CF90BF90AF909F908F90C6
:1022600008950F93CF93DF93EC01488159816A81E0
:102270007B8188E090E00E94BD2F6C81262F60E07A
:1022800070E0CB01622F83E20E94AB2FDF91CF91F0
:102290000F910895AB01BC018FE090E00C94BD2F2D
:1022A000AB01BC0183E190E00C94BD2F682F8EE060
:1022B00090E00C94AB2F0895FECF08950895FECFC3
:1022C0000895E82FF0E0EF53FC4F808108950895C2
:1022D00080EA8A95F1F7089500C00895F9CF08952E
:1022E0000895FECF0895A5E0B0E0E9E7F1E10C9490
:1022F000F72E01D2F82E8091CB0390E08F539C4FA4
:10230000F114E1F18E010F5F1F4FF80125E01192EA
:102310002A95E9F7B80113D2E02ED12E8115B1F03C
:102320008091B60390E045E050E0B8018F539C4F98
:102330000E94832F21E02093E102892B91F4F12C5C
:10234000BEDF8F2D2596E7E00C94132F8091E102DC
:102350008115A9F3F80185E011928A95E9F71092A9
:10236000E102A091B603B0E0AF53BC4F85E0EE2D83
:10237000FD2D01900D928A95E1F7E2CF2091B603F1
:1023800030E0BC01C9018F539C4F64D2AADFD9CF82
:10239000F894E82FE295EF70F0E041A18F7021E012
:1023A00001C0220F8A95EAF7922F9095942391A36A
:1023B00092A1822F892B82A378940895CF93DF93E3
:1023C000CCE0D1E089918F3F09F0E2DF81E0C131BB
:1023D000D807C1F7C6E0D1E089918F3F09F0D8DF77
:1023E00081E0CC30D807C1F7DF91CF910895A0E00C
:1023F000B0E0EDEFF1E10C94F62E6C01E62EC62F65
:10240000D0E08E01045F1E4FF80180818F3F09F4F8
:1024100041C0F894E82FE295EF70F0E091A18F7041
:1024200021E001C0220F8A95EAF7892F822B81A330
:1024300082A12095282322A378944EDFA6E0B1E064
:1024400031E0F12C2D912F3F79F0E22FE295EF70E2
:10245000E05EF0E0808190E02F7002C09595879556
:102460002A95E2F780FF1BC080E0F82A330F81E055
:10247000AC30B80739F7F80180818F3F09F088DF69
:1024800061E0F11001C060E08E2D28DFF601EC0F55
:10249000FD1FF082CDB7DEB7E8E00C94122F832F3A
:1024A000E4CFABE0B0E0E7E5F2E10C94FC2E8091E4
:1024B0001101811125C085E0E1E9F1E0DE01179607
:1024C00001900D928A95E1F785E0FE013796ACE028
:1024D000B1E001900D928A95E1F786E0E7E9F1E03D
:1024E0009E012F5F3F4FD90101900D928A95E1F730
:1024F00086E0F901A6E0B1E001900D928A95E1F73E
:102500008091110190E0811101C095E09093CB037F
:1025100085E0891B8093B60351DFE1ECF3E08AE0AC
:1025200011928A95E9F7E7EBF3E08AE011928A9538
:10253000E9F745D0C1DE2B96E2E00C94182FAAE013
:10254000B0E0E5EAF2E10C94F92EFE013196DF01EC
:102550008AE01D928A95E9F710E00E2FFF2E612F79
:10256000802F9F2D44DF812F8F5F182F8530B9F783
:102570004AE050E0602F7F2D87EB93E00E94832F8D
:1025800041E0892B91F440E06091CB0370E06F5300
:102590007C4F87EB93E014D0182FA5DE912F982B5A
:1025A000892F2A96E5E00C94152F8AE0E02FFF2D65
:1025B000A7EBB3E001900D928A95E1F7E5CF08957E
:1025C000EF92FF920F931F93CF93DF93182F092F52
:1025D000F62EE72EC42F1092E402D091E602D11518
:1025E00009F46BC00E940A264091E2025091E30276
:1025F0009C01241B350B8093E2029093E302841725
:102600009507C9F0C90191118FEFE7EEF2E020E0E4
:1026100030E09191911539F0DF011197891708F495
:1026200048C01C923D2F92E0EC3EF90791F73093A1
:10263000E5022093E602C1110DC0CD2F8091E50285
:10264000811581F1C11106C00E940A268093E20221
:102650009093E3021092E5028091E4029091E602E9
:10266000EF2DFE2DC12FD02F07EE12E0AF014B5FF3
:102670005F4F35E061912991621759F0D8016C9153
:10268000611107C03C93CF010197DC012C9381E0DD
:1026900091E00F5F1F4FE417F50761F79093E60293
:1026A0008093E4028091E402CDB7DEB7E6E00C94BB
:1026B000142F981B9C932D2FB6CF411509F4BECF34
:1026C000C3CF55985D988FE891E00197F1F700C06E
:1026D000000088274D9983950895CF930E94432E3B
:1026E000C82F811102C00E943F2E8C2FCF910895D8
:1026F0008091EF0208958091EE020895EEDF8093BD
:10270000EE02DFDF8093EF02F3DF80931101F0DF51
:1027100066E0811531F080E0B7D3EDDF811142C072
:10272000089586E0F9CFE7DF811101C03EC008952A
:1027300081E09091F0029A3008F080E008950F93C4
:102740001F93CF93DF93EC018B018091F0028A30CD
:1027500080F4B801CE017CD0811121C08091F002BB
:102760008F3FB1F40E940A268093EC029093ED0211
:1027700009C08091EC029091ED020E948925843F6E
:10278000914038F780E0DF91CF911F910F9108952C
:102790008F5F8093F0028A3028F781E0F4CF1092A7
:1027A000F002FBCF0C94CA2608950C94CD26089510
:1027B000CF92DF92FF920F931F93CF93DF93690124
:1027C000E801082F880F110B41155105B1F0F801F0
:1027D00033E0EE0FFF1F3A95E1F7EE5EFE4F818189
:1027E00092818F509D4FE0812E2F30E04E17510582
:1027F00008F49A01A9010E94902FC8010E94AC27F9
:10280000F82E8115E1F02097D1F0C80123E0880F60
:10281000991F2A95E1F7FC01EE5EFE4F2381422FBE
:1028200050E0C217D10508F4AE018E5E9E4FFC0148
:10283000648175816F507D4FC6010E94902F8F2D4E
:10284000DF91CF911F910F91FF90DF90CF9008956E
:10285000A9C10895D3C108950C94B11F0895A0E0B3
:10286000B0E0E5E3F4E10C94F42EF82EEB01E42E55
:1028700069015801688179818A819B810E94922532
:10288000643671058105910510F4E11479F000E0DA
:1028900010E09801A501B6018F2D8ADF811539F06E
:1028A0000E941626688379838A839B8381E0CDB753
:1028B000DEB7EAE00C94102FABE0B0E0E2E6F4E122
:1028C0000C94FA2E8E010F5F1F4FC8014AD741E0CA
:1028D0008B859801811101C040E00BE010E06AE2B5
:1028E00073E087E0BCDF182F811138D7812F2B963A
:1028F000E4E00C94162FA1E0B0E0E1E8F4E10C94E0
:10290000FA2E0E94A71D81110E94B21D8983E091B9
:102910000A02F0910B0241E09389981301C040E054
:1029200001E010E09E012F5F3F4F66E273E086E01A
:1029300096DF2196E4E00C94162FA4E0B0E0E3EAE1
:10294000F4E10C94FA2E609122037091230380919C
:102950002403909125030E94922511E064367105AD
:102960008105910508F185DBDC01CB010296A11DF3
:10297000B11D89839A83AB83BC8300E010E098018A
:1029800044E050E0BE016F5F7F4F85E011DF182FFC
:10299000811551F00E941626609322037093230341
:1029A0008093240390932503812F2496E4E00C94D4
:1029B000162FA1E0B0E0EFEDF4E10C94F12E762EAD
:1029C0005A01490168018D019E012F5F3F4F40E090
:1029D00050E0BA01EDDE182F811599F1F501608103
:1029E0007181828193810E949225643671058105EF
:1029F000910500F18701940140E050E0BA01872D74
:102A0000D7DE082FB701C6010E940F21998110E07F
:102A100098130BC0102F117000FF07C00E941626DC
:102A2000F5016083718382839383812F2196EDE08A
:102A30000C940D2FB701C6010E940F2199818913B3
:102A4000D9CFA701B601C4010E94902FEECFAAE012
:102A5000B0E0EDE2F5E10C94F42EC0900A02D090C3
:102A60000B02560187E0A80EB11C88E0E82EF12C7D
:102A700085019E012F5F3F4F4EE153E063E082E00E
:102A800098DF182F811531F0F601968180911D0392
:102A9000981316C0812F2A96EAE00C94102F6985AE
:102AA0008A850E949E1FF82E81110AC000E010E066
:102AB0009801A801B80184E07BDE1F2D18230CC00B
:102AC000CE010996AC010196BC01C5010E94811F8F
:102AD0008111E5CFF110EACFF601868180931D03C5
:102AE000D9CFA5E0B0E0E7E7F5E10C94F62E6B0155
:102AF00000910A0210910B020F5F1F4F7D01CE0162
:102B000001969C0149E153E061E080E052DF8115CC
:102B100059F095E09E012F5F3F4FF901A4E1B3E02A
:102B200001900D929A95E1F795E0E4E1F3E0D6018A
:102B300001900D929A95E1F72596E8E00C94122FFA
:102B4000A0E0B0E0E6EAF5E10C94F42E7C016B0124
:102B50005A01EEDD0AE010E0811102C001E010E050
:102B6000C1E0D0E0B601C701F5010995811115C09A
:102B700021960C171D078CF0CC9F9001CD9F300D36
:102B8000300D112480E090E045E34A95F1F7000014
:102B9000019682179307C1F7E5CFCDB7DEB7EAE01C
:102BA0000C94102F0F931F93CF93DF93EC018B01A5
:102BB00041E755E1C5DF811106C080E0DF91CF918B
:102BC0001F910F91089547E255E1B801CE01B8DF9A
:102BD000811599F34DE954E1B801CE01B1DF8115BA
:102BE00061F34BE754E1B801CE01AADF811529F367
:102BF0004CE554E1B801CE01A3DFE0CFABE0B0E09B
:102C0000E4E0F6E10C94F82E00910A0210910B0218
:102C1000C801019625E0FB01DC0101900D922A9587
:102C2000E1F765E070E00E940F21F80180837801F0
:102C300087E0E80EF11CC7010E94A81F68E070E061
:102C4000C7010E940F21F801868387859089A18999
:102C5000B289409110035091110360911203709159
:102C6000130384179507A607B70759F0809310033D
:102C700090931103A0931203B0931303BC01CD01F1
:102C8000D8D9F80183890E945F1E8BE0F801749601
:102C90009E012F5F3F4FD90101900D928A95E1F778
:102CA000F801168E8B85811519F060E0C90142D6B6
:102CB0002B96E6E00C94142F0C94AA0D08950E9414
:102CC000A4250E9438290E94700D0E9450290E945C
:102CD0008F0D0E9459290E945C29EEDF0E94722903
:102CE0000E947B0DF8CF809350029093510208957B
:102CF000CF93DF93EC01FB018581811104C081E05A
:102D0000DF91CF9108950E94FB0B8272FE01E05289
:102D1000F847EB30F10598F7E85FFF4C0C94D62E9E
:102D2000D1D580E0EDCF811521F0C0D5FACF811546
:102D3000E1F3B0D5F6CF811521F037D2F2CF81156E
:102D4000E1F329D2EECF811521F049D2EACF8115E6
:102D5000E1F338D2E6CF811521F05BD2E2CF8115C5
:102D6000E1F34AD2DECF811521F0F6D0DACF81151A
:102D7000E1F3E2D0D6CFA0E0B0E0E1ECF6E10C94D4
:102D8000F52E062FB72EE82F71110EC0411521F038
:102D9000F0E0E255FC4FE4916E2F7E2F8E2FCDB7E1
:102DA000DEB7E9E00C94112F411521F0F0E0E25577
:102DB000FC4FE49186E0089FE00111242FEF30E002
:102DC000CE01B9010E948D2EAB01C801880F991F59
:102DD000F5E5F49FB001F59F700D1124861B682F57
:102DE000660F680FC9018B199109E89FD001E99F0F
:102DF000B00D11248B2FB69E60011124CD2CD12C47
:102E000089010C191D096801E09F7001E19FF00C18
:102E100011244330510551F18901061B1109B09E5F
:102E20006001B19ED00C1124CD2CD12C2C193D0960
:102E3000E29F8001E39F100D1124712FCC3FD340FE
:102E400050F441305105B1F04230510561F47E2F0C
:102E5000EB2F812F08C04430510579F046305105E1
:102E600011F07B2F8F2D6E2FE82F98CF7F2D8E2F77
:102E7000EB2FF9CF7E2FEF2DF6CF8E2FE12F7B2F6B
:102E8000F2CF41E078CF08958093550160935601C9
:102E90000895F7CF089590915501291B922FE09145
:102EA0003902F0913A02242F462F682F892F90E0A3
:102EB00009950895CF93DF93762FE901682F842F2A
:102EC000E8DF962F672F9E01482F892FE4DFDF91DF
:102ED000CF9108958091CC03843028F4837084606E
:102EE0008093CC0308958C3AE8F38370886AF8CF16
:102EF0008DE28093CC031092CD038FEF8093CE03AD
:102F000080E88093CF031092D00380917803836090
:102F1000809378038CEC93E00C94160D9091D00381
:102F2000933018F49F5F9093D003811521F08CECBF
:102F300093E00C94160D089581E0F0CF9091D003AA
:102F4000911519F091509093D003811521F08CECDC
:102F500093E00C94160D089581E0F0CF0F931F932A
:102F6000CF938091CC0380FF09C0E0913D02F091A6
:102F70003E020995CF911F910F910895C09157017D
:102F80008091390290913A028C0180915801C817C2
:102F900060F7809155019C2F981B20E040E060E095
:102FA000892F90E0F8010995CF5FEFCFEF92FF9264
:102FB0000F931F93CF93DF93D82F162F042F809159
:102FC000CC0380FF0CC0C0915701809139029091D1
:102FD0003A027C0180915801C81730F0BFDFCDB7AD
:102FE000DEB7E6E00C94142F809155019C2F981BBE
:102FF000202F412F6D2F892F90E0F7010995CF5F8A
:10300000E9CF762F9091CC0390FF08C0682F842FD2
:1030100040DF962F672F482F892FC8CF0895CF9371
:10302000DF93EC01EC81F0E0E755FD4F4491ECECCF
:10303000F3E062818181E5DF8C818F5F8C83DF919A
:10304000CF910895CF93DF93EC01ECECF3E0438153
:1030500062818C81D6DF8C818F5F8C83DF91CF91F1
:103060000895CF93DF93EC012091CF039C81892FAA
:10307000817090FD822F692F627091FD622F492F20
:10308000447092FD422F92DF8C81019687708C8371
:10309000DF91CF910895A0E0B0E0E1E5F8E10C9474
:1030A000F72ED82FE62E142FD22E9091CC0390FF1E
:1030B00034C02091CD03281308C08091CE0386131D
:1030C00004C08091CF03841729F080917803826037
:1030D00080937803392F36953695E32FF0E0E45F3F
:1030E000FD4F8081809376039C7F9430D9F46D2FBF
:1030F0007E2D812FCEDE962F672F482F892F56DF0A
:103100002D2F2093CD03E092CE031093CF03D11443
:1031100021F08CEC93E00E94160DCDB7DEB7E7E00E
:103120000C94132F823019F41091CF03E9CF86301D
:1031300041F3893031F3893119F787EEF82EF30E18
:10314000EF2DE695F0E0E755FC4FC49100E060916B
:103150005901061710F002DFD3CF0C9FC0011124D4
:1031600070E00E948D2E862F8D0FF0FE02C08D2FF5
:10317000861B20915701200F3327331F412F6E2DBF
:1031800099DE0F5FE4CFECECF3E0282F43816281FE
:103190008181885F80CF81E0F6CFECECF3E0282FCF
:1031A000438162818181885076CF81E0F6CFECEC5B
:1031B000F3E0628128E0620F08F46FEF282F43816B
:1031C000818169CF81E0F3CFECECF3E0628128E00C
:1031D000621B08F460E0282F438181815CCF81E08D
:1031E000F3CFECECF3E0438128E0420F08F44FEF1B
:1031F000282F628181814FCF81E0F3CFECECF3E0A7
:10320000438128E0421B08F440E0282F628181813D
:1032100042CF81E0F3CF20E03ECF0F931F93CF93B7
:103220008C01C0E060915901C61768F097DEF80183
:103230008481928190FF1DC08F5FF8018483CF91BC
:103240001F910F910895209157012C0F3327331FA1
:1032500070E08FEF90E00E94A12EF80184814091F0
:10326000CF03C69F800D11246091CE0323DECF5F74
:10327000D9CF8150E2CF8F929F92BF92CF92DF92AF
:10328000EF92FF920F931F93CF93DF93EC018A810C
:1032900001E080FD0FEF8C81811109C0013019F42C
:1032A00080915901815080932F0381E08C8310E03D
:1032B0008091390290913A024C018091590118177E
:1032C000E8F04CDE90912F03013009F059C0809155
:1032D00059018150911519F0892F815091E0809307
:1032E0002F039C83DF91CF911F910F91FF90EF905F
:1032F000DF90CF90BF909F908F900895809157015D
:1033000090915501891B810F20E040E060E090E042
:10331000F401099594E0E92EF12CB12CC12ED12CA9
:1033200080912F038B0D8D302CF16CE00E94802E4C
:10333000892F082E001C00088C150D04A1F4809123
:1033400057019601280F311D4091CF035E2D540384
:10335000A001112455954795559547956091CE0349
:103360008091CD03A7DDB00E81E0E81AF108C1F627
:103370001F5FA3CF87FFDDCF90915901890FD9CF70
:10338000892F90E001966091590170E00E94A12E72
:10339000982FA5CFEF92FF921F93CF93DF93EC016D
:1033A0008C81811109C081E08C8310922E0392E000
:1033B00090935401809353011091570180913902E9
:1033C00090913A027C0180915801181778F110E031
:1033D0008091390290913A027C016091590116174F
:1033E00090F1BCDD8091530190912E03980F909342
:1033F0002E0320915401280F20935401121654F4E7
:10340000209159012150330B092E001C00089217FE
:10341000030634F0819580935301813009F41C82B6
:10342000DF91CF911F91FF90EF900895809155010A
:10343000912F981B20E040E060E0892F90E0F70199
:1034400009951F5FC0CFE12FF0E070E0CF010E942F
:10345000A12E20915701820F90912E03092E001C5E
:103460000008E917F0059CF090915401092E001C0A
:1034700000089E170F065CF0282F30E04091CF0324
:103480006091CE038091CD0315DD1F5FA6CF909193
:103490005501891B20E040E060E090E0F7010995CC
:1034A000F4CFA0E0B0E0E7E5FAE10C94F42EEC01F3
:1034B000FC812F2F30E0D9010E94562E9B01AC01D8
:1034C0000E94E22E7B018C0180E290E08F1B91092B
:1034D000FC01A5E59701A8010E94E22E5B016C01A9
:1034E0009F01DF010E94502E9B010E94DC2E9B0158
:1034F000AC012E0D3F1D401F511FB501C6010E949A
:10350000B42E022F30E00A3220F5A901440F551FD6
:10351000420F531F55954795142F1095F12C85E5B3
:10352000801BE82E80915901F81600F117DD9C816F
:1035300081E0911519F0903219F48FEF80935201C8
:1035400080915201890F8C83CDB7DEB7EAE00C94ED
:10355000102F85E590E0821B930BAC01440F551FA3
:10356000480F591FBAF64F5F5F4FD4CF8E2DF1FC35
:10357000802F209157012F0D3327331F412F60914A
:10358000CE0398DCF394CECF0F931F93CF93DF93AA
:103590008C01C0E0D0E090915901C917D1055CF0D1
:1035A000DDDCF8018481019681708483DF91CF9105
:1035B0001F910F910895F8014481809157019E0158
:1035C000280F311D6091CE038091CD039695C917C8
:1035D000D1053CF4411539F04091CF036BDC2196C5
:1035E000DACF4115C9F340E0F9CFA0E0B0E0EBEF4E
:1035F000FAE10C94F02EFC018281882E948081E007
:103600008483E9EAF2E0A490E8E2F3E0E491C09177
:10361000CF03C695C158D0E0CC0FDD1FED2EF12CA5
:10362000B12C05E01FEFEA198E2F90E03C0180914C
:103630005901B81630F092DCCDB7DEB7EEE00C944D
:103640000C2FCB2CD12C882D833058F40B9DF001FE
:103650001124ED5CFC4F8091CD0380838091CE03DB
:10366000818391101BC00C9DF0010D9DF00D112464
:10367000ED5CFC4F13821282809157019601280F56
:10368000311D0C9DF0010D9DF00D1124ED5CFC4FE2
:103690004281618180810EDCB394C9CF0C9DE00131
:1036A0000D9DD00D1124CD5CDC4F8B818115E1F097
:1036B00081508B83189FC00111246C8170E00E949F
:1036C0008D2E70E0FB01E755FD4F84918A19189FFC
:1036D000C0011124B3010E948D2E8091CF03689FF9
:1036E000B00111247A83C8CF0E946A2F6FEF70E077
:1036F0000E94A12E8E159F050CF0BECF882D833021
:1037000090F00E946A2F6FEF70E00E94A12E8883D4
:103710000E946A2F2091CE032695622F70E00E94AE
:10372000A12E280F29830C9DF0010D9DF00D112471
:10373000ED5CFC4F12828091CF03893C58F088ECFD
:103740000C9DF0010D9DF00D1124ED5CFC4F848368
:10375000838392CF8431A0F784E1F2CF1092780373
:10376000089528E0ECECF3E0DC0101900D922A953D
:10377000E1F7209176033091770340917803FC01C3
:1037800020873187428708951092770380917803CC
:1037900084608093780308958091CC038E7F80931A
:1037A000CC03F2DF80917803816080937803D6CBDD
:1037B0008091CC038E7F8093CC038CEC93E00E94AD
:1037C000160DE2DF80917803816080937803C6CB89
:1037D0006091CC036695669570E04BE050E08AE519
:1037E00091E00E94762F892B19F481E08093770372
:1037F0000E94551080936F0390937003809178031B
:1038000084608093780308959091CC0390FF30C03A
:10381000811579F18B3278F58F73880F880F90912D
:10382000CC039370892B8093CC03809178038160C3
:1038300080937803611521F08CEC93E00E94160DC3
:103840006091CC036695669570E04BE050E08AE5A8
:1038500091E00E94762F892B81F096DF81E08093A2
:1038600072034091CF036091CE038091CD03D3CCFE
:10387000089581E0D2CF8AE2D0CFAADFEFCF682FC0
:103880009091CC0396959695892F8F5F8B3208F097
:1038900081E0BACF81E0F3CF682F9091CC03969569
:1038A0009695892F815009F48AE2AECF81E0F4CF5A
:1038B00061E0AACF8091CC0381608093CC03869590
:1038C0008695F6CF8091CC0380FF01C071CFF2CFF7
:1038D00060E09ACF80917503811123C08CEC93E056
:1038E0000E94140D80917803836080937803809107
:1038F000CC03843028F4FCDA8CEC93E00E94140DA5
:10390000E9DA42DFE0913702F091380209958091BF
:10391000CC0380FF03C086958695DADF81E0809333
:10392000750308958091CC0381608093CC038695C4
:103930008695CECF1F93CF93DF93EC01162F8A8508
:1039400080FF0CC0888180FF22C08091CC03816001
:103950008093CC0388818695869556DF8A8581FF82
:1039600005C0212F4B816A81898195DB8A8582FF81
:1039700004C08985811569F02BDF8A8583FF03C028
:1039800081E080937203DF91CF911F91089504DF4E
:10399000E5CFFADEF2CFEF92FF920F931F93CF9312
:1039A000DF9380917703811509F46DC080917603D0
:1039B000E091CC03E695E695E81BE0937103853131
:1039C00009F4B9C008F071C0893009F4AAC008F040
:1039D0005FC0823009F493C0863009F499C0C0ED0D
:1039E000D7E003E417E180917203811561F0109232
:1039F00072030E94551080936F039093700310928E
:103A00007303109274030E94551020916F0330913C
:103A10007003AC01421B530B4F3F5F47A0F5409131
:103A200032034115B1F010923203409130035091AE
:103A30003103841B950B8F3F9F4758F4405D5A48D4
:103A400040933003509331038091780388608093D2
:103A50007803E0907303F09074032C0F3D1F2093C4
:103A60006F03309370038FE693E0F801099580911E
:103A7000730390917403892B31F4E114F10419F06C
:103A800081E080933203CDB7DEB7E6E00C94142FCB
:103A90008F3009F0A4CFE695F0E0E456FD4FE491B5
:103AA000CE2FD0E00BE319E19ECFC4EFD1E004ECC0
:103AB0001AE1843209F497CF88F4C8E2D0E001E536
:103AC0001AE1883109F48FCF833209F088CFE7E912
:103AD000F2E0C591D59101E318E185CF853209F077
:103AE0007ECF8E2F63E00E94742EE92FF0E0EC561B
:103AF000FD4FE491CE2FD0E005EF1AE174CFF0E056
:103B0000EB55FD4FE491CE2FD0E00FE018E16BCFE5
:103B1000F0E0EE55FD4FE491CE2FD0E002E218E147
:103B200062CFE695F0E0E156FD4FE491CE2FD0E074
:103B30000DE019E158CFF0E0E756FD4FE491CE2FAC
:103B4000D0E00AEC19E14FCF089525CF0895809178
:103B5000D403817008958DE18093D40384ED93E0C4
:103B60000C94120D8091D4038695869586950895C0
:103B700084ED93E00E94100D8091D40382FFEBDF6F
:103B80008091D403803320F0877088628093D403BF
:103B90009091D403892F817090FF04C0892F86955E
:103BA00086958695D6C09091D403892F8695869563
:103BB0008695983240F48F5F880F880F880F977032
:103BC000892B8093D4038091D40381608093D403A4
:103BD00084ED93E00E94120D8091D4038695869522
:103BE0008695B7C08091D403883088F08850809340
:103BF000D40391E0883008F490E08091D40390FBE6
:103C000080F98093D40384ED93E00E94120D80919B
:103C1000D4038695869586959CC08091D40380FDBB
:103C200012C081608093D403813019F489E08093BD
:103C3000D40384ED93E00E94120D8091D403869505
:103C40008695869586C008958091D40380FF09C02B
:103C50008E7F8093D40384ED93E00E94120D80E068
:103C600078C008958091D40380FF01C0EDCFD5CFF7
:103C70008091D4038695869586958F5F8F71863067
:103C800008F080E0880F880F880F9091D403977018
:103C9000892B8093D40391E0883008F490E08091E0
:103CA000D40390FB80F98093D40384ED93E00E94C9
:103CB000120D8091D4038695869586954AC08630EC
:103CC00008F085E02091D4032770982F990F990F61
:103CD000990F922B9093D40321E0983008F420E0C0
:103CE0009091D40320FB90F99093D40332C0E7DF86
:103CF00084ED93E00C94120DFB012581211539F11F
:103D0000833038E79307E9F068F4813038E79307A8
:103D1000B1F0823038E79307C1F08115984759F028
:103D2000822F0895843038E7930769F085309847EB
:103D3000B9F79EDF02C085E0DADF20E0F1CF80E056
:103D4000FBCF50DFFACF2FDFF8CF8CDFF6CF21E0AB
:103D5000E7CF0F931F93CF93DF93863080F58111C8
:103D60002FC0909180009F779093800020918600D3
:103D700030918700A82FB0E00E94562E25E030E059
:103D800040E050E00E94B42EE901FA0180918600E3
:103D9000909187006CE070E00E948D2E621773078F
:103DA00098F0C90169E070E00E948D2E709389003F
:103DB00060938800DF91CF911F910F91089585E066
:103DC000909180009068D0CF80918600909187007C
:103DD00020918600309187008901209186003091E2
:103DE000870066E070E00E948D2EC60FD71FE11D90
:103DF000F11D85E0CC0FDD1FEE1FFF1F8A95D1F767
:103E0000C80166E070E00E948D2E40E050E0260F71
:103E1000371F411D511DBE01CF010E94B42EE90183
:103E2000FA0180918600909187008C01B901CA0146
:103E30000E94652E9B01AC01D8010E94E22E9B01DD
:103E4000AC01BE01CF010E94652E770FBB27AA27C8
:103E5000881F991FAA1F209186003091870028177C
:103E600039071A061B0620F480918600909187007E
:103E7000BC019CCF0895259A2D9882E880938000FC
:103E800089E1809381008FEF9FEF9093870080936B
:103E900086006ECE0C947B130895EAE7F3E088E089
:103EA00011928A95E9F708C1FC01228130E023953F
:103EB000237030E0938181E09217130609F080E0CF
:103EC00008950F931F93CF93DF93EC01162F042FC8
:103ED000EBDF811114C08A81FE01E80FF11D912FE3
:103EE00000FB97F994838F5F83708A8388818F5F4B
:103EF000888381E0DF91CF911F910F91089580E039
:103F0000F9CFFC01A38182818A17B1F0AE0FBF2FD8
:103F1000B11D14968C9187FB992790F98F77DB015F
:103F20008C93DA019C9383818F5F8370838381817B
:103F30008F5F818381E0089580E00895462F682F88
:103F40008AE793E0BECFAB01BC018AE793E0D9CF0B
:103F5000DC0198E0EAE7F3E001900D929A95E1F731
:103F6000089581E080937903089581E00895A2E0A7
:103F7000B0E0EDEBFFE10C94FA2E10E0CE010196DB
:103F8000BC010196E0DF811105C0812F2296E4E09B
:103F90000C94162F6981182F8A810E946303EECF3B
:103FA000CF9378DFC82F811511F0E1DFC82F809102
:103FB0007903811551F01092790380917C038093ED
:103FC0007D0380917A0380937B03C6D063DF8115E4
:103FD00011F0CDDFC82B8C2FCF9108958FE891E0A1
:103FE0000197F1F700C00000089590E06115D1F04D
:103FF0008B599E4FFC0180818F3F99F0E82FE2950D
:10400000EF70F0E041A18F7021E001C0220F8A958E
:10401000EAF7922F9095942391A392A1822F892B56
:1040200082A308958A599E4FE5CF90E06115A9F0CB
:104030008B599E4FFC0120812F3F91F0E22FE2959A
:10404000EF70E05EF0E0808190E02F7002C0959507
:1040500087952A95E2F7817008958A599E4FEACF95
:1040600080E008950895CF93DF93C0E080918303AB
:10407000C81750F0B3DFC0E080918303C81760F029
:10408000F1DFDF91CF91089560E08C2FAEDF61E02A
:104090008C2FABDFCF5FEACF60E08C2FC6DFD82F4D
:1040A00061E08C2FC2DFEC2FF0E0EA57FC4F880F65
:1040B0008D2B8083CF5FE0CF8091110191E0892724
:1040C0008093820380911101909383038091110169
:1040D00080911101811106C087EF8093660186EF00
:1040E00080936501C0CF1F93CF93DF93440F642B60
:1040F000C82FD0E0DE01AA57BC4FEC919E2F9370E1
:10410000691731F1EE0FEE0FE62BEC9390918203DD
:10411000890F182FEF70F0E0E15CFD4FCC57DC4FBA
:1041200080819881890F888384301CF060E0812F22
:1041300005DF88818D3F1CF461E0812FFFDE8881DF
:10414000982F990F990B64E070E00E94A12E88834C
:10415000DF91CF911F910895CF93DF93C0E08091BD
:104160008303C81718F0DF91CF91089561E08C2F79
:104170005CDFD82F60E08C2F58DF4D2F682F8C2FFD
:10418000B2DFCF5FECCF569A0895FC01EE0FFF1F10
:10419000E80FF91FEB52FC4F61834083228308959F
:1041A000FF920F931F93CF93DF93182F062FF42EB8
:1041B000C0E0D0E02F2D402F612FCE01E6DF219609
:1041C000CC30D105B9F7CDB7DEB7E5E00C94152FAB
:1041D0003BB13F7B2BB120644FB7F89485ED93E062
:1041E000FC010196508168E02BB9000000C057FF28
:1041F0003BB9550F000000C000C000C03BB900C073
:104200006A9591F753E0893F950751F74FBF8FE5C6
:1042100094E00197F1F700C0000008950895FC01B3
:10422000680F791F8FEF41E3E617F70709F4089548
:104230009191892728E030E0982F990F87FF06C0D9
:10424000892F842721503040B9F7EECF892FFACF3C
:10425000CF93DF93EB0186319C4709F50E94FB0B5E
:104260009D81911599F08A7A91E0811101C090E0C9
:1042700090938803811541F085E390D30E94860CCA
:1042800080E0DF91CF91089589E2F7CF8091880394
:10429000811519F085E388D3F1CF89E2FCCF81E065
:1042A000F0CFCF93DF93EC01FB018581811509F4F9
:1042B000CBC09E0130572332310508F0ABC080EBF4
:1042C00093E00E940C0DFE01E150F047E232F1054F
:1042D00020F4ED5EFF4C0C94D62E8091B0038160EB
:1042E0008093B00390C08091B10388608093B10344
:1042F0008AC08091B0038260F3CF8091B003846064
:10430000EFCF8091B0038860EBCF8091B1038160E3
:10431000EDCF8091B1038260E9CF8091B0038061DD
:10432000DFCF8091B0038062DBCF8091B0038064E7
:10433000D7CF0E94D8078091B0038068D1CF8091F9
:10434000B0038C60CDCF8091B1038360CFCF8091DB
:10435000B0038E7FC5CF8091B103877FC7CF809197
:10436000B0038D7FBDCF8091B0038B7FB9CF80919B
:10437000B003877FB5CF8091B1038E7FB7CF809197
:10438000B1038D7FB3CF8091B0038F7EA9CF809191
:10439000B0038F7DA5CF8091B0038F7BA1CF0E940A
:1043A000D8078091B0038F779BCF8091B003837F34
:1043B00097CF8091B1038C7F99CF9091B003892FD3
:1043C0008B7F92FF8460877F92FF886089CF809186
:1043D000B103982F909590FB80F990FB81F986CFDF
:1043E0009091B003892F8F7B96FF806479CF0E94D4
:1043F000D8079091B003892F97FB87F9805870CF29
:1044000081E00E94180D80EB93E00E940E0D0E9447
:10441000D80780E0DF91CF91089580E0F2CF9091AE
:10442000B003892F8F7E94FF80615ACF9091B003A3
:10443000892F8E7F90FF816053CF9091B103892F98
:10444000877F93FF886052CF81E0E4CFDC01ED915C
:10445000FD918191FE93EE930895DC01ED91FD9124
:1044600084913196FE93EE930895A0E0B0E0EBE3E3
:10447000F2E20C94F52EE82FF0E0E255FB4F949118
:10448000B92E282F26952695269530E0F901E25B76
:10449000FA4FE4908770F12C082E02C0F594E7944F
:1044A0000A94E2F7F901E25CFA4FC490D12C082E8D
:1044B00002C0D594C7940A94E2F7225D3A4FF901FD
:1044C000049110E002C0159507958A95E2F7C62F72
:1044D000D0E0E0FC25C0C0FE06C086EE0E9441058B
:1044E000CE01009759F5BE018B2D0E94A305CE0188
:1044F000009761F5C0FC32C0E0FE06C081EE0E946C
:104500007C05CE010097C1F500FF05C08CE20E943A
:10451000B9052097C9F5CDB7DEB7E9E00C94112FA6
:1045200081EE0E944105CE010097A9F2EFE9FFE07C
:104530003197F1F700C000000197F6CFEFE9FFE0F7
:104540003197F1F700C000000197CBCFEFE9FFE012
:104550003197F1F700C000000197CACF86EE0E94A4
:104560007C05CE01009741F2EFE9FFE03197F1F7CA
:1045700000C000000197F6CFEFE9FFE03197F1F7B7
:1045800000C000000197BECF8FE99FE00197F1F7CF
:1045900000C000002197BDCFA0E0B0E0E2EDF2E264
:1045A0000C94F52E8C017B01B42EC701F8010995FE
:1045B0008130A0F009F058C0C701F8010995C82F53
:1045C000813089F4C701F80109950E94B9058B2D46
:1045D00090E0009709F040C0C111E7CFCDB7DEB73A
:1045E000E9E00C94112F823031F4C701F8010995EC
:1045F0000E944105ECCF833031F4C701F8010995E1
:104600000E947C05E4CF843011F7C701F8010995B9
:10461000C82FC12CD12CDAE08C2F8053990B8A3013
:10462000910568F0C114D10491F2EFE9FFE03197F0
:10463000F1F700C0000081E0C81AD108F3CFDC9D7B
:104640009001DD9D300D1124820F931F6C01C70175
:10465000F8010995C82FE0CFEFE9FFE03197F1F7B6
:1046600000C000000197B5CF6B2DFFDE9ECFA2E00A
:10467000B0E0EDE3F3E20C94FC2E462F89839A839D
:10468000BE016F5F7F4F86E292E286DF2296E2E014
:104690000C94182F60E0EBCFA2E0B0E0E2E5F3E28B
:1046A0000C94FC2E462F89839A83BE016F5F7F4F47
:1046B0008DE292E271DF2296E2E00C94182F0F93C4
:1046C0001F93CF93DF93C42FD22FFC0185818115D7
:1046D000C9F040938B039ED28093890390938A0301
:1046E0008C2F805E883048F481E0C1FD84E0C0FDFD
:1046F000880FC2FD82950E94C005DF91CF911F9166
:104700000F91089510918B03141333C08091890386
:1047100090918A03FED1883C910558F5CD2FC05E5B
:104720001D17C1F0812F805E883048F481E011FDB3
:1047300084E010FD880F12FD82950E94C505C830E7
:1047400048F481E0D1FD84E0D0FD880FD2FD829550
:104750000E94C005802F0E94B90581E0D1FD84E050
:10476000D0FD880FD2FD8295C83038F60E94C5056D
:10477000C4CF8C2F805E883008F0BFCF81E0C1FDB0
:1047800084E0C0FD880FC2FD8295F0CF0F93FC013D
:10479000CB01E851FC47E730F10588F5EB5CFF4CB5
:1047A0000C94D62E06E221EE41EE6AE17CE787DF2B
:1047B00080E00F91089507E225EE45EE6BE17CE77E
:1047C000F6CF06E221EE40EE68E17CE7F0CF07E2AB
:1047D00025EE44EE69E17CE7EACF06E221EE42EE07
:1047E0006CE17CE7E4CF07E225EE46EE6DE17CE785
:1047F000DECF08E221E045EE6EE17CE7D8CFFB0199
:104800008581811110928B0381E0D3CF8093910336
:10481000909392030895089508950E947B13811147
:1048200003C080918C030895E0919103F09192036D
:10483000309739F00190F081E02D309711F0099513
:10484000089580E00895E0919103F09192033097EC
:1048500031F00280F381E02D309709F00995089539
:10486000A3E0B0E0E6E3F4E20C94FC2E20918F0389
:104870003091900328173907B1F080938F039093FC
:104880009003E0919103F0919203309761F00084DE
:10489000F185E02D309739F023E029838A839B83CB
:1048A000CE01019609952396E2E00C94182FA3E01F
:1048B000B0E0EDE5F4E20C94FC2E20918D033091F4
:1048C0008E0328173907B1F080938D0390938E03E0
:1048D000E0919103F0919203309761F00084F185AB
:1048E000E02D309739F024E029838A839B83CE0121
:1048F000019609952396E2E00C94182F409104014B
:10490000509105019A012E5F3F4F485F5F4F80E055
:10491000F90190812F5F3F4F91118F5F421753072D
:10492000B9F70895811591F02091040130910501A6
:10493000F9013296285F3F4F9081981731F03196F8
:10494000E217F307C9F780E0089581E008959C011C
:10495000FC01329680E09FEF4081461759F0319676
:104960009F3F19F4411101C0982F8F5F8630A1F746
:104970009F3F09F40895290F311D97FD3A95F901DC
:1049800062830895FC01329608962191261302C095
:10499000DF011E92E817F907C1F70895682F80918B
:1049A000040190910501D3CF682F8091040190916B
:1049B0000501E8CFE0910401F0910501329686E00F
:1049C00011928A95E9F708950895FECF08958F5FB3
:1049D00080936A016091670170916801809169011B
:1049E00090916A01F2CF83E080936A016091670140
:1049F000709168018091690190916A01E6CFE7CFDB
:104A0000089581E080936A01609167017091680167
:104A10008091690190916A01D8CFF3CF089591E018
:104A2000811101C090E090936901609167017091DC
:104A300068018091690190916A01C7CF80916901F5
:104A40000895809368016091670170916801809179
:104A5000690190916A01B9CF8091680108958093AE
:104A6000670160916701709168018091690190917F
:104A70006A01ABCF80916701089508950895FECF34
:104A8000089508950895F9CF08950F931F93CF9334
:104A9000DF93F7DF0E949F12F5DF03E913E0C0E028
:104AA000D0E08C2F0E946111F80181938F0191E079
:104AB000811101C090E0D92BCF5FCA3091F78D2FC3
:104AC000DF91CF911F910F910895E82FF0E0ED56FF
:104AD000FC4F808190E021E030E002C0220F331FC4
:104AE0006A95E2F72823392381E0232B09F480E03B
:104AF000089541110DC0E82FF0E0ED56FC4F21E084
:104B000001C0220F6A95EAF720958081282320832F
:104B10000895CF93DF93EC017DD08C1B9D0BDF912B
:104B2000CF910895EF92FF920F931F937B018C0119
:104B30007DD09701A801621B730B840B950B1F910D
:104B40000F91FF90EF90089585B7806885BF85B776
:104B5000806885BF08951F921FB61F9211248F93FE
:104B60009F93AF93BF9380919D03811113C0809158
:104B7000F9039091FA03A091FB03B091FC034196D5
:104B8000A11DB11D8093F9039093FA03A093FB0339
:104B9000B093FC03BF91AF919F918F911F901FBE67
:104BA0001F90189580910104843031F10E94CD044A
:104BB00010929D0388E190E020E40FB6F894A89548
:104BC000809360000FBE2093600083B7817F846074
:104BD00083BF83B7816083BF7894889583B78E7FC6
:104BE00083BF0FB6F894A895809160008861809388
:104BF0006000109260000FBE08950E94D8070C94C8
:104C0000D40482E084BD93E095BD9AEF97BD809374
:104C10006E0008952FB7F8948091F9039091FA03EC
:104C2000A091FB03B091FC032FBF08952FB7F89418
:104C30006091F9037091FA038091FB039091FC035A
:104C40002FBF089578941F921FB61F9211248F933F
:104C50009F93AF93BF938091F9039091FA03A09132
:104C6000FB03B091FC030196A11DB11D8093F903D4
:104C70009093FA03A093FB03B093FC03BF91AF9111
:104C80009F918F911F901FBE1F90189581E0809378
:104C9000E00080E28093D8001092C9008FE19EE48A
:104CA0000197F1F700C00000A7E0B0EBCD018093C1
:104CB0000A0490930B04A0930C04B0930D0488E1B4
:104CC0009CE00FB6F894A895809360000FBE909377
:104CD0006000FFCF88E19CE00FB6F894A895809320
:104CE00060000FBE90936000FFCF8EE1489B02C032
:104CF0008150E1F7489BFECF0895589880E28A954D
:104D0000F1F7589A0895FC018BE08A95F1F798E045
:104D100020E080E031E040E14A95F1F7880F489BC0
:104D200002C08160232742E04A95F1F7000040E18C
:104D30004A95F1F7915079F790E19A95F1F799B189
:104D400032E03A95F1F7000030E13A95F1F79170D1
:104D500092272081920F90830895A1E0B0E0E3EBC9
:104D6000F6E20C94F82E19828C017C01E60EF11CFF
:104D7000BCDFCE010196C7DFF80181938F01EE15EC
:104D8000FF05B1F781E09981911180E02196E6E07D
:104D90000C94142F509A589A08955098589AE89A5B
:104DA000E9E6F0E080818C7F808308956150770B85
:104DB00091E001C0990F6A95EAF7692F90E021E030
:104DC000611108C0911591F0589A80E28A95F1F727
:104DD00058980895362F382339F0589A922730E2A0
:104DE0003A95F1F76695ECCF5898F9CF5898EDCFF2
:104DF000FF920F931F93CF93DF93EC018C01060F6B
:104E0000111D8991F82E79DF68E08F2DCFDFC01753
:104E1000D107B9F7CDB7DEB7E5E00C94152F1F9297
:104E20000F920FB60F9211240F931F932F933F935E
:104E30004F935F936F937F938F939F93AF93BF93A2
:104E4000EF93FF93CF93DF930F92CDB7DEB7198225
:104E50004CDFCE01019657DF082F06950695069583
:104E6000282F22952570902F9570920F292F23704F
:104E700096959695920F982797708981892B09F0BE
:104E800055C0093008F052C080E18A95F1F7589A70
:104E9000509A82E08A95F1F700C0589888E0089F00
:104EA00080011124D801AE5EBE4F1696ED91FD91A2
:104EB0001897309791F060910A0270910B02149646
:104EC0002D913D91260F371F15978D919D91680F5C
:104ED000791F4C9113978C910995F801EE5EFE4F66
:104EE0006381611549F020910A0230910B0284819F
:104EF0009581820F931F7CDF00DF80E18A95F1F7B7
:104F000058985098589A80E18A95F1F7F801EE5E2A
:104F1000FE4F6081611549F020910A0230910B0229
:104F200081819281820F931F18DFDFDE0F90DF9166
:104F3000CF91FF91EF91BF91AF919F918F917F9111
:104F40006F915F914F913F912F911F910F910F9012
:104F50000FBE0F901F9018950F931F93CF93DF9361
:104F6000EC0109970CF05EC0F894509A589885E0CF
:104F70008A95F1F700009C2F969595708C2F85707F
:104F8000980F892F837096959695292F93E0CC0FD3
:104F9000DD1F9A95E1F7280F822F8C2B082FADDEAD
:104FA00000C068E0802F02DF80E18A95F1F7509819
:104FB000589A489B30C087E090E048992EC0FE0187
:104FC000EE5EFE4F6381611559F020910A02309127
:104FD0000B0284819581820F931FBFDE8115F9F04A
:104FE00084DE80E28A95F1F75898509A80E18A959C
:104FF000F1F7CE5EDE4F6881611549F020910A021B
:1050000030910B0289819A81820F931FF1DE75DE48
:10501000789481E008C000C0CCCF019749F4509A41
:10502000589A789480E0DF91CF911F910F91089565
:1050300000C0C3CF089508959B01BA019091010467
:105040009430D9F48F708093E9009FEF8091E8004D
:1050500085FD06C085ED8A95F1F700009150B1F706
:105060008091E80085FF09C040E050E0C901ACD163
:105070008091E8008E778093E800089543E050E047
:10508000BC0182E0D9CFCF93DF93EC01D7DC48E0BD
:1050900050E0BE0181E0D0DF88E0FE01AEE9B3E080
:1050A00001900D928A95E1F7DF91CF91089580915B
:1050B0000004811107C016D366D38091E20084609A
:1050C0008093E20008951092000408959ADC81E034
:1050D000A6CC6091FD0381E0611101C080E083CC2A
:1050E0009091010481E0943009F080E06091FD032B
:1050F00086CC42E061EC81E071D242E261EC82E078
:105100006DD29091010481E0943009F080E06091CB
:10511000FD035DCC80910304893081F148F4823035
:1051200009F496C0833009F457C0813041F00895E6
:105130008A3009F480C08B3009F468C008958091EA
:105140000204813A09F047C08091E800877F80938C
:10515000E8008091060490910704892B59F060E0E3
:1051600080E090E070E07DD18091E8008B778093C3
:10517000E800089568E08EE993E0F4CF809102049E
:10518000813249F58091060490910704029718F541
:105190008091E800877F8093E8008091E80082FF9B
:1051A00016C02091F3008091F200922F029731F403
:1051B0008091F100813011F0863019F48091F10076
:1051C00040DC8091E8008B778093E8003BC28091BF
:1051D00001048111E2CF089580910204813AD9F748
:1051E0008091060490910704892BA9F78091E8002B
:1051F000877F8093E8008091E80080FFFCCF1EDC71
:105200008093F1008091E8008E77DECF80910204D8
:10521000813209F78091060490910704892BD9F611
:105220008091E800877F8093E8000CD2809104048D
:10523000F6DB0C94D80780910204813261F68091EC
:10524000E800877F8093E800FDD18091050407CCBA
:1052500080910204813A09F0BECF8091E800877FF7
:105260008093E8008091E80080FFFCCF03DCC8CF8A
:1052700084B7877F84BF0FB6F894A89580916000AB
:10528000886180936000109260000FBE80E890E01B
:105290000FB6F89480936100909361000FBEBDCB70
:1052A00021D271D2E2EEF0E0808184608083789434
:1052B000CDC48BE691E0AACA80910104853029F41F
:1052C00080910104853011F098CC08956BDCDDDB12
:1052D0008115B1F38091FF03811591F35FD00E9496
:1052E000D807EECF08959A0140910804509109041F
:1052F00000C0492F50E043305105C9F070F44130EF
:105300005105E9F14230510571F48BE390E04EE82C
:1053100055E0F90140835183089541325105E9F088
:105320004232510519F180E090E040E0F2CF482F81
:1053300050E0813061F04230510561F0EAE8F5E07B
:105340004115510581F7849190E0AF01E2CFEAE782
:10535000F5E0F9CFEEE5F5E0F6CF61307105A0F0AC
:1053600011F789E090E049EB55E0D3CF613071054A
:1053700080F0C9F682E390E04BED55E0CACF82E1C0
:1053800090E049EC55E0C5CF89E090E040EA55E077
:10539000C0CF84E490E04DE056E0BBCF80E189BD12
:1053A00082E189BD09B400FEFDCF8091D8008F7DD8
:1053B0008093D8008091E00082608093E00080912B
:1053C000E00081FDFCCF0895AF92BF92CF92DF92B3
:1053D000FF920F931F93CF93DF936C01EB018A0130
:1053E00050D1F82E811123C00115110539F0F801B3
:1053F00080819181C81BD90BC80ED91EA12CB12C5C
:105400002097A9F08091E80085FD21C08091E800F7
:105410008E778093E80001151105A1F0F8018081D5
:1054200091818A0D9B1D8083918385E0F82E8F2DBD
:10543000DF91CF911F910F91FF90DF90CF90BF90A0
:10544000AF9008951ED18115E9F2F82EF0CFF60144
:1054500081916F018093F10021978FEFA81AB80A0C
:10546000CFCFFC012091080430910904261737079B
:1054700020F06115710569F09B0190E0211531055F
:1054800071F491110CC08091E80082FF38C080E077
:1054900008959091E8009E779093E800EDCF809179
:1054A00001048115C1F18530C1F18091E80083FDCF
:1054B00030C08091E80082FDE6CF8091E80080FF57
:1054C000DDCF8091F3004091F200582F2115310576
:1054D00019F04830510558F091E04830510509F075
:1054E00090E04091E8004E774093E800C7CF81916B
:1054F0008093F100215031094F5F5F4FE7CF8091DA
:105500000104811541F0853041F08091E80083FF6E
:10551000BACF81E0089582E0089583E00895FC0108
:1055200020910804309109042617370720F06115EF
:10553000710569F09B0190E02115310571F491111D
:105540000CC08091E80082FF39C080E0089580910E
:10555000E8008E778093E800EDCF809101048115FB
:10556000C9F18530C9F18091E80083FD31C0809197
:10557000E80082FDE6CF8091E80080FFDDCF8091DA
:10558000F3004091F200582F2115310519F04830F1
:10559000510558F091E04830510509F090E08091B4
:1055A000E8008E778093E800C7CF84918093F10064
:1055B0003196215031094F5F5F4FE6CF8091010452
:1055C000811541F0853041F08091E80083FFB9CF2B
:1055D00081E0089582E0089583E00895982F973040
:1055E00028F08F708093E90081E008959093E9009E
:1055F000242F762F50E0981731F07091EC00209115
:10560000ED005091F00021FD02C09F5FE8CF309186
:10561000EB003E7F3093EB003091ED003D7F309307
:10562000ED003091EB0031603093EB007093EC00B3
:105630002093ED005093F0002091EE0027FDE5CF80
:1056400080E008958091020487FF13C08091E800F4
:1056500082FF06C08091E8008B778093E800089570
:10566000809101048111F2CF089580910104811588
:10567000D9F38091E80080FFF8CF8091E8008E7721
:10568000ECCF2091E4003091E50095E6A90120914E
:10569000EC00822F817020FF06C08091E80080FF1F
:1056A00006C080E008952091E80022FD1AC0809194
:1056B0000104811589F0853089F08091EB0085FD2A
:1056C0000FC02091E4003091E50042175307F9F232
:1056D0009150E1F684E0089582E0089583E0089512
:1056E00081E008955FD066D0E0EEF0E080818160D7
:1056F0008083E8ED80818F77808319BCA7EDB0E0CF
:105700008C918E7F8C9380818F7E80831092000499
:105710000895CF93DF9346D04DD0C8EDD0E0888177
:105720008F77888388818068888388818F7D88834C
:1057300019BC109201041092FD031092FF03109205
:10574000FE03E0EEF0E080818B7F808388818160C2
:10575000888342E060E080E041DFE1EEF0E08081BC
:105760008E7F8083E2EE808181608083808188608B
:105770008083E0EE80818E7F808388818061888352
:10578000DF91CF910895E8EDF0E080818F7E8083F6
:10579000E7ED80818160808384E082BF81E0809337
:1057A0000004B7CFE8EDF0E080818E7F8083109217
:1057B000E20008951092DA001092E10008951F921D
:1057C0000F920FB60F9211242F933F934F935F9335
:1057D0006F937F938F939F93AF93BF93EF93FF93B9
:1057E0008091E10082FF0AC08091E20082FF06C042
:1057F0008091E1008B7F8093E10027D28091DA00D5
:1058000080FF18C08091D80080FF14C08091DA001A
:105810008E7F8093DA008091D90080FF8FC080E175
:1058200089BD82E189BD09B400FEFDCF81E080938E
:1058300001043DDC8091E10080FF18C08091E2000E
:1058400080FF14C08091E2008E7F8093E2008091FF
:10585000E20080618093E2008091D80080628093B2
:10586000D80019BC85E08093010433DC8091E1000D
:1058700084FF28C08091E20084FF24C080E189BDBC
:1058800082E189BD09B400FEFDCF8091D8008F7DF3
:105890008093D8008091E1008F7E8093E100809119
:1058A000E2008F7E8093E2008091E200816080932D
:1058B000E2008091FD03811509F445C084E08093E6
:1058C00001040EDC8091E10083FF27C08091E2009B
:1058D00083FF23C08091E100877F8093E10082E015
:1058E000809301041092FD038091E1008E7F8093EC
:1058F000E1008091E2008E7F8093E2008091E200DF
:1059000080618093E20042E060E080E067DE8091A9
:10591000F00088608093F000D9DBFF91EF91BF9198
:10592000AF919F918F917F916F915F914F913F9137
:105930002F910F900FBE0F901F90189519BC1092C9
:105940000104C1DB77CF8091E30087FF02C083E0D1
:10595000B6CF81E0B4CF1F920F920FB60F921124F1
:105960001F932F933F934F935F936F937F938F93E7
:105970009F93AF93BF93CF93DF93EF93FF93E9EEA2
:10598000F0E080811091EC008F7010FB112717F967
:10599000182B1082C0EFD0E08881877F88837894AD
:1059A0001CD0E9EEF0E010828881886088831F7047
:1059B0001083FF91EF91DF91CF91BF91AF919F91B4
:1059C0008F917F916F915F914F913F912F911F9197
:1059D0000F900FBE0F901F901895AAE2B0E0E2EF73
:1059E000FCE209C282E094E0FC0101962091F10002
:1059F000208324E08A309207B9F78CDB8091E8009D
:105A000083FF37C080910204909103049A3088F597
:105A1000E92FF0E0E45CFF4CC9C1803889F082389E
:105A200041F5809106048F70873018F58093E90066
:105A30008091EB0085FB882780F91092E90006C071
:105A40008091FF03880F9091FE03892B9091E800CD
:105A5000977F9093E8008093F1001092F10080917D
:105A6000E8008E7722C0811115C080910404813036
:105A700001F18091E80083FF0AC08091E800877FF0
:105A80008093E8008091EB0080628093EB00AA96FF
:105A9000E3E0CDC1823069F780910404811579F08B
:105AA0001092E9008091E800877F8093E800CADDCA
:105AB000E0CF933009F080E08093FF03F1CF809135
:105AC00006048F70282F2150263098F68093E90025
:105AD0002091EB0020FFE4CF933031F48091EB0074
