:100000000C94FC020C94AF270C9443030C94430310
:100010000C9443030C9443030C9443030C94430348
:100020000C9443030C9443030C94342F0C9406302B
:100030000C946F2A0C9443030C9443030C944303D5
:100040000C9443030C9443030C9443030C94430318
:100050000C9443030C94E42A0C9443030C94430340
:100060000C9443030C9443030C9443030C944303F8
:100070000C9443030C9443030C9443030C944303E8
:100080000C9443030C9443030C9443030C944303D8
:100090000C9443030C9443030C9443030C944303C8
:1000A0000C9443030C9443030C944303740385039F
:1000B00088038B038E0391039303960399039C0398
:1000C000690669069B069B06E206160816081608CE
:1000D00000079507A607A6070608160816080F08C2
:1000E000B208B208C408C408BB08C408C408C408DD
:1000F000B208B208C008C408C408C00873309A30F7
:1001000092319A309231E6300931923160316F315B
:1001100029001E001F0020002100220035001400CD
:100120001A00080015001700E00004641668074272
:1001300009610A62E1001D001B00060019000500AC
:1001400000000000E3000351280028002A002700D7
:1001500026002500240023002D00130012000C00AF
:1001600018001C00340033640F680E000D610B6230
:100170002E0038003700360010001100000000008B
:100180002B0001512C0001000100010001000100C1
:100190000100010035021E021F022002210222027C
:1001A00001002F0030002F02300201000100010089
:1001B00001002602270201000000000001002A00C1
:1001C0000100010001000100010001000100010027
:1001D00031022702260225022402230231003802BE
:1001E0004F005200510050000100010001000100C9
:1001F00001000100000000000100010001000100F9
:1002000001000100010001000100010001000100E6
:1002100001000100010001000100010001000100D6
:1002200001000100010001000100010001000100C6
:1002300000000000010001000100010001000100B8
:100240000100010001000100010001000830073039
:100250000630010005300430033002300130010067
:100260000100010001000100010009300000000050
:100270000100010001000100005C0100010001001B
:10028000010001000100CE5CCF5C01000100010013
:10029000C35CC45CC65CCC5CCA5C01000100C55C8C
:1002A000C75CCD5CCB5C01000000000001000100D8
:1002B0000100010001000100010001000100010036
:1002C0007F000100260025002400010080000100BD
:1002D00023002200210001008100010020001F00F6
:1002E0001E00010000000000010027002B0001009B
:1002F0001E0F0500047F3F1F643214643214783CE3
:100300001E1E140A052223252628292A2C2D2F30CB
:1003100032333536383A3B3D3E4042434547494A01
:100320004C4E5051535557595A5C5E606264666832
:10033000696B6D6F71737577797B7D7F818385873D
:10034000898A8C8E90929496989A9C9E9FA1A3A540
:10035000A7A8AAACAEAFB1B3B4B6B8B9BBBCBEBF68
:10036000C1C2C3C5C6C7C9CACBCCCDCED0D1D2D2EB
:10037000D3D4D5D6D7D7D8D9D9DADADBDBDBDCDCF6
:10038000DCDCDCDDDDDDDDDCDCDCDCDCDBDBDBDAAE
:10039000DAD9D9D8D7D7D6D5D4D3D2D2D1D0CECD19
:1003A000CCCBCAC9C7C6C5C3C2C1BFBEBCBBB9B826
:1003B000B6B4B3B1AFAEACAAA8A7A5A3A19F9E9CAB
:1003C0009A98969492908E8C8A89878583817F7D76
:1003D0007B79777573716F6D6B6968666462605E57
:1003E0005C5A5957555351504E4C4A494745434220
:1003F000403E3D3B3A3836353332302F2D2C2A29BA
:100400002826252322FFAA7F554000010101010172
:1004100001010101020202020202020202030303BD
:10042000030303030304040404040404050505058D
:10043000050606060606070707070708080808094D
:100440000909090A0A0A0B0B0B0C0C0C0D0D0D0EF9
:100450000E0E0F0F0F10101111111212131314148E
:10046000151516161717181819191A1A1B1B1C1D03
:100470001D1E1E1F2020212222232424252626275C
:100480002829292A2B2C2D2D2E2F3031323233348E
:1004900035363738393A3B3C3D3E3F404142434494
:1004A00045464748494A4C4D4E4F50515354555676
:1004B00058595A5B5D5E5F616264656668696B6C22
:1004C0006D6F7072737577787A7B7D7E808283859D
:1004D00087888A8C8E8F91939596989A9C9EA0A2DD
:1004E000A3A5A7A9ABADAFB1B3B5B7BABCBEC0C2E7
:1004F000C4C6C9CBCDCFD1D4D6D8DBDDDFE2E4E7AB
:10050000E9EBEEF0F3F5F8FAFDFF1803490072008D
:100510006900730020005200650076002E00200064
:10052000350000000E034B006500650062006900A5
:100530006F0000000403090409023B00020100A04F
:10054000FA09040000010301010009211101000161
:100550002240000705810308000A09040100010385
:100560000000000921110100012232000705820369
:1005700020000A120100020000000810CB565200B1
:10058000050102000105010980A101850319012A65
:10059000B700150126B700950175108100C0050C44
:1005A0000901A101850419012AA002150126A00252
:1005B000950175108100C005010906A10105071903
:1005C000E029E7150025019508750181029501755F
:1005D0000881010507190029FF150026FF0095066F
:1005E0007508810005081901290595057501910215
:1005F000950175039101C00011241FBECFEFDAE011
:10060000DEBFCDBF04B603FE27C08091BB0390912F
:10061000BC03A091BD03B091BE038730904BA740AF
:10062000B04BD1F41092BB031092BC031092BD03E7
:100630001092BE0314BE84B7877F84BF0FB6F894B0
:10064000A89580916000886180936000109260009E
:100650000FBEE0E0F8E3099512E0A0E0B1E0E8E1C8
:10066000F9E602C005900D92A832B107D9F723E050
:10067000A8E2B2E001C01D92AB3BB207E1F70E94D5
:10068000F2180C948A340C940000CF93DF93FC0191
:1006900082818823E1F0C42FD62F80EE0E948E0540
:1006A0008CE20E948E058CE20E94DC0580EE0E94A6
:1006B000DC058C2F0E948E058D2F0E948E058D2FBC
:1006C0000E94DC058C2FDF91CF910C94DC05DF912B
:1006D000CF910895462F50E04A30510588F5FA0130
:1006E000EA5AFF4F0C944C32FC018281882341F17D
:1006F00080EE0E948E058CE20E948E058CE20E94A4
:10070000DC0580EE0E94DC051BC040E06EE116C0F7
:1007100040E06FE113C040E060E210C040E061E201
:100720000DC040E007C040E06FE208C041EE64E366
:1007300005C041EE62E202C040E066E00E9445036F
:1007400080E090E008950C94F20F0E94811F81E0F8
:100750000C947E1FCF93FB018130910571F030F036
:100760008230910569F00397F9F029C0C281CC234A
:1007700039F180E00E9433041DC0C28181E002C0D3
:10078000C28182E0CC2341F00E94610943E062E033
:1007900081E00E94A1040EC00E94820943E062E051
:1007A00081E00E94A1040CC0C28183E0CC2321F02F
:1007B0000E946109C0E004C00E94820901C0C1E03A
:1007C0008C2FCF91089581E008950C94AA03089589
:1007D0000C94E7031F93CF93DF9300D000D01F92B8
:1007E000CDB7DEB749835A836B8330912A02898162
:1007F0009A81311114C0662359F0222349F00E94D6
:10080000580A182F682F89819A810E94FF0903C016
:100810000E942B0A182F69817A81812F04C00E94BF
:10082000580A69817A810F900F900F900F900F9066
:10083000DF91CF911F910C94F710FC01262F40817E
:1008400051816281738184810C94EA0381E008956F
:10085000CF93DF93EC0160E00E941D04BE01DF91A5
:10086000CF910C94E803CF92DF92EF92FF92C12CCC
:10087000D12C7601C39404C0CC0CDD1CEE1CFF1CF3
:100880008A95D2F78C2D0E94580FC701B601FF90B0
:10089000EF90DF90CF900C9401098F929F92AF92CE
:1008A000BF92CF92DF92EF92FF920F931F936B0153
:1008B0007C0181E090E0A0E0B0E04C015D0104C06B
:1008C000880C991CAA1CBB1C4A95D2F7AC01BD012F
:1008D00004C0440F551F661F771F2A95D2F7482979
:1008E00059296A297B2904C0880F991FAA1FBB1F99
:1008F0000A95D2F78A019B010C211D212E213F214F
:10090000401751076207730739F4BC01CD016C2908
:100910007D298E299F290AC080959095A095B09534
:10092000BC01CD016C217D218E219F211F910F9152
:10093000FF90EF90DF90CF90BF90AF909F908F90FF
:1009400008950F93382F262F60915302709154020F
:100950008091550290915602042F432F0E944D041E
:100960000F910C943B090E9406130E9434050E94CB
:100970007C230C943E130C943C1308950E94A00811
:100980000E94BD042FEF84E39CE021508040904002
:10099000E1F700C000000C940A2B0F931F93CF9334
:1009A000DF938C0161E00E941D04EC01B8010E94FC
:1009B000E503882309F44BC0B801CE010E94DD2273
:1009C000882309F444C0B801CE010E945925882328
:1009D000F1F1B801CE010E94AB258823C1F1B80125
:1009E000CE010E94DD26882391F1B801CE010E943C
:1009F0001921882361F1F8018281882309F1CB351F
:100A00008DE5D807C1F050F4C115FCE5DF0781F092
:100A1000CF3DDC45A9F40E94F20F19C0CC35EDE5BD
:100A2000DE0761F0CD35DD4559F40E94770E08C030
:100A30000E94BE040CC00E94800E02C00E94830E61
:100A4000C801DF91CF911F910F910C94E30380E0D7
:100A5000DF91CF911F910F91089508950C942D056A
:100A600081E008950C9430050895CF93C82F0E941B
:100A70002E058C2F0E943205CF910895CF93DF93DE
:100A8000CDB7DEB72B970FB6F894DEBF0FBECDBF44
:100A90004F83588769877A878B8761110E94A60EDA
:100AA0009E012F5F3F4F86E0F90111928A95E9F789
:100AB00085E0FE013796D90101900D928A95E1F704
:100AC00089819A814C815D81452B31F09F3F31F4C2
:100AD00091E08F3F19F403C091E001C090E090FFD6
:100AE00009C049815A816B817C818D819E810E94E0
:100AF000A60D05C0C9010E9426048111F2CF2B96D4
:100B00000FB6F894DEBF0FBECDBFDF91CF91089531
:100B1000FC01808191810E949A0A0895CF938823D5
:100B200009F448C0C82F8CEF8C0F813AD0F46C2F99
:100B300080910A0190910B010E948929882349F034
:100B40006C2F80910A0190910B010E94C1290E9493
:100B5000D80E6C2F80910A0190910B010E94BF2941
:100B60000CC080E28C0F883058F4C77081E001C05F
:100B7000880FCA95EAF70E94890ECF910C94D80E7F
:100B8000EBE5EC0FE33040F4F0E0E954FE4F8081F8
:100B900090E0CF910C945129C85AC73158F4EC2FEA
:100BA000F0E0EE0FFF1FE757FE4F80819181CF915C
:100BB0000C946729CF910895882349F1682F8CEF11
:100BC000860F813A38F480910A0190910B010E94BE
:100BD000C1290CC080E2860F883050F4677081E034
:100BE00001C0880F6A95EAF70E948F0E0C94D80E08
:100BF0008BE5860F833020F480E090E00C9451293F
:100C0000685A673120F480E090E00C9467290895D9
:100C10001F93CF93DF93182FEB010E948E0520972F
:100C200041F08FE99FE00197F1F700C000002197A4
:100C3000F6CF812FDF91CF911F910C94DC05893382
:100C400019F060E070E002C060E570E00C94080606
:100C5000882321F00E94890E0C94D80E08958823D1
:100C600021F00E948F0E0C94D80E0895CF92DF923F
:100C7000EF92FF920F931F93CF93DF937C01062F88
:100C8000C72FFC01D281158112951F700E945E0E44
:100C9000882399F0DD2389F08C2F807F803421F028
:100CA00080E2800F883048F082E00E94280F0E9486
:100CB0005E0E91E0D82ED92601C0D12CCC2EC29444
:100CC0008FE0C8228C2D90E0FC01E05AFF4F0C947D
:100CD0004C328C2F807FCF70882311F0C295C07F5B
:100CE000DD2399F0CC2309F47CC180E2800F8830A9
:100CF00010F0011104C08C2F0E94890E03C08C2FAC
:100D00000E94990E0E94D80E6CC1802F0E94DC05B3
:100D1000CC2309F48BC180E2800F883010F00111E0
:100D200004C08C2F0E948F0E03C08C2F0E949F0E38
:100D30000E94D80E7BC18C2F807FCF70803211F043
:100D4000C295C07F002319F00130C9F025C0DD2312
:100D500071F0112341F0113031F40E94B90E8C2B47
:100D60000E94C10E63C10E94B90E8C2B0EC01123CC
:100D700019F0113009F45AC10E94CE0E1FC0DD23B4
:100D800039F0163008F052C18C2F0E9428064EC14F
:100D9000153008F04BC112C0DD2319F01123A1F367
:100DA00020C1112359F0093309F02CC1FFEF27EEC0
:100DB00083E0F15020408040E1F722C18C2F0E9457
:100DC0002F0634C18C2F86958695837019F081305B
:100DD00061F02CC1DD2321F0802F9C2F937002C085
:100DE00080E090E00E94512929C1DD2321F0802F6D
:100DF0009C2F937002C080E090E00E9467291EC182
:100E00008C2F837009F045C0D11114C1402F429539
:100E100046954770440F440F602F6F70862F90E007
:100E2000A0E0B0E0042E04C0880F991FAA1FBB1FCA
:100E30000A94D2F704FF10C00FE010E020E030E089
:100E400004C0000F111F221F331F4A95D2F70095CF
:100E500010952095309503C000E010E09801C695EC
:100E6000C695C370BC01CD01602B712B822B932BD7
:100E7000C23049F058F4C13019F00E941509DAC0A7
:100E80000E940309D7C00E942709D4C00E9401090B
:100E9000D1C0DD2319F08C2F817001C08695882385
:100EA00009F4C8C0402F429546954770440F440F3F
:100EB000602F6F70862F90E0A0E0B0E0042E04C099
:100EC000880F991FAA1FBB1F0A94D2F704FF10C0F6
:100ED0000FE010E020E030E004C0000F111F221FDF
:100EE000331F4A95D2F7009510952095309503C091
:100EF00000E010E09801C695C695C370BC01CD0115
:100F0000602B712B822B932BC23049F058F4C130E7
:100F100019F00E94DA098EC00E94C8098BC00E9495
:100F2000EC0988C00E943B0985C0CF70DD2339F0F1
:100F30008C2F0E946109802F0E9428067BC0802F81
:100F40000E942F068C2F0E94820974C0023F01F17B
:100F500028F4003F41F0013FA1F03FC0033FF9F00A
:100F6000043F39F13AC0DD2341F0153008F05EC08E
:100F70008C2F8F710E94A70959C0163008F056C0F7
:100F8000F7CFDD2339F08C2F8F710E9461094EC09D
:100F9000DD23C9F38C2F8F710E94820947C0DD23A6
:100FA00029F08C2F8F710E944C0940C00E94470984
:100FB0003DC0DD2349F0CF718C2F0E94610963E0B1
:100FC0008C2F0E940D0F32C081E00E94280F12303A
:100FD00068F182E00E94280F29C0DD2331F011233F
:100FE00091F2802F0E948E0521C0112399F20933BE
:100FF00049F49FEFE7EEF3E09150E040F040E1F775
:1010000000C00000802F0E94DC0510C04C2F4F70E4
:10101000602FC7010E946A030E94C80A0FC04C2FAC
:101020004F70602FC7010E94F61008C088EF8C0D2A
:10103000843020F40E9433290E943505DD20C9F058
:101040000E945A0E80FD15C0F70112820E94540EB4
:101050000E946109C7010E945A080E94540EDF9144
:10106000CF911F910F91FF90EF90DF90CF900C9454
:101070008209DF91CF911F910F91FF90EF90DF9048
:10108000CF9008950F931F93CF93DF93EC01688166
:1010900079818A810E94A50A8C010E94FE090E9422
:1010A000EF08B801CE010E943606DF91CF911F9163
:1010B0000F910895CF93DF93EC01988189812B8163
:1010C0003C81232B31F08F3F31F481E09F3F19F4B5
:1010D00003C081E001C080E080FD19C0CE010E9404
:1010E000CD0481110CC00E945E0E882381F08A819C
:1010F000882369F082E0DF91CF910C94280FCE0114
:101100000E944208CE01DF91CF910C942804DF9118
:10111000CF91089580E090E00E94512980E090E016
:101120000E9467290E94A60E0E94B60E0C94D80E4B
:1011300080910A0190910B010E94C3290C948A08A6
:101140000E94960E0C949808E92FE295EF704E2FAE
:1011500050E0FA013297EE30F105B0F4E059FF4F5C
:101160000C944C32803F91F018F4883E68F40EC025
:10117000843F51F40BC0883E48F0813F29F406C0FB
:1011800093FB882780F9089580E0089581E0089511
:10119000FC01808191810E949A0A0E94A40808950E
:1011A000CF93DF9300D000D01F92CDB7DEB70F9062
:1011B0000F900F900F900F90DF91CF910895CF93E4
:1011C000DF9300D000D000D0CDB7DEB726960FB6A3
:1011D000F894DEBF0FBECDBFDF91CF910895089583
:1011E00008950C94F0080C94F1080E94F3086093A1
:1011F0005702709358028093590290935A020C94AC
:101200008A080C94F5080F931F93009157021091D0
:1012100058022091590230915A02602B712B822B77
:10122000932B1F910F910C94F5080F931F9300912E
:101230005702109158022091590230915A026023AE
:101240007123822393231F910F910C94F5080F9320
:101250001F9300915702109158022091590230912A
:101260005A0260277127822793271F910F910C94B0
:10127000F5080C94F0080E943909609353027093AA
:10128000540280935502909356020C948A0860E0B1
:1012900070E0CB010C943B090F931F9341E050E0A9
:1012A00060E070E08A019B0104C0000F111F221F43
:1012B000331F8A95D2F7C901B8011F910F910C9481
:1012C0003B090F931F9341E050E060E070E004C0E1
:1012D000440F551F661F771F8A95D2F780915302DE
:1012E00090915402A0915502B09156028A019B013F
:1012F000082B192B2A2B3B2BC901B8011F910F91E9
:101300000C943B090F931F9341E050E060E070E0C4
:1013100004C0440F551F661F771F8A95D2F740956A
:101320005095609570958091530290915402A091D0
:101330005502B09156028A019B01082319232A23E2
:101340003B23C901B8011F910F910C943B090F93E6
:101350001F9341E050E060E070E004C0440F551F6F
:10136000661F771F8A95D2F780915302909154029D
:10137000A0915502B09156028A019B0108271927B6
:101380002A273B27C901B8011F910F910C943B09F3
:101390000F931F9300915302109154022091550214
:1013A00030915602602B712B822B932B1F910F9142
:1013B0000C943B090F931F93009153021091540218
:1013C000209155023091560260237123822393238A
:1013D0001F910F910C943B090F931F93009153029F
:1013E00010915402209155023091560260277127C6
:1013F000822793271F910F910C943B090895292F61
:10140000220F920F990F890FE82FE695E695E69542
:10141000877051E001C0550F8A95EAF785E0E89F93
:10142000F0011124E55DFD4F20E030E070E04081E7
:10143000CB01022E02C0969587950A94E2F781703F
:10144000819584278523842781932F5F3F4F253003
:10145000310569F70895292F220F920F990F890FEF
:10146000682F669566956695982F977085E0689FBA
:10147000B001112440E050E080E0FB01E40FF51FD3
:10148000E55DFD4F208130E0092E02C0369527959D
:101490000A94E2F721703327042E01C0220F0A9428
:1014A000EAF7822B4F5F5F4F4530510531F70895C2
:1014B000BF92CF92DF92EF92FF920F931F93CF9341
:1014C000DF938C01C0905302D0905402E0905502FB
:1014D000F09056028091570290915802A0915902C3
:1014E000B0915A02C82AD92AEA2AFB2ACFE1D0E0D1
:1014F000D701C6010C2E04C0B695A7959795879580
:101500000A94D2F780FD04C0219790F7B12C07C050
:10151000BC2EB8018C2F0E9427120197A9F38B2DA6
:10152000DF91CF911F910F91FF90EF90DF90CF90BF
:10153000BF900895CF93DF93EC010E94580ABE013B
:101540000E942712DF91CF9108951F93CF93DF93CD
:10155000EB0190912A02992321F0CB010E949A0A73
:1015600013C0882349F0CB010E94580A182F682F16
:10157000CE010E94FF0904C0CB010E942B0A182F44
:10158000BE01812F0E942712DF91CF911F910895F4
:10159000EF92FF920F931F93CF93DF938C01892BD0
:1015A00009F46CC0F12CEE24E394E8012196F801D3
:1015B0008491843740F4843008F051C0813081F048
:1015C000823019F15BC0853709F444C0A8F19CE76B
:1015D000980F903708F052C08F770E94DC0541C009
:1015E0000E5F1F4FFE01849190E2980F983050F4E7
:1015F0008770FE2D01C0FF0F8A95EAF78F2F0E949A
:10160000A90E14C00E948E052DC00E5F1F4FFE0153
:10161000849190E2980F983060F48770FE2D01C09D
:10162000FF0F8A95EAF78F2F0E94AF0E0E94D80E07
:1016300019C00E94DC0516C00E5F1F4FFE01C49149
:10164000CC2381F08FE99FE00197F1F700C0000003
:10165000C150F6CF0E5F1F4FFE01F49003C00E94F1
:101660008E058E018F2D882309F49FCFEFE9FFE0CF
:101670003197F1F700C000008150F5CFDF91CF9195
:101680001F910F91FF90EF9008951F93CF93DF93D9
:10169000C0915B0216E080915C02C81799F0D0E01F
:1016A0001C9FF0011D9FF00D1124E35AFD4F408156
:1016B000518162817381848195810E94DF08219626
:1016C000C770E9CFDF91CF911F91089540918D02AE
:1016D00050918E0260918F027091900280919102E0
:1016E000909192020C94DF080F931F93CF93DF9396
:1016F0008091920282958F7009F05DC080918F0277
:10170000882309F458C080915B0210915C026091BB
:101710008D0270918E02C0919002D091910291E061
:101720006F3F09F090E0292F06E0811709F443C0CC
:10173000209721F07F3F21F030E003C031E001C06D
:10174000322F90E030FD34C0089FF001099FF00D6A
:101750001124DF01A35ABD4F11963C911197371305
:1017600027C03C91361324C012963C911297311138
:101770001FC013964D915C9114974C1B5D0B483C18
:101780005105B0F4809192028F7080618093920233
:10179000EE59FD4F80818F70806180838DE892E0EB
:1017A0000E945A08DF91CF911F910F910C94450B25
:1017B00001968770BACFDF91CF911F910F91089555
:1017C0009F92AF92BF92CF92DF92EF92FF920F93D0
:1017D0001F93CF93DF93CDB7DEB761970FB6F89421
:1017E000DEBF0FBECDBF8C0185E0F801DE011D9686
:1017F00001900D928A95E1F7F801E28090918D02B7
:1018000060918E0220919002309191022115310554
:1018100031F06F3F31F481E09F3F19F403C081E064
:1018200001C080E0F82FF1709F2E80FD3FC1F801CC
:1018300040815181A380B4808DE8C82E82E0D82EEB
:10184000F0908F02F501E21BF30BFF2009F4D9C0E1
:1018500080919202E83CF10508F095C0282F207F86
:1018600009F052C0561313C0491311C0FE2CE110E9
:101870000EC08F708061809392020E94660BC60139
:101880000E945A0880919202F80185834CC1AB28CE
:1018900031F05F3F31F481E04F3F19F403C081E044
:1018A00001C080E080FD03C081E08E2502C080E0A1
:1018B00090E0F82FF170FF2E80FF1CC080915B023A
:1018C00020915C0236E0821709F40BC190E0389F4A
:1018D000F001399FF00D1124E35AFD4F6181561339
:1018E00006C06081461303C06281E61203C0019600
:1018F0008770E9CFFE2CEE2009F415C18091920289
:1019000081608093920254C0561306C0491304C0EC
:10191000E11002C0F80199C0C8010E94C8088823DC
:1019200061F1EE2051F120919202822F82958F7009
:1019300090E0029774F080918D0290918E029887CA
:101940008F831986BB86AA862C87CE0107960E94B4
:101950005A0886E0F801ADE8B2E001900D928A9550
:10196000E1F70E94740B0E94660B0AC0561711F132
:10197000C8010E94C80881112CC0C8010E945A08E1
:10198000FF24F394D0C0282F207F81F77A2DB98AC5
:10199000A88A6E2D89890E94D0088DE892E00E9465
:1019A0005A0886E0F60111928A95E9F70E94660BC3
:1019B000F12CB9C04913DCCFE110DACFF8018583EF
:1019C000C8010E945A0886E0F60111928A95E9F74B
:1019D000AAC0EE2091F220919202822F82958F7000
:1019E00090E002970CF4B5CF80918D0290918E0219
:1019F0009A8389831B82BD82AC822E83CE0101969D
:101A0000A6CFE83CF10508F044C0FE2CEE2009F416
:101A1000B4CF561330C049132EC02091920220FD3E
:101A200021C0822F82958F70482F50E041155105BB
:101A3000C9F0F80125834F30510541F08F5F982F91
:101A40009295907F822F8F70892B8583C8010E9489
:101A50005A0886E0F801ADE8B2E001900D928A954F
:101A6000E1F73CC086E0F801ADE8B2E001900D92EC
:101A70008A95E1F758C0C8010E94C808811169CF52
:101A800080919202816080939202C8010E945A085C
:101A90004AC07A2DB98AA88A6E2D89890E94D008F9
:101AA00086E0F60111928A95E9F718C0EE2009F454
:101AB00064CFC8010E94C808F82E882309F45DCFBE
:101AC00086E0F801ADE8B2E001900D928A95E1F769
:101AD0008DE892E00E9488050E94740B0E94660BBC
:101AE00022C04D875E878D859E850E949A0A292F88
:101AF00022952F70223028F49F7039F0811105C093
:101B00000BC0243028F49F7049F4805E883020F0A8
:101B1000C8010E945A089F2CF92C05C0F801958134
:101B2000907F99F7F9CF8F2D61960FB6F894DEBFAD
:101B30000FBECDBFDF91CF911F910F91FF90EF901E
:101B4000DF90CF90BF90AF909F9008951F93CF9359
:101B5000DF93CDB7DEB72C970FB6F894DEBF0FBE7C
:101B6000CDBF4F83588769877A878B879C87CE0143
:101B700007960E94E00B8823D1F09F8188852A85F3
:101B80003B85232B31F08F3F31F481E09F3F19F4E7
:101B900003C081E001C080E080FD47C04F815885CF
:101BA00069857A858B859C850E94DF083EC086E02A
:101BB000FE013796DE01119601900D928A95E1F7AC
:101BC000FF81E8856A857B856115710531F0EF3FFE
:101BD00031F481E0FF3F19F403C081E001C080E0EF
:101BE00080FD23C020915C0230E0C901019687701E
:101BF000992740915B0250E084179507F1F1F98332
:101C0000EA837D836C8396E0929FD001939FB00D11
:101C10001124A35ABD4FFE01319601900D929A9561
:101C2000E1F780935C020E94450B16E080915B0215
:101C300090915C02891771F1189FC0011124835A99
:101C40009D4F0E94E00B882329F1E0915B021E9FCB
:101C5000F0011124E35AFD4F40815181628173816B
:101C6000848195810E94DF0880915B0290E001965B
:101C70008770992780935B02D9CF0E94A0081092A9
:101C80005C0210925B02EDE8F2E086E0DF011D925B
:101C90008A95E9F72C960FB6F894DEBF0FBECDBF3C
:101CA000DF91CF911F91089580919302859585953D
:101CB000859508958091930287700895909193027D
:101CC000977081E009F480E008959091600392FBA1
:101CD000222720F9281751F080FB92F99093600396
:101CE00080915F03909160030C946E0F0895809132
:101CF000600382FB882780F991E089270C94650EA8
:101D000081E00C94650E80E00C94650E80919F023A
:101D1000089590919F02892B80939F02089580954A
:101D200090919F02892380939F02089510929F02B1
:101D3000089590919E02892B80939E02089580952C
:101D400090919E02892380939E02089510929E0294
:101D5000089590919D02892B80939D02089580950E
:101D600090919D02892380939D02089510929D0277
:101D7000089580919402089508950C94BC0E0C94DB
:101D8000BD0E9091600392FD08C090919402981747
:101D900021F0809394020C94BF0E089580919402D8
:101DA000882329F01092940280E00C94BF0E0895CD
:101DB000E0910A01F0910B0180919F028083E091F4
:101DC0000A01F0910B01908180919E02892B808302
:101DD000E0910A01F0910B01908180919D02892B85
:101DE000808380919402882381F0E0910A01F09130
:101DF0000B019081892B808380910A0190910B01C6
:101E00000E947D2981110E94CE0E80910A0190913D
:101E10000B010C9446290C94BC0E9091600392FD2A
:101E200010C098E0899F90011124262B20939302E3
:101E30000E946109809193028595859585950C9402
:101E40000B0F0C9461091092930280E00C940B0F1D
:101E5000209193028095822380939302982F97700C
:101E600041F430E0482F082E000C550B241735079D
:101E700021F49091600392FF07C085958595859523
:101E80000E9482090C94230F089580E090E00E9444
:101E9000313421E0893E9E4F09F020E0822F0895E1
:101EA00082E090E00C94233483E090E00C9423349F
:101EB000682F83E090E00C943734CF9384E090E077
:101EC0000E942334C82F82E290E00E9423342C2FFA
:101ED00030E0A901582BCA01CF910895CF93C92FA3
:101EE000682F84E090E00E9437346C2F82E290E00B
:101EF000CF910C943734AB01BC018FE090E00C948F
:101F00004934AB01BC0183E190E00C94493460E0BA
:101F100070E0CB010C94810F60E070E0CB010E9477
:101F20007B0F0C94870F69EE7EEF80E090E00E94BB
:101F3000553460E082E090E00E94373460E083E056
:101F400090E00E943734109257021092580210927B
:101F5000590210925A0260E084E090E00E94373407
:101F600060E082E290E00E94373460E085E090E03B
:101F70000E94373460E086E090E00E9437346FEFD3
:101F800087E090E00E94373440E050E0BA0188E0FA
:101F900090E00E94493460E08DE090E00E94373488
:101FA00040E050E0BA0188E190E00E94493460E0EE
:101FB00087E190E00E94373440E050E0BA018CE1C4
:101FC00090E00E94493460E070E080E290E00E947E
:101FD000553440E050E0BA0188E190E00E94493475
:101FE0000C948C0F0C94930F682F8EE090E00C945F
:101FF00037340E94AD2A6093B3027093B402809389
:10200000B5029093B6026093AF027093B0028093D2
:10201000B1029093B20208950E94AD2A6093B30278
:102020007093B4028093B5029093B6026093AB02B2
:102030007093AC028093AD029093AE02089585B781
:10204000806885BF85B7806885BF08950C94971513
:1020500008950C9428100C94A5030C9428100C944B
:102060002D100C9428100E941F1083E093E10E9411
:102070002E2B0E9431100C942F100E9429100C94CA
:1020800028100E94982A0E94CA290E94E4130E94E4
:10209000CE240E9401220E94F91F0E94BB230C94AF
:1020A0002B109F92AF92BF92CF92DF92EF92FF924E
:1020B0000F931F93CF93DF93CDB7DEB72A970FB659
:1020C000F894DEBF0FBECDBF0E94A31481110E9401
:1020D000F90F81EAA82E82E0B82E00E010E0902EE1
:1020E000802F0E942A13D82EF501C1905F01C826C7
:1020F000B1F40F5F1F4F0A30110589F78FEF898305
:102100008A831B820E94A12A8160782F9D838C8301
:1021100049815A816B818D810E943E052FC080913B
:10212000B70281FD0E943013E12CFF24F3948C2D23
:102130008F21F1F00E942610882399F0EE829F8271
:10214000DF2081E009F480E088870E94A12A816075
:10215000782F9A8789874E815F8168858A850E945A
:102160003E05F801EF55FD4F8081F826F08206C04C
:10217000E394FF0CF6E0EF12DACFBBCF0E943120E0
:102180000E947B230E941C2481110E940C100E943B
:1021900033299091A0028917B9F00E9433298093C6
:1021A000A0022A960FB6F894DEBF0FBECDBFDF9116
:1021B000CF911F910F91FF90EF90DF90CF90BF9044
:1021C000AF909F900C9435052A960FB6F894DEBF19
:1021D0000FBECDBFDF91CF911F910F91FF90EF9078
:1021E000DF90CF90BF90AF909F90089508952CE31B
:1021F000829FC0011124FC0126E0729FE00DF11DB9
:102200001124E60FF11DEE0FFF1FE05FFE4F8591D9
:1022100094910895880F991FFC01E051FD4F85911D
:1022200094910895CF93DF930E942C12EC018115B5
:1022300020E5920708F041C0811540E4940708F0BA
:10224000CBC0803E910520F5803C910508F0B8C0D8
:10225000883A910570F4853A910508F0A8C081305C
:10226000910509F4A1C008F4EBC0049708F0EBC095
:10227000E7C08F3B910508F0E3C0885AC82FD0E033
:10228000CC0FDD1FC654DE4F888199819464DCC079
:10229000811550E2950750F4C11581E0D80708F088
:1022A000D2C0C83ED10508F4CEC0CAC0811520E313
:1022B000920708F08AC09F7085C0811545E5940794
:1022C00008F046C0811554E5950708F09DC0C1157A
:1022D00082E5D80718F5C11521E5D20708F07FC0BF
:1022E000CE01F4E096958795FA95E1F7282F2370B3
:1022F0003C2F337081E090E002C0880F991F3A951F
:10230000E2F79C68922B2C2F2F702695269540E2A1
:10231000249F90011124822B932B96C09E01237041
:1023200033279C2F96959695C115D34508F05CC030
:1023300041E050E002C0440F551F2A95E2F780E2C9
:10234000989F90011124CA01822B932B9C687CC01A
:10235000811559E5950798F4C11588E5D80708F067
:1023600058C0C11526E5D20708F06AC08C2F0E941C
:10237000C0128F7190E0982F8827906265C08115F8
:102380004AE5940708F44AC090568115904208F037
:1023900057C08D2F8F710E94C0129E01332730626B
:1023A0008F71A901582B4AC081E090E04DC0855A39
:1023B000C82FD0E0C851DE4F888190E0906444C0BF
:1023C000805C91090E940A113FC09927D3FF02C087
:1023D000986C3AC0906C38C09F70906A35C09C2F42
:1023E0008827816F906A30C041E050E002C0440FFE
:1023F000551F2A95E2F780E2989F90011124CA01A7
:10240000822B932B9A6820C0982F8827846F906A1C
:102410001BC09C2F8827806F906A16C08F700E9407
:10242000C0129E0194E0369527959A95E1F72F709A
:1024300030E0322F22273069A901482BCA0104C09D
:1024400080E090E001C0CE01DF91CF9108950E941D
:10245000F7100E94121108958238910569F1B0F4C5
:102460008133910509F46DC048F48932910509F46E
:1024700063C08A32910509F469C0089585339105D6
:1024800009F455C089339105B9F00895833E91054B
:1024900069F138F4803E9105B1F0823E910509F171
:1024A0000895863E9105A9F1873E9105B9F1843ED4
:1024B000910509F064C023C020915F0320FD4FC047
:1024C00021FD4DC0089580915F0380FD44C080913F
:1024D000600380FF44C080915F0384FD42C083EEAF
:1024E0004DC080915F0382FF38C0F5CF80915F03BC
:1024F00082FD33C08091600380FD31C0ECCF8091BC
:10250000600381FF32C080915F0384FD2AC087EEA3
:1025100035C080915F0383FF26C0F5CF80915F03B4
:1025200083FD21C08091600381FD1FC0ECCF8091AD
:102530005F0385FD1CC01DC080915F0385FD19C030
:1025400016C080915F0386FD16C017C080915F039F
:1025500086FD13C010C089E311C082EE0FC080EE6B
:102560000DC080E00BC086EE09C084EE07C089E292
:1025700005C085E303C08AE201C081E390E00895CD
:1025800090915F0392FF0DC0282F2871283019F415
:10259000877F846006C0282F2471243011F48B7F3C
:1025A000886093FF0DC0282F2871283119F4877E89
:1025B000846106C0282F2471243111F48B7E886138
:1025C0002091600320FF0DC0382F3871383019F486
:1025D000877F816006C0382F3171313011F48E7FD2
:1025E000886021FF0DC0282F2871283119F4877EBB
:1025F000816106C0282F2171213111F48E7E8861FE
:1026000094FD877E089580E0089508950E94450F07
:10261000811102C00E94F20F0E94500F8093B702F6
:102620000E945D0F9093600380935F030E940513E7
:102630000E94540F682F70E080E090E00E94010932
:10264000609153027091540280915502909156020C
:102650000C943909E82FF0E0E559FC4F808108958A
:10266000089580EA8A95F1F7089500C008950C94C2
:10267000311308950C9439130C943A130C94A3035A
:10268000F894E82FE295EF70F0E031A1282F2F7039
:1026900081E090E001C0880F2A95EAF7982F909585
:1026A000932391A392A1892B82A3789408950895EE
:1026B0000C9457130F931F93CF93DF93C2E1D1E094
:1026C00089918F3F11F00E94401381E0C731D807F4
:1026D000B9F7CCE0D1E002E111E089918F3F11F030
:1026E0000E9440130C171D07C1F7DF91CF911F9176
:1026F0000F910895CF92DF92EF92FF920F931F9365
:10270000CF93DF938C01C62FD0E0CE018E5E9E4F1B
:102710007C01FC0190819F3F09F44DC0D62EF894B6
:10272000E92FE295EF70F0E081A19F7021E030E0A9
:1027300001C0220F9A95EAF7822B81A382A12095EE
:10274000282322A378940E943513ECE0F1E020E0E6
:1027500030E0C12C51E041914F3FB1F0A42FA29540
:10276000AF70B0E090968C9190E04F7002C095955C
:1027700087954A95E2F780FD07C0852F022E01C09C
:10278000880F0A94EAF701C080E0C82A2F5F3F4F04
:102790002630310501F7F70180818F3F11F00E944B
:1027A000401361E0C11001C060E08D2D0E9437131D
:1027B000C00FD11FC882DF91CF911F910F91FF9061
:1027C000EF90DF90CF900895CF93DF93CDB7DEB732
:1027D00060970FB6F894DEBF0FBECDBF0E94AF1555
:1027E00080911C01811131C0FE0131962AE0DF0188
:1027F0001D922A95E9F721E3298322E32A8322E91E
:102800002B8321EF2C8324EF2D83CF01E2E1F1E034
:102810009E01255F3F4FDC014D91CD014193A217F1
:10282000B307C9F726E0E3E8F1E0DE011B9601906B
:102830000D922A95E1F7FC01ACE0B1E0CE014196A2
:1028400021912D93E817F907D9F780911C01811187
:1028500002C095E001C090E09093760385E0891B6B
:10286000809375030E945A13E1E6F3E0ABE6B3E010
:1028700011921D9283E0EB36F807D1F785E00E94B4
:10288000F7140E94B30460960FB6F894DEBF0FBE33
:10289000CDBFDF91CF910C94C3150F931F93CF93AE
:1028A000DF9300D000D01F92CDB7DEB70E949715FE
:1028B00060917603882379F18E010F5F1F4F85E0C9
:1028C000F80111928A95E9F7862F90E0B8018559B1
:1028D0009C4F0E94D115E09175039E012A5F3F4FE6
:1028E000F0E0E559FC4FD801882361F010E08D91AC
:1028F0009081981711F0808311E03196A217B307E9
:10290000B1F706C011921D92A217B307D9F711E0D3
:102910000E94BB040DC070E065597C4F8091750327
:1029200090E085599C4F0E9461160E94581310E058
:10293000812F0F900F900F900F900F90DF91CF91FC
:102940001F910F910895EF92FF920F931F93CF93D2
:10295000DF93CDB7DEB72A970FB6F894DEBF0FBE70
:10296000CDBF8E010F5F1F4F8AE0F80111928A954B
:10297000E9F7F12C6F2DC8010E947A13F394F5E06A
:10298000FF12F8CF4AE050E0B80181E693E00E94E0
:102990000D347C0121E0892B09F420E0E114F104DD
:1029A00041F08AE0F801A1E6B3E001900D928A952A
:1029B000E1F76091760370E065597C4F45E081E670
:1029C00093E00E940A15EF2819F40E944D1402C0EA
:1029D00081E090E02A960FB6F894DEBF0FBECDBF1F
:1029E000DF91CF911F910F91FF90EF900895CF93BA
:1029F000C82F90E00E9483328093BB029093BC0268
:102A0000282FFC018E2F821B8C1710F41192FACF05
:102A1000CF910895DF92EF92FF920F931F93CF9380
:102A2000DF93082FF92EE62ED72E142FD22FC09128
:102A3000B802CC23C9F10E94A12A2091B902309199
:102A4000BA02AC01421B530B9A019093BA028093D5
:102A5000B9024F3F510509F020F4452B09F454C049
:102A600002C02FEF30E01092B8021092BD024091E8
:102A7000BB02E42FF091BC0290E030E08E2F841B6B
:102A8000811768F48081882341F0281718F010829C
:102A90009C2F03C0821B80833C2F3196EFCF309355
:102AA000B8029093BD0230C0222331F10E94A12AC6
:102AB0009093BA028093B9029091BB028091B802C0
:102AC000AE2DBD2DC02FDF2DE92FF091BC0235E0DA
:102AD0002E2F291B211768F429914C91421731F0B0
:102AE0004081411103C030832C9381E031961196CF
:102AF000EFCF8093B8020CC080E09091BD02992383
:102B000039F08111D9CFD2CFD111D6CF81E0F5CF15
:102B1000DF91CF911F910F91FF90EF90DF9008957B
:102B200055985D9889B185FB882780F90895809133
:102B3000C00281110DC00E94CB31811102C082E020
:102B400001C081E08093C002823011F40E94C6313E
:102B500081E09091C002913009F080E008950E94D8
:102B6000901580931C0180911C0166E0882311F070
:102B700080E001C086E00E9492190E9497158111A1
:102B80000C94091608950E949715811102C00C94A7
:102B90000B16089581E09091C1029A3008F080E010
:102BA00008950F931F93CF93DF93EC018B018091D6
:102BB000C1028A3038F4B801CE010E945F1681113B
:102BC0001DC00AC08091BE029091BF020E94B92A26
:102BD000843F914080F715C08091C1028F3F19F06A
:102BE0008F5F8093C1028091C1028A3060F00E94A1
:102BF000A12A9093BF028093BE0203C01092C1022B
:102C000002C080E001C081E0DF91CF911F910F9160
:102C100008950C9469270C946C27EF92FF920F9300
:102C20001F93CF93DF937901C82F880FDD0B4115D8
:102C30005105A9F08AE08C9FF0018D9FF00D1124C1
:102C4000E35EFE4F838194818E539D4F228130E05D
:102C50004217530708F49A01A9010E941A34CE01C1
:102C60000E947628892B09F50115110501F18AE0EA
:102C70008C9FF0018D9FF00D1124E35EFE4F458186
:102C800050E00417150708F4A8018AE08C9FF001B2
:102C90008D9FF00D1124E35EFE4F668177816E53A8
:102CA0007D4FC7010E941A3402C080E001C081E05C
:102CB000DF91CF911F910F91FF90EF9008950C94A9
:102CC00053180C948718AF92BF92CF92DF92EF9275
:102CD000FF920F931F93CF93DF93C82F7B01D42FC5
:102CE00069015801FB0160817181828193810E9499
:102CF000C82A643671058105910510F4DD23A1F021
:102D000000E010E020E030E0A501B6018C2F0E9429
:102D10000D16C82F882349F00E94AD2AF701608361
:102D200071838283938301C0C1E08C2FDF91CF91A7
:102D30001F910F91FF90EF90DF90CF90BF90AF90D9
:102D400008950F931F93CF93DF93CDB7DEB72897E6
:102D50000FB6F894DEBF0FBECDBFCE0101960E9424
:102D6000E41E41E08885811101C040E008E010E0E8
:102D70009E012F5F3F4F60EF72E086E00E94631676
:102D8000182F81110E94E11E812F28960FB6F8940A
:102D9000DEBF0FBECDBFDF91CF911F910F91089580
:102DA0000F931F93CF93DF931F92CDB7DEB70E948F
:102DB000E621882319F00E94FB2101C080E089836D
:102DC000E091EB01F091EC0141E09485981301C092
:102DD00040E001E010E09E012F5F3F4F6CEE72E09B
:102DE00085E00E9463160F90DF91CF911F910F91A4
:102DF00008950F931F93CF93DF9300D000D0CDB7EA
:102E0000DEB76091E8027091E9028091EA02909148
:102E1000EB020E94C82A643671058105910528F1EC
:102E20000E94F029DC01CB010296A11DB11D89830E
:102E30009A83AB83BC8300E010E020E030E044E004
:102E400050E0BE016F5F7F4F84E00E940D16182F87
:102E5000882361F00E94AD2A6093E8027093E90232
:102E60008093EA029093EB0201C011E0812F0F9052
:102E70000F900F900F90DF91CF911F910F910895B8
:102E80007F928F929F92AF92BF92CF92DF92EF92FA
:102E9000FF920F931F93CF93DF931F92CDB7DEB7AF
:102EA000762E4A015901680101E010E09E012F5F72
:102EB0003F4F40E050E060E070E00E940D16182F98
:102EC000882379F1F40160817181828193810E946C
:102ED000C82A6436710581059105E0F087019501E6
:102EE00040E050E060E070E0872D0E940D16182F42
:102EF000B701C6010E94CF2491E02981281390E0F8
:102F00001923A1F00E94AD2AF401608371838283AA
:102F100093830CC0B701C6010E94CF249981891305
:102F2000DDCFA701B601C5010E941A34812F0F9091
:102F3000DF91CF911F910F91FF90EF90DF90CF9095
:102F4000BF90AF909F908F907F900895EF92FF92E7
:102F50000F931F93CF93DF931F92CDB7DEB70091EE
:102F6000EB011091EC01095F1F4FEE24E394F12C6B
:102F70009E012F5F3F4F44EE52E063E082E00E94EB
:102F80004017182F882321F0CE0101960E948F242C
:102F9000812F0F90DF91CF911F910F91FF90EF90B4
:102FA0000895CF92DF92EF92FF920F931F93CF93EA
:102FB000DF9300D000D01F92CDB7DEB76B01009138
:102FC000EB011091EC010F5F1F4F85E0E82EF12C13
:102FD0009E012F5F3F4F40EE52E061E080E00E9493
:102FE0004017882349F095E0FE013196ABEDB2E041
:102FF00001900D929A95E1F795E0EBEDF2E0D601A4
:1030000001900D929A95E1F70F900F900F900F900D
:103010000F90DF91CF911F910F91FF90EF90DF9074
:10302000CF900895AF92BF92CF92DF92EF92FF922E
:103030000F931F93CF93DF937C015B016A010E9482
:10304000CA15811103C001E010E002C00AE010E0DF
:10305000C1E0D0E0F894B501C701F6010995789474
:10306000811115C021960C171D0794F0CC9F90017B
:10307000CD9F300D300D112480E090E045E34A955E
:10308000F1F70000019682179307C1F7E3CF81E0C3
:10309000DF91CF911F910F91FF90EF90DF90CF9034
:1030A000BF90AF9008950F931F93CF93DF93EC01E0
:1030B0008B0141ED57E10E941218882311F146EA75
:1030C00057E1B801CE010E9412188823D1F049EFD0
:1030D00056E1B801CE010E941218882391F040ED0C
:1030E00056E1B801CE010E941218882351F041EA3E
:1030F00056E1B801CE01DF91CF911F910F910C9451
:10310000121880E0DF91CF911F910F910895CF9217
:10311000DF92EF92FF920F931F93CF93DF931F9253
:10312000CDB7DEB7F8940091EB011091EC01C80126
:10313000019625E0FB01DC0101900D922A95E1F753
:1031400065E070E00E94CF24F80180837894F894C1
:10315000CE0101960E9486248981F801878361E06F
:1031600070E0CE0101960E94CF24F8018683789406
:10317000F8946085718582859385C090D702D09040
:10318000D802E090D902F090DA026C157D058E0528
:103190009F0551F06093D7027093D8028093D902B3
:1031A0009093DA020E94D3297894F894F8018485E8
:1031B0000E9412237894F894F8018489882339F0C6
:1031C00060E0C8010D960E94C41FF801148A78942B
:1031D0000F90DF91CF911F910F91FF90EF90DF90B3
:1031E000CF9008950E94142A0E94712C0E948A2C6C
:1031F0000E949C2C0E943D10FBCFEF92FF920F93F8
:103200001F93CF93DF938B01682F11110AC04423C2
:1032100029F0E82FF0E0E65FFB4F6491762F862FD0
:1032200075C0212F30E0E82FF0E0442321F0E65F65
:10323000FB4FE491F0E046E0049FC0011124CFEF82
:10324000D0E0BE010E9402324BEA4603C001479F14
:10325000900D1124800F911D800F911D982F990FB3
:10326000890FAE01421B530B4E9FD0014F9FB00DF3
:103270005E9FB00D11249B2F189FA0011124452F94
:1032800055278E01041B150B0E9FA0010F9F500D9B
:103290001E9F500D11247E01E81AF108E29E800164
:1032A000E39E100DF29E100D1124212F3327C21B17
:1032B000D30BCE9F9001CF9F300DDE9F300D112498
:1032C00062307105A9F048F46115710569F061304B
:1032D0007105C9F48B2F752F0DC06430710581F015
:1032E00058F06630710579F47E2F8B2F932F0DC027
:1032F000832F7B2F9E2F09C08E2F7B2F952F05C0EC
:103300008E2F732F02C07E2F852F692FDF91CF91D3
:103310001F910F91FF90EF90089541E00E94FD18DA
:1033200008950895E6E6F1E08083618308950E94A0
:103330008D190895CF93DF93762FE901682F842F9D
:103340000E949719798368838A83DF91CF910895CA
:1033500080917803282F269530E02115310519F446
:103360008170826005C02B32310524F08170846544
:1033700080937803089588E090E00C942B34CF92EA
:10338000DF92EF92FF926B017C010E94A819B701B6
:10339000A60188E090E0FF90EF90DF90CF900C9432
:1033A0004934E8E7F3E087E1808311828FEF82837D
:1033B00080E883831482ADE3B3E012968C91129778
:1033C000836012968C9360817181828193810C94C9
:1033D000BF198091780380FF02C08695089580E030
:1033E000089590917C03933018F49F5F90937C0331
:1033F000882351F0609178037091790380917A036A
:1034000090917B030C94BF19089581E00C94F119FD
:1034100090917C03992319F0915090937C03882319
:1034200051F0609178037091790380917A039091C3
:103430007B030C94BF19089581E00C94081A70E086
:103440000C948C23609167018091780380FF0AC0FF
:103450008091660123E0829FC001112483589C4F14
:103460000C941F1A8091680190916901891780F767
:10347000E82FF0E09F01220F331FE20FF31FE35804
:10348000FC4F1182108212828F5FF0CF90917803EF
:1034900090FF16C09091680120916901921770F415
:1034A000E92FF0E0DF01AA0FBB1FEA0FFB1FE35873
:1034B000FC4F8183608342839F5FF0CF0C94221A7C
:1034C0000895CF93DF9300D01F92CDB7DEB79091D0
:1034D000780390FF0AC09E012F5F3F4F0E949A1908
:1034E0004B8169818A810E94461A0F900F900F903C
:1034F000DF91CF910895CF93DF93EC01EC81F0E061
:10350000EB5FFC4F4491E8E7F3E0628181810E9428
:10351000611A8C818F5F8C83DF91CF910895CF9357
:10352000DF93EC01E8E7F3E0438162818C810E9444
:10353000611A8C818F5F8C83DF91CF9108950F93F7
:103540001F93CF93DF9300D01F92CDB7DEB78C01CE
:103550008091F40281110AC09E012F5F3F4F4FEF0F
:103560006FEF0E949A198A818093F402F801848196
:10357000813051F028F0823061F44091F4020AC0A9
:103580008091F40240E007C06091F40240E080E0E6
:1035900003C040E080E060E00E94461AF8018481A8
:1035A00090E0019663E070E00E94163284830F90F1
:1035B0000F900F90DF91CF911F910F910895AF92CF
:1035C000BF92CF92DF92EF92FF920F931F93CF9310
:1035D000DF9300D01F92CDB7DEB7182FF62E042F41
:1035E000E22E9091780390FF7EC0E92FE695AE2FF2
:1035F000B0E0A351BE4F8C9180933D039E7F9230EB
:1036000061F49E012F5F3F4F812F0E949A194B81D9
:1036100069818A810E94461A43C0823019F4009160
:103620007B033EC0863019F41091790339C089308C
:10363000D9F38931A9F5E9518E2F8170D82EE695FD
:10364000F0E0EB5FFB4FA590B490C12CBB246091E0
:103650006A01C61618F52C2D30E0A29EC001A39E6B
:10366000900DB29E900D112470E00E940232812FC5
:10367000D11002C0860F01C0861B90916801290FEE
:10368000311DA901440F551F240F351F23583C4FEE
:10369000402F6F2D0E949A19C394D9CF0E94221AED
:1036A00080917903181308C080917A03F81204C03E
:1036B00080917B03081729F080913F0382608093FB
:1036C0003F0310937903F0927A0300937B03EE207B
:1036D00051F0609178037091790380917A03909111
:1036E0007B030E94BF190F900F900F90DF91CF9135
:1036F0001F910F91FF90EF90DF90CF90BF90AF9010
:103700000895E8E7F3E09181282F4381628188E002
:10371000890F0C94DF1A81E00C94811BE8E7F3E039
:103720009181282F4381628188EF890F0C94DF1AE1
:1037300081E00C948E1BE8E7F3E0628128E0620FE1
:1037400008F46FEF282F438181810C94DF1A81E008
:103750000C949B1BE8E7F3E0628128E0621B08F40D
:1037600060E0282F438181810C94DF1A81E00C9462
:10377000AA1BE8E7F3E0438128E0420F08F44FEF8B
:10378000282F628181810C94DF1A81E00C94B91B8F
:10379000E8E7F3E0438128E0421B08F440E0282FEB
:1037A000628181810C94DF1A81E00C94C81B20E0B7
:1037B0000C94DF1AFF920F931F93CF93DF93EC01CA
:1037C000F12C0FEF10E060916A01F616F0F4809191
:1037D00068012F2D30E0280F311DC901880F991F76
:1037E000280F391F23583C4F70E0C8010E94163241
:1037F000962F8C8140917B0360917A03F99E800D16
:1038000011240E949A19F394DECF0E94221A9A8101
:103810008C8190FF02C08F5F01C081508C83DF914B
:10382000CF911F910F91FF9008958F929F92AF9229
:10383000BF92CF92DF92EF92FF920F931F93CF939D
:10384000DF93EC018A8180FF03C0BB24BA9402C0DD
:10385000BB24B3948C8181110DC081E0B81206C0E5
:1038600080916A0181508093F60202C01092F602A4
:1038700081E08C83A12C4CE0942E80916A01A816E3
:1038800008F044C080916801CA2CD12C8601080F31
:10389000111DC801880F991F080F191F03581C4FCD
:1038A000F80111821082128234E0E32EF12C812C77
:1038B0008091F602880D8D302CF0692D0E94F43134
:1038C000892F05C087FF03C090916A01890F082ED8
:1038D000000C990BC816D90691F480917B038E9D3C
:1038E000A0018F9D500D11245595479555954795ED
:1038F000980160917A03809179030E949A198B0C48
:10390000F1E0EF1AF108A1F6A394B7CF0E94221AB2
:103910008091F60291E0B9120EC0811107C080912A
:103920006A0181508093F6021C820FC081508093FF
:10393000F602BC820AC090E0019660916A0170E0D4
:103940000E9416328093F6028C83DF91CF911F91F3
:103950000F91FF90EF90DF90CF90BF90AF909F902E
:103960008F9008951F93CF93DF93EC018C81811189
:1039700009C081E08C831092F50292E0909365017A
:10398000809364018091680190916901891770F4B6
:10399000E82FF0E09F01220F331FE20FF31FE358DF
:1039A000FC4F1182108212828F5FF0CF10E0609185
:1039B0006A011617C0F5E12FF0E070E0CF010E9418
:1039C000163220916801820F2091F502022E000C20
:1039D000330B90E0E217F307CCF020916501022E43
:1039E000000C330B2E173F078CF09C01220F331F66
:1039F000820F931F9C0123583C4F40917B036091A1
:103A00007A03809179030E949A190BC0FC01EE0F92
:103A1000FF1F8E0F9F1FFC01E358FC4F1182108285
:103A200012821F5FC4CF0E94221A809164012091EC
:103A3000F502280F2093F50290916501980F90935D
:103A4000650119165CF4022E000C330B40916A01DB
:103A500050E0415051092417350734F08195809387
:103A60006401813009F41C82DF91CF911F91089588
:103A70008F929F92AF92BF92CF92DF92EF92FF927E
:103A80000F931F93CF93DF938C01FC014481C42FCC
:103A9000D0E09E01DE010E945A329B01AC010E94DF
:103AA00070326B017C01E0E2F0E0EC1BFD0BA5E560
:103AB000B0E09B01AC010E9470324B015C019F01A0
:103AC000DF010E9452329B01AC010E947B329B01BC
:103AD000AC012C0D3D1D4E1D5F1DC501B4010E94A2
:103AE0002A32C22FD22F2A3228F4F3E02F9F9001DE
:103AF00011240DC025E530E02C1B3109C901880FC8
:103B0000991F280F391F37FF02C02F5F3F4F359590
:103B10002795C22FC095F12C85E5E82EED1A8091EE
:103B20006A01F816C8F4F1FC02C08E2D01C08D2F79
:103B3000909168012F2D30E0290F311DA901440F0C
:103B4000551F240F351F23583C4F4C2F60917A038B
:103B50000E949A19F394E3CF0E94221AF8018481FB
:103B6000811102C091E003C0803219F49FEF90935D
:103B7000630190916301890FF8018483DF91CF91F4
:103B80001F910F91FF90EF90DF90CF90BF90AF907B
:103B90009F908F9008950F931F93CF93DF93EC0125
:103BA00000E010E080916A01282F30E0021713072F
:103BB00024F5909168019801290F311DA901440F46
:103BC000551F240F351F23583C4F869590E04C819C
:103BD000081719071CF4442331F002C0411103C037
:103BE00040917B0301C040E060917A0380917903AA
:103BF0000E949A190F5F1F4FD5CF0E94221A8C8105
:103C000090E00196817099278C83DF91CF911F916D
:103C10000F9108957F928F929F92AF92BF92CF9211
:103C2000DF92EF92FF920F931F93CF93DF93FC01EC
:103C30008280748081E08483E5E0F3E09490E4E89E
:103C4000F3E0E491A12CF5E0BF2ECC24CA94D12C52
:103C5000E9190E2F10E080916A01A81608F0A2C0A1
:103C6000EA2CF12C22E0281568F0BE9CF001BF9CE4
:103C7000F00D1124E650FD4F8091790380838091EF
:103C80007A03818371100AC0BE9CF001BF9CF00DC5
:103C90001124E650FD4F138212826AC0BE9CE001DF
:103CA000BF9CD00D1124C650DD4F8B818823F9F0C5
:103CB00081508B832FEF829FC00111246C8170E0B3
:103CC0000E940232FB01FF27EB5FFC4F8491E82F3B
:103CD000E9192FEFE29FC0011124B8010E940232BE
:103CE00080917B03689FB00111247A8341C00E94B8
:103CF000F03320917B032695215830E0A901440F31
:103D0000551F322F2227240F351F232F33278217C9
:103D1000930774F582E0881588F40E94F033B601A9
:103D20000E94163288830E94F03320917A032695F0
:103D3000622F70E00E941632280F2983BE9CF0018A
:103D4000BF9CF00D1124E650FD4F128280917B0341
:103D5000843120F0893C18F088EC01C084E1BE9CDD
:103D6000F001BF9CF00D1124E650FD4F8483838346
:103D7000809168019701280F311DC901880F991F93
:103D8000280F391F23583C4FBE9CF001BF9CF00DFB
:103D90001124E650FD4F4281618180810E949A1971
:103DA000A39459CFDF91CF911F910F91FF90EF9086
:103DB000DF90CF90BF90AF909F908F907F900C94AA
:103DC000221A10923F03089525E0E8E7F3E0DC01B2
:103DD00001900D922A95E1F720913D0330913E0329
:103DE00040913F03FC01258336834783089560910A
:103DF0007803669570E04BE050E08BE691E00E941E
:103E00000034892B19F481E080933E030E940B2A31
:103E1000909337038093360380913F0384608093AF
:103E20003F030895EDE3F3E0118282818460828391
:103E300008959091780390FF3AC09170811102C06B
:103E4000926006C08B3210F0946502C0880F982BE8
:103E50009093780380913F03816080933F036623B2
:103E600051F0609178037091790380917A03909179
:103E70007B030E94BF1960917803669570E04BE068
:103E800050E08BE691E00E940034892B19F00E94EB
:103E9000121F02C00E94F71E81E0809339034091F7
:103EA0007B0360917A03809179030C94D71B08956A
:103EB000682F90917803969581E0890F8B3208F0F6
:103EC00081E00C94191F81E00C94581F682F909189
:103ED000780396958FEF890F09F48AE20C94191FE5
:103EE00081E00C94661F61E00C94191FE8E7F3E091
:103EF00080818160808386950C94731F60E00C94B0
:103F0000191FE8E7F3E080818160808386950C9437
:103F10007E1FE8E7F3E080818E7F8083608171817E
:103F2000828193810E94BF190E94121FEDE3F3E08A
:103F30008281816082832FEF80E792E02150804070
:103F40009040E1F700C000000C94221A80917803A1
:103F500080FD0C94891F0C94761FE8E7F3E08081C4
:103F60008E7F80830E94121FEDE3F3E082818160E7
:103F700082832FEF80E792E0215080409040E1F76C
:103F800000C000000C94221A1F93CF93DF93EC0122
:103F9000162F8F8180FF0FC0888180FF0AC080911B
:103FA0007803816080937803888186950E94191F29
:103FB00002C00E94AD1F8F8181FF06C0212F4B815F
:103FC0006A8189810E94DF1A8F8182FF08C08E81F9
:103FD000882319F00E94F71E02C00E94121F8F81D1
:103FE00083FF03C081E080933903DF91CF911F915C
:103FF000089580913C03811133C00E94450F8111C7
:1040000004C00E94F20F0E94D1190E94BB19609354
:1040100078037093790380937A0390937B03809164
:104020003F03836080933F036E7F61F40E94D11948
:104030000E94BB19609378037093790380937A038D
:1040400090937B030E94A8190E94121F809178030D
:1040500080FF03C086950E947E1F81E080933C0311
:104060000895EF92FF920F931F93CF93DF93809168
:104070003E03882309F4BBC080913D03E09178039F
:10408000E695E81BE0933803823049F4F0E0EF5FF7
:10409000FC4FE491CE2FD0E00BE71AE159C08630F7
:1040A00049F4F0E0E250FD4FE491CE2FD0E00FE86C
:1040B0001AE14EC0893051F4E695F0E0E550FD4F2D
:1040C000E491CE2FD0E00AED1BE142C08F3051F4D5
:1040D000E695F0E0E850FD4FE491CE2FD0E005E109
:1040E0001CE136C0853149F4F0E0EB50FD4FE4911E
:1040F000CE2FD0E002EB1CE12BC08831D9F0833207
:1041000039F4E3EFF2E0C591D4910FE91AE120C050
:104110008432A9F08532C1F48E2F63E00E94E83129
:10412000E92FF0E0E051FD4FE491CE2FD0E00AE01E
:104130001EE10EC0C8E2D0E008E31DE109C0C4EFF3
:10414000D1E00BEC1DE104C0C0EDD7E001E919E1BD
:1041500080913903882361F0109239030E940B2A61
:10416000909337038093360310923B0310923A03E7
:104170000E940B2AE0913603F09137039C012E1B1D
:104180003F0B2F3F3F4798F52091F9022223B1F0D2
:104190001092F9022091F7023091F802821B930BE2
:1041A0008F3F9F4758F4205D3A483093F8022093A0
:1041B000F70280913F03886080933F03E0903A03C9
:1041C000F0903B03EC0FFD1FF0933703E0933603B1
:1041D00086E393E0F801099580913A0390913B03BF
:1041E000892B29F4EF2819F081E08093F902DF91FF
:1041F000CF911F910F91FF90EF900895882311F0B8
:10420000FA0101C0FB010994CF93DF93C82FD62F89
:104210000E94E9198C1740F00E94E9198D1720F4CB
:10422000DF91CF910C94631F8C2FDF91CF910C9471
:10423000731F1F93CF93DF93FB0112811111C1C034
:10424000EC010E94860E8272CD3CFCE5DF0709F48A
:104250009AC008F043C0C73CECE5DE0709F47FC014
:10426000D8F4C43C9CE5D90709F46DC038F4C33CCC
:10427000DC4509F0A5C00E94A61FA3C0C53C9CE573
:10428000D90709F465C0C63CDC4509F099C048E986
:104290005BE16BE87BE160C0CA3CFCE5DF0709F449
:1042A00068C070F4C83CECE5DE0709F45DC0C93CA9
:1042B000DC4509F085C047EA5BE166EB7BE14CC079
:1042C000CB3C9CE5D90709F459C0CC3CDC4509F04E
:1042D00077C04CE15AE165E07AE13EC0C23DFCE5C1
:1042E000DF0709F45DC098F4CF3C9CE5D90709F4D9
:1042F00051C008F44DC0C03DFCE5DF0709F44DC0D6
:10430000C13DDC4509F05CC06EE089E056C0C53DAA
:104310009CE5D90709F44AC058F4C33DFCE5DF0722
:1043200009F441C0C43DDC4509F04AC088E142C0FF
:10433000C63D9CE5D907E9F1CE35DD4509F040C021
:104340006AE285E23AC040E75FE163E67FE104C0EC
:1043500043E65FE160E77FE10E94FE2032C04BE868
:104360005BE168E97BE1F8CF46EB5BE167EA7BE183
:10437000F3CF44ED5BE165EC7BE1EECF45EC5BE137
:1043800064ED7BE1E9CF45E05AE16CE17AE1E4CF0D
:1043900081E010C065E082E010C068E086E00DC0FA
:1043A00064E18FE00AC067E185E107C062E289E16C
:1043B00004C083E20E94731F04C00E94042101C054
:1043C00011E0812FDF91CF911F9108958091A1037A
:1043D0008170089586E090E00C942334682F86E085
:1043E00090E00C9437348091A103847089618093AC
:1043F000A1030C94EE218091A10386958695869564
:1044000008950E94450F811104C00E94F20F0E947E
:10441000F3210E94EA218093A103282F2695269557
:10442000269530E02630310524F08770886280932D
:10443000A1038091A10380FF04C08695869586958F
:1044400001C080E00C9412232091A103822F869555
:1044500086958695482F50E04530510554F48F5F7E
:10446000982F990F990F990F822F8770892B80931E
:10447000A1038091A10381608093A1030E94EE219A
:104480008091A1038695869586950C941223809140
:10449000A103982F969596959695A1F0915E990F08
:1044A000990F990F8770892B8093A103887F91E0E2
:1044B00009F490E08091A10390FB80F98093A1031F
:1044C0000E94EE218091A1038695869586950C9495
:1044D00012238091A10380FD13C081608093A1030A
:1044E000813019F489E08093A1038091A1030E9497
:1044F000EE218091A1038695869586950C941223D2
:1045000008958091A10380FF08C08E7F8093A1034E
:104510000E94EE2180E00C94122308958091A10363
:1045200080FD0C9481220C9469229091A103892F23
:104530008695869586958F5F8F719770863038F453
:10454000880F880F880F892B8093A10302C0909356
:10455000A1038091A103887F91E009F490E080910C
:10456000A10390FB80F98093A1030E94EE2180912A
:10457000A1038695869586950C941223863008F0C3
:1045800085E09091A1039770282F220F220F220F10
:10459000922B9093A103987F21E009F420E0909161
:1045A000A10320FB90F99093A1030C9412230E9485
:1045B000BE228091A1030C94EE219C01FB0182811B
:1045C000882349F12E3BFCE53F07C9F040F42C3B22
:1045D000ECE53E0769F02D3B3C4561F00895203C39
:1045E0009CE5390791F070F0213C3C4589F0089535
:1045F00085E001C080E00E94D72280E008950E94FB
:104600004722FBCF0E942422F8CF0E948E22F5CFB2
:104610000E949522F2CF81E00895259A2D98089561
:104620002D980895CF92DF92EF92FF92CF93C82FEB
:10463000863050F4811109C0809180008F7780937B
:1046400080000E94102306C0C5E080918000806831
:10465000809380002C2F30E0AFEFBFEF0E945A32E2
:1046600025E030E040E050E00E942A32B42FA32F32
:10467000922F8827492F5A2F6B2F7727CA014C3743
:1046800024E1520728F469E070E00E94023229C058
:10469000DB01CA018A50974DAF4FBF4F6627782F75
:1046A000892F9A2F25EF38E241E050E00E942A320C
:1046B00069017A01CA01B9010E94D8319B01AC019C
:1046C000C701B6010E94D831BB27A92F982F872F89
:1046D000009721E0A207B10511F0BC0102C06FEF05
:1046E0007FEF7093890060938800CF91FF90EF90E7
:1046F000DF90CF90089508950E940D2382E8809363
:10470000800089E1809381008FEF9FEF9093870075
:10471000809386000C940122569A2BB12F7B3BB1DB
:1047200030644FB7F894FC01CB01880F991F680FD4
:10473000791F6E0F7F1FE617F70789F0819198E0C8
:104740003BB9000000C087FF2BB9880F000000C0F4
:1047500000C000C02BB900C09A9591F7ECCF4FBFB5
:104760008FE594E00197F1F700C00000089581E023
:1047700008950C94B72380911C01882309F447C045
:1047800020917701A22FA295AF70B0E091963C9155
:1047900091972F7081E090E0AC01022E01C0440F90
:1047A0000A94EAF7542F5095352391963C939197AC
:1047B00092963C919297432B92964C93929740916C
:1047C0007601E42FE295EF70F0E031A14F70042EF6
:1047D00001C0880F0A94EAF7982F9095932391A32C
:1047E00092A1892B82A390968C9190E002C095951E
:1047F00087952A95E2F7817020A130E002C03595B7
:1048000027954A95E2F720FD09C090E008C087EFA0
:104810008093770186EF80937601B2CF92E0892B67
:104820008093450390911C0181E098279093410368
:10483000891B809340030895CF93E09145035E2F39
:10484000550F550F20917701E22FE295EF70F0E0C0
:1048500080A190E02F7002C0959587952A95E2F788
:104860008170992740917601E42FE295EF70F0E096
:1048700020A130E04F7002C0359527954A95E2F7A8
:10488000F901E170FF2720FF02C0E2E0F0E0E82B31
:10489000F92BE52BE0934503C0914103EF70F0E065
:1048A000E85EFD4F908180914403890F809344031B
:1048B00084306CF0EC2FF0E0EE5BFC4F80818F5F7A
:1048C000808360E08C2F0E94B92321E001C020E0AA
:1048D000809144038D3F64F4EC2FF0E0EE5BFC4FDD
:1048E00080818150808361E08C2F0E94B92321E078
:1048F00080914403082E000C990B64E070E00E9444
:10490000163280934403822FCF910895E0914103A2
:10491000F0E0EE5BFC4F2081FC0120830895FF92C4
:104920000F931F93CF93DF93D09140030D2F10E08F
:104930000E5B1C4FFC01C081F8018081C81BFC2E5E
:1049400080E01F145CF4FA94F80180818F5F80830B
:1049500060E08D2F0E94B92381E0F3CF9C2FC7FD2B
:1049600090E0C91BCC2359F0CF5FF80180818150C2
:10497000808361E08D2F0E94B92381E0F3CF8823EB
:1049800039F0DF91CF911F910F91FF900C940C1093
:10499000DF91CF911F910F91FF9008950895FC0131
:1049A000680F791F8FEF91E3E617F70771F02191F8
:1049B000822728E030E087FF03C0880F892701C0E5
:1049C000880F21503109B9F7EFCF08950F931F9346
:1049D000CF93DF93C42FD22FFC0182818823C9F0AB
:1049E000409348030E94A12A909347038093460373
:1049F00080E28C0F883008F057C0C77081E001C09A
:104A0000880FCA95EAF7DF91CF911F910F910C940F
:104A1000280680914803481330C080914603909146
:104A200047030E94B92A883C910538F510E21D0F12
:104A3000CD17B9F080E28C0F883040F4C77081E068
:104A400001C0880FCA95EAF70E942F06183028F592
:104A500081E09D2F977001C0880F9A95EAF70E9418
:104A60002806802F0E941F061830F0F4D77081E0CE
:104A700001C0880FDA95EAF70AC080E28C0F88300F
:104A800098F4C77081E001C0880FCA95EAF7DF91FA
:104A9000CF911F910F910C942F06802FDF91CF9112
:104AA0001F910F910C941F06DF91CF911F910F91D1
:104AB00008950F939C01CB01243F4CE5340731F15D
:104AC00088F4293DFCE53F07D9F02A3D4CE5340741
:104AD00079F1283D3C45A9F506E221EE41EE68ED6D
:104AE0007CE52BC0263FFCE53F07E1F0A8F0273F1F
:104AF0003C4539F507E225EE46EE67EF7CE51DC043
:104B000007E225EE45EE69ED7CE517C006E221EEF1
:104B100040EE64EF7CE511C007E225EE44EE65EF60
:104B20007CE50BC006E221EE42EE66EF7CE505C0B7
:104B300008E221E045EE6AED7CE50E94E62480E093
:104B400008C0FC018281882319F01092480301C03B
:104B500081E00F910895CF93DF93EC01FB018281F7
:104B6000882309F426C1C430FDE5DF0760F4CB3F9C
:104B70009CE5D90768F49E0122503C45243131055B
:104B800008F018C105C0C236EDE5DE0709F012C114
:104B90000E945D0F9093600380935F03C031FCE53A
:104BA000DF0709F4CAC008F041C0C8309CE5D90746
:104BB00009F4A4C0F0F4C430FCE5DF0709F48CC0AC
:104BC00068F4C2309CE5D90709F482C0C330DC45E3
:104BD00009F0E5C080915F038260DFC0C630FCE56C
:104BE000DF0709F483C008F085C080915F03886007
:104BF000D4C0CC309CE5D90709F490C068F4CA3021
:104C0000FCE5DF0709F47EC008F084C00E94A0081C
:104C100080915F038068C1C0CE309CE5D90709F45C
:104C200081C008F086C080915F0394C0CD3FFCE551
:104C3000DF0709F47BC038F5C4319CE5D90709F4D6
:104C40009AC058F4C231FCE5DF0709F47AC008F0D5
:104C50007EC080915F038F7BA0C0CB3F9CE5D907CE
:104C6000F1F108F03FC0C531DC4509F098C08091F2
:104C70005F0382FB222720F991E0922790FB82F9C3
:104C800090FB83F98AC0C1308DE5D80709F467C06D
:104C900050F480916003CF3FECE5DE07C1F108F0EE
:104CA0005BC08D7F65C0C3308DE5D80709F471C046
:104CB00008F46DC0C236DD4509F071C080915F0314
:104CC00084FB222720F991E0922790FB84F965C0AC
:104CD00080915F03816061C080915F0316C0809105
:104CE000600316C080916003826042C080915F03C0
:104CF000806153C080915F0380624FC080915F03E9
:104D000080644BC080915F038860846046C082608D
:104D100081602EC080915F038E7F3FC080915F03D2
:104D20008D7F3BC080915F03877F37C08091600398
:104D300014C080915F038F7E30C080915F038F7DB0
:104D40002CC00E94A00880915F038F7726C08091BD
:104D50005F03877F8B7F21C08D7F8E7F09C080910D
:104D60006003982F909591708E7F892B90FB81F92D
:104D70008093600314C00E94A00880915F0387FBAA
:104D8000222720F991E0922790FB87F906C081E065
:104D900001C080E00E94F40F02C080935F03809105
:104DA0005F03909160030E946E0F0E94A00880E054
:104DB00001C081E0DF91CF910895CF93DF938631D9
:104DC0009C4541F5EB010E94860E982F8A81209127
:104DD0000A0130910B01882379F09A7A81E009F475
:104DE00080E080934903911102C069E201C065E34C
:104DF000C9010E94BF290AC080914903811102C0E4
:104E000069E201C065E3C9010E94C1290E94D80E70
:104E100080E001C081E0DF91CF9108958EE1489B51
:104E200002C08150E1F7489BFECF0895589880E278
:104E30008A95F1F7589A0895FC012AE02A95F1F72E
:104E400028E090E080E031E040E14A95F1F7880FFA
:104E5000489B02C08160932700C0000040E14A9552
:104E6000F1F7215089F720E12A95F1F729B100C027
:104E7000000030E13A95F1F7217092272081920FDE
:104E800090830895EF92FF920F931F93CF93DF9338
:104E90001F92CDB7DEB719828C017C01E60EF11CA2
:104EA0000E151F0551F00E940E27CE0101960E949B
:104EB0001C27F80181938F01F3CF81E09981911133
:104EC00080E00F90DF91CF911F910F91FF90EF90B5
:104ED0000895509A589A08955098589AE89AE9E691
:104EE000F0E080818C7F80830895615091E001C063
:104EF000990F6A95EAF720E031E0992361F0492F94
:104F0000482319F0589A232701C0589840E24A953F
:104F1000F1F79695F2CF222311F0589A01C05898D4
:104F200080E28A95F1F758980895FF920F931F93A6
:104F3000CF93DF93EC018C01060F111DC017D10731
:104F400041F0F9900E94162768E08F2D0E94752786
:104F5000F5CFDF91CF911F910F91FF9008951F9290
:104F60000F920FB60F921124EF92FF920F931F939F
:104F70002F933F934F935F936F937F938F939F9361
:104F8000AF93BF93EF93FF93CF93DF931F92CDB770
:104F9000DEB719820E940E27CE0101960E941C27BF
:104FA000A82FA695A695A6959A2F969595702A2F27
:104FB0002570920F292F237096959695920F8770E2
:104FC00089137CC08981811179C0A83008F076C02E
:104FD00080E18A95F1F7589A509AB2E0BA95F1F7C4
:104FE00000C05898EA2EF12CEAE0AE9FD0011124BF
:104FF000A35EBE4F1896ED91FC9119973097B1F0D2
:105000006091EB017091EC0116962D913C911797F0
:10501000260F371F13968D919C911497680F791F57
:1050200015964C91159712968C9109958AE08E9D54
:10503000F0018F9DF00D1124E35EFE4F6581662324
:1050400051F08091EB019091EC0126813781820F24
:10505000931F0E9495270E941627F0E1FA95F1F719
:1050600058985098589A80E18A95F1F78AE08E9D79
:1050700080018F9D100D1124035E1E4FD8011296E2
:105080006C911297662399F08091EB019091EC015D
:1050900013962D913C911497820F931F0E944227E3
:1050A000D801ED91FC91811105C082E004C0D801C6
:1050B000ED91FC9188E080830E940E270F90DF9194
:1050C000CF91FF91EF91BF91AF919F918F917F9180
:1050D0006F915F914F913F912F911F910F91FF9091
:1050E000EF900F900FBE0F901F9018950F931F9386
:1050F000CF93DF93883091050CF0A9C02AE0289F58
:10510000F001299FF00D1124E35EFE4F20813181D3
:10511000232B09F49CC0EC01F894509A589885E030
:105120008A95F1F700008C2F869585709C2F9570DD
:10513000890F982F9370869586958E0123E0000F36
:10514000111F2A95E1F7890F082B0E941627A4E06A
:10515000AA95F1F700C068E0802F0E947527B0E1A2
:10516000BA95F1F75098589A489902C000C0FCCF00
:1051700087E090E0489B17C0019799F4509A589A9D
:105180008AE08C9FF0018D9FF00D1124E35EFE4FAD
:105190000190F081E02D81E08083789481E090E0BF
:1051A00058C000C0E7CF8AE08C9F80018D9F100D12
:1051B0001124035E1E4FF80165816623B9F08091CA
:1051C000EB019091EC0126813781820F931F0E94A1
:1051D000422781110BC0509A589AD801ED91FC9149
:1051E00082E08083789482E090E033C00E940E27B2
:1051F000B0E2BA95F1F75898509AE0E1EA95F1F7E4
:105200008AE08C9FF0018D9FF00D1124E35EFE4F2C
:105210006281662351F08091EB019091EC01238132
:105220003481820F931F0E9495270E9416278AE0DF
:105230008C9FF0018D9FF00D1124E35EFE4F0190D5
:10524000F081E02D1082789480E090E002C084E04C
:1052500090E0DF91CF911F910F91089590935003AB
:1052600080934F0308950E949715811103C0809188
:105270004A030895E0914F03F0915003309721F0D5
:105280000190F081E02D099480E00895E0914F03B2
:10529000F0915003309721F00280F381E02D0994C2
:1052A000089520914D0330914E032817390771F06E
:1052B00090934E0380934D03E0914F03F091500380
:1052C000309721F00680F781E02D09940895209110
:1052D0004B0330914C032817390771F090934C031E
:1052E00080934B03E0914F03F0915003309721F0EE
:1052F0000084F185E02D09940895FC01329697E031
:1053000080E0915029F021912223D9F38F5FF9CFCA
:105310000895662349F0FC013296089621916217A0
:1053200029F0E817F907D1F780E0089581E00895A2
:105330009C01FC0132969FEF80E04191461789F075
:105340009F3F19F4411101C0982F8F5F8630A9F754
:105350009F3F39F0F901E90FF11D97FDFA9562833E
:10536000089508959C012A5F3F4FFC014281461336
:1053700001C01282019682179307B9F708950C9421
:1053800098290C94B229029626E0FC0111922A95E4
:10539000E9F708951092A2031092A3031092A403B8
:1053A0001092A5030895CF92DF92EF92FF926B01C6
:1053B0007C010E94971581110EC00E94AD2AC61A69
:1053C000D70AE80AF90AC092A203D092A303E09296
:1053D000A403F092A503FF90EF90DF90CF90089583
:1053E0000F931F930E949715882321F01F910F910F
:1053F0000C94AD2A0E94AD2A0091A2031091A30340
:105400002091A4033091A503600F711F821F931F89
:105410001F910F9108950E94971581110C94A12A54
:105420000E94F029CB010895089508950C94152A3F
:105430000C94152ACF930E94182A0E94A3140E944C
:10544000162AC0E08C2F0E942A13811104C0CF5F5E
:10545000CA30C1F701C081E0CF9108950C94152A9C
:105460000C942E2A8091AE03843061F10E94302A80
:1054700080E00E94122380E00E94350510925103C3
:1054800020E488E190E00FB6F894A895809360003E
:105490000FBE2093600083B7817F846083BF83B792
:1054A000816083BF7894889583B78E7F83BF0FB662
:1054B000F894A895809160008861809360001092B4
:1054C00060000FBE08950C94152A0E94A0080E9447
:1054D00001220E9433290E9435050C94632A1F92F1
:1054E0000F920FB60F9211248F939F93AF93BF9398
:1054F00080915103811113C08091A6039091A7035D
:10550000A091A803B091A9034196A11DB11D80935C
:10551000A6039093A703A093A803B093A903BF91F8
:10552000AF919F918F910F900FBE0F901F90189584
:1055300082E084BD93E095BD9AEF97BD80936E00A5
:1055400008952FB7F8948091A6039091A703A09196
:10555000A803B091A9032FBF08952FB7F8946091C5
:10556000A6037091A7038091A8039091A9032FBF70
:1055700008959C014FB7F8948091A6039091A703DA
:10558000A091A803B091A9034FBF821B930B08956C
:10559000CF92DF92EF92FF922FB7F894C090A603BC
:1055A000D090A703E090A803F090A9032FBFA70114
:1055B0009601261B370B480B590BCA01B901FF9006
:1055C000EF90DF90CF90089578941F920F920FB6CE
:1055D0000F9211248F939F93AF93BF938091A60353
:1055E0009091A703A091A803B091A9030196A11DD2
:1055F000B11D8093A6039093A703A093A803B09333
:10560000A903BF91AF919F918F910F900FBE0F9003
:105610001F90189581E08093E00080E28093D8008D
:105620001092C9008FE19EE40197F1F700C00000DD
:1056300087E090EBDC018093BB039093BC03A093C5
:10564000BD03B093BE039CE088E10FB6F894A89523
:10565000809360000FBE90936000FFCF909329026B
:1056600080932802089580915D0308959091AE0380
:10567000943031F580935203709354036093530335
:1056800082E08093E9008FEF9091E800815095FDD2
:1056900006C095ED9A95F1F700008111F5CF809144
:1056A000E80085FF0DC040E050E063E070E082E577
:1056B00093E00E94282D8091E8008E778093E80087
:1056C0000895BC0184E00C94362BBC0183E00C945B
:1056D000362BCF93DF9321E02093E9002FEF309119
:1056E000E800215035FD06C035ED3A95F1F7000090
:1056F0002111F5CF2091E80025FF14C0EC0140E016
:1057000050E068E070E00E94282D8091E8008E77DC
:105710008093E80088E0FE01A5E5B3E001900D92DA
:105720008A95E1F7DF91CF91089508958091AD03B7
:10573000811109C00E94B92E0E94162F8091E200AB
:1057400084608093E20008951092AD030895089557
:105750000895089542E061EC81E00E94322E42E219
:1057600061EC82E00C94322E8091B003833009F416
:1057700060C030F4813071F0823009F499C008952E
:105780008A3009F485C08B3009F46BC0893009F088
:10579000A7C020C08091AF03813A09F0A1C08091D9
:1057A000E800877F8093E8008091B3039091B40371
:1057B000892B21F468E085E593E003C060E080E098
:1057C00090E070E00E94732D8091E8008B778093C9
:1057D000E80008958091AF03813209F081C0809183
:1057E000B3039091B403029708F07AC08091E80067
:1057F000877F8093E8008091E80082FD05C080915A
:10580000AE038111F8CF6CC02091F3008091F200BB
:1058100090E0922B029729F48091F1008B7F8130E8
:1058200021F48091F10080935D038091E8008B77F3
:1058300053C08091AF03813A09F052C08091B30305
:105840009091B403892B09F04BC08091E800877FC9
:105850008093E8008091E80080FFFCCF8091820176
:1058600036C08091AF038132D9F58091B303909116
:10587000B403892BA9F58091E800877F8093E80025
:105880000E94672E8091B103809382010C94A0083E
:105890008091AF03813221F58091E800877F80936A
:1058A000E8000E94672E8091B20380935E03089502
:1058B0008091AF03813AA1F48091E800877F8093C3
:1058C000E8008091E80080FFFCCF80915E03809328
:1058D000F1008091E8008E778093E8000C94672EA9
:1058E000089584B7877F84BF0FB6F894A8958091F8
:1058F0006000886180936000109260000FBE90E0AD
:1059000080E80FB6F89480936100909361000FBE19
:105910000C9433100E94B92E0E94162FE2EEF0E094
:1059200080818460808378940E94AB310E94411012
:1059300088E791E00C942E298091AE038530A9F47C
:105940008091AE03853079F40E94322A8091AC03B5
:105950008823B1F30E941A2A882391F30E94122D02
:105960000E94A008EDCF0E94652A0C9451100C945F
:10597000B92C292F332723303105C9F060F42130A9
:10598000310581F02230310509F044C08BE390E00D
:1059900028E335E043C021323105E1F02232310500
:1059A00049F138C082E190E023E735E037C099271C
:1059B0008130910549F028F0029761F5EAE0F5E0C1
:1059C00005C0E4E3F5E002C0E4E2F5E0849190E094
:1059D0009F0124C06115710541F061307105D1F45A
:1059E00089E090E023E635E019C089E090E02AE400
:1059F00035E014C06115710541F06130710551F455
:105A000082E390E025E835E009C080E490E027EBF0
:105A100035E004C080E090E020E030E0FA0131831E
:105A20002083089580E189BD82E189BD09B400FE2B
:105A3000FDCF8091D8008F7D8093D8008091E000C9
:105A400082608093E0008091E00081FDFCCF0895AA
:105A5000CF92DF92EF92FF920F931F93CF93DF933A
:105A6000EC018B017A010E94862E811133C0E11472
:105A7000F10439F0F70180819181081B190BC80FDF
:105A8000D91FC12CD12C0115110519F18091E80005
:105A900085FD16C08091E8008E778093E800E114C0
:105AA000F10449F0F70180819181C80ED91ED1829D
:105AB000C08285E00FC00E94862E882321F30AC091
:105AC00089918093F10001501109FFEFCF1ADF0A8D
:105AD000DACF80E0DF91CF911F910F91FF90EF908F
